:100000000C948E060C94D5060C94D5060C94D5064B
:100010000C94D5060C94D5060C94D5060C94D506F4
:100020000C94D5060C94D5060C94092B0C94DD2B5E
:100030000C9464250C94D5060C94D5060C94D50626
:100040000C94D5060C94D5060C94D5060C94D506C4
:100050000C94D5060C94BB250C94D5060C94D506AF
:100060000C94D5060C9446080C94D5060C94D50631
:100070000C94D5060C94D5060C94D5060C94D50694
:100080000C94D5060C94D5060C94D5060C94D50684
:100090000C94D5060C94D5060C94D5060C94D50674
:1000A0000C94D5060C94D5060C94D5060A00253080
:1000B000313662003A200025303258000A722F6330
:1000C00020303132333435363738394142434445B4
:1000D000460A0035001E001F0020002100220023D8
:1000E00000045124002500260027002D002E002B9F
:1000F0000014001A000800150017004A004D001CEB
:100100000018000C001200130031002961040016D1
:1001100000070009000A004E00705D0B000D000E84
:10012000000F003300340002551D001B00060019AB
:100130000005004B006F5D110010003600370038DD
:1001400000125503550555E30090642C432B614C78
:10015000002A0028002C425000510052004F003568
:10016000001E001F00200021002200230004512453
:10017000002500260027002D002E002B0014001A59
:10018000000800150017004A004D001C0018000C64
:100190000012001300310029610400160007000955
:1001A000000A004E00705D0B000D000E000F0033C2
:1001B00000340002551D001B000600190005004B0D
:1001C000006F5D1100100036003700380012550A2C
:1001D000550C55055590642C432B684C002A00287B
:1001E000002C425000510052004F0044003A003BA6
:1001F000003C003D003E00440045003F00400041FF
:10020000004200430045000100570055002F023016
:10021000023102010001000100F900520001000159
:1002200000010039002002210226022702240201D7
:10023000000100FB00500051004F00FC00010001D4
:1002400000220223022F003000670001000100019C
:1002500000FA00010001000100010001000100019D
:100260000001000100295D01000100010001000101
:100270000001000100010044003A003B003C003D49
:10028000003E00440045003F004000410042004362
:100290000045000100F200F300ED00F900F100015B
:1002A00000010057005F0060006100560067000118
:1002B00000FB00EF00EE00F000FC00010001005523
:1002C000005C005D005E0054006700010001000159
:1002D000000100FA00010001000100620059005A0B
:1002E000005B0001000100010001000100010001AC
:1002F00000010001000100010001000100010001F6
:10030000000100005C1050115000000000000000CF
:1003100000000000000000000000000000000000DD
:1003200000175CFF0000000000000000000000005B
:10033000000000000000000000000000001A5CFE49
:1003400000000000000000000000000000000000AD
:10035000000000000000000000185CFD000000002C
:10036000000000000000000000000000000000008D
:10037000000000000000000000000000000000007D
:100380000000000000000000000000000000004429
:10039000454255473A2064697361626C65642E0A70
:1003A0000044454255473A20656E61626C65642E93
:1003B0000A0000000000000000002A2B28000000B6
:1003C0000000000000000000000000000029000004
:1003D00000002C1E3420212224342627252E362DE1
:1003E0003738271E1F202122232425263333362E7B
:1003F00037381F0405060708090A0B0C0D0E0F10ED
:100400001112131415161718191A1B1C1D2F313031
:10041000232D350405060708090A0B0C0D0E0F10D5
:100420001112131415161718191A1B1C1D2F313011
:10043000354C00000000000000000000000000003B
:1004400000000000000000000000000000000000AC
:100450000000000000007E0F00D4FFFFFFC7000077
:1004600000784F6E6573686F743A2074696D656FBC
:1004700075740A004F6E6573686F743A2061637417
:100480006976653A2025640A000A00253032580052
:100490006B6579626F6172645F7365745F6C6564CC
:1004A0003A2000290A002575002F002575005D28D7
:1004B0000025640020002564002000256400200041
:1004C0002564007C0025303258006D6F7573656BB4
:1004D0006579205B62746E7C782079207620685D77
:1004E000287265702F61636C293A205B006E6F2063
:1004F0006B6E6F627320736F7272790A00703A09C3
:100500007072696E742076616C7565730A643A095D
:100510007365742064656661756C74730A75703AEE
:10052000092B310A646E3A092D310A6C743A092B91
:1005300031300A72743A092D31300A4553432F7114
:100540003A09717569740A004D3E20004D25753ACF
:1005500025733E20003F0A003D2025750A003F0A12
:100560000064656661756C74730A0025750A003F46
:100570000A000A092D2056616C756573202D0A004A
:10058000710A000A092D204D6F7573656B6579201E
:100590002D0A003F00433E20004C25640A000A0952
:1005A0002D20537461747573202D0A686F73745F06
:1005B0006B6579626F6172645F6C65647328293A58
:1005C00020253032580A6B6579626F6172645F7002
:1005D000726F746F636F6C3A20253032580A6B6506
:1005E00079626F6172645F69646C653A20253032AC
:1005F000580A6B65796D61705F636F6E6669672E0F
:100600006E6B726F3A20253032580A74696D6572CC
:100610005F72656164333228293A202530386C587E
:100620000A000A092D2056657273696F6E202D0A23
:100630005649443A20307834443434284D61747437
:1006400069612044616C2042656E29205049443A1A
:1006500020307835323537285265646F785F776996
:1006600072656C65737329205645523A2030783094
:100670003030310A4255494C443A2020284A756EA0
:100680002031342032303232290A4F5054494F4EF3
:10069000533A204C554641204D4F5553454B4559F3
:1006A0002045585452414B455920434F4E534F4CCF
:1006B0004520434F4D4D414E44204E4B524F203428
:1006C0003039360A4743433A20382E342E30204101
:1006D00056522D4C4942433A20322E302E30204182
:1006E00056525F415243483A20617672350A000AF9
:1006F000092D20436F6E736F6C65202D0A4553439F
:100700002F713A09717569740A6D3A096D6F7573C5
:10071000656B65790A000A092D204D6167696320C0
:100720002D0A443A094465627567204D657373610B
:10073000676520546F67676C650A583A094D6174A4
:10074000726978204465627567204D6F6465205436
:100750006F67676C65202D2053686F77206B657914
:100760007072657373657320696E206D6174726950
:100770007820677269640A4B3A094B6579626F6148
:10078000726420446562756720546F67676C6520EA
:100790002D2053686F77206B6579707265737320B5
:1007A0007265706F72740A4D3A094465627567200C
:1007B0004D6F75736520546F67676C650A563A090B
:1007C00056657273696F6E0A533A09537461747592
:1007D000730A433A09416374697661746520436F13
:1007E0006E736F6C65204D6F64650A46312D46311E
:1007F000303A0953776974636820746F204C6179CB
:10080000657220302D392028463130203D204C3073
:10081000290A302D393A0953776974636820746F57
:10082000204C6179657220302D390A475241564576
:100830003A0953776974636820746F204C61796555
:100840007220302028616C7465726E617465290AAB
:10085000423A094A756D7020746F20426F6F746C54
:100860006F616465720A4553433A094A756D702099
:10087000746F20426F6F746C6F61646572202861C1
:100880006C7465726E617465290A453A0950726923
:100890006E7420454550524F4D2053657474696EF7
:1008A00067730A4253504143453A09436C6561728C
:1008B00020454550524F4D0A4E3A094E4B524F205B
:1008C000546F67676C650A006B65796D61705F6373
:1008D0006F6E6669672E7261773A20253032580A4A
:1008E0002E737761705F636F6E74726F6C5F63619C
:1008F00070736C6F636B3A2025750A2E6361707399
:100900006C6F636B5F746F5F636F6E74726F6C3A62
:100910002025750A2E737761705F6C63746C5F6C51
:100920006775693A2025750A2E737761705F726367
:10093000746C5F726775693A2025750A2E7377614A
:10094000705F6C616C745F6C6775693A2025750A1D
:100950002E737761705F72616C745F726775693A4C
:100960002025750A2E6E6F5F6775693A2025750A16
:100970002E737761705F67726176655F6573633A46
:100980002025750A2E737761705F6261636B736CEB
:100990006173685F6261636B73706163653A2025A0
:1009A000750A2E6E6B726F3A2025750A00646562B7
:1009B00075675F636F6E6669672E7261773A20258F
:1009C0003032580A2E656E61626C653A2025750AD0
:1009D0002E6D61747269783A2025750A2E6B6579DF
:1009E000626F6172643A2025750A2E6D6F757365AA
:1009F0003A2025750A006565636F6E6669673A0A75
:100A000064656661756C745F6C617965723A202506
:100A1000750A003F004E4B524F3A206F66660A003F
:100A20004E4B524F3A206F6E0A000A6D6F75736518
:100A30003A206F66660A000A6D6F7573653A206F1B
:100A40006E0A000A6B6579626F6172643A206F66A4
:100A5000660A000A6B6579626F6172643A206F6E94
:100A60000A000A6D61747269783A206F66660A003E
:100A70000A6D61747269783A206F6E0A000A6465C3
:100A80006275673A206F66660A000A646562756778
:100A90003A206F6E0A000A0A4A756D70696E672007
:100AA000746F20626F6F746C6F616465722E2E2E8E
:100AB0002000433E2000436C656172696E672045EB
:100AC0004550524F4D0A000A002530325820006B25
:100AD0006579626F6172645F7265706F72743A20DB
:100AE0000064656C5F6B65795F6269743A2063616D
:100AF0006E27742064656C3A20253032580A0061F4
:100B000064645F6B65795F6269743A2063616E2724
:100B100074206164643A20253032580A005B735DAA
:100B2000005B575D005B535D005B525D005B445DA5
:100B3000005B435D001E035200650064006F007897
:100B4000005F0077006900720065006C006500734B
:100B500000730000001E034D006100740074006902
:100B60000061002000440061006C0020004200652C
:100B7000006E0000000403090409025B0003010089
:100B8000A0FA09040000010301010009211101007C
:100B9000012240000705810308000A090401000141
:100BA0000300000009211101000122D40007058281
:100BB0000320000A090402000203000000092111B9
:100BC000010001222200070583032000010705031D
:100BD000032000011201000200000008444D57529A
:100BE0000100010200010631FF0974A10109751518
:100BF0000026FF009520750881020976150026FF62
:100C000000952075089102C005010902A101850225
:100C10000901A100050919012908150025019508F8
:100C2000750181020501093009311581257F950281
:100C30007508810609381581257F9501750881069B
:100C4000050C0A38021581257F950175088106C0BB
:100C5000C005010980A101850319012AB70015010A
:100C600026B700950175108100C0050C0901A1018E
:100C7000850419012AA002150126A002950175100C
:100C80008100C0050C0901A10185050903A1040526
:100C9000091901292015002501952075018102C03F
:100CA000C005010906A1018506050719E029E71518
:100CB0000025019508750181020507190029EF1526
:100CC00000250195F0750181020508190129059596
:100CD0000575019102950175039101C00501090691
:100CE000A101050719E029E71500250195087501FF
:100CF00081029501750881010507190029FF15007A
:100D000026FF00950675088100050819012905953B
:100D10000575019102950175039101C011241FBE53
:100D2000CFEFDAE0DEBFCDBF04B603FE27C080916F
:100D3000F9039091FA03A091FB03B091FC03873073
:100D4000904BA740B04BD1F41092F9031092FA03E4
:100D50001092FB031092FC0314BE84B7877F84BFFC
:100D60000FB6F894A8958091600088618093600028
:100D7000109260000FBEE0E0F8E3099511E0A0E0FA
:100D8000B1E0E2E4F2E602C005900D92A03BB107AB
:100D9000D9F723E0A0EBB1E001C01D92A93FB20753
:100DA000E1F70E9498190C94B8300C940000FF935E
:100DB000EF93E091B001F091B101309709F00995FE
:100DC000EF91FF910895FC018591803011F0EFDFE4
:100DD000FBCF0895FF27E0E230E247FF0CC04195CA
:100DE00097FF09C0EDE26095709580959095611D23
:100DF000711D811D911D27FF02C0219530E350E236
:100E0000AA27660F771F881F991FAA1FA41710F023
:100E1000A41B63955A95A9F7AA3008F0A95FA05DB5
:100E2000AF93F395611571058105910541F7ED3299
:100E300011F4EF93F395F21718F43F93F395FBCF6A
:100E40008F91B5DFFA95E1F70895E991F9918591D0
:100E5000803021F0853219F0AADFF9CF089520E023
:100E6000E89455915532C1F3503311F4689455917B
:100E70005A3348F4505390F3220F022E220F220FC0
:100E8000200D250FF4CF0EF42195899199915336B9
:100E900019F3533729F1533559F1BC0188279927A4
:100EA000E8945C3621F4899199916894559154366F
:100EB00039F446EF7EF077FF0DC08FEF9FEF0AC049
:100EC00055374AE039F0583540E121F0523642E0DA
:100ED00009F00895FF93EF937DDFEF91FF91B7CF76
:100EE000FF93EF93FC0181918030B9F360DFFBCF7A
:100EF000FF93EF9368DFF1CFDF93CF93CDB7DEB7EA
:100F00002596A3DFCF91DF910895089508950C945D
:100F100086070E943D090C943B08EF92FF921F93B5
:100F2000CF93DF93CDB7DEB72B970FB6F894DEBF24
:100F30000FBECDBF83E78093CE00CE0101967C012A
:100F40008BE0D7011D928A95E9F7D7019E01245FB6
:100F50003F4FC70140E050E0BA011091C80017FDB3
:100F60000AC04F5F5F4F6F4F7F4F4131E7E25E072F
:100F70006105710590F31091CE00FC011193CF0132
:100F8000E217F30751F78B85803EB1F422EB31E095
:100F9000B701665F7F4F11968C911197F0E88F9F94
:100FA000C00111244C91842BF901819391939F01ED
:100FB00012966A177B0779F70E94430981E02B9606
:100FC0000FB6F894DEBF0FBECDBFDF91CF911F915A
:100FD000FF90EF900895E82FF0E0EE0FFF1FEE5422
:100FE000FE4F808191810895CF92DF92EF92FF9220
:100FF0000F931F93CF93DF938CEB90E00E94E30657
:1010000082EBE82E81E0F82ED0E0C0E097EBC92E0D
:1010100090E0D92E0EEA10E0DF93CF93DF92CF92CB
:101020000E947C0784EB90E00E94E306F701819127
:1010300091917F010E940D0B9F938F931F930F93AC
:101040000E947C078CEA90E00E94E30621968DB70F
:101050009EB708960FB6F8949EBF0FBE8DBFC530E1
:10106000D105D1F6DF91CF911F910F91FF90EF90B5
:10107000DF90CF900895ECECF0E01082108288E1D0
:101080008093C90086E08093CA0008958F938FB73C
:101090008F939F93EF93FF93E091BD0181E08E0FBB
:1010A0009091BC01981741F09091CE00F0E0E2548D
:1010B000FE4F90838093BD01FF91EF919F918F919F
:1010C0008FBF8F911895519A599A80B3806380BBD6
:1010D00081B3806381BB08950E9485070C946308E7
:1010E000CF92DF92EF92FF926B017C010E94A80ADF
:1010F000813021F0843061F08D9A0BC08D9A59981F
:101100008C9AC701B601FF90EF90DF90CF900895C1
:101110008D98599AF5CF9C013A9521153F4150F58C
:10112000FC01EE27F170BC0166277270AC01442708
:1011300054709C012227387094FF0EC080E1EF2B81
:1011400009F480E0672B09F08062452B09F0806488
:10115000232B89F08068089581E0EF2B09F480E06B
:10116000672B09F08260452B09F08460232B19F06E
:101170008860089580E00895CF93DF93EC010E948A
:101180008B089E01205E31092830310510F0209730
:1011900039F40E941E0C8C2FDF91CF910C947D0BA3
:1011A0000E94A10EF8CFCF93DF93EC010E94D00BE9
:1011B000CE010E948B089E01205E31092830310546
:1011C00010F0CD2B21F4DF91CF910C94250CDF9101
:1011D000CF910C94A80E81E0089581E008950C94BD
:1011E000ED0808950C94F1081F93CF93DF9300D07E
:1011F00000D00F92CDB7DEB749835A836B8330910D
:10120000BE0289819A8131111DC06623B9F0222363
:10121000A9F00E947210182F682F89819A810E946C
:101220001E1069817A81812F0F900F900F900F907F
:101230000F90DF91CF911F910C945A170E944A1082
:10124000182FEFCF0E94721069817A81EDCFFC01D7
:10125000262F408151816281738184810C94F4082E
:1012600081E00895CF93DF93EC0160E00E942709AD
:10127000BE01DF91CF910C94F2080E9468190E9480
:10128000210B0C946C080E94321E0C94870780E09E
:101290000C94220B089508950E94C90E0E944B09D8
:1012A0002FEF84E39CE0215080409040E1F700C0A4
:1012B00000000C94DF250F931F93CF93DF938C01D5
:1012C00061E00E942709EC01B8010E94EF08882321
:1012D00009F444C0B801CE010E94941E8823F1F1A4
:1012E000B801CE010E9402238823C1F1B801CE01CA
:1012F0000E94EA1B882391F1B801CE010E94FE21D1
:10130000882361F1B801CE010E942822882331F19F
:10131000F8018281882361F0CF3DFCE5DF07B1F160
:1013200070F4C115ECE5DE07B9F0C130DC45E1F041
:10133000C801DF91CF911F910F910C94EB08CC3530
:101340008DE5D80749F1CD35DC0719F1CB35DD4501
:1013500079F70E948D15ECCF0E944C0980E0DF9157
:10136000CF911F910F91089590916803892F8E7FDF
:1013700090FF81608093680380FF05C081EA93E05D
:101380000E94E306EBCF8FE893E0FACF0E94381675
:10139000E5CF0E948415CCCF0E949015C9CF0C9444
:1013A0004A090E945E230E94220B0C94CF09DF920F
:1013B000EF92FF920F931F93CF93DF93E82FF0E00C
:1013C000EE54FC4FD490282F26952695269530E094
:1013D000F901EE5AFB4F0491877010E0082E02C00D
:1013E000159507950A94E2F701701127F901EE5B54
:1013F000FB4FE490F12C082E02C0F594E7940A9478
:10140000E2F791E0E922FF24F901EE5CFB4FC49181
:10141000D0E002C0D595C7958A95E2F7C170DD2767
:101420000115110519F081EE0E947D0BE114F10404
:1014300019F086EE0E947D0B8D2D0E94160CEF2870
:1014400019F086EE0E94D00B012B19F081EE0E945C
:10145000D00BCD2B51F08CE2DF91CF911F910F91EA
:10146000FF90EF90DF900C94160CDF91CF911F91BD
:101470000F91FF90EF90DF900895EF92FF920F93FE
:101480001F93CF93DF93EC01162F0AE08881882306
:1014900009F454C0813009F04EC08981813099F43B
:1014A0007E0122E0E20EF11C8A810E94160CE70107
:1014B0002196812F815050F3EFE9FFE03197F1F74A
:1014C00000C00000F7CF823041F47E0182E0E80ED8
:1014D000F11C8A810E947D0BEACF833041F47E01AA
:1014E000E2E0EE0EF11C8A810E94D00BE0CF843046
:1014F00011F02196DDCF2A81229690E080E0AE01A6
:101500004F5F5F4F2053330B2A30310548F001976E
:1015100078F2EFE9FFE03197F1F700C00000F7CF74
:10152000089FB001099F700D1124C901860F971FF4
:101530002981EA01E4CF0E94D709BACFDF91CF9188
:101540001F910F91FF90EF90089560E00C943D0A79
:10155000CF92DF92EF92FF926C01EE24FF2420E005
:10156000C114D104E104F10419F0C701B60120E16E
:10157000C72ED82EE92EFF24C114D104E104F104B2
:1015800019F0285FC701B6016B017C0154E0F694A5
:10159000E794D794C7945A95D1F7C114D104E104C4
:1015A000F10419F02C5FC701B6016B017C0142E028
:1015B000F694E794D794C7944A95D1F7C114D1040F
:1015C000E104F10419F02E5FC701B60196958795E5
:1015D00077956795672B682B692B09F02F5F822F12
:1015E000FF90EF90DF90CF900895829590E09C015E
:1015F000220F331F220F331F2C7C959587959595CD
:1016000087958373282B30E0C901880F991F8A7A48
:10161000359527952575822B0895CF93DF93D92F84
:101620000E94F50AC82F8D2F0E94F50A9C2FDF918A
:10163000CF91089508950C941A0B81E008950C94AD
:101640001D0B0895CF93C82F0E941B0B8C2FCF9199
:101650000C941F0BCF93DF93CDB7DEB72B970FB64C
:10166000F894DEBF0FBECDBF4F83588769877A8756
:101670008B8761110E9492141E821D8285E0FE01FB
:101680003796DE01119601900D928A95E1F78091CF
:10169000E70382FD0CC00E945514882319F082E0F4
:1016A0000E9440150E943C1481110E94C3148C8139
:1016B0009D81892B89F449815A816B817C818D813F
:1016C0009E810E948E132B960FB6F894DEBF0FBE3C
:1016D000CDBFDF91CF91089589819A8189238F3F72
:1016E00051F3CE0101960E9430098111E4CFEBCF76
:1016F000FC01808191810C94B410CF93C82F882372
:1017000009F44CC08CEF8C0F813AC8F48C2F0E94E6
:10171000AA21811143C06C2F809102019091030195
:101720000E943924882329F08C2F0E942F140E94B4
:10173000D1148C2F0E942814CF910C94D11480E2E4
:101740008C0F883048F4C77081E001C0880FCA95BB
:10175000EAF70E947514F0CFEBE5EC0FE33040F4AC
:10176000F0E0ED59FE4F808190E0CF910C94D323AF
:10177000E8E5EC0FE73150F4F0E0EE0FFF1FEB5C13
:10178000FE4F80819181CF910C94E923CD3E30F0C2
:101790008C2F0E941C1ACF910C94C71ACF910895D8
:1017A000882361F19CEF980F913A20F40E942F1446
:1017B0000C94D11490E2980F983050F4877091E017
:1017C00001C0990F8A95EAF7892F0E947B14F0CF08
:1017D0009BE5980F933020F490E080E00C94D323A5
:1017E00098E5980F973120F490E080E00C94E9237D
:1017F0008D3E20F00E94711A0C94C71A08951F9311
:10180000CF93DF93182FEB010E947D0B209731F4CB
:10181000812FDF91CF911F910C94D00B8FE99FE026
:101820000197F1F700C000002197F0CF70E060E071
:10183000893311F460E570E00C94FF0B882321F0EC
:101840000E9475140C94D1140895882321F00E94ED
:101850007B140C94D1140895BF92CF92DF92EF9233
:10186000FF920F931F93CF93DF936C01D62FC72F57
:10187000FC011281F580F2949FE0F9220E946B1422
:10188000E82E8823B9F0E12E1123A1F08C2F807F60
:10189000803421F080E28D0F8830B0F08091E70332
:1018A00082FD12C082E00E9440150E946B1491E0FC
:1018B000E82EE926BC2EB2948FE0B822EB2DF0E0A2
:1018C000E654FF4C0C949A2DE12CF4CF0C2F0F70A2
:1018D000C07F11F00295007F112399F0002359F089
:1018E00080E28D0F883010F0D11107C0802F0E9448
:1018F00075140E94D1148D2F41C0802F0E94851431
:10190000F8CF8D2F0E94D00B002309F43FC080E256
:101910008D0F883010F0D11104C0802F0E947B14ED
:1019200003C0802F0E948B140E94D1142FC00C2F53
:101930000F70C07FC03211F00295007FDD2381F06F
:10194000D13009F469C0112309F473C0FF2009F4F0
:1019500069C0F601858180FFCECF8F70858362C01C
:101960008091E70382FF38C0112359F0002329F04A
:10197000802F0E9475140E94D11480E00E947D0B7C
:1019800005C080E00E94D00B0111C7CFEB2DE850BD
:10199000FF0B349720F40E945E230E94220BEE205E
:1019A00009F482C10E94511480FD7EC1F6011282A9
:1019B0000E944B140E94820FC6010E94750E0E9465
:1019C0004B14DF91CF911F910F91FF90EF90DF901B
:1019D000CF90BF900C94A30F112389F0F11006C093
:1019E0000E94A514802B0E941E0CD0CFF1E0FF12A4
:1019F000F7CF0E94A514802B0E94AB14C7CFF11023
:101A000006C00E94C314802F0E94250CBFCF21E086
:101A1000F21609F4BBCFF5CF112331F035E03F15B5
:101A200008F4B4CF802FDFCF84E08F1508F4AECF59
:101A3000EACFFF2041F3D93349F4FFEF27EE33E03B
:101A4000F15020403040E1F700C000008D2F0E948F
:101A5000D00B9CCF8C2F86958695837069F0813052
:101A600009F094CF8D2F9C2F9370111102C090E03C
:101A700080E00E94E9238ACF8D2F9C2F9370111153
:101A800002C090E080E00E94D32380CF8D2F1123ED
:101A900029F00E941C1A0E94C71A78CF0E94711A5E
:101AA000FACF8C2F837009F041C011116FCF4D2FE9
:101AB000429546954770440F440F0D2F0F7010E06C
:101AC00030E020E0042E04C0000F111F221F331F3E
:101AD0000A94D2F760E070E0CB01D4FF0FC06FE052
:101AE00070E080E090E004C0660F771F881F991FA8
:101AF0004A95D2F76095709580959095C695C69554
:101B0000C370602B712B822B932BC23049F058F499
:101B1000C13019F00E94360F39CF0E94240F36CF02
:101B20000E94480F33CF0E94220F30CF8695112399
:101B300011F08C2F8170882309F428CF4D2F429506
:101B400046954770440F440F0D2F0F7010E030E0A2
:101B500020E0042E04C0000F111F221F331F0A941F
:101B6000D2F760E070E0CB01D4FF0FC06FE070E00F
:101B700080E090E004C0660F771F881F991F4A9588
:101B8000D2F76095709580959095C695C695C3706F
:101B9000602B712B822B932BC23049F058F4C1304B
:101BA00019F00E94F90FF2CE0E94E70FEFCE0E94CB
:101BB0000B10ECCE0E945C0FE9CECF70112329F000
:101BC0008C2F0E94820F8D2F0ECF8D2F0E94250CFF
:101BD0008C2F0E94A30FDACED23F51F160F4D03F98
:101BE000B9F0D13F81F0112309F449C0F11083CE3F
:101BF0008C2F8F7121C0D33F11F1D43FA1F7809179
:101C0000E70382FF26C08C2F8F71112311F314C0BC
:101C1000112349F084E08F1508F4B8CE8C2F8F7112
:101C20000E94C60FB3CE95E09F1508F4AFCEF6CF55
:101C30008C2F8F711111CDCF0E94820FA7CE11234F
:101C400029F08C2F8F710E946D0FA0CE0E94680F1B
:101C50009DCE112349F0CF718C2F0E94820F63E03B
:101C60008C2F0E941B1592CE81E00E944015E1E06E
:101C7000EF1508F08BCE82E00E94401587CEF11060
:101C8000DACE8C2F8F71A5CF4C2F4F706D2FC601E0
:101C90000E9456170E94E21079CE4C2F4F706D2F84
:101CA000C6010E94591772CEDF91CF911F910F91FB
:101CB000FF90EF90DF90CF90BF9008950F931F9308
:101CC000CF93DF93EC01688179818A810E94BE10F5
:101CD0008C010E941D100E94210FB801CE01DF91DE
:101CE000CF911F910F910C942C0CCF93DF93EC01AB
:101CF0008B819C81892B29F08881998189238F3F51
:101D000059F4DF91CF910895CE010E945E0ECE016D
:101D1000DF91CF910C943209CE010E945B098111B1
:101D2000F3CF0E946B14882361F38A81882349F3DF
:101D30008091E70382FDE5CF82E0DF91CF910C94A3
:101D40004015882321F00E9485140C94D114089525
:101D5000882321F00E948B140C94D114089590E0F4
:101D600080E00E94D32390E080E00E94E9230E945B
:101D700092140E94A2140E94D1140E94DE1B0E94A1
:101D8000C71A0E943A220C9443220E9436140C94E3
:101D9000AF0E0E9482140C94C50EE92FE295EF70ED
:101DA000E250EE3070F4F0E0E653FF4C0C949A2DC4
:101DB000803F19F020F4883E20F481E00895843FAC
:101DC000E1F380E00895883EC0F3813FD1F7F5CF7D
:101DD00093FB882780F90895FC01808191810E94FE
:101DE000B4100C94CD0ECF93DF9300D000D00F929F
:101DF000CDB7DEB70F900F900F900F900F90DF913F
:101E0000CF910895CF93DF9300D000D000D0CDB70D
:101E1000DEB726960FB6F894DEBF0FBECDBFDF91BA
:101E2000CF91089508950C94120F0E94130F6093A0
:101E3000F0027093F1028093F2029093F3020C94FB
:101E4000AF0E08950C94150F0F931F930091F0029D
:101E50001091F1022091F2023091F302602B712B6C
:101E6000822B932B1F910F910C94150F0F931F939F
:101E70000091F0021091F1022091F2023091F302F0
:101E800060237123822393231F910F910C94150FCC
:101E90000F931F930091F0021091F1022091F20232
:101EA0003091F30260277127822793271F910F91AA
:101EB0000C94150F0C9470080E945A0F6093EC025A
:101EC0007093ED028093EE029093EF020C94AF0EAC
:101ED00060E070E0CB010C945C0F0F931F9341E026
:101EE00050E060E070E08A019B0104C0000F111F08
:101EF000221F331F8A95D2F7C901B8011F910F9194
:101F00000C945C0F0F931F9341E050E060E070E091
:101F100004C0440F551F661F771F8A95D2F7809122
:101F2000EC029091ED02A091EE02B091EF028A01D5
:101F30009B01082B192B2A2B3B2BC901B8011F91A0
:101F40000F910C945C0F0F931F9341E050E060E001
:101F500070E004C0440F551F661F771F8A95D2F7A3
:101F6000CB01BA0160957095809590950091EC0237
:101F70001091ED022091EE023091EF026023712367
:101F8000822393231F910F910C945C0F0F931F9347
:101F900041E050E060E070E004C0440F551F661F50
:101FA000771F8A95D2F78091EC029091ED02A09173
:101FB000EE02B091EF028A019B01082719272A2718
:101FC0003B27C901B8011F910F910C945C0F0F932F
:101FD0001F930091EC021091ED022091EE023091DE
:101FE000EF02602B712B822B932B1F910F910C947E
:101FF0005C0F0F931F930091EC021091ED02209162
:10200000EE023091EF0260237123822393231F910C
:102010000F910C945C0F0F931F930091EC021091A1
:10202000ED022091EE023091EF02602771278227A6
:1020300093271F910F910C945C0F08952EE0929FAF
:10204000800D1124982F977041E001C0440F9A959C
:10205000EAF786958695869595E0899FF00111248B
:10206000E154FD4F90E080E070E05191DF01119765
:102070009B01082E02C0369527950A94E2F721703D
:1020800021952527242325272C930196853091051A
:1020900061F708952EE0929F800D1124982F97707C
:1020A00086958695869525E0829FF0011124E1545E
:1020B000FD4F50E040E080E0219130E0092E02C069
:1020C000369527950A94E2F721703327042E01C034
:1020D000220F0A94EAF7822B4F5F5F4F453051057C
:1020E00059F70895BF92CF92DF92EF92FF920F932C
:1020F0001F93CF93DF938C01C090EC02D090ED0240
:10210000E090EE02F090EF028091F0029091F102E7
:10211000A091F202B091F302C82AD92AEA2AFB2A36
:10212000CFE1D0E0BC2ED701C6010C2E04C0B6957D
:10213000A795979587950A94D2F780FD0EC02197B1
:1021400088F7B12C8B2DDF91CF911F910F91FF90CC
:10215000EF90DF90CF90BF900895B8018C2F0E9430
:102160008918019761F3EECFCF93DF93EC010E94C2
:102170007210BE01DF91CF910C9489181F93CF93F9
:10218000DF93EB019091BE02992331F0CB01DF91F7
:10219000CF911F910C94B410882379F0CB010E9449
:1021A0007210182F682FCE010E941E10BE01812FC1
:1021B000DF91CF911F910C948918CB010E944A1096
:1021C000182FF4CFEF92FF920F931F93CF93DF93CB
:1021D0008C01892B81F0F12CEE24E394E801219607
:1021E000F8018491843770F4843008F05FC0813046
:1021F000B1F08230A1F1DF91CF911F910F91FF904B
:10220000EF900895853709F44CC008F43DC09CE771
:10221000980F903780F78F770E94D00B49C00E5FE0
:102220001F4FFE01849190E2980F983060F4877000
:10223000FE2D01C0FF0F8A95EAF78F2F0E9495149B
:102240000E94D11402C00E947D0B8F2D815030F26C
:10225000EFE9FFE03197F1F700C00000F7CF0E5F24
:102260001F4FFE01849190E2980F983050F48770D0
:10227000FE2D01C0FF0F8A95EAF78F2F0E949B1455
:10228000DFCF0E94D00BE1CF0E5F1F4FFE01C49144
:10229000C150D8F28FE99FE00197F1F700C000002C
:1022A000F7CF0E5F1F4FFE01F490CFCF0E947D0B42
:1022B0008E01CBCF1F93CF93DF93C091F40216E032
:1022C0008091F5028C1304C0DF91CF911F91089586
:1022D000D0E01C9FF0011D9FF00D1124EA50FD4F2E
:1022E0004081518162817381848195810E94020FB6
:1022F0002196C770E5CF4091260350912703609146
:1023000028037091290380912A0390912B030C9448
:10231000020FFF920F931F93CF93DF9380912B03B4
:10232000807FD1F4809128038823B1F08091F4025A
:102330001091F5026091260370912703A091290363
:10234000B0912A03062F0723C0910001D09101010B
:1023500096E0F92E181306C0DF91CF911F910F91CF
:10236000FF90089590E0109711F00F3F19F4019637
:102370008770F0CFF89E9001F99E300D1124F9017D
:10238000EA50FD4F41814713F2CF40814613EFCF12
:1023900042814111ECCF438154814A1B5B0B4C17A6
:1023A0005D0728F780912B038F70806180932B034A
:1023B000F901E550FD4F80818F708061808386E256
:1023C00093E00E94750EDF91CF911F910F91FF90C6
:1023D0000C945A11AF92BF92CF92DF92EF92FF927C
:1023E0000F931F93CF93DF93CDB7DEB761970FB6EF
:1023F000F894DEBF0FBECDBF8C0185E0F801DE0191
:102400001D9601900D928A95E1F7F801E28086E22F
:10241000C82E83E0D82E6091290370912A0361159C
:10242000710509F45FC19091260320912703892F3C
:1024300082238F3F09F456C140815181A380B4802B
:10244000F0902803F501E61BF70BBF01E0910001B6
:10245000F0910101FF2009F4F6C080912B03382F81
:10246000307F6E177F0708F0AFC0311179C0FE2CA6
:10247000251323C0941321C0E1101FC08F70806109
:1024800080932B030E947B11C6010E94750E8091E0
:102490002B03F80185838F2D61960FB6F894DEBF6C
:1024A0000FBECDBFDF91CF911F910F91FF90EF90A5
:1024B000DF90CF90BF90AF900895AB2829F0842F84
:1024C00085238F3F09F027C180E0F82FF170DF2EC0
:1024D00080FF3CC08091F4022091F50236E0821327
:1024E00015C04D875E878D859E850E94B410292F6B
:1024F00022952F702230F0F0243018F59F70F1F003
:10250000F8019581907FD1F4D12C1EC090E0389FC6
:10251000F001399FF00D1124EA50FD4F61816513E0
:1025200006C06081641303C062816E110FC0019602
:102530008770D5CF9F7011F0882331F3805E88308B
:1025400018F3C8010E94750EFD2CA5CFEE2009F4EA
:10255000A2CF80912B03816080932B03F12C9BCF22
:10256000251306C0941304C0F801EE2009F487C0B7
:10257000C8010E94EC0E882319F1EE2009F1809128
:102580002B03803270F02091260330912703388787
:102590002F831986BB86AA868C87CE0107960E9458
:1025A000750E86E0F801A6E2B3E001900D928A95DF
:1025B000E1F70E9489110E947B11FF24F3946BCFF5
:1025C000C8010E94750EF9CF311113C07A2DB98A56
:1025D000A88A6E2D89890E94F30E86E293E00E94FC
:1025E000750E86E0F60111928A95E9F70E947B113B
:1025F000B5CF25130FC094130DC0E1100BC0F80127
:102600008583C8010E94750E86E0F60111928A95B5
:10261000E9F741CFC8010E94EC0E882389F2EE2031
:1026200079F280912B03803208F4BBCF20912603EE
:10263000309127033A8329831B82BD82AC828E832B
:10264000CE010196ACCF6E177F0708F03EC0FE2C7E
:10265000EE2009F4B5CF25132AC0941328C0809129
:102660002B0380FD1BC0982F907FC1F0F80185835C
:10267000903F31F0982F907F905F8F70892B8583EA
:10268000C8010E94750E86E0F801A6E2B3E0019051
:102690000D928A95E1F70E947B11FDCE86E0F8014C
:1026A000A6E2B3E001900D928A95E1F7F4CEC8015D
:1026B0000E94EC0E811175CF80912B038160809375
:1026C0002B03C8010E94750EE6CE7A2DB98AA88A1E
:1026D0006E2D89890E94F30E86E0F60111928A958B
:1026E000E9F7D9CFEE2009F46BCFC8010E94EC0EB8
:1026F000F82E882309F464CF86E0F801A6E2B3E05F
:1027000001900D928A95E1F786E293E00E94780BA2
:102710000E948911C0CF81E08E25D7CE1F93CF9321
:10272000DF93CDB7DEB72C970FB6F894DEBF0FBEA0
:10273000CDBF4F83588769877A878B879C87CE0167
:1027400007960E94EA11882369F08A859B85892B68
:1027500039F04F815885842F85238F3F09F071C050
:1027600016E05FC086E0FE013796DE01119601900B
:102770000D928A95E1F78A859B85892B89F38F8154
:10278000988589238F3F61F32091F50230E0C901DC
:102790000196877099274091F4024817190671F441
:1027A0000E94C90E1092F5021092F40286E0E6E251
:1027B000F3E0DF011D928A95E9F7D2CF96E0929F70
:1027C000D001939FB00D1124AA50BD4FFE01319648
:1027D00001900D929A95E1F78093F5020E945A11AB
:1027E000BFCF819FC00111248A509D4F0E94EA11E2
:1027F0008823E9F0E091F4021E9FF0011124EA50D1
:10280000FD4F4081518162817381848195810E9455
:10281000020F8091F40290E00196877099278093CF
:10282000F4028091F4029091F5028913DACF2C968C
:102830000FB6F894DEBF0FBECDBFDF91CF911F91D1
:10284000089569857A858B859C850E94020F88CFC3
:10285000682F80910201909103010C94DB24682F72
:1028600080910201909103010C94E6248091020171
:10287000909103010C94F1240E94942520912F0340
:1028800030913003821B930B9C0181E0243F314047
:1028900008F480E0089580912E03859585958595AF
:1028A000089580912E03877008950E9494252091A9
:1028B0002C0330912D03821B930B843F914048F0F1
:1028C00080912E0382FB882780F991E0892781700F
:1028D000089580E0FCCF90912E03977081E009F479
:1028E00080E0089580915403089590915403892BBA
:1028F0008093540308958095909154039823909366
:102900005403089510925403089590915303892B12
:102910008093530308958095909153039823909347
:102920005303089510925303089590915203892BF5
:102930008093520308958095909152039823909329
:10294000520308951092520308958091310308951F
:1029500008950C94A814CF93C82F8091E70382FDAB
:1029600010C0809131038C1761F00E9494259093E0
:10297000300380932F03C09331038C2FCF910C949D
:10298000A914CF91089580913103882349F01092C2
:1029900031031092300310922F0380E00C94A9149D
:1029A0000895E0910201F091030180915403808326
:1029B000E0910201F0910301808190915303892BF2
:1029C0008083E0910201F091030180819091520394
:1029D000892B808380913103882321F10E943C144C
:1029E000882371F08091680380FF08C082E694E03C
:1029F0009F938F930E947C070F900F900E94C314A7
:102A0000E0910201F0910301808190913103892BC3
:102A1000808380910201909103010E9425248111FD
:102A20000E94C31480910201909103010C946A23C7
:102A300008950C9418159091E70392FD16C098E044
:102A4000899F90011124622B60932E030E94820FB4
:102A50000E94942590932D0380932C0380912E0344
:102A60008595859585950C9419150C94820F109277
:102A70002E0310922D0310922C0380E00C94191554
:102A800090912E038095892380932E03282F277001
:102A900091F4282F082E000C330B9217130659F0CF
:102AA0009091E70392FD07C08595859585950E94D5
:102AB000A30F0C9437150895CF93C82F8091E70387
:102AC00082FB992790F99C17E9F0C0FB82F980936B
:102AD000E7038091E6039091E7030E94B41582E03A
:102AE0000E9440158091680380FF0CC01F92CF9315
:102AF00084E794E09F938F930E947C070F900F9040
:102B00000F900F90CF9108958091E70382FB882763
:102B100080F991E089270C945C1581E00C945C1598
:102B200080E00C945C1590E080E00E94473021E04A
:102B3000893E9E4F09F020E0822F089582E090E0C8
:102B40000C943F3083E090E00C943F30CF9384E0CE
:102B500090E00E943F30C82F82E290E00E943F3018
:102B6000982F8C2FCF910895CF93C92F682F84E091
:102B700090E00E944D306C2F82E290E0CF910C9457
:102B80004D30AB01BC018FE090E00C945F30AB01A5
:102B9000BC0183E190E00C945F3060E070E0CB0119
:102BA0000C94C71560E070E0CB010E94C1150C9435
:102BB000CD1569EE7EEF90E080E00E946B3060E022
:102BC00082E090E00E944D3060E083E090E00E945F
:102BD0004D301092F0021092F1021092F202109217
:102BE000F30260E084E090E00E944D3060E082E219
:102BF00090E00E944D3060E085E090E00E944D3012
:102C000060E086E090E00E944D306FEF87E090E05A
:102C10000E944D3040E050E0BA0188E090E00E9410
:102C20005F3060E08DE090E00E944D3040E050E089
:102C3000BA0188E190E00E945F3060E087E190E0B7
:102C40000E944D3040E050E0BA018CE190E00E94DB
:102C50005F3070E060E080E290E00E946B3040E026
:102C600050E0BA0188E190E00E945F300C94D215E8
:102C70000C94D915682F8EE090E00C944D300E9492
:102C8000A02560936403709365038093660390931B
:102C90006703609360037093610380936203909372
:102CA0006303089585B7806885BF85B7806885BF51
:102CB0000895089508950C94591608950C945D167E
:102CC0000E94521685EE97E20E9454230E945A16E3
:102CD0000C945B1681E008950C946A16089508958B
:102CE0000E946E160C946F160E948B250E94890715
:102CF0000C945E16CF93C82F8091680382FF1EC08C
:102D000080FF1CC080E994E00E94E3068091680384
:102D100080FF14C01F92CF938BE894E09F938F9312
:102D20000E947C07809168030F900F900F900F9086
:102D300080FF04C089E894E00E94E3068C2FCF91C5
:102D40000C94220B8F929F92AF92BF92CF92DF9200
:102D5000EF92FF920F931F93CF93DF93CDB7DEB720
:102D60002A970FB6F894DEBF0FBECDBF0E948D0725
:102D700081110E943F1656E5852E53E0952E10E0F6
:102D800000E0A02E802F0E94EB076C01F401E1907F
:102D9000F1904F01E816F90609F45EC080916803CE
:102DA00081FD0E94F407C7018C259D25B12CEE24DE
:102DB000E394F12C9C012E213F21232B09F446C0E2
:102DC0000E946C168823A9F0BE82AF82CE20DF203D
:102DD00081E0CD2809F480E088870E9494258160F5
:102DE000782F9A8789874E815F8168858A850E94BE
:102DF0002A0B000F111FF801EA5AFC4F80819181C4
:102E0000E826F926F182E0820E94641B0E94432298
:102E10000E945E23909155038917A9F10E945E23B9
:102E2000809355032A960FB6F894DEBF0FBECDBF30
:102E3000DF91CF911F910F91FF90EF90DF90CF9096
:102E4000BF90AF909F908F900C947A16B394EE0C35
:102E5000FF1CFEE0BF12AECF0F5F1F4F0530110504
:102E600009F08FCF8FEF89838A831B820E9494257C
:102E70008160782F9D838C8349815A816B818D81FC
:102E80000E942A0BC1CF2A960FB6F894DEBF0FBE60
:102E9000CDBFDF91CF911F910F91FF90EF90DF9009
:102EA000CF90BF90AF909F908F90089590E080E07A
:102EB00008950895972F70E02EE0929F600D711D88
:102EC0001124FB0196E4899FE00DF11D1124EE0F02
:102ED000FF1FED52FF4F859194910895FC01EE0F75
:102EE000FF1FED55FB4F859194910895CF93DF938C
:102EF0000E948D18EC01811520E5920708F042C070
:102F0000811530E4930708F0BDC0883E910528F58F
:102F1000803E910508F09DC0883A910588F4853A75
:102F2000910508F08FC08130910509F492C0009797
:102F300009F48FC0049708F08CC0D0E0C0E089C0CD
:102F40008F3B910508F489C0805C9109C03CD10594
:102F5000A0F30E946E17EC017CC08115904250F4E2
:102F6000C11581E0D80708F074C0CD3ED10528F323
:102F7000D0656FC0C11590E3D90708F079C0CE01C4
:102F80009F70E7CF811525E5920758F5811534E547
:102F9000930708F0A6C0811542E5940750F4C115C7
:102FA00081E5D80708F471C0DC2FCC27C16FD06A47
:102FB00050C0982F969596959E0123703327C11582
:102FC000D34508F07FC0C1E0D0E002C0CC0FDD1FC8
:102FD0002A95E2F720E2929FC0011124C82BD92B39
:102FE0006FC0C11589E5D807A8F4C11598E5D907C0
:102FF00008F07CC0C11526E5D20708F09ECF8C2FC3
:103000000E942419C82FD0E0DC2FCC27CC27DF71F9
:10301000D0621FC0C1153AE5D30708F46CC0CE01D9
:1030200090568115904208F088CF8D2F8F710E94A5
:10303000241990E0982F882788279F719C012C2BBA
:10304000E901E6CFC55AD0E0CC56DE4FC881D0E0CA
:10305000D064CE01DF91CF910895C85AD0E0CC0F53
:10306000DD1FCA59DE4F0990D881C02DD464F1CF3D
:10307000CE019927D3FF03C0EC01D86CEACFEC0155
:10308000D06CE7CFDF70D06AE4CFCE01E4E0969554
:103090008795EA95E1F783702C2F26952695237066
:1030A00090E2299F90011124382B8C2F8370C1E06E
:1030B000D0E002C0CC0FDD1F8A95E2F7C22BD32BE4
:1030C000DC68C7CFC1E0D0E002C0CC0FDD1F2A957D
:1030D000E2F730E2939FC0011124C82BD92BDA68A4
:1030E000B8CFD82FCC27C46FD06AB3CFDC2FCC2772
:1030F000C06FD06AAECF8C2F8F700E94241934E03D
:10310000D695C7953A95E1F7CF709C2FEC01D06921
:10311000A0CF0E945A170C94761782389105B1F10E
:10312000B0F48133910509F475C048F489329105F2
:1031300009F469C08A32910509F473C00895853392
:10314000910509F459C08933910501F10895833E31
:103150009105A9F138F4803E9105F9F0823E910580
:1031600049F10895863E9105A9F1873E9105C9F17F
:10317000843E910519F52091E70321FF1FC080913E
:10318000E60384FD14C087EE90E008952091E603E5
:103190002370A1F080EE90E008952091E60320FDD9
:1031A00047C03091E70330FF09C024FF44C090E0DE
:1031B00080E004C02091E60322FDF7CF089520911E
:1031C000E60322FD3BC03091E70330FDE3CF24FF4F
:1031D000F5CFEDCF2091E60323FFF0CF24FDE7CF1D
:1031E000D2CF2091E60323FD2CC03091E70331FFBD
:1031F000EECF84EE90E008952091E60325FFDECF28
:1032000089E290E008952091E60325FFD7CF85E37A
:1032100090E008952091E60326FFD0CF8AE290E067
:1032200008952091E60326FFC9CF81E390E0089539
:1032300089E390E0089583EE90E0089582EE90E0B7
:10324000089586EE90E008959091E60392FF06C0FF
:10325000282F28712830F9F4877F846093FF06C0F7
:10326000282F28712831F1F4877E84612091E703AB
:1032700020FF06C0382F38713830D9F4877F81603D
:1032800021FF06C0282F28712831D1F4877E816163
:1032900094FD877E0895282F24712430F9F68B7FC2
:1032A0008860DCCF282F2471243101F78B7E886160
:1032B000DDCF382F3171313019F78E7F8860E0CF44
:1032C000282F2171213121F78E7E8861E1CF089569
:1032D0000E949315811102C00E9438160E949E150B
:1032E000809368030E94A6159093E7038093E603FA
:1032F0000E9467190E94A215682F70E090E080E09C
:103300000E94220F6091EC027091ED028091EE021A
:103310009091EF020C945A0F0E9460280E9474163C
:103320000C946C280E9470280E94A2160C948E287F
:103330000E941D250E9447280E9460160E948C1939
:103340000E9492190E947016FBCF8091240190E098
:10335000880F991FFC01E45EFE4F2081845F9E4F21
:10336000FC01808190917103191614F4209371036C
:103370009091710397FF04C0922F919590937103E0
:1033800090917203191614F42093720390917203B2
:1033900097FF03C02195209372039091740319162F
:1033A00014F4809374039091740397FF04C0982FD2
:1033B00091959093740390917303191614F480936C
:1033C00073039091730397FF03C0819580937303F8
:1033D000309171033323A1F020917203222381F0F5
:1033E00045EB3403C00111249923F1F0909371034C
:1033F00045EB2403900111243323D1F03093720361
:1034000040917403442379F030917303332359F0CE
:1034100025EB4203A0011124509374033203900161
:10342000112430937303089581E080937103E0CFFA
:1034300081E080937203E4CF40912401242F30E097
:10344000220F331FF901E45EFE4F90818D3E21F47F
:1034500091959093720308958E3ED9F38F3E21F497
:103460009195909371030895803FD9F3245F3E4F67
:10347000F9019081893F19F49093730308958A3F6D
:1034800011F49195F9CF8B3F21F4919590937403AA
:1034900008958C3FD9F39FE0980F983070F4815FC6
:1034A000990B21E030E001C0220F8A95EAF7809164
:1034B0007003822B8093700308958D3F49F481E05F
:1034C0008093240180912401481751F00C94A51990
:1034D0008E3F11F482E0F4CF8F3F11F483E0F0CF00
:1034E00008958D3E39F48091720387FF29C01092B0
:1034F000720308958E3E29F4809172031816BCF36E
:1035000008958F3E39F48091710387FF19C010929E
:1035100071030895803F29F4809171031816BCF35C
:103520000895893F39F48091730318164CF4109272
:10353000730308958A3F29F48091730387FDF7CFC1
:1035400008958B3F39F48091740387FFF9CF10926F
:10355000740308958C3F29F4809174031816BCF30A
:1035600008959FE0980F983058F7815F990B21E0FC
:1035700030E0A90102C0440F551F8A95E2F7CA0145
:10358000809590917003892380937003D9CF8091A7
:10359000680383FF7EC08AEC94E00E94E30680917A
:1035A00070031F928F9385EC94E09F938F930E94FA
:1035B0007C0783EC94E00E94E30680917103282F3E
:1035C000082E000C330B3F938F9380EC94E09F9375
:1035D0008F930E947C078EEB94E00E94E30680911B
:1035E0007203282F082E000C330B3F938F938BEB25
:1035F00094E09F938F930E947C0789EB94E00E9454
:10360000E30680917303282F082E000C330B3F93A1
:103610008F9386EB94E09F938F930E947C0784EBBB
:1036200094E00E94E30680917403282F082E000C7A
:10363000330B3F938F9381EB94E09F938F930E9482
:103640007C078EEA94E00E94E30680916D031F924E
:103650008F938BEA94E09F938F930E947C0789EA73
:1036600094E00E94E30680916E031F928F9386EA96
:1036700094E09F938F930E947C0783EA94E00E94DA
:10368000E3068DB79EB74C960FB6F8949EBF0FBE5B
:103690008DBF0E9494259C019091710380917203CB
:1036A000982B21F030936C0320936B03909173035C
:1036B00080917403982B21F030936A03209369035F
:1036C0008FE693E00C94C523EF92FF920F931F9324
:1036D000CF93DF9300D000D000D0CDB7DEB786E027
:1036E000EFE6F3E0DE01119601900D928A95E1F785
:1036F000E0907103F09072030091730310917403D2
:10370000109271031092720310927303109274035B
:103710008E2D8F29B1F080916B0390916C030E94E4
:10372000AC25E0912401F0E0EE0FFF1FEC5EFE4FB0
:10373000208131812817390720F4E0927103F0923B
:103740007203802F812BB1F08091690390916A03FD
:103750000E94AC25E0912401F0E0EE0FFF1FEC5F2A
:10376000FE4F208131812817390720F4009373031D
:10377000109374038091710390917203892B90913F
:103780007303892B90917403892B11F00E94C71A3F
:1037900086E0FE013196AFE6B3E001900D928A9586
:1037A000E1F726960FB6F894DEBF0FBECDBFDF91CE
:1037B000CF911F910F91FF90EF90089586E0EFE673
:1037C000F3E0DF011D928A95E9F710926D031092E4
:1037D0006E030895CF93DF93EC01FB018281882370
:1037E00009F420C1C430FDE5DF07C8F5CB3F9CE5F7
:1037F000D90730F49E0122503C452431310598F51B
:103800000E94A6159093E7038093E603C031FCE580
:10381000DF0709F4E0C008F061C0C8309CE5D907B3
:1038200009F4CBC088F5C430FCE5DF0709F4B3C068
:10383000E8F4C2309CE5D90709F4A7C08091E603FB
:103840008260C330DC4509F4A3C08091E603909107
:10385000E7030E94B4150E94C90E80E004C0C2367E
:10386000EDE5DE0769F2DF91CF9108958091E603DF
:103870008061C630FCE5DF0709F48AC008F48FC018
:103880008091E603806284C08091E6038D7FCC3016
:103890009CE5D90709F47CC070F48091E6038C6044
:1038A000CA30FCE5DF0709F473C008F48AC08091D0
:1038B000E6038E7F6DC08091E603877FCE309CE566
:1038C000D90709F465C08091E6038B7FCF30DC45D2
:1038D00008F45EC08091E6038F7E5AC0CD3FFCE5C0
:1038E000DF0709F474C040F5C4319CE5D90709F439
:1038F0008AC058F4C231FCE5DF0709F474C008F44B
:103900006EC08091E603837F43C0CB3F9CE5D9071F
:1039100009F449C008F04DC0C531DC4509F095CF28
:103920008091E60382FB992790F921E0922790FB92
:1039300082F990FB83F92CC0C1308DE5D80709F4DA
:1039400058C088F48091E7038360CF3FECE5DE0741
:1039500069F18091E7038D7FC115DD4538F18091D4
:10396000E7038C7F23C0C3308DE5D80709F458C026
:1039700008F452C0C236DD4509F067CF9091E603E6
:10398000892F8F7E94FF806103C08091E603816060
:103990008093E6035ACF8091E6038460F9CF80914B
:1039A000E6038860F5CF8091E70381608093E703A9
:1039B0004CCF8091E7038260F9CF8091E603806469
:1039C000E7CF0E94C90E8091E6038068E1CF809125
:1039D000E7038E7FEBCF8091E6038F7DD9CF809177
:1039E000E6038F7BD5CF0E94C90E8091E6038F77C7
:1039F000CFCF8091E703982F909591708E7F892B80
:103A000090FB81F9D3CF0E94C90E9091E603892FD4
:103A100097FB87F98058BCCF81E00E943A1615CFFA
:103A200080E0FBCF81E01FCF80912501877F8093CD
:103A3000250182E00E948B148091250184FF06C03D
:103A40008F7E8093250182E00E947514809125016C
:103A500085FF06C08F7D8093250180E20E9475144A
:103A60000C94D11480E008958B32910591F040F4CC
:103A70009C01245031092432310558F00C94321D38
:103A80008D329105D8F38933910518F0843691056C
:103A9000A9F781E00895CF93DF93EC01662319F035
:103AA00082E00E948514CE019056811520E2920793
:103AB00020F0905E8115904108F4DD27CE01DF9162
:103AC000CF910C94BC089C013056211540E234077C
:103AD00020F0305E2115304108F499270C94D3086A
:103AE000FC0123E0F695E7952A95E1F7EE71FF27B3
:103AF000EB58FC4F20813181AC014F70552781E09C
:103B000090E002C0880F991F4A95E2F7662329F0DA
:103B1000822B932B918380830895809590958223A7
:103B20009323F8CFFC0123E0F695E7952A95E1F77A
:103B3000EE71FF27EB58FC4F8F70992721E030E0A2
:103B400002C0220F331F8A95E2F7808191812823DA
:103B5000392381E0232B09F480E00895EF92FF924E
:103B60000F931F93CF93DF93EC017B018A01809128
:103B7000250182FF5DC020919B0330919C032C178F
:103B80003D0719F0209709F053C0909125019B7FC4
:103B90009093250161E091FD10C080919D0390916B
:103BA0009E03A701481B590B61E08091260190916B
:103BB00027014817590708F460E0617080912501DA
:103BC00060FB81F980932501C9010E94701D0E944C
:103BD000721481FF08C080912501806180932501C6
:103BE00082E00E947B140E94721485FF08C08091BD
:103BF000250180628093250180E20E947B14609100
:103C0000250166956170A80180919B0390919C03AA
:103C10000E944B1D6091250166956170A8018091FD
:103C20009B0390919C030E94631D0E94141D0FC072
:103C3000CE010E94921DA801682FCE010E94631D33
:103C400080919B0390919C03C817D90771F3F09260
:103C50009E03E0929D03DF91CF911F910F91FF9002
:103C6000EF9008958091250182FF19C00E9494254C
:103C700020919D0330919E03AC01421B530B209178
:103C80002601309127014217530748F045E953E0D8
:103C9000BC0180919B0390919C030C94AE1D0895F0
:103CA00090912501892F8E7F90FF8160809325015F
:103CB0000C94141D809125018E7F809325010C9416
:103CC000141D0F931F93CF93DF93CDB7DEB72897C3
:103CD0000FB6F894DEBF0FBECDBF809127018F9342
:103CE000809126018F9387E991E09F938F931F9294
:103CF00088E08F938E010F5F1F4F1F930F930E94D9
:103D0000A02DC8010E94A50A0FB6F894DEBF0FBE11
:103D1000CDBF28960FB6F894DEBF0FBECDBFDF91A2
:103D2000CF911F910F910895CF92DF92EF92FF9262
:103D30001F93CF93DF93EC017B010E9494256C01CC
:103D4000F7018281882309F458C08091250182FF00
:103D500007C045E953E0B60190E080E00E94AE1D47
:103D6000C931FCE5DF0709F445C028F5C7318CE50A
:103D7000D807B1F180912601909127010597C831AC
:103D8000ECE5DE0791F1CE0190568115E0E29E0749
:103D900020F0905E81159041F0F510929C031092F6
:103DA0009B0311E0812FDF91CF911F91FF90EF9046
:103DB000DF90CF900895CB31FCE5DF0759F038F064
:103DC000CC318CE5D807F9F60E945A1EDCCF0E9450
:103DD000501ED9CF80912501816080932501D3CFDA
:103DE0008091260190912701059690932701809359
:103DF0002601C9CF0E94611EC6CF809125018F7E0A
:103E0000C13ED10531F0C53ED105A1F58091250116
:103E10008F7D809325018091250180FFC2CFB7015E
:103E2000CE010E94341DF7011281882309F46BC072
:103E3000112309F462C00E947214182F0E94A51465
:103E4000812B8D7F69F110929C0310929B0360E09F
:103E5000CE010E94701DA70160E0CE010E944B1DA3
:103E60000E94A5148D7F0E94AB1482E00E94401531
:103E700010E098CFCE019056811520E2920720F0F5
:103E8000905E8115904138F68091250182FF89CF9F
:103E900045E953E0B60190E080E00E94AE1D81CF7D
:103EA00086E0F701A5E9B3E001900D928A95E1F76C
:103EB0001092970310929903109298030E94721423
:103EC000182F0E94A514812B9091250181FB91F957
:103ED000909325010E94A5148D7F0E94AB14D0936E
:103EE0009C03C0939B03D0929E03C0929D0380913C
:103EF0002501846080932501B8CFA701B601CE01CA
:103F00000E94AE1D4FCF111148CF4BCFCF93C82F7A
:103F10001F928F9389E995E09F938F930E947C076E
:103F200061E070E080E090E004C0660F771F881FBA
:103F3000991FCA95D2F70E94220F0F900F900F90F1
:103F40000F90CF910C94C90E883208F044C08E3186
:103F500008F076C08B3009F447C030F4873009F49C
:103F600083C08EE595E082C0833109F45CC0843162
:103F7000C1F780E895E00E94E3068091A3038823BF
:103F800009F4A0C01092A3031092A2031092A103FF
:103F90001092A00310929F032091A303222309F4FF
:103FA0008CC080919F039091A003009711F48CE93D
:103FB00091E09F938F931F922F938CE495E09F93B2
:103FC0008F930E947C070F900F900F900F900F908F
:103FD0000F9081E008958F3409F44BC0D0F48932FA
:103FE00041F2883309F0BDCF83E895E00E94E306F3
:103FF0008DEE94E09F938F930E947C078DEF94E069
:104000009F938F930E947C070F900F900F900F90BB
:10401000C3CF813509F441C008F441C0823509F0AD
:10402000A0CF81E027C082E795E00E94E3068DEEF5
:1040300094E09F938F930E947C070F900F90ACCFDA
:104040001092A3038FE695E00E94E3068091A303FC
:10405000882309F4A1CF1F928F938BE695E09F935D
:104060008F930E947C07D0CF81E695E00E94E30603
:1040700093CF8AE0E091A103F091A2033097D1F0B1
:104080002081082E000C990B820F911D8F3F910506
:1040900041F03CF08FEF808307C08FEFEBCF86EFCE
:1040A000E9CF97FFF8CF108280811F928F9388E528
:1040B00095E0D5CF85E595E0D9CF88E495E00E94DD
:1040C000E30687CF80E00895DF92EF92FF920F938F
:1040D0001F93CF93DF93EBEFE80FEF3308F030C17E
:1040E000F0E0E852FF4C0C949A2D0E94A2151F920A
:1040F0008F9386EF99E09F938F930E947C070E9495
:104100009E1583FB992790F91F929F9382FB992715
:1041100090F91F929F9381FB992790F91F929F938B
:10412000982F91701F929F931F928F938DEA99E021
:104130009F938F930E947C070E94A61587FB2227DE
:1041400020F91F922F9386FB222720F91F922F938D
:1041500085FB222720F91F922F9384FB222720F929
:104160001F922F9383FB222720F91F922F9382FB0C
:10417000222720F91F922F9391FB222720F91F92CB
:104180002F93292F21701F922F9381FB222720F933
:104190001F922F93282F21701F922F939F938F93FD
:1041A00088EC98E09F938F930E947C078DB79EB711
:1041B00088960FB6F8949EBF0FBE8DBF81E01CC0DD
:1041C00086EB9AE00E94E3060E943816F7CF86E15C
:1041D00097E00E94E306F2CF80916803807F80938E
:1041E00068038FEE96E00E94E30682EB9AE00E945D
:1041F000E30681E08093A403DF91CF911F910F919B
:10420000FF90EF90DF90089586E99AE00E94E30620
:104210000E944C09D3CF90916803892F8E7F90FF25
:1042200081608093680380FF03C08AE89AE0D1CF61
:104230008DE79AE00E94E30680916803817F809376
:104240006803BCCF90916803892F8D7F91FF8260B6
:104250008093680381FF08C080E79AE00E94E3062C
:10426000809168038160EBCF82E69AE0B2CF9091B3
:104270006803892F8B7F92FF84608093680382FF9D
:1042800003C083E59AE0EACF83E49AE0A2CF90915D
:104290006803892F877F93FF88608093680383FF7B
:1042A00003C087E39AE0DACF8AE29AE092CF82E213
:1042B00096E08FCF0E94A025062FF72EE82ED92E4C
:1042C000C091E603C7FBCC27C0F91091E503D0915C
:1042D00034010E945E23DF92EF92FF920F931F92B0
:1042E000CF931F921F931F92DF931F928F938EE99C
:1042F00095E09F938F930E947C078DB79EB70E9693
:104300000FB6F8949EBF0FBE8DBF58CF0E94C90E46
:104310009091E603892F97FB87F980588093E603F5
:1043200087FF03C080E29AE054CF85E19AE051CF45
:1043300080E00E94861F42CF8953FBCF8D51F9CF79
:1043400083E19AE00E94E30680E056CF80E0089582
:104350000C94A621CF93C82F8091A4038130C1F083
:10436000882339F0823009F444C01092A40380E01D
:104370000DC00E9472148232D1F78C2F0E94A621A8
:1043800081111BC08C2F0E9464208170CF910895F1
:104390000E947214823289F38C2F0E94A82181110D
:1043A0001BC0C431D9F060F4CB3071F0C031D1F012
:1043B00083E995E00E94E30613C081E090E0E5CF39
:1043C000C93261F0C833A1F78FEE96E00E94E30690
:1043D00085E995E00E94E30681E0D7CF1092A4031F
:1043E00080E0D3CF82E08093A40388E30E94A41FDF
:1043F000F3CF8C2F0E94A41F81E0C8CFCF93DF930F
:10440000EB0186319C4511F50E9472149A81992323
:1044100099F08A7A91E009F490E09093A5038111D4
:1044200009C089E20E9428140E94D11480E0DF9123
:10443000CF91089585E3F6CF8091A503811104C043
:1044400089E20E942F14F0CF85E3FBCF81E0EFCF0C
:104450009C0126563D452032310538F48556FB0136
:104460009281992321F00E944D2281E008950E94BB
:104470007022FBCF1092A6031092A7031092A803FC
:104480001092A90308956091A6037091A7038091EB
:10449000A8039091A9030C94FF23482F4150550B7A
:1044A00081E090E0A0E0B0E004C0880F991FAA1F4F
:1044B000BB1F4A95D2F74091A6035091A703609184
:1044C000A8037091A903842B952BA62BB72B80935F
:1044D000A6039093A703A093A803B093A9030895FC
:1044E0008150990B41E050E060E070E004C0440F5F
:1044F000551F661F771F8A95D2F740955095609596
:1045000070958091A6039091A703A091A803B09104
:10451000A90384239523A623B7238093A60390930E
:10452000A703A093A803B093A90308950F931F9323
:10453000CF93DF93C42FD22FFC0182818823C9F04F
:104540004093AC030E9494259093AB038093AA03FD
:1045500080E28C0F883008F050C0C77081E001C045
:10456000880FCA95EAF7DF91CF911F910F910C94B4
:104570001E0C1091AC03141335C08091AA039091C6
:10458000AB030E94AC25883C910560F5C0E2CD0FDD
:104590001D17B9F080E2810F883040F4177081E078
:1045A00001C0880F1A95EAF70E94250CC83048F41C
:1045B00081E09D2F977001C0880F9A95EAF70E94BD
:1045C0001E0C802F0E94160CC830B8F4D77081E002
:1045D00001C0880FDA95EAF7DF91CF911F910F9113
:1045E0000C94250C80E28C0F883038F4C77081E081
:1045F00001C0880FCA95EAF7EFCFDF91CF911F91E5
:104600000F9108950F939C01CB01243F4CE5340793
:1046100059F1A8F4293DFCE53F0701F12A3D4CE59D
:104620003407D1F1283D3C4591F406E221EE41EEFC
:1046300068ED7CE50E94962280E00F910895263F68
:10464000FCE53F07E9F0B0F0273F3C45F9F0FC01FD
:104650008281882339F11092AC03EFCF07E225EE77
:1046600045EE69ED7CE5E6CF06E221EE40EE64EF33
:104670007CE5E0CF07E225EE44EE65EF7CE5DACF9E
:1046800006E221EE42EE66EF7CE5D4CF07E225EEAE
:1046900046EE67EF7CE5CECF08E221E045EE6AED1D
:1046A0007CE5C8CF81E0C9CF9093B1018093B00180
:1046B00008959093B6038093B5030895E091B503F0
:1046C000F091B603309721F00190F081E02D09942C
:1046D00080E00895EF92FF920F931F93CF93DF93A3
:1046E000EC01E091B503F091B603309709F446C0B0
:1046F00080913401882341F08091E60387FF04C054
:104700008881898386E088830280F381E02DCE0151
:1047100009958091680382FF31C080FF04C08FEC4F
:104720009AE00E94E30610E000E089ECE82E8AE0BF
:10473000F82E8091680380FF0EC0FE01E00FF11F8C
:1047400080811F928F93FF92EF920E947C070F90BF
:104750000F900F900F900F5F1F4F0830110549F712
:104760008091680380FF0AC087EC9AE0DF91CF91C7
:104770001F910F91FF90EF900C94E306DF91CF9182
:104780001F910F91FF90EF900895E091B503F09184
:10479000B603309739F022E0DC012C930480F581D8
:1047A000E02D099408952091B3033091B4032817A4
:1047B000390771F09093B4038093B303E091B5038C
:1047C000F091B603309721F00680F781E02D09942F
:1047D00008952091B1033091B2032817390771F081
:1047E0009093B2038093B103E091B503F091B603C7
:1047F000309721F00084F185E02D099408950F93FE
:104800001F930091AD031091AE032091AF0330913F
:10481000B0030617170728073907A1F06093AD0307
:104820007093AE038093AF039093B003E091B50310
:10483000F091B603309731F00284F385E02D1F919B
:104840000F9109941F910F910895FC013296809168
:104850003401882321F08091E6039EE187FF96E0F2
:1048600080E0915008F4089521912223D1F38F5FC5
:10487000F8CF662301F1209134012223F1F0209139
:10488000E60327FF1AC0462F4695469546954E31BA
:1048900090F4677021E030E002C0220F331F6A9568
:1048A000E2F7840F911DFC01828190E028233923D7
:1048B00081E0232B69F480E00895FC01329608968C
:1048C0002191261721F0E817F907D1F7F4CF81E0FD
:1048D00008959C01FC0132969FEF80E041914617BC
:1048E00051F09F3F19F4411101C0982F8F5F86301E
:1048F000A9F79F3F09F40895290F311D97FD3A95B7
:10490000F90162830895FC013296089621912613DD
:1049100003C0DF0111971C92E817F907B9F7089552
:10492000E62FE695E695E695EE3170F4E80FF92F5F
:10493000F11D677021E030E001C0220F6A95EAF7AF
:104940008281822B828308958091680380FF0CC04E
:104950001F926F938FEF9AE09F938F930E947C0733
:104960000F900F900F900F900895E62FE695E69523
:10497000E695EE3178F4E80FF92FF11D677021E02C
:1049800030E001C0220F6A95EAF720958281282342
:10499000228308958091680380FF0CC01F926F935B
:1049A00081EE9AE09F938F930E947C070F900F9067
:1049B0000F900F90089520913401222329F0209127
:1049C000E60327FD0C9490240C9469242091340173
:1049D000222329F02091E60327FD0C94B5240C94A2
:1049E0008324FC01329680913401882351F0809118
:1049F000E60387FF06C08EE1DF011D928A95E9F785
:104A0000089586E0F9CF08950C940325811105C01F
:104A100081E08093B7030C94042582E0FACF83E011
:104A20008093B7030C9404250C94062581E08093B1
:104A3000B7030C9404250C94162508958091F00377
:104A4000843031F10E9447091092B80388E190E068
:104A500020E40FB6F894A895809360000FBE2093D1
:104A6000600083B7817F846083BF83B7816083BF29
:104A70007894889583B78E7F83BF0FB6F894A895F6
:104A800080916000886180936000109260000FBE8A
:104A9000089508950895CF930E9449250E948D0797
:104AA0000E944A25C0E08C2F0E94EB07892B31F42D
:104AB000CF5FC530C1F780E0CF91089581E0FCCF92
:104AC0000E94C90E0C94D1091F921FB61F92112487
:104AD0008F939F93AF93BF938091B803811113C0BD
:104AE0008091E8039091E903A091EA03B091EB0370
:104AF0004196A11DB11D8093E8039093E903A09313
:104B0000EA03B093EB03BF91AF919F918F911F90F8
:104B10001FBE1F90189582E084BD93E095BD9AEF6B
:104B200097BD80936E0008952FB7F8948091E803A5
:104B30009091E903A091EA03B091EB032FBF089590
:104B40002FB7F8946091E8037091E9038091EA032C
:104B50009091EB032FBF08959C014FB7F89480917B
:104B6000E8039091E903A091EA03B091EB034FBFF2
:104B7000821B930B089578941F921FB61F921124E5
:104B80008F939F93AF93BF938091E8039091E90334
:104B9000A091EA03B091EB030196A11DB11D809392
:104BA000E8039093E903A093EA03B093EB03BF916A
:104BB000AF919F918F911F901FBE1F90189587E70F
:104BC00097E7909301088093000888E19AE00FB678
:104BD000F894A895809360000FBE90936000FFCF7B
:104BE0008091E40308959C018091F0038430E9F4FE
:104BF00082E08093E9009FEF8091E800915085FD6D
:104C000006C085ED8A95F1F700009111F5CF8091EE
:104C1000E80085FF0AC050E040E0C9010E94FE287C
:104C20008091E8008E778093E8000895EEEBF3E042
:104C300025E02083618372838383948365E070E041
:104C4000CF010C94F325EBEBF3E024E02083928377
:104C5000818363E070E0CF010C94F3259C0182E036
:104C60008093E9009FEF8091E800915085FD06C098
:104C700085ED8A95F1F700009111F5CF8091E8005C
:104C800085FF0CC050E040E066E070E0C9010E9482
:104C9000FE288091E8008E778093E8000895CF93F6
:104CA000DF93EC01809134018823B1F18091E60318
:104CB00087FF32C060E282E08093E9008FEF90913D
:104CC000E800815095FD06C095ED9A95F1F700003A
:104CD0008111F5CF8091E80085FF1BC080913401E0
:104CE00070E050E040E0811104C050E040E068E036
:104CF00070E0CE010E94FE288091E8008E778093BC
:104D0000E80080E2FE01A4ECB3E001900D928A95E8
:104D1000E1F7DF91CF91089568E081E0CDCFEBEB33
:104D2000F3E023E020839283818363E070E0CF018E
:104D30000C94F32581E39BE00E94E3068091EF034E
:104D4000811109C00E948E2A0E94EB2A8091E20004
:104D500084608093E20008958DE29BE00E94E30668
:104D60001092EF03089589E29BE00E94E3060C9401
:104D7000162585E29BE00E94E3066091EC0381E04A
:104D8000611101C080E00C940F2581E29BE00E943C
:104D9000E3069091F00381E0943009F080E06091A7
:104DA000EC030C9414252091BA032F5F822F62E349
:104DB0000E948E2D992319F02093BA030895109222
:104DC000BA038091C3038823F1F08091F00384300B
:104DD000C1F49091E9009F702091EC00822F8170C6
:104DE00020FD80E8892B93E09093E9009091EB00FF
:104DF00090FF04C09091EE0097FD08C08F708093E3
:104E0000E9001092C30308951092F1009091E80018
:104E100095FDFACF9091E80090FFF0CF9091E800D7
:104E20009E779093E800EACF42E061EC81E00E9437
:104E30000A2A42E261EC82E00E940A2A42E261EC24
:104E400083E00E940A2A9091F00381E0943009F0F7
:104E500080E06091EC030C9406258091F20383308E
:104E600009F460C030F48130C9F1823009F49CC08B
:104E700008958A3009F488C08B3009F46EC08930F7
:104E800009F04FC08091F103813209F04AC080914E
:104E9000F5039091F603029708F043C08091E80073
:104EA000877F8093E8008091E80082FF36C0909170
:104EB000F3008091F200029731F48091F10081308B
:104EC00011F0863021F48091F1008093E403809109
:104ED000E8008B778093E8000C943E2A8091F103E0
:104EE000813AF9F48091E800877F8093E80080910F
:104EF000F5039091F603892B61F460E284EC93E072
:104F000070E00E944D298091E8008B778093E80043
:104F1000089560E090E080E0F3CF8091F00381118C
:104F2000C2CF08958091F103813AD9F78091F503BA
:104F30009091F603892BA9F78091E800877F8093F1
:104F4000E8008091E80080FFFCCF809134018093DD
:104F5000F1008091E8008E77BDCF8091F10381321E
:104F600001F78091F5039091F603892BD1F680919A
:104F7000E800877F8093E8000E943E2A8091F30337
:104F8000809334010C94C90E8091F103813249F66B
:104F90008091E800877F8093E8000E943E2A8091FC
:104FA000F4038093E50308958091F103813A09F0B9
:104FB000B8CF8091E800877F8093E8008091E80077
:104FC00080FFFCCF8091E503C2CF9FB7F894109289
:104FD000C3039FBF9091F003943009F048C0209123
:104FE000E9002F703091EC00932F917030FD90E824
:104FF000922B23E02093E9002091EB0020FF34C0A6
:105000002091EE0027FF30C02091B903222321F028
:105010002091E80025FF28C01092B90326E03091C6
:10502000E80035FF14C08093F1008091E80085FD11
:1050300027C08091E80080FFFCCF8091E8008E7748
:105040008093E8009F709093E90080E0089530918C
:10505000F003343049F43091EB0035FD05C02150A8
:1050600041F481E08093B9039F709093E9008FEF42
:105070000895EFE9FFE03197F1F700C00000CFCFCE
:105080008FB7F89421E02093C3038FBFDBCF84B7A1
:10509000877F84BF0FB6F894A895809160008861DF
:1050A00080936000109260000FBE80E890E00FB621
:1050B000F89480936100909361000FBE0C941B25BF
:1050C0000E948E2A0E94EB2AE2EEF0E0808184604A
:1050D000808378940C94732D88E291E00C9459238A
:1050E0008091F0038530C9F48DE19BE00E94E306D6
:1050F0008091F003853011F00C9460250E941E25EC
:105100008091EE038823A1F30E944B25882381F32D
:105110000E94E8280E94C90EEBCF089508950C94D0
:105120009128292F33272330310521F168F42130CC
:10513000310509F443C02230310509F444C090E040
:1051400080E030E020E026C02132310551F12232EA
:105150003105A9F76330710590F7FB01EE0FFF1FD2
:10516000ED55FE4F2081318160567E4FFB018081DD
:1051700090E010C099278130910581F0009729F0C7
:105180000297E9F6E5E3FBE002C0E5E7FBE0849186
:1051900090E09F01FA01318320830895E5E5FBE06B
:1051A000F6CF6330710558F6660F771FFB01E755A0
:1051B000FE4F2081318189E090E0ECCF82E190E0E8
:1051C00024ED3BE0E7CF8BE590E029E73BE0E2CF41
:1051D00080E189BD82E189BD09B400FEFDCF8091E7
:1051E000D8008F7D8093D8008091E000826080930A
:1051F000E0008091E00081FDFCCF0895AF92BF9266
:10520000CF92DF92FF920F931F93CF93DF936C01A6
:10521000EB018A010E945D2AF82E811123C001153D
:10522000110539F0F80180819181C81BD90BC80E96
:10523000D91EB12CA12C2097A9F08091E80085FD02
:1052400022C08091E8008E778093E8000115110557
:10525000A1F0F80180819181A80EB91EB182A082CF
:1052600085E0F82E8F2DDF91CF911F910F91FF9048
:10527000DF90CF90BF90AF9008950E945D2A882361
:10528000D1F2F82EEFCFF60181916F018093F100FA
:105290002197FFEFAF1ABF0ACECFFC018091F70331
:1052A0009091F80386179707A0F06115710529F40E
:1052B0009091E8009E779093E80090E06115710569
:1052C00051F4911108C08091E80082FF34C080E061
:1052D0000895BC01F2CF8091F0038823C1F185309D
:1052E000C1F18091E80083FD30C08091E80082FD2B
:1052F000EACF8091E80080FFE1CF8091F300209118
:10530000F200382F6115710519F02830310558F079
:1053100091E02830310509F090E02091E8002E77E7
:105320002093E800CBCF81918093F1006150710907
:105330002F5F3F4FE7CF8091F003882341F0853006
:1053400041F08091E80083FFBECF81E0089582E0C4
:10535000089583E00895FC018091F7039091F8038C
:1053600086179707A0F06115710529F48091E80070
:105370008E778093E80090E06115710551F49111EA
:1053800008C08091E80082FF35C080E00895BC012C
:10539000F2CF8091F0038823C9F18530C9F1809163
:1053A000E80083FD31C08091E80082FDEACF809162
:1053B000E80080FFE1CF8091F3002091F200382FC8
:1053C0006115710519F02830310558F091E0283049
:1053D000310509F090E08091E8008E778093E80035
:1053E000CBCF84918093F1003196615071092F5F8A
:1053F0003F4FE6CF8091F003882341F0853041F0A4
:105400008091E80083FFBDCF81E0089582E0089598
:1054100083E00895982F973028F08F708093E900EB
:1054200081E008959093E900242F762F50E098179B
:1054300031F07091EC002091ED005091F00021FDD1
:1054400002C09F5FE8CF3091EB003E7F3093EB00CE
:105450003091ED003D7F3093ED003091EB003160F5
:105460003093EB007093EC002093ED005093F0002C
:105470002091EE0027FDE5CF80E008958091F103B3
:1054800087FF13C08091E80082FF06C08091E8008A
:105490008B778093E80004C08091F0038111F2CFF4
:1054A00008958091F0038823D9F38091E80080FF6C
:1054B000F8CF8091E8008E77ECCF2091E400309116
:1054C000E50095E6A9012091EC00822F817020FF74
:1054D00006C08091E80080FF06C080E0089520911A
:1054E000E80022FD1AC08091F003882389F08530FE
:1054F00089F08091EB0085FD0FC02091E400309190
:10550000E50042175307F9F29150E1F684E008955F
:1055100082E0089583E0089581E008950E94FC2AC6
:105520000E94042BE0EEF0E0808181608083E8ED52
:10553000F0E080818F77808319BCA7EDB0E08C917B
:105540008E7F8C9380818F7E80831092EF030895ED
:105550000F931F93CF93DF930E94FC2A0E94042B8A
:10556000C8EDD0E088818F778883888180688883C0
:1055700088818F7D888319BC1092F0031092EC0310
:105580001092EE031092ED0300EE10E0F80180811E
:105590008B7F808388818160888342E060E080E047
:1055A0000E940A2AE1EEF0E080818E7F8083E2EEA5
:1055B000F0E0808181608083808188608083F80151
:1055C00080818E7F8083888180618883DF91CF9105
:1055D0001F910F910895E8EDF0E080818F7E808328
:1055E000E7EDF0E080818160808384E082BF81E02C
:1055F0008093EF030C94A82AE8EDF0E080818E7F81
:1056000080831092E20008951092DA001092E10077
:1056100008951F920F920FB60F9211242F933F936C
:105620004F935F936F937F938F939F93AF93BF93AA
:10563000EF93FF938091E10082FF0BC08091E20025
:1056400082FF07C08091E1008B7F8093E1000E9480
:10565000D3268091DA0080FF19C08091D80080FFA6
:1056600015C08091DA008E7F8093DA008091D90096
:1056700080FF96C080E189BD82E189BD09B400FE4A
:10568000FDCF81E08093F0030E949A268091E10093
:1056900080FF19C08091E20080FF15C08091E20078
:1056A0008E7F8093E2008091E20080618093E2002F
:1056B0008091D80080628093D80019BC85E08093E7
:1056C000F0030E94B9268091E10084FF2BC08091F5
:1056D000E20084FF27C080E189BD82E189BD89B5F0
:1056E000982F917080FFFBCF8091D8008F7D8093A1
:1056F000D8008091E1008F7E8093E1008091E200EC
:105700008F7E8093E2008091E20081608093E200CE
:105710008091EC03882309F449C084E08093F0036E
:105720000E94C5268091E10083FF29C08091E2009C
:1057300083FF25C08091E100877F8093E10082E0B4
:105740008093F0031092EC038091E1008E7F8093B0
:10575000E1008091E2008E7F8093E2008091E20080
:1057600080618093E20042E060E080E00E940A2ACB
:105770008091F00088608093F0000E94B326FF9132
:10578000EF91BF91AF919F918F917F916F915F91B9
:105790004F913F912F910F900FBE0F901F90189532
:1057A00019BC1092F0030E94AC2670CF8091E300E8
:1057B00087FD93E09093F003B3CF1F920F920FB643
:1057C0000F9211242F933F934F935F936F937F9387
:1057D0008F939F93AF93BF93CF93DF93EF93FF93F9
:1057E000D091E900DF708091EC00C82FC17080FD7E
:1057F000C0E81092E9008091F000877F8093F0006C
:1058000078940E94212C1092E9008091F000886029
:105810008093F000CD2BCF70C093E900FF91EF9102
:10582000DF91CF91BF91AF919F918F917F916F91B8
:105830005F914F913F912F910F900FBE0F901F904E
:1058400018951F93CF93DF93CDB7DEB7AA970FB606
:10585000F894DEBF0FBECDBF81EF93E02091F10041
:10586000FC012193CF01F3E0893F9F07B9F70E9424
:105870002D278091E80083FF1EC18091F103909154
:10588000F2039A3008F017C1E92FF0E0E95EFE4C10
:105890000C949A2D803899F0823809F00CC18091CF
:1058A000F5038F70873008F006C18093E90080917E
:1058B000EB0085FB882780F91092E90006C08091F3
:1058C000ED039091EE03911182609091E800977F33
:1058D0009093E8008093F1001092F1008091E8002D
:1058E0008E77E5C0882309F4D3C0823009F0E3C085
:1058F0008091F3038111D6C08091F5038F702FEF53
:10590000280F263008F0D7C08093E9002091EB00E3
:1059100020FFC8C0933031F48091EB008062809307
:10592000EB00C0C09091EB0090619093EB0021E000
:1059300030E001C0220F8A95EAF72093EA00109226
:10594000EA008091EB008860EACF8111B4C0109129
:10595000F3031F778091E3008078812B8093E3002D
:105960008091E800877F8093E8000E943E2A809122
:10597000E80080FFFCCF8091E30080688093E30023
:1059800082E0111183E08093F00395C0805882304B
:1059900008F091C08091F3039091F4038C3D23E0D3
:1059A0009207A1F583E08A838AE289834FB7F8944E
:1059B000DE01139620E03EE051E2E32FF0E0509349
:1059C0005700E49120FF03C0E295EF703F5FEF7056
:1059D0008E2F90E0EA30C0F0C7968D939D932F5F95
:1059E000243159F74FBF8091E800877F8093E8000A
:1059F0006AE270E0CE0101960E944D298091E80094
:105A00008B778093E80057C0C096E7CF6091F5038D
:105A10007091F603AE014F5F5F4F0E948F28BC016B
:105A2000892B09F448C09091E800977F9093E80093
:105A300089819A810E94AB29E1CF8038E1F580917C
:105A4000E800877F8093E8008091EC038093F10069
:105A500045CF811130C09091F303923060F5809171
:105A6000E800877F8093E8009093EC030E943E2A31
:105A70008091EC03882311F084E005C08091E3005D
:105A800087FDFACF81E08093F0030E94142713C0B2
:105A90008091F303813079F481E0933009F080E064
:105AA0008093EE031092E9008091E800877F809355
:105AB000E8000E943E2A8091E80083FF0AC080919E
:105AC000E800877F8093E8008091EB0080628093FC
:105AD000EB00AA960FB6F894DEBF0FBECDBFDF91E4
