:100000000C942A070C9471070C9471070C947107D7
:100010000C9471070C9471070C9471070C94710780
:100020000C9471070C9471070C9485280C94592931
:100030000C94F2220C9471070C9471070C947107C4
:100040000C9471070C9471070C9471070C94710750
:100050000C9471070C9449230C9471070C9471074C
:100060000C9471070C94E2080C9471070C947107BE
:100070000C9471070C9471070C9471070C94710720
:100080000C9471070C9471070C9471070C94710710
:100090000C9471070C9471070C9471070C94710700
:1000A0000C9471070C9471070C9471070A002530A9
:1000B000313662003A200025303258000A722F6330
:1000C00020303132333435363738394142434445B4
:1000D000460A0035441E001F002000210022002394
:1000E00000115024002500260027002D002E442B4F
:1000F0000014001A000800150017004A004D001CEB
:100100000018000C00120013003100290004001632
:1001100000070009000A00390049000B000D000E1D
:10012000000F0033003400E1001D001B0006001921
:10013000000500530006511100100036003700384A
:1001400000E5000355E000E30090642C432B614C74
:10015000002A0028002C425000510052004F003568
:10016000451E001F00200021002200230010502403
:10017000002500260027002D002E452B0014001A14
:10018000000800150017004A004D001C0018000C64
:100190000012001300310029610400160007000955
:1001A000000A00390049000B000D000E000F00335B
:1001B000003400E1001D001B00060019000500537B
:1001C00000065111001000360037003800E5000A23
:1001D00055E000E30090642C432B684C002A002873
:1001E000002C425000510052004F0001003A003BE9
:1001F000003C003D003E003F000100400041004245
:10020000004300440045000100570021022F023046
:100210000254000100010001000100520001000130
:1002200000010039005500200226022702240201A5
:100230000001000100500051004F000100010001C9
:100240000067002D002F003000370201000100017F
:100250000001000100010001000100010001000196
:100260000001000100010001000100010001000186
:100270000001000100010001003A003B003C003D8C
:10028000003E003F000100400041004200430044A6
:100290000045000100010001000100010001000112
:1002A00000010053005F00600061000100010001D7
:1002B0000001000100010001000100010001000136
:1002C000005C005D005E0001000100010001000112
:1002D0000001000100010001000100620059005A04
:1002E000005B0001000100010001000100010001AC
:1002F00000010001000100010001000100010001F6
:1003000000010001003A0401000100010001003F6A
:10031000020100400401000100010001004501014B
:10032000001404010001003F0201002F013001010F
:10033000004004010012050100010001000100015C
:1003400000010001000100010001000B0301000198
:10035000000F050100010001000100010001000182
:10036000000100010001001105450101000100012B
:1003700000010001000100010001000100E3000193
:100380000001000100010001000100010001000165
:10039000003A0401000100010001003F0201004099
:1003A00004010001000100010045080100140301DF
:1003B0000001003F0201002F0C300C01004004013D
:1003C000001205010001000100010001000100010F
:1003D000000100010001000B0A010001000F0C01E7
:1003E0000001000100010001000100010001000105
:1003F0000001001105450801000100010001000194
:10040000000100010001000100E300010001000102
:1004100000010001000100010001000100010001D4
:1004200000010001000100010001000100010001C4
:1004300000010001000100010001000100010000B5
:100440005C01000100010001000100010001000148
:100450000001000100010001000100010001000194
:100460000001000100010001000100010001000184
:100470000001000100010001000100010001000174
:100480000001000100010001000100010001000164
:100490000001000100E30001000100010001000172
:1004A0000001000100010044454255473A206469BB
:1004B0007361626C65642E0A0044454255473A20D8
:1004C000656E61626C65642E0A004F6E6573686FBD
:1004D000743A2074696D656F75740A004F6E6573A8
:1004E000686F743A206163746976653A2025640AFE
:1004F000000A0025303258006B6579626F617264C2
:100500005F7365745F6C65643A2000290A00257585
:10051000002F002575005D2800256400200025645B
:1005200000200025640020002564007C0025303276
:1005300058006D6F7573656B6579205B62746E7CB6
:10054000782079207620685D287265702F61636C51
:10055000293A205B00313A0964656C6179282A31B7
:10056000306D73293A2025750A323A09696E74652F
:100570007276616C286D73293A2025750A333A0921
:100580006D61785F73706565643A2025750A343A49
:100590000974696D655F746F5F6D61783A202575C8
:1005A0000A353A09776865656C5F6D61785F7370CD
:1005B0006565643A2025750A363A09776865656C81
:1005C0005F74696D655F746F5F6D61783A20257542
:1005D0000A00703A097072696E742076616C7565F4
:1005E000730A643A097365742064656661756C7496
:1005F000730A75703A092B310A646E3A092D310A73
:100600006C743A092B31300A72743A092D31300A70
:100610004553432F713A09717569740A0A737065FD
:100620006564203D2064656C7461202A206D6178CA
:100630005F7370656564202A202872657065617437
:10064000202F2074696D655F746F5F6D6178290A72
:1006500077686572652064656C74613A20637572B1
:10066000736F723D25642C20776865656C3D256449
:100670000A53656520687474703A2F2F656E2E7763
:10068000696B6970656469612E6F72672F77696B3A
:10069000692F4D6F7573655F6B6579730A004D3E09
:1006A00020004D25753A25733E20003F0A003D206D
:1006B00025750A003F0A0064656661756C74730AEB
:1006C0000025750A003F0A000A092D2056616C7545
:1006D0006573202D0A00710A000A092D204D6F75DF
:1006E00073656B6579202D0A003F00433E20004C66
:1006F00025640A000A092D20537461747573202D36
:100700000A686F73745F6B6579626F6172645F6CA6
:1007100065647328293A20253032580A6B6579625E
:100720006F6172645F70726F746F636F6C3A2025D3
:100730003032580A6B6579626F6172645F69646C0C
:10074000653A20253032580A6B65796D61705F63B8
:100750006F6E6669672E6E6B726F3A202530325865
:100760000A74696D65725F72656164333228293A73
:10077000202530386C580A000A092D2056657273FE
:10078000696F6E202D0A5649443A2030783444343B
:1007900034284D61747469612044616C2042656E37
:1007A00029205049443A203078353235372852656F
:1007B000646F785F776972656C657373292056453D
:1007C000523A203078303030310A4255494C443A60
:1007D0002020284A756E2020372032303232290AF4
:1007E0004F5054494F4E533A204C554641204D4F9F
:1007F0005553454B45592045585452414B45592076
:10080000434F4E534F4C4520434F4D4D414E442096
:100810004E4B524F20343039360A4743433A203842
:100820002E342E30204156522D4C4942433A20322C
:100830002E302E30204156525F415243483A2061BB
:100840007672350A000A092D20436F6E736F6C654E
:10085000202D0A4553432F713A09717569740A6D49
:100860003A096D6F7573656B65790A000A092D2069
:100870004D61676963202D0A443A094465627567D2
:10088000204D65737361676520546F67676C650AF7
:10089000583A094D61747269782044656275672021
:1008A0004D6F646520546F67676C65202D20536819
:1008B0006F77206B65797072657373657320696EED
:1008C000206D617472697820677269640A4B3A0915
:1008D0004B6579626F61726420446562756720546C
:1008E0006F67676C65202D2053686F77206B657983
:1008F0007072657373207265706F72740A4D3A0975
:100900004465627567204D6F75736520546F676726
:100910006C650A563A0956657273696F6E0A533AE6
:10092000095374617475730A433A094163746976B3
:1009300061746520436F6E736F6C65204D6F6465E5
:100940000A46312D4631303A09537769746368207D
:10095000746F204C6179657220302D392028463122
:1009600030203D204C30290A302D393A095377691F
:1009700074636820746F204C6179657220302D3962
:100980000A47524156453A0953776974636820749F
:100990006F204C6179657220302028616C7465721B
:1009A0006E617465290A423A094A756D7020746F48
:1009B00020426F6F746C6F616465720A4553433AED
:1009C000094A756D7020746F20426F6F746C6F618F
:1009D0006465722028616C7465726E617465290AA1
:1009E000453A095072696E7420454550524F4D206A
:1009F00053657474696E67730A4253504143453AB4
:100A000009436C65617220454550524F4D0A4E3A7C
:100A1000094E4B524F20546F67676C650A006B6537
:100A2000796D61705F636F6E6669672E7261773A88
:100A300020253032580A2E737761705F636F6E74B1
:100A4000726F6C5F636170736C6F636B3A202575B6
:100A50000A2E636170736C6F636B5F746F5F636F9B
:100A60006E74726F6C3A2025750A2E737761705F11
:100A70006C63746C5F6C6775693A2025750A2E7318
:100A80007761705F7263746C5F726775693A202575
:100A9000750A2E737761705F6C616C745F6C67753B
:100AA000693A2025750A2E737761705F72616C74E4
:100AB0005F726775693A2025750A2E6E6F5F6775DC
:100AC000693A2025750A2E737761705F67726176C7
:100AD000655F6573633A2025750A2E737761705FD1
:100AE0006261636B736C6173685F6261636B737087
:100AF0006163653A2025750A2E6E6B726F3A202568
:100B0000750A0064656275675F636F6E6669672E5C
:100B10007261773A20253032580A2E656E61626C18
:100B2000653A2025750A2E6D61747269783A202520
:100B3000750A2E6B6579626F6172643A2025750AB9
:100B40002E6D6F7573653A2025750A006565636FB4
:100B50006E6669673A0A64656661756C745F6C619C
:100B60007965723A2025750A003F004E4B524F3A84
:100B7000206F66660A004E4B524F3A206F6E0A0095
:100B80000A6D6F7573653A206F66660A000A6D6FAD
:100B90007573653A206F6E0A000A6B6579626F6142
:100BA00072643A206F66660A000A6B6579626F614B
:100BB00072643A206F6E0A000A6D61747269783A45
:100BC000206F66660A000A6D61747269783A206F58
:100BD0006E0A000A64656275673A206F66660A00ED
:100BE0000A64656275673A206F6E0A000A0A4A75E0
:100BF0006D70696E6720746F20626F6F746C6F61C7
:100C00006465722E2E2E2000433E2000436C6561E9
:100C100072696E6720454550524F4D0A000A002503
:100C200030325820006B6579626F6172645F726563
:100C3000706F72743A200064656C5F6B65795F62F7
:100C400069743A2063616E27742064656C3A2025CC
:100C50003032580A006164645F6B65795F62697461
:100C60003A2063616E2774206164643A2025303233
:100C7000580A005B735D005B575D005B535D005B72
:100C8000525D005B445D005B435D001E03520065E6
:100C90000064006F0078005F0077006900720065F3
:100CA000006C0065007300730000001E034D0061BE
:100CB0000074007400690061002000440061006C51
:100CC000002000420065006E0000000403090409D2
:100CD000025B00030100A0FA090400000103010106
:100CE00000092111010001224000070581030800CD
:100CF0000A0904010001030000000921110100019B
:100D000022B6000705820320000A0904020002033C
:100D100000000009211101000122220007058303C0
:100D2000200001070503032000011201000200005A
:100D30000008444D57520100010200010631FF092D
:100D400074A1010975150026FF0095207508810220
:100D50000976150026FF00952075089102C005014F
:100D60000902A10185020901A1000509190129084B
:100D70001500250195087501810205010930093129
:100D80001581257F95027508810609381581257F13
:100D9000950175088106050C0A38021581257F9595
:100DA0000175088106C0C005010980A101850319EC
:100DB000012AB700150126B700950175108100C002
:100DC000050C0901A101850419012AA002150126BB
:100DD000A002950175108100C005010906A10185D9
:100DE00006050719E029E715002501950875018119
:100DF000020507190029EF1500250195F0750181FD
:100E000002050819012905950575019102950175DD
:100E1000039101C005010906A101050719E029E7B1
:100E2000150025019508750181029501750881015C
:100E30000507190029FF150026FF00950675088192
:100E4000000508190129059505750191029501759F
:100E5000039101C011241FBECFEFDAE0DEBFCDBF8A
:100E600004B603FE27C08091FB039091FC03A09180
:100E7000FD03B091FE038730904BA740B04BD1F4F7
:100E80001092FB031092FC031092FD031092FE03DC
:100E900014BE84B7877F84BF0FB6F894A89580915D
:100EA0006000886180936000109260000FBEE0E0F7
:100EB000F8E3099511E0A0E0B1E0ECEEF7E502C03F
:100EC00005900D92A83EB107D9F723E0A8EEB1E056
:100ED00001C01D92AB3FB207E1F70E94E1180C94EC
:100EE000862B0C940000FF93EF93E091E801F091C2
:100EF000E901309709F00995EF91FF910895FC0100
:100F00008591803011F0EFDFFBCF0895FF27E0E2FD
:100F100030E247FF0CC0419597FF09C0EDE26095B4
:100F2000709580959095611D711D811D911D27FF04
:100F300002C0219530E350E2AA27660F771F881F71
:100F4000991FAA1FA41710F0A41B63955A95A9F71F
:100F5000AA3008F0A95FA05DAF93F3956115710504
:100F60008105910541F7ED3211F4EF93F395F217F6
:100F700018F43F93F395FBCF8F91B5DFFA95E1F726
:100F80000895E991F9918591803021F0853219F029
:100F9000AADFF9CF089520E0E89455915532C1F3C6
:100FA000503311F4689455915A3348F4505390F3E8
:100FB000220F022E220F220F200D250FF4CF0EF448
:100FC000219589919991533619F3533729F1533566
:100FD00059F1BC0188279927E8945C3621F489915E
:100FE000999168945591543639F446EF7EF077FF25
:100FF0000DC08FEF9FEF0AC055374AE039F05835E2
:1010000040E121F0523642E009F00895FF93EF935A
:101010007DDFEF91FF91B7CFFF93EF93FC018191BB
:101020008030B9F360DFFBCFFF93EF9368DFF1CF40
:10103000DF93CF93CDB7DEB72596A3DFCF91DF91B6
:101040000895089508950C9422080E947A090C943A
:10105000D708EF92FF921F93CF93DF93CDB7DEB700
:101060002B970FB6F894DEBF0FBECDBF83E78093FA
:10107000CE00CE0101967C018BE0D7011D928A95AE
:10108000E9F7D7019E01245F3F4FC70140E050E0E0
:10109000BA011091C80017FD0AC04F5F5F4F6F4F34
:1010A0007F4F4131E7E25E076105710590F31091D2
:1010B000CE00FC011193CF01E217F30751F78B85A6
:1010C000803EB1F42AEE31E0B701665F7F4F1196A2
:1010D0008C911197F0E88F9FC00111244C91842BC3
:1010E000F901819391939F0112966A177B0779F713
:1010F0000E94800981E02B960FB6F894DEBF0FBEE8
:10110000CDBFDF91CF911F91FF90EF900895E82F11
:10111000F0E0EE0FFF1FE651FE4F808191810895B0
:10112000CF92DF92EF92FF920F931F93CF93DF93B3
:101130008CEB90E00E947F078AEEE82E81E0F82E8B
:10114000D0E0C0E097EBC92E90E0D92E0EEA10E077
:10115000DF93CF93DF92CF920E94180884EB90E048
:101160000E947F07F701819191917F010E946A0A95
:101170009F938F931F930F930E9418088CEA90E01F
:101180000E947F0721968DB79EB708960FB6F894F8
:101190009EBF0FBE8DBFC530D105D1F6DF91CF9177
:1011A0001F910F91FF90EF90DF90CF900895ECEC9E
:1011B000F0E01082108288E18093C90086E080937D
:1011C000CA0008958F938FB78F939F93EF93FF93E8
:1011D000E091F50181E08E0F9091F401981741F0B4
:1011E0009091CE00F0E0EA50FE4F90838093F5019D
:1011F000FF91EF919F918F918FBF8F911895519A89
:10120000599A80B3806380BB81B3806381BB0895AA
:101210000E9421080C94FF08CF92DF92EF92FF9278
:101220006B017C010E94050A873048F4E82FF0E04A
:10123000E857F44D8D9A0C942A2B599A8C9AC70131
:10124000B601FF90EF90DF90CF9008955998F6CFB8
:1012500081E0089581E008950C942A0908950C9482
:101260002E091F93CF93DF9300D000D00F92CDB7FC
:10127000DEB749835A836B833091F60289819A8164
:1012800031111DC06623B9F02223A9F00E94BD0FC1
:10129000182F682F89819A810E94690F69817A814C
:1012A000812F0F900F900F900F900F90DF91CF91A3
:1012B0001F910C94A3160E94950F182FEFCF0E9438
:1012C000BD0F69817A81EDCFFC01262F40815181CC
:1012D0006281738184810C94310981E00895CF93F8
:1012E000DF93EC0160E00E946409BE01DF91CF91C1
:1012F0000C942F090E94B1180E947E0A0C940809D0
:101300000C94230880E00C947F0A089508950E94AD
:10131000140E0E9486092FEF84E39CE02150804048
:101320009040E1F700C000000C946D230F931F93D1
:10133000CF93DF938C0161E00E946409EC01B80156
:101340000E942C098823C1F1B801CE010E94B62069
:10135000882391F1B801CE010E94FB1B882361F123
:10136000B801CE010E942020882331F1F80182814A
:10137000882361F0CF3DFCE5DF07B1F170F4C115C2
:10138000ECE5DE07B9F0C130DC45E1F0C801DF91E2
:10139000CF911F910F910C942809CC358DE5D8077A
:1013A00049F1CD35DC0719F1CB35DD4579F70E94E0
:1013B000D814ECCF0E94870980E0DF91CF911F9174
:1013C0000F9108959091A003892F8E7F90FF8160E7
:1013D0008093A00380FF05C089EB94E00E947F0703
:1013E000EBCF87EA94E0FACF0E948315E5CF0E9405
:1013F000CF14CCCF0E94DB14C9CF0C9485090E9476
:1014000012210E947F0A0C94FD09CF92DF92EF9285
:10141000FF926C01EE24FF2420E0C114D104E1040A
:10142000F10419F0C701B60120E1C72ED82EE92E2C
:10143000FF24C114D104E104F10419F0285FC701AD
:10144000B6016B017C0154E0F694E794D794C794FD
:101450005A95D1F7C114D104E104F10419F02C5FBD
:10146000C701B6016B017C0142E0F694E794D79482
:10147000C7944A95D1F7C114D104E104F10419F0DD
:101480002E5FC701B6019695879577956795672B6F
:10149000682B692B09F02F5F822FFF90EF90DF9070
:1014A000CF900895829590E09C01220F331F220F68
:1014B000331F2C7C95958795959587958373282B5D
:1014C00030E0C901880F991F8A7A359527952575CF
:1014D000822B0895CF93DF93D92F0E94520AC82FF1
:1014E0008D2F0E94520A9C2FDF91CF91089508956D
:1014F0000C94770A81E008950C947A0A0895CF93AA
:10150000C82F0E94780A8C2FCF910C947C0ACF931D
:10151000DF93CDB7DEB72B970FB6F894DEBF0FBEC3
:10152000CDBF4F83588769877A878B8761110E9467
:10153000DD131E821D8285E0FE013796DE011196C5
:1015400001900D928A95E1F78091E90382FD0CC02C
:101550000E94A013882319F082E00E948B140E943D
:10156000871381110E940E148C819D81892B89F42F
:1015700049815A816B817C818D819E810E94D91223
:101580002B960FB6F894DEBF0FBECDBFDF91CF9183
:10159000089589819A8189238F3F51F3CE01019665
:1015A0000E946D098111E4CFEBCFFC018081918114
:1015B0000C94FF0FCF93C82F882309F44CC08CEFF5
:1015C0008C0F813AC8F48C2F0E94CC1F811143C02C
:1015D0006C2F80910201909103010E94C721882302
:1015E00029F08C2F0E947A130E941C148C2F0E94C9
:1015F0007313CF910C941C1480E28C0F883048F444
:10160000C77081E001C0880FCA95EAF70E94C01335
:10161000F0CFEBE5EC0FE33040F4F0E0E95BFE4F98
:10162000808190E0CF910C948721E8E5EC0FE731C1
:1016300050F4F0E0EE0FFF1FE75EFE4F80819181D6
:10164000CF910C949D21CD3E30F08C2F0E947119CA
:10165000CF910C94441ACF910895882361F19CEFA7
:10166000980F913A20F40E947A130C941C1490E283
:10167000980F983050F4877091E001C0990F8A95C7
:10168000EAF7892F0E94C613F0CF9BE5980F93309D
:1016900020F490E080E00C94872198E5980F973132
:1016A00020F490E080E00C949D218D3E20F00E947B
:1016B000CB190C94441A08951F93CF93DF93182FDE
:1016C000EB010E94DA0A209731F4812FDF91CF914C
:1016D0001F910C942D0B8FE99FE00197F1F700C04B
:1016E00000002197F0CF70E060E0893311F460E5ED
:1016F00070E00C945C0B882321F00E94C0130C94C2
:101700001C140895882321F00E94C6130C941C1405
:101710000895BF92CF92DF92EF92FF920F931F93A3
:10172000CF93DF936C01D62FC72FFC011281F58078
:10173000F2949FE0F9220E94B613E82E8823B9F0B4
:10174000E12E1123A1F08C2F807F803421F080E2E4
:101750008D0F8830B0F08091E90382FD12C082E0E5
:101760000E948B140E94B61391E0E82EE926BC2E4D
:10177000B2948FE0B822EB2DF0E0E157F44D0C94D9
:101780002A2BE12CF4CF0C2F0F70C07F11F00295A3
:10179000007F112399F0002359F080E28D0F8830EB
:1017A00010F0D11107C0802F0E94C0130E941C149A
:1017B0008D2F41C0802F0E94D013F8CF8D2F0E9413
:1017C0002D0B002309F43FC080E28D0F883010F00C
:1017D000D11104C0802F0E94C61303C0802F0E9425
:1017E000D6130E941C142FC00C2F0F70C07FC03264
:1017F00011F00295007FDD2381F0D13009F469C03A
:10180000112309F473C0FF2009F469C0F601858132
:1018100080FFCECF8F70858362C08091E90382FF05
:1018200038C0112359F0002329F0802F0E94C013E3
:101830000E941C1480E00E94DA0A05C080E00E9429
:101840002D0B0111C7CFEB2DE850FF0B349720F47F
:101850000E9412210E947F0AEE2009F482C10E9498
:101860009C1380FD7EC1F60112820E9496130E9495
:10187000CD0EC6010E94D20D0E949613DF91CF912A
:101880001F910F91FF90EF90DF90CF90BF900C943D
:10189000EE0E112389F0F11006C00E94F013802B88
:1018A0000E947B0BD0CFF1E0FF12F7CF0E94F01324
:1018B000802B0E94F613C7CFF11006C00E940E14B1
:1018C000802F0E94820BBFCF21E0F21609F4BBCF1C
:1018D000F5CF112331F035E03F1508F4B4CF802F58
:1018E000DFCF84E08F1508F4AECFEACFFF2041F3BD
:1018F000D93349F4FFEF27EE33E0F1502040304078
:10190000E1F700C000008D2F0E942D0B9CCF8C2F83
:1019100086958695837069F0813009F094CF8D2F7C
:101920009C2F9370111102C090E080E00E949D21D5
:101930008ACF8D2F9C2F9370111102C090E080E010
:101940000E94872180CF8D2F112329F00E947119C9
:101950000E94441A78CF0E94CB19FACF8C2F837043
:1019600009F041C011116FCF4D2F42954695477038
:10197000440F440F0D2F0F7010E030E020E0042ED4
:1019800004C0000F111F221F331F0A94D2F760E01A
:1019900070E0CB01D4FF0FC06FE070E080E090E01A
:1019A00004C0660F771F881F991F4A95D2F760956C
:1019B000709580959095C695C695C370602B712BD8
:1019C000822B932BC23049F058F4C13019F00E9499
:1019D000810E39CF0E946F0E36CF0E94930E33CF07
:1019E0000E946D0E30CF8695112311F08C2F8170DF
:1019F000882309F428CF4D2F429546954770440F10
:101A0000440F0D2F0F7010E030E020E0042E04C0D2
:101A1000000F111F221F331F0A94D2F760E070E0FD
:101A2000CB01D4FF0FC06FE070E080E090E004C015
:101A3000660F771F881F991F4A95D2F7609570959A
:101A400080959095C695C695C370602B712B822B9F
:101A5000932BC23049F058F4C13019F00E94440F62
:101A6000F2CE0E94320FEFCE0E94560FECCE0E94B3
:101A7000A70EE9CECF70112329F08C2F0E94CD0E36
:101A80008D2F0ECF8D2F0E94820B8C2F0E94EE0E79
:101A9000DACED23F51F160F4D03FB9F0D13F81F0BE
:101AA000112309F449C0F11083CE8C2F8F7121C00E
:101AB000D33F11F1D43FA1F78091E90382FF26C003
:101AC0008C2F8F71112311F314C0112349F084E07E
:101AD0008F1508F4B8CE8C2F8F710E94110FB3CEE2
:101AE00095E09F1508F4AFCEF6CF8C2F8F711111B2
:101AF000CDCF0E94CD0EA7CE112329F08C2F8F7150
:101B00000E94B80EA0CE0E94B30E9DCE112349F0C4
:101B1000CF718C2F0E94CD0E63E08C2F0E94661433
:101B200092CE81E00E948B14E1E0EF1508F08BCE9D
:101B300082E00E948B1487CEF110DACE8C2F8F7149
:101B4000A5CF4C2F4F706D2FC6010E949F160E948B
:101B50002D1079CE4C2F4F706D2FC6010E94A2160A
:101B600072CEDF91CF911F910F91FF90EF90DF9098
:101B7000CF90BF9008950F931F93CF93DF93EC0105
:101B8000688179818A810E9409108C010E94680F06
:101B90000E946C0EB801CE01DF91CF911F910F9181
:101BA0000C94890BCF93DF93EC018B819C81892B63
:101BB00029F08881998189238F3F59F4DF91CF9152
:101BC0000895CE010E94BB0DCE01DF91CF910C9400
:101BD0006F09CE010E9496098111F3CF0E94B613BE
:101BE000882361F38A81882349F38091E90382FD88
:101BF000E5CF82E0DF91CF910C948B1490E080E0F0
:101C00000E94872190E080E00E949D210E94DD13C8
:101C10000E94ED130E941C140E94ED1B0C94441AA8
:101C20000E9481130C94FE0D0E94CD130C94100E93
:101C3000E92FE295EF70E250EE3070F4F0E0E156FB
:101C4000F44D0C942A2B803F19F020F4883E20F4A8
:101C500081E00895843FE1F380E00895883EC0F379
:101C6000813FD1F7F5CF93FB882780F90895FC01D8
:101C7000808191810E94FF0F0C94180ECF93DF9307
:101C800000D000D00F92CDB7DEB70F900F900F901D
:101C90000F900F90DF91CF910895CF93DF9300D0F5
:101CA00000D000D0CDB7DEB726960FB6F894DEBFD1
:101CB0000FBECDBFDF91CF91089508950C945D0EB6
:101CC0000E945E0E609328037093290380932A0379
:101CD00090932B030C94FE0D08950C94600E0F93BB
:101CE0001F93009128031091290320912A0330911A
:101CF0002B03602B712B822B932B1F910F910C9434
:101D0000600E0F931F9300912803109129032091D7
:101D10002A0330912B0360237123822393231F9185
:101D20000F910C94600E0F931F9300912803109154
:101D3000290320912A0330912B03602771278227E2
:101D400093271F910F910C94600E0C940C090E9424
:101D5000A50E60932403709325038093260390932C
:101D600027030C94FE0D60E070E0CB010C94A70EED
:101D70000F931F9341E050E060E070E08A019B0107
:101D800004C0000F111F221F331F8A95D2F7C9010B
:101D9000B8011F910F910C94A70E0F931F9341E070
:101DA00050E060E070E004C0440F551F661F771FCD
:101DB0008A95D2F78091240390912503A091260360
:101DC000B09127038A019B01082B192B2A2B3B2B4F
:101DD000C901B8011F910F910C94A70E0F931F9387
:101DE00041E050E060E070E004C0440F551F661F02
:101DF000771F8A95D2F7CB01BA01609570958095CF
:101E00009095009124031091250320912603309191
:101E1000270360237123822393231F910F910C9436
:101E2000A70E0F931F9341E050E060E070E004C004
:101E3000440F551F661F771F8A95D2F780912403A0
:101E400090912503A0912603B09127038A019B015D
:101E5000082719272A273B27C901B8011F910F918D
:101E60000C94A70E0F931F93009124031091250348
:101E70002091260330912703602B712B822B932B0B
:101E80001F910F910C94A70E0F931F9300912403A1
:101E9000109125032091260330912703602371239D
:101EA000822393231F910F910C94A70E0F931F93DE
:101EB00000912403109125032091260330912703DC
:101EC00060277127822793271F910F910C94A70EEB
:101ED00008952EE0929F800D1124982F977041E075
:101EE00001C0440F9A95EAF786958695869595E008
:101EF000899FF0011124E950FD4F90E080E070E0EF
:101F00005191DF0111979B01082E02C0369527954C
:101F10000A94E2F7217021952527242325272C9365
:101F200001968530910561F708952EE0929F800D0E
:101F30001124982F977086958695869525E0829F27
:101F4000F0011124E950FD4F50E040E080E0219184
:101F500030E0092E02C0369527950A94E2F72170E9
:101F60003327042E01C0220F0A94EAF7822B4F5F19
:101F70005F4F4530510559F70895BF92CF92DF92D8
:101F8000EF92FF920F931F93CF93DF938C01C0903A
:101F90002403D0902503E0902603F090270380913E
:101FA000280390912903A0912A03B0912B03C82AFA
:101FB000D92AEA2AFB2ACFE1D0E0BC2ED701C601FC
:101FC0000C2E04C0B695A795979587950A94D2F7DD
:101FD00080FD0EC0219788F7B12C8B2DDF91CF911A
:101FE0001F910F91FF90EF90DF90CF90BF900895D9
:101FF000B8018C2F0E94D217019761F3EECFCF93D7
:10200000DF93EC010E94BD0FBE01DF91CF910C94D4
:10201000D2171F93CF93DF93EB019091F602992390
:1020200031F0CB01DF91CF911F910C94FF0F8823EA
:1020300079F0CB010E94BD0F182F682FCE010E94AE
:10204000690FBE01812FDF91CF911F910C94D217A0
:10205000CB010E94950F182FF4CFEF92FF920F93B0
:102060001F93CF93DF938C01892B81F0F12CEE2409
:10207000E394E8012196F8018491843770F4843068
:1020800008F05FC08130B1F08230A1F1DF91CF91D3
:102090001F910F91FF90EF900895853709F44CC080
:1020A00008F43DC09CE7980F903780F78F770E9427
:1020B0002D0B49C00E5F1F4FFE01849190E2980FD7
:1020C000983060F48770FE2D01C0FF0F8A95EAF703
:1020D0008F2F0E94E0130E941C1402C00E94DA0A93
:1020E0008F2D815030F2EFE9FFE03197F1F700C01A
:1020F0000000F7CF0E5F1F4FFE01849190E2980F12
:10210000983050F48770FE2D01C0FF0F8A95EAF7D2
:102110008F2F0E94E613DFCF0E942D0BE1CF0E5FC1
:102120001F4FFE01C491C150D8F28FE99FE0019783
:10213000F1F700C00000F7CF0E5F1F4FFE01F490D3
:10214000CFCF0E94DA0A8E01CBCF1F93CF93DF93BC
:10215000C0912C0316E080912D038C1304C0DF91F5
:10216000CF911F910895D0E01C9FF0011D9FF00DAD
:102170001124E25DFC4F4081518162817381848131
:1021800095810E944D0E2196C770E5CF40915E0368
:1021900050915F03609160037091610380916203CD
:1021A000909163030C944D0EFF920F931F93CF9366
:1021B000DF9380916303807FD1F480916003882353
:1021C000B1F080912C0310912D0360915E0370910A
:1021D0005F03A0916103B0916203062F0723C091B2
:1021E0000001D091010196E0F92E181306C0DF918D
:1021F000CF911F910F91FF90089590E0109711F0EB
:102200000F3F19F401968770F0CFF89E9001F99E68
:10221000300D1124F901E25DFC4F41814713F2CFEB
:1022200040814613EFCF42814111ECCF438154816D
:102230004A1B5B0B4C175D0728F7809163038F7077
:10224000806180936303F901ED5CFC4F80818F70A6
:10225000806180838EE593E00E94D20DDF91CF9163
:102260001F910F91FF900C94A510AF92BF92CF9247
:10227000DF92EF92FF920F931F93CF93DF93CDB72F
:10228000DEB761970FB6F894DEBF0FBECDBF8C01ED
:1022900085E0F801DE011D9601900D928A95E1F727
:1022A000F801E2808EE5C82E83E0D82E60916103AC
:1022B000709162036115710509F45FC190915E032D
:1022C00020915F03892F82238F3F09F456C14081FB
:1022D0005181A380B480F0906003F501E61BF70BF9
:1022E000BF01E0910001F0910101FF2009F4F6C067
:1022F00080916303382F307F6E177F0708F0AFC0DF
:10230000311179C0FE2C251323C0941321C0E11094
:102310001FC08F708061809363030E94C610C60146
:102320000E94D20D80916303F80185838F2D619601
:102330000FB6F894DEBF0FBECDBFDF91CF911F91D6
:102340000F91FF90EF90DF90CF90BF90AF900895E6
:10235000AB2829F0842F85238F3F09F027C180E027
:10236000F82FF170DF2E80FF3CC080912C0320916C
:102370002D0336E0821315C04D875E878D859E85BF
:102380000E94FF0F292F22952F702230F0F0243069
:1023900018F59F70F1F0F8019581907FD1F4D12C60
:1023A0001EC090E0389FF001399FF00D1124E25DCE
:1023B000FC4F6181651306C06081641303C06281B4
:1023C0006E110FC001968770D5CF9F7011F08823D2
:1023D00031F3805E883018F3C8010E94D20DFD2CC5
:1023E000A5CFEE2009F4A2CF809163038160809392
:1023F0006303F12C9BCF251306C0941304C0F8018E
:10240000EE2009F487C0C8010E94370E882319F115
:10241000EE2009F180916303803270F020915E0319
:1024200030915F0338872F831986BB86AA868C87F5
:10243000CE0107960E94D20D86E0F801AEE5B3E02A
:1024400001900D928A95E1F70E94D4100E94C61067
:10245000FF24F3946BCFC8010E94D20DF9CF311144
:1024600013C07A2DB98AA88A6E2D89890E943E0EE2
:102470008EE593E00E94D20D86E0F60111928A95D6
:10248000E9F70E94C610B5CF25130FC094130DC0F5
:10249000E1100BC0F8018583C8010E94D20D86E0CF
:1024A000F60111928A95E9F741CFC8010E94370ED3
:1024B000882389F2EE2079F280916303803208F458
:1024C000BBCF20915E0330915F033A8329831B8247
:1024D000BD82AC828E83CE010196ACCF6E177F0792
:1024E00008F03EC0FE2CEE2009F4B5CF25132AC01B
:1024F000941328C08091630380FD1BC0982F907FA8
:10250000C1F0F8018583903F31F0982F907F905F64
:102510008F70892B8583C8010E94D20D86E0F80157
:10252000AEE5B3E001900D928A95E1F70E94C610E6
:10253000FDCE86E0F801AEE5B3E001900D928A95FC
:10254000E1F7F4CEC8010E94370E811175CF80915A
:102550006303816080936303C8010E94D20DE6CEBD
:102560007A2DB98AA88A6E2D89890E943E0E86E04E
:10257000F60111928A95E9F7D9CFEE2009F46BCFD5
:10258000C8010E94370EF82E882309F464CF86E034
:10259000F801AEE5B3E001900D928A95E1F78EE582
:1025A00093E00E94D50A0E94D410C0CF81E08E250E
:1025B000D7CE1F93CF93DF93CDB7DEB72C970FB64F
:1025C000F894DEBF0FBECDBF4F83588769877A87E7
:1025D0008B879C87CE0107960E943511882369F06E
:1025E0008A859B85892B39F04F815885842F8523D7
:1025F0008F3F09F071C016E05FC086E0FE0137969C
:10260000DE01119601900D928A95E1F78A859B85EE
:10261000892B89F38F81988589238F3F61F32091DE
:102620002D0330E0C90101968770992740912C0352
:102630004817190671F40E94140E10922D0310927F
:102640002C0386E0EEE5F3E0DF011D928A95E9F7C1
:10265000D2CF96E0929FD001939FB00D1124A25D3E
:10266000BC4FFE01319601900D929A95E1F780934F
:102670002D030E94A510BFCF819FC0011124825D50
:102680009C4F0E9435118823E9F0E0912C031E9F96
:10269000F0011124E25DFC4F408151816281738120
:1026A000848195810E944D0E80912C0390E00196CB
:1026B0008770992780932C0380912C0390912D0390
:1026C0008913DACF2C960FB6F894DEBF0FBECDBFBC
:1026D000DF91CF911F91089569857A858B859C85BF
:1026E0000E944D0E88CF682F8091020190910301C6
:1026F0000C946922682F80910201909103010C943F
:10270000742280910201909103010C947F220E9417
:1027100022232091670330916803821B930B9C0155
:1027200081E0243F314008F480E008958091660301
:1027300085958595859508958091660387700895A0
:102740000E9422232091640330916503821B930B26
:10275000843F914048F08091660382FB882780F98E
:1027600091E089278170089580E0FCCF9091660305
:10277000977081E009F480E0089580918C030895BA
:1027800090918C03892B80938C0308958095909170
:102790008C03982390938C03089510928C030895D2
:1027A00090918B03892B80938B0308958095909152
:1027B0008B03982390938B03089510928B030895B5
:1027C00090918A03892B80938A0308958095909134
:1027D0008A03982390938A03089510928A03089598
:1027E00080916903089508950C94F313CF93C82F33
:1027F0008091E90382FD10C0809169038C1761F01C
:102800000E9422239093680380936703C093690317
:102810008C2FCF910C94F413CF910895809169037C
:10282000882349F01092690310926803109267039D
:1028300080E00C94F4130895E0910201F0910301FB
:1028400080918C038083E0910201F09103018081EB
:1028500090918B03892B8083E0910201F091030119
:10286000808190918A03892B8083809169038823DA
:1028700021F10E948713882371F08091A00380FFCB
:1028800008C08AEC94E09F938F930E9418080F90E1
:102890000F900E940E14E0910201F09103018081DB
:1028A00090916903892B80838091020190910301AB
:1028B0000E94B32181110E940E1480910201909117
:1028C00003010C941E2108950C9463149091E90364
:1028D00092FD16C098E0899F90011124622B6093AD
:1028E00066030E94CD0E0E9422239093650380937D
:1028F0006403809166038595859585950C94641491
:102900000C94CD0E1092660310926503109264032E
:1029100080E00C94641490916603809589238093E1
:102920006603282F277091F4282F082E000C330BF4
:102930009217130659F09091E90392FD07C085950F
:10294000859585950E94EE0E0C9482140895CF9380
:10295000C82F8091E90382FB992790F99C17E9F031
:10296000C0FB82F98093E9038091E8039091E90329
:102970000E94FF1482E00E948B148091A00380FFCC
:102980000CC01F92CF938CED94E09F938F930E9485
:1029900018080F900F900F900F90CF91089580918D
:1029A000E90382FB882780F991E089270C94A7141A
:1029B00081E00C94A71480E00C94A71490E080E0D0
:1029C0000E944C2B21E0893E9E4F09F020E0822F8F
:1029D000089582E090E00C94442B83E090E00C9406
:1029E000442BCF9384E090E00E94442BC82F82E2D6
:1029F00090E00E94442B982F8C2FCF910895CF9375
:102A0000C92F682F84E090E00E94522B6C2F82E245
:102A100090E0CF910C94522BAB01BC018FE090E081
:102A20000C94642BAB01BC0183E190E00C94642B0B
:102A300060E070E0CB010C94121560E070E0CB0117
:102A40000E940C150C94181569EE7EEF90E080E062
:102A50000E94702B60E082E090E00E94522B60E0C8
:102A600083E090E00E94522B1092280310922903D9
:102A700010922A0310922B0360E084E090E00E9401
:102A8000522B60E082E290E00E94522B60E085E0F1
:102A900090E00E94522B60E086E090E00E94522B72
:102AA0006FEF87E090E00E94522B40E050E0BA01C7
:102AB00088E090E00E94642B60E08DE090E00E944E
:102AC000522B40E050E0BA0188E190E00E94642B74
:102AD00060E087E190E00E94522B40E050E0BA01B4
:102AE0008CE190E00E94642B70E060E080E290E076
:102AF0000E94702B40E050E0BA0188E190E00E9413
:102B0000642B0C941D150C942415682F8EE090E016
:102B10000C94522B0E942E2360939C0370939D0370
:102B200080939E0390939F036093980370939903FF
:102B300080939A0390939B03089585B7806885BF1F
:102B400085B7806885BF0895089508950C94A415ED
:102B500008950C94A8150E949D1581E695E20E94A7
:102B600008210E94A5150C94A61581E008950C94E7
:102B7000B515089508950E94B9150C94BA150E94D0
:102B800019230E9425080C94A915CF93C82F809172
:102B9000A00382FF1EC080FF1CC088EF94E00E944B
:102BA0007F078091A00380FF14C01F92CF9383EF13
:102BB00094E09F938F930E9418088091A0030F9038
:102BC0000F900F900F9080FF04C081EF94E00E945F
:102BD0007F078C2FCF910C947F0A8F929F92AF9298
:102BE000BF92CF92DF92EF92FF920F931F93CF93FA
:102BF000DF93CDB7DEB72A970FB6F894DEBF0FBECE
:102C0000CDBF0E94290881110E948A155EE8852E99
:102C100053E0952E10E000E0A02E802F0E94870840
:102C20006C01F401E190F1904F01E816F90609F406
:102C30005CC08091A00381FD0E949008C7018C2593
:102C40009D25B12CEE24E394F12C9C012E213F21F3
:102C5000232B09F444C00E94B7158823A9F0BE8233
:102C6000AF82CE20DF2081E0CD2809F480E0888784
:102C70000E9422238160782F9A8789874E815F8105
:102C800068858A850E94870A000F111FF801E257A4
:102C9000FC4F80819181E826F926F182E0820E9432
:102CA000E11A0E94122190918D038917A9F10E94C7
:102CB000122180938D032A960FB6F894DEBF0FBEC3
:102CC000CDBFDF91CF911F910F91FF90EF90DF90DB
:102CD000CF90BF90AF909F908F900C94C515B394F8
:102CE000EE0CFF1CFEE0BF12B0CF0F5F1F4F053090
:102CF000110509F091CF8FEF89838A831B820E948F
:102D000022238160782F9D838C8349815A816B8136
:102D10008D810E94870AC3CF2A960FB6F894DEBF32
:102D20000FBECDBFDF91CF911F910F91FF90EF901C
:102D3000DF90CF90BF90AF909F908F90089590E0DC
:102D400080E008950895972F70E02EE0929F600D27
:102D5000711D1124FB0196E4899FE00DF11D1124E2
:102D6000EE0FFF1FED52FF4F859194910895FC01E6
:102D7000EE0FFF1FE55FFA4F859194910895CF9371
:102D8000DF930E94D617EC01811520E5920708F029
:102D900042C0811530E4930708F0BDC0883E91051C
:102DA00028F5803E910508F09DC0883A910588F489
:102DB000853A910508F08FC08130910509F492C0E1
:102DC000009709F48FC0049708F08CC0D0E0C0E0F1
:102DD00089C08F3B910508F489C0805C9109C03C93
:102DE000D105A0F30E94B716EC017CC0811590427A
:102DF00050F4C11581E0D80708F074C0CD3ED1056C
:102E000028F3D0656FC0C11590E3D90708F079C0E9
:102E1000CE019F70E7CF811525E5920758F5811502
:102E200034E5930708F0A6C0811542E5940750F4F5
:102E3000C11581E5D80708F471C0DC2FCC27C16F1C
:102E4000D06A50C0982F969596959E01237033278F
:102E5000C115D34508F07FC0C1E0D0E002C0CC0F5F
:102E6000DD1F2A95E2F720E2929FC0011124C82BB2
:102E7000D92B6FC0C11589E5D807A8F4C11598E50D
:102E8000D90708F07CC0C11526E5D20708F09ECF0F
:102E90008C2F0E946D18C82FD0E0DC2FCC27CC27B8
:102EA000DF71D0621FC0C1153AE5D30708F46CC0CA
:102EB000CE0190568115904208F088CF8D2F8F71EA
:102EC0000E946D1890E0982F882788279F719C0199
:102ED0002C2BE901E6CFC55AD0E0C858DE4FC88197
:102EE000D0E0D064CE01DF91CF910895C85AD0E0F0
:102EF000CC0FDD1FC65BDE4F0990D881C02DD46496
:102F0000F1CFCE019927D3FF03C0EC01D86CEACFF3
:102F1000EC01D06CE7CFDF70D06AE4CFCE01E4E003
:102F200096958795EA95E1F783702C2F269526953F
:102F3000237090E2299F90011124382B8C2F8370ED
:102F4000C1E0D0E002C0CC0FDD1F8A95E2F7C22BB2
:102F5000D32BDC68C7CFC1E0D0E002C0CC0FDD1FAF
:102F60002A95E2F730E2939FC0011124C82BD92B98
:102F7000DA68B8CFD82FCC27C46FD06AB3CFDC2F94
:102F8000CC27C06FD06AAECF8C2F8F700E946D1887
:102F900034E0D695C7953A95E1F7CF709C2FEC01B8
:102FA000D069A0CF0E94A3160C94BF168238910559
:102FB000B1F1B0F48133910509F475C048F4893258
:102FC000910509F469C08A32910509F473C0089526
:102FD0008533910509F459C08933910501F10895AC
:102FE000833E9105A9F138F4803E9105F9F0823EC7
:102FF000910549F10895863E9105A9F1873E910515
:10300000C9F1843E910519F52091E90321FF1FC004
:103010008091E80384FD14C087EE90E0089520912C
:10302000E8032370A1F080EE90E008952091E8037A
:1030300020FD47C03091E90330FF09C024FF44C0A0
:1030400090E080E004C02091E80322FDF7CF0895CE
:103050002091E80322FD3BC03091E90330FDE3CF2E
:1030600024FFF5CFEDCF2091E80323FFF0CF24FD1F
:10307000E7CFD2CF2091E80323FD2CC03091E903A4
:1030800031FFEECF84EE90E008952091E80325FF14
:10309000DECF89E290E008952091E80325FFD7CFA5
:1030A00085E390E008952091E80326FFD0CF8AE2DF
:1030B00090E008952091E80326FFC9CF81E390E0D6
:1030C000089589E390E0089583EE90E0089582EEFC
:1030D00090E0089586EE90E008959091E80392FFC5
:1030E00006C0282F28712830F9F4877F846093FF69
:1030F00006C0282F28712831F1F4877E8461209141
:10310000E90320FF06C0382F38713830D9F4877FA3
:10311000816021FF06C0282F28712831D1F4877ED5
:10312000816194FD877E0895282F24712430F9F65B
:103130008B7F8860DCCF282F2471243101F78B7EB0
:103140008861DDCF382F3171313019F78E7F88607B
:10315000E0CF282F2171213121F78E7E8861E1CFC8
:1031600008950E94DE14811102C00E9483150E94FE
:10317000E9148093A0030E94F1149093E9038093D3
:10318000E8030E94B0180E94ED14682F70E090E0F0
:1031900080E00E946D0E6091240370912503809160
:1031A0002603909127030C94A50E0E94DC250E9413
:1031B000BF150C94E8250E94EC250E94ED150C9497
:1031C0000A260E94AB220E94C3250E94AB150E94D2
:1031D000D5180E94DB180E94BB15FBCF8091A70376
:1031E00080FF12C06091090185E0689FB001112441
:1031F000759567957595679560387105A8F56115A2
:103200007105A1F1862F089581FF09C06091090120
:1032100085E0689FB001112475956795EDCF6091A9
:10322000090182FD0AC08091A6038823D1F0909104
:10323000080160910901891728F085E0689FB001B5
:103240001124DACF869FB001112485E0869F90017A
:10325000879F300D1124692F70E0C9010E94162B41
:10326000CBCF65E070E0CECF8FE7089581E0089581
:103270008091A70380FF0CC06091050170E07595F7
:103280006795759567956115710549F1862F0895C4
:1032900081FF06C06091050170E075956795F3CFD9
:1032A0006091050182FD0BC09091A5039923A1F0C7
:1032B0006091040180910501961738F0682F70E045
:1032C0006038710500F38FE70895899FC0011124CC
:1032D00070E00E94162BF4CF61E070E0D7CF81E060
:1032E00008958D3E31F40E94EE1881958093AB03D2
:1032F00008958E3E19F40E94EE18F8CF8F3E31F4F7
:103300000E94EE1881958093AA030895803F19F4D6
:103310000E94EE18F8CF893F29F40E943819809353
:10332000AC0308958A3F21F40E9438198195F7CFA4
:103330008B3F31F40E94381981958093AD03089535
:103340008C3F19F40E943819F8CF9FE0980F9830FD
:1033500070F4815F990B21E030E001C0220F8A9563
:10336000EAF78091A903822B8093A90308958D3FEA
:1033700031F48091A70381608093A70308958E3F65
:1033800021F48091A7038260F7CF8F3FB9F7809136
:10339000A7038460F1CF4091AA038D3E59F4809138
:1033A000AB0387FF0DC01092AB0341110BC010920D
:1033B000A60308C08E3E81F48091AB0318169CF3DF
:1033C000442381F08091AC039091AD03892B09F0E7
:1033D0005AC01092A50308958F3E49F447FFF0CFDD
:1033E0001092AA038091AB038111ECCFE0CF803F14
:1033F00019F41416ACF3E4CF9091AC03893F29F48F
:103400001916F4F61092AC03DBCF8A3F19F497FF3C
:10341000D7CFF8CF9091AD038B3F29F497FFD0CF52
:103420001092AD03CDCF8C3F19F41916CCF3C8CF51
:103430009FE0980F983090F4815F990B21E030E085
:10344000B90102C0660F771F8A95E2F7CB0180951C
:103450009091A90389238093A903B2CF8D3F31F4C2
:103460008091A7038E7F8093A703AACF8E3F21F47C
:103470008091A7038D7FF7CF8F3F09F0A1CF809177
:10348000A7038B7FF0CF08958091A00383FF7EC0B8
:1034900082E395E00E947F078091A9031F928F939A
:1034A0008DE295E09F938F930E9418088BE295E040
:1034B0000E947F078091AA03282F082E000C330B4F
:1034C0003F938F9388E295E09F938F930E94180813
:1034D00086E295E00E947F078091AB03282F082E9B
:1034E000000C330B3F938F9383E295E09F938F9370
:1034F0000E94180881E295E00E947F078091AC034A
:10350000282F082E000C330B3F938F938EE195E00C
:103510009F938F930E9418088CE195E00E947F078B
:103520008091AD03282F082E000C330B3F938F930F
:1035300089E195E09F938F930E94180886E195E0BA
:103540000E947F078091A6031F928F9383E195E0ED
:103550009F938F930E94180881E195E00E947F0756
:103560008091A7031F928F938EE095E09F938F9396
:103570000E9418088BE095E00E947F078DB79EB7E8
:103580004C960FB6F8949EBF0FBE8DBF0E942223AB
:103590009C019091AA038091AB03982B21F030936A
:1035A000A4032093A3039091AC038091AD03982BC7
:1035B00021F03093A2032093A10388EA93E00C94B6
:1035C0007921EF92FF920F931F93CF93DF9300D057
:1035D00000D000D0CDB7DEB786E0E8EAF3E0DE0148
:1035E000119601900D928A95E1F7E090AA03F09070
:1035F000AB030091AC031091AD031092AA0310929B
:10360000AB031092AC031092AD038E2D8F2991F075
:103610008091A3039091A4030E943A23AC0190915E
:10362000A603992309F43FC080910A018417150667
:1036300008F447C0802F812B91F08091A1039091D5
:10364000A2030E943A23AC019091A503992309F4A7
:1036500077C0809106018417150608F47FC0809119
:10366000AA039091AB03892B9091AC03892B909185
:10367000AD03892B11F00E94441A86E0FE013196B9
:10368000A8EAB3E001900D928A95E1F726960FB66D
:10369000F894DEBF0FBECDBFDF91CF911F910F9188
:1036A000FF90EF90089520910B018AE0289F9001F0
:1036B00011242417350708F0BDCF9F5F9093A60310
:1036C00002C09F3FD1F7EE2059F00E94EE189FEF05
:1036D0001E140CF491E0899F802D11248093AA037D
:1036E000FF2059F00E94EE189FEF1F140CF491E098
:1036F000899F802D11248093AB033091AA0333233B
:1037000009F498CF2091AB03222309F493CF45EB22
:103710003403C0011124992359F09093AA0345EB77
:10372000240390011124332339F03093AB0382CF6B
:1037300081E08093AA03F3CF81E08093AB037ACF3B
:10374000209107018AE0289F900111242417350752
:1037500008F085CF9F5F9093A50302C09F3FD1F7EC
:10376000002359F00E9438199FEF10160CF491E0D5
:10377000899F802D11248093AC03112359F00E945E
:1037800038199FEF11160CF491E0899F802D1124B8
:103790008093AD033091AC03332309F460CF2091C3
:1037A000AD03222309F45BCF45EB3403C0011124A0
:1037B000992359F09093AC0345EB24039001112415
:1037C000332339F03093AD034ACF81E08093AC03CB
:1037D000F3CF81E08093AD0342CF86E0E8EAF3E0E7
:1037E000DF011D928A95E9F71092A6031092A503B6
:1037F0001092A7030895CF93DF93EC01FB01828120
:10380000882309F420C1C430FDE5DF07C8F5CB3FAC
:103810009CE5D90730F49E0122503C452431310506
:1038200098F50E94F1149093E9038093E803C03166
:10383000FCE5DF0709F4E0C008F061C0C8309CE592
:10384000D90709F4CBC088F5C430FCE5DF0709F4DB
:10385000B3C0E8F4C2309CE5D90709F4A7C0809151
:10386000E8038260C330DC4509F4A3C08091E8031B
:103870009091E9030E94FF140E94140E80E004C09E
:10388000C236EDE5DE0769F2DF91CF9108958091B0
:10389000E8038061C630FCE5DF0709F48AC008F45C
:1038A0008FC08091E803806284C08091E8038D7F9F
:1038B000CC309CE5D90709F47CC070F48091E80312
:1038C0008C60CA30FCE5DF0709F473C008F48AC0D5
:1038D0008091E8038E7F6DC08091E803877FCE30B2
:1038E0009CE5D90709F465C08091E8038B7FCF3050
:1038F000DC4508F45EC08091E8038F7E5AC0CD3F5E
:10390000FCE5DF0709F474C040F5C4319CE5D90734
:1039100009F48AC058F4C231FCE5DF0709F474C029
:1039200008F46EC08091E803837F43C0CB3F9CE5E1
:10393000D90709F449C008F04DC0C531DC4509F08C
:1039400095CF8091E80382FB992790F921E0922797
:1039500090FB82F990FB83F92CC0C1308DE5D8072C
:1039600009F458C088F48091E9038360CF3FECE507
:10397000DE0769F18091E9038D7FC115DD4538F1DE
:103980008091E9038C7F23C0C3308DE5D80709F40B
:1039900058C008F452C0C236DD4509F067CF909197
:1039A000E803892F8F7E94FF806103C08091E80334
:1039B00081608093E8035ACF8091E8038460F9CF57
:1039C0008091E8038860F5CF8091E903816080935E
:1039D000E9034CCF8091E9038260F9CF8091E8033D
:1039E0008064E7CF0E94140E8091E8038068E1CFE5
:1039F0008091E9038E7FEBCF8091E8038F7DD9CF53
:103A00008091E8038F7BD5CF0E94140E8091E8034C
:103A10008F77CFCF8091E903982F909591708E7F0B
:103A2000892B90FB81F9D3CF0E94140E9091E8036B
:103A3000892F97FB87F98058BCCF81E00E948515BC
:103A400015CF80E0FBCF81E01FCF809104011F9252
:103A50008F93809105011F928F93809108011F928F
:103A60008F93809109011F928F9380910A011F9279
:103A70008F9380910B011F928F9385E595E09F9323
:103A80008F930E9418088DB79EB70E960FB6F894C4
:103A90009EBF0FBE8DBF0895883228F58E3108F085
:103AA00072C08B3041F130F4873009F4CFC084EB21
:103AB00096E0E0C0833109F45FC08431C1F786ED40
:103AC00096E00E947F078091B203882309F4FEC02C
:103AD0001092B2031092B1031092B0031092AF0390
:103AE0001092AE0320C08F3409F4C7C0D8F58932D4
:103AF00031F38833E1F689ED96E00E947F070E945A
:103B0000251D1F9281E08F931F9285E08F9382ED98
:103B100095E09F938F930E9418080F900F900F903D
:103B20000F900F900F902091B203222309F4C9C087
:103B30008091AE039091AF03009711F48BE791E071
:103B40009F938F931F922F9382EA96E09F938F9378
:103B50000E9418080F900F900F900F900F900F90E9
:103B600081E00895813509F49CC008F49CC0823539
:103B700009F09DCF81E082C088EC96E00E947F072B
:103B80000E94251DD0CF8D518093B203833009F45C
:103B900042C058F48130C1F08230A1F11092B203DA
:103BA00085EC96E00E947F071BC0853009F445C074
:103BB000D8F1863099F784E091E09093B103809337
:103BC000B00383EC91E008C08BE091E09093B103E7
:103BD0008093B0038FE791E09093AF038093AE039F
:103BE0008091B203882309F49ECF1F928F9381ECBA
:103BF00096E09F938F930E9418080F900F900F905C
:103C00000F9091CF8AE091E09093B1038093B0033D
:103C100088E891E0E1CF89E091E09093B10380934F
:103C2000B00384E991E0D8CF88E091E09093B103AC
:103C30008093B00381EA91E0CFCF85E091E090934B
:103C4000B1038093B00380EB91E0C6CF8EE1809307
:103C50000B0182E380930A018AE08093090184E1E9
:103C60008093080188E08093050188E28093040135
:103C700087EB96E00E947F0756CF8AE0E091B00381
:103C8000F091B1033097D1F02081082E000C990BF0
:103C9000820F911D8F3F910541F03CF08FEF8083A3
:103CA00007C08FEFEBCF86EFE9CF97FFF8CF1082F9
:103CB00080811F928F938EEA96E09BCF8BEA96E0ED
:103CC000D9CF8EE996E00E947F074ACF80E0089521
:103CD000CF93C82F1F928F938FEE96E09F938F9371
:103CE0000E94180861E070E080E090E004C0660F78
:103CF000771F881F991FCA95D2F70E946D0E0F90EB
:103D00000F900F900F90CF910C94140EDF92EF92C2
:103D1000FF920F931F93CF93DF93EBEFE80FEF33F7
:103D200008F030C1F0E0E355F44D0C942A2B0E94CA
:103D3000ED141F928F938CE49BE09F938F930E94CE
:103D400018080E94E91483FB992790F91F929F930A
:103D500082FB992790F91F929F9381FB992790F9F5
:103D60001F929F93982F91701F929F931F928F93F2
:103D700083E09BE09F938F930E9418080E94F114A8
:103D800087FB222720F91F922F9386FB222720F9F9
:103D90001F922F9385FB222720F91F922F9384FBDC
:103DA000222720F91F922F9383FB222720F91F92AD
:103DB0002F9382FB222720F91F922F9391FB22271A
:103DC00020F91F922F93292F21701F922F9381FB8F
:103DD000222720F91F922F93282F21701F922F93B3
:103DE0009F938F938EE19AE09F938F930E94180880
:103DF0008DB79EB788960FB6F8949EBF0FBE8DBF45
:103E000081E01CC08CE09CE00E947F070E9483152B
:103E1000F7CF8CE698E00E947F07F2CF8091A00355
:103E2000807F8093A00385E498E00E947F0788E06C
:103E30009CE00E947F0781E08093B303DF91CF91E4
:103E40001F910F91FF90EF90DF9008958CEE9BE013
:103E50000E947F070E948709D3CF9091A003892FEA
:103E60008E7F90FF81608093A00380FF03C080EE6F
:103E70009BE0D1CF83ED9BE00E947F078091A00360
:103E8000817F8093A003BCCF9091A003892F8D7F69
:103E900091FF82608093A00381FF08C086EC9BE0C5
:103EA0000E947F078091A0038160EBCF88EB9BE0AD
:103EB000B2CF9091A003892F8B7F92FF8460809373
:103EC000A00382FF03C089EA9BE0EACF89E99BE077
:103ED000A2CF9091A003892F877F93FF8860809362
:103EE000A00383FF03C08DE89BE0DACF80E89BE06E
:103EF00092CF88E797E08FCF0E942E23062FF72ED0
:103F0000E82ED92EC091E803C7FBCC27C0F9109149
:103F1000E703D09118010E941221DF92EF92FF92E5
:103F20000F931F92CF931F921F931F92DF931F92A5
:103F30008F9384EF96E09F938F930E9418088DB71C
:103F40009EB70E960FB6F8949EBF0FBE8DBF58CF8A
:103F50000E94140E9091E803892F97FB87F98058EF
:103F60008093E80387FF03C086E79BE054CF8BE68E
:103F70009BE051CF80E00E94681E42CF8953FBCF67
:103F80008D51F9CF89E69BE00E947F0780E056CFF4
:103F900080E008950C94C81FCF93C82F8091B3037D
:103FA0008130C1F0882339F0823009F444C0109286
:103FB000B30380E00DC00E94BD138232D1F78C2F75
:103FC0000E94C81F81111BC08C2F0E94861E817009
:103FD000CF9108950E94BD13823289F38C2F0E94E5
:103FE000CA1F81111BC0C431D9F060F4CB3071F00D
:103FF000C031D1F089EE96E00E947F0713C081E0C6
:1040000090E0E5CFC93261F0C833A1F785E498E0CC
:104010000E947F078BEE96E00E947F0781E0D7CF5A
:104020001092B30380E0D3CF82E08093B30388E3A0
:104030000E944C1DF3CF8C2F0E944C1D81E0C8CFF5
:10404000CF93DF93EB0186319C4511F50E94BD13A0
:104050009A81992399F08A7A91E009F490E09093FB
:10406000B403811109C089E20E9473130E941C14D9
:1040700080E0DF91CF91089585E3F6CF8091B4037E
:10408000811104C089E20E947A13F0CF85E3FBCF4F
:1040900081E0EFCF0F931F93CF93DF93C42FD22FE5
:1040A000FC0182818823C9F04093B7030E94222338
:1040B0009093B6038093B50380E28C0F883008F0AC
:1040C00050C0C77081E001C0880FCA95EAF7DF9140
:1040D000CF911F910F910C947B0B1091B703141388
:1040E00035C08091B5039091B6030E943A23883C75
:1040F000910560F5C0E2CD0F1D17B9F080E2810F88
:10410000883040F4177081E001C0880F1A95EAF7F3
:104110000E94820BC83048F481E09D2F977001C047
:10412000880F9A95EAF70E947B0B802F0E94730BF1
:10413000C830B8F4D77081E001C0880FDA95EAF78B
:10414000DF91CF911F910F910C94820B80E28C0F25
:10415000883038F4C77081E001C0880FCA95EAF74B
:10416000EFCFDF91CF911F910F9108950F939C0195
:10417000CB01243F4CE5340759F1A8F4293DFCE577
:104180003F0701F12A3D4CE53407D1F1283D3C457C
:1041900091F406E221EE41EE68ED7CE50E944A20B2
:1041A00080E00F910895263FFCE53F07E9F0B0F06D
:1041B000273F3C45F9F0FC018281882339F11092B8
:1041C000B703EFCF07E225EE45EE69ED7CE5E6CFDC
:1041D00006E221EE40EE64EF7CE5E0CF07E225EE5B
:1041E00044EE65EF7CE5DACF06E221EE42EE66EFC3
:1041F0007CE5D4CF07E225EE46EE67EF7CE5CECF37
:1042000008E221E045EE6AED7CE5C8CF81E0C9CF48
:104210009093E9018093E80108959093BD03809302
:10422000BC030895E091BC03F091BD03309721F0E9
:104230000190F081E02D099480E00895EF92FF92C3
:104240000F931F93CF93DF93EC01E091BC03F091A8
:10425000BD03309709F446C080911801882341F0CE
:104260008091E80387FF04C08881898386E0888382
:104270000280F381E02DCE0109958091A00382FF99
:1042800031C080FF04C085E29CE00E947F0710E0FF
:1042900000E08FE1E82E8CE0F82E8091A00380FFF3
:1042A0000EC0FE01E00FF11F80811F928F93FF92DD
:1042B000EF920E9418080F900F900F900F900F5FD1
:1042C0001F4F0830110549F78091A00380FF0AC0F5
:1042D0008DE19CE0DF91CF911F910F91FF90EF90C6
:1042E0000C947F07DF91CF911F910F91FF90EF907A
:1042F0000895E091BC03F091BD03309739F022E0BE
:10430000DC012C930480F581E02D0994089520911F
:10431000BA033091BB032817390771F09093BB03A0
:104320008093BA03E091BC03F091BD03309721F074
:104330000680F781E02D099408952091B80330910B
:10434000B9032817390771F09093B9038093B80324
:10435000E091BC03F091BD03309721F00084F1851A
:10436000E02D09940895FC0132968091180188236C
:1043700021F08091E8039EE187FF96E080E0915074
:1043800008F4089521912223D1F38F5FF8CF66239B
:1043900001F1209118012223F1F02091E80327FF79
:1043A0001AC0462F4695469546954E3190F4677053
:1043B00021E030E002C0220F331F6A95E2F7840F3C
:1043C000911DFC01828190E02823392381E0232B79
:1043D00069F480E00895FC01329608962191261731
:1043E00021F0E817F907D1F7F4CF81E008959C0197
:1043F000FC0132969FEF80E04191461751F09F3FBC
:1044000019F4411101C0982F8F5F8630A9F79F3FA3
:1044100009F40895290F311D97FD3A95F90162833A
:104420000895FC01329608962191261303C0DF01FE
:1044300011971C92E817F907B9F70895E62FE6954A
:10444000E695E695EE3170F4E80FF92FF11D6770EF
:1044500021E030E001C0220F6A95EAF78281822BC9
:10446000828308958091A00380FF0CC01F926F93F8
:1044700085E59CE09F938F930E9418080F900F9002
:104480000F900F900895E62FE695E695E695EE31AC
:1044900078F4E80FF92FF11D677021E030E001C0DA
:1044A000220F6A95EAF720958281282322830895B6
:1044B0008091A00380FF0CC01F926F9387E39CE064
:1044C0009F938F930E9418080F900F900F900F905A
:1044D000089520911801222329F02091E80327FD57
:1044E0000C941E220C94F72120911801222329F00C
:1044F0002091E80327FD0C9443220C941122FC0127
:10450000329680911801882351F08091E80387FF4B
:1045100006C08EE1DF011D928A95E9F7089586E0D5
:10452000F9CF08950C949122811105C081E0809308
:10453000BE030C94922282E0FACF83E08093BE0304
:104540000C9492220C94942281E08093BE030C94EC
:1045500092220C94A42208958091F203843031F1C8
:104560000E9482091092BF0388E190E020E40FB618
:10457000F894A895809360000FBE2093600083B7E5
:10458000817F846083BF83B7816083BF789488957F
:1045900083B78E7F83BF0FB6F894A8958091600093
:1045A000886180936000109260000FBE08950895A6
:1045B0000895CF930E94D7220E9429080E94D822F2
:1045C000C0E08C2F0E948708892B31F4CF5FC53063
:1045D000C1F780E0CF91089581E0FCCF0E94140ED6
:1045E0000C94FF091F921FB61F9211248F939F9363
:1045F000AF93BF938091BF03811113C08091EA03F1
:104600009091EB03A091EC03B091ED034196A11DB5
:10461000B11D8093EA039093EB03A093EC03B09356
:10462000ED03BF91AF919F918F911F901FBE1F907F
:10463000189582E084BD93E095BD9AEF97BD809375
:104640006E0008952FB7F8948091EA039091EB03E0
:10465000A091EC03B091ED032FBF08952FB7F8940C
:104660006091EA037091EB038091EC039091ED036C
:104670002FBF08959C014FB7F8948091EA03909161
:10468000EB03A091EC03B091ED034FBF821B930BA2
:10469000089578941F921FB61F9211248F939F93B1
:1046A000AF93BF938091EA039091EB03A091EC0349
:1046B000B091ED030196A11DB11D8093EA03909383
:1046C000EB03A093EC03B093ED03BF91AF919F91E7
:1046D0008F911F901FBE1F90189587E797E79093C3
:1046E00001088093000888E19AE00FB6F894A89535
:1046F000809360000FBE90936000FFCF8091E6032F
:10470000089508959C0182E08093E9009FEF8091D5
:10471000E800915085FD06C085ED8A95F1F700000F
:104720009111F5CF8091E80085FF0CC050E040E08A
:1047300066E070E0C9010E947A268091E8008E77D9
:104740008093E8000895CF93DF93EC0180911801E6
:104750008823B1F18091E80387FF32C060E282E0F4
:104760008093E9008FEF9091E800815095FD06C09D
:1047700095ED9A95F1F700008111F5CF8091E80051
:1047800085FF1BC08091180170E050E040E081116E
:1047900004C050E040E068E070E0CE010E947A265C
:1047A0008091E8008E778093E80080E2FE01A6EC1D
:1047B000B3E001900D928A95E1F7DF91CF910895D2
:1047C00068E081E0CDCF8093C2037093C40360930F
:1047D000C3038091F203843001F582E08093E90005
:1047E0008FEF9091E800815095FD06C095ED9A9568
:1047F000F1F700008111F5CF8091E80085FF0DC031
:1048000050E040E063E070E082EC93E00E947A26A2
:104810008091E8008E778093E8000895BC0184E0E1
:104820000C94E323BC0183E00C94E32387E89CE031
:104830000E947F078091F103811109C00E940A281C
:104840000E9467288091E20084608093E2000895CE
:1048500083E89CE00E947F071092F10308958FE7A0
:104860009CE00E947F070C94A4228BE79CE00E94AE
:104870007F076091EE0381E0611101C080E00C943C
:104880009D2287E79CE00E947F079091F20381E0E0
:10489000943009F080E06091EE030C94A222209104
:1048A000C1032F5F822F62E30E940A2B992319F024
:1048B0002093C10308951092C1038091C5038823FA
:1048C000F1F08091F2038430C1F49091E9009F707F
:1048D0002091EC00822F817020FD80E8892B93E0ED
:1048E0009093E9009091EB0090FF04C09091EE004E
:1048F00097FD08C08F708093E9001092C50308955A
:104900001092F1009091E80095FDFACF9091E800A7
:1049100090FFF0CF9091E8009E779093E800EACF67
:1049200042E061EC81E00E94862742E261EC82E095
:104930000E94862742E261EC83E00E9486279091E4
:10494000F20381E0943009F080E06091EE030C9472
:1049500094228091F403833009F460C030F48130F4
:10496000C9F1823009F49CC008958A3009F488C0E6
:104970008B3009F46EC0893009F04FC08091F30389
:10498000813209F04AC08091F7039091F8030297B1
:1049900008F043C08091E800877F8093E800809111
:1049A000E80082FF36C09091F3008091F2000297F8
:1049B00031F48091F100813011F0863021F4809142
:1049C000F1008093E6038091E8008B778093E80004
:1049D0000C94BA278091F303813AF9F48091E800AE
:1049E000877F8093E8008091F7039091F803892BEB
:1049F00061F460E286EC93E070E00E94C926809149
:104A0000E8008B778093E800089560E090E080E014
:104A1000F3CF8091F2038111C2CF08958091F30307
:104A2000813AD9F78091F7039091F803892BA9F780
:104A30008091E800877F8093E8008091E80080FF04
:104A4000FCCF809118018093F1008091E8008E776F
:104A5000BDCF8091F303813201F78091F7039091EC
:104A6000F803892BD1F68091E800877F8093E800D6
:104A70000E94BA278091F503809318010C94140EBC
:104A80008091F303813249F68091E800877F80931B
:104A9000E8000E94BA278091F6038093E703089507
:104AA0008091F303813A09F0B8CF8091E800877FC5
:104AB0008093E8008091E80080FFFCCF8091E703BD
:104AC000C2CF9FB7F8941092C5039FBF9091F20395
:104AD000943009F048C02091E9002F703091EC002B
:104AE000932F917030FD90E8922B23E02093E90002
:104AF0002091EB0020FF34C02091EE0027FF30C052
:104B00002091C003222321F02091E80025FF28C036
:104B10001092C00326E03091E80035FF14C0809366
:104B2000F1008091E80085FD27C08091E80080FFBA
:104B3000FCCF8091E8008E778093E8009F7090937F
:104B4000E90080E008953091F203343049F4309167
:104B5000EB0035FD05C0215041F481E08093C00396
:104B60009F709093E9008FEF0895EFE9FFE0319790
:104B7000F1F700C00000CFCF8FB7F89421E0209369
:104B8000C5038FBFDBCF84B7877F84BF0FB6F89490
:104B9000A895809160008861809360001092600009
:104BA0000FBE80E890E00FB6F89480936100909378
:104BB00061000FBE0C94A9220E940A280E94672857
:104BC000E2EEF0E080818460808378940C94EF2A98
:104BD0008CE091E00C940D218091F2038530C9F4B2
:104BE00083E79CE00E947F078091F203853011F0FB
:104BF0000C94EE220E94AC228091F0038823A1F352
:104C00000E94D922882381F30E9464260E94140EF8
:104C1000EBCF089508950C940D26292F33272330C8
:104C2000310521F168F42130310509F443C0223007
:104C3000310509F444C090E080E030E020E026C077
:104C40002132310551F122323105A9F76330710566
:104C500090F7FB01EE0FFF1FE552FE4F20813181DF
:104C600068527E4FFB01808190E010C0992781300F
:104C7000910581F0009729F00297E9F6EBE8FCE056
:104C800002C0EBECFCE0849190E09F01FA013183DB
:104C900020830895EBEAFCE0F6CF6330710558F607
:104CA000660F771FFB01EF51FE4F2081318189E0B4
:104CB00090E0ECCF82E190E02AE23DE0E7CF8BE5A7
:104CC00090E02FEC3CE0E2CF80E189BD82E189BD3C
:104CD00009B400FEFDCF8091D8008F7D8093D8006D
:104CE0008091E00082608093E0008091E00081FD8F
:104CF000FCCF0895AF92BF92CF92DF92FF920F93B5
:104D00001F93CF93DF936C01EB018A010E94D92797
:104D1000F82E811123C00115110539F0F8018081A9
:104D20009181C81BD90BC80ED91EB12CA12C20977C
:104D3000A9F08091E80085FD22C08091E8008E777F
:104D40008093E80001151105A1F0F801808191819F
:104D5000A80EB91EB182A08285E0F82E8F2DDF91BA
:104D6000CF911F910F91FF90DF90CF90BF90AF90A8
:104D700008950E94D9278823D1F2F82EEFCFF601AB
:104D800081916F018093F1002197FFEFAF1ABF0A65
:104D9000CECFFC018091F9039091FA038617970713
:104DA000A0F06115710529F49091E8009E77909329
:104DB000E80090E06115710551F4911108C08091EF
:104DC000E80082FF34C080E00895BC01F2CF8091FA
:104DD000F2038823C1F18530C1F18091E80083FDA1
:104DE00030C08091E80082FDEACF8091E80080FF2A
:104DF000E1CF8091F3002091F200382F6115710509
:104E000019F02830310558F091E02830310509F0CB
:104E100090E02091E8002E772093E800CBCF81919D
:104E20008093F100615071092F5F3F4FE7CF809170
:104E3000F203882341F0853041F08091E80083FF40
:104E4000BECF81E0089582E0089583E00895FC01DB
:104E50008091F9039091FA0386179707A0F06115E6
:104E6000710529F48091E8008E778093E80090E046
:104E70006115710551F4911108C08091E80082FF1D
:104E800035C080E00895BC01F2CF8091F203882301
:104E9000C9F18530C9F18091E80083FD31C080916E
:104EA000E80082FDEACF8091E80080FFE1CF8091A9
:104EB000F3002091F200382F6115710519F02830A8
:104EC000310558F091E02830310509F090E08091EB
:104ED000E8008E778093E800CBCF84918093F10037
:104EE0003196615071092F5F3F4FE6CF8091F203F9
:104EF000882341F0853041F08091E80083FFBDCFE9
:104F000081E0089582E0089583E00895982F973016
:104F100028F08F708093E90081E008959093E90074
:104F2000242F762F50E0981731F07091EC002091EB
:104F3000ED005091F00021FD02C09F5FE8CF30915D
:104F4000EB003E7F3093EB003091ED003D7F3093DE
:104F5000ED003091EB0031603093EB007093EC008A
:104F60002093ED005093F0002091EE0027FDE5CF57
:104F700080E008958091F30387FF13C08091E800DB
:104F800082FF06C08091E8008B778093E80004C020
:104F90008091F2038111F2CF08958091F20388236A
:104FA000D9F38091E80080FFF8CF8091E8008E77F8
:104FB000ECCF2091E4003091E50095E6A901209125
:104FC000EC00822F817020FF06C08091E80080FFF6
:104FD00006C080E008952091E80022FD1AC080916B
:104FE000F203882389F0853089F08091EB0085FDFC
:104FF0000FC02091E4003091E50042175307F9F209
:105000009150E1F684E0089582E0089583E00895E8
:1050100081E008950E9478280E948028E0EEF0E068
:10502000808181608083E8EDF0E080818F778083EC
:1050300019BCA7EDB0E08C918E7F8C9380818F7E20
:1050400080831092F10308950F931F93CF93DF9302
:105050000E9478280E948028C8EDD0E088818F7750
:10506000888388818068888388818F7D888319BC44
:105070001092F2031092EE031092F0031092EF03DD
:1050800000EE10E0F80180818B7F80838881816051
:10509000888342E060E080E00E948627E1EEF0E055
:1050A00080818E7F8083E2EEF0E08081816080836A
:1050B000808188608083F80180818E7F80838881F1
:1050C00080618883DF91CF911F910F910895E8ED62
:1050D000F0E080818F7E8083E7EDF0E08081816069
:1050E000808384E082BF81E08093F1030C942428C4
:1050F000E8EDF0E080818E7F80831092E2000895D9
:105100001092DA001092E10008951F920F920FB6EC
:105110000F9211242F933F934F935F936F937F933D
:105120008F939F93AF93BF93EF93FF938091E10091
:1051300082FF0BC08091E20082FF07C08091E100F6
:105140008B7F8093E1000E944F248091DA0080FFE2
:1051500019C08091D80080FF15C08091DA008E7F41
:105160008093DA008091D90080FF96C080E189BDEC
:1051700082E189BD09B400FEFDCF81E08093F20396
:105180000E9416248091E10080FF19C08091E20006
:1051900080FF15C08091E2008E7F8093E2008091B5
:1051A000E20080618093E2008091D8008062809369
:1051B000D80019BC85E08093F2030E9435248091C9
:1051C000E10084FF2BC08091E20084FF27C080E1D2
:1051D00089BD82E189BD89B5982F917080FFFBCF91
:1051E0008091D8008F7D8093D8008091E1008F7EE0
:1051F0008093E1008091E2008F7E8093E2008091B5
:10520000E20081608093E2008091EE03882309F43C
:1052100049C084E08093F2030E9441248091E10020
:1052200083FF29C08091E20083FF25C08091E100C7
:10523000877F8093E10082E08093F2031092EE0377
:105240008091E1008E7F8093E1008091E2008E7F6B
:105250008093E2008091E20080618093E20042E06E
:1052600060E080E00E9486278091F0008860809353
:10527000F0000E942F24FF91EF91BF91AF919F9179
:105280008F917F916F915F914F913F912F910F90EF
:105290000FBE0F901F90189519BC1092F2030E9438
:1052A000282470CF8091E30087FD93E09093F20370
:1052B000B3CF1F920F920FB60F9211242F933F93EB
:1052C0004F935F936F937F938F939F93AF93BF930E
:1052D000CF93DF93EF93FF93D091E900DF7080913C
:1052E000EC00C82FC17080FDC0E81092E9008091E9
:1052F000F000877F8093F00078940E949D2910929F
:10530000E9008091F00088608093F000CD2BCF7091
:10531000C093E900FF91EF91DF91CF91BF91AF91E1
:105320009F918F917F916F915F914F913F912F91BD
:105330000F900FBE0F901F9018951F93CF93DF9380
:10534000CDB7DEB7AA970FB6F894DEBF0FBECDBFBC
:1053500083EF93E02091F100FC012193CF01F3E072
:105360008B3F9F07B9F70E94A9248091E80083FF33
:105370001EC18091F3039091F4039A3008F017C195
:10538000E92FF0E0E451F44D0C942A2B803899F089
:10539000823809F00CC18091F7038F70873008F0D4
:1053A00006C18093E9008091EB0085FB882780F996
:1053B0001092E90006C08091EF039091F0039111E3
:1053C00082609091E800977F9093E8008093F100CD
:1053D0001092F1008091E8008E77E5C0882309F4EF
:1053E000D3C0823009F0E3C08091F5038111D6C0AB
:1053F0008091F7038F702FEF280F263008F0D7C069
:105400008093E9002091EB0020FFC8C0933031F475
:105410008091EB0080628093EB00C0C09091EB0024
:1054200090619093EB0021E030E001C0220F8A955B
:10543000EAF72093EA001092EA008091EB0088607E
:10544000EACF8111B4C01091F5031F778091E3007A
:105450008078812B8093E3008091E800877F8093A0
:10546000E8000E94BA278091E80080FFFCCF80917D
:10547000E30080688093E30082E0111183E0809371
:10548000F20395C08058823008F091C08091F503F6
:105490009091F6038C3D23E09207A1F583E08A8387
:1054A0008AE289834FB7F894DE01139620E03EE04C
:1054B00051E2E32FF0E050935700E49120FF03C046
:1054C000E295EF703F5FEF708E2F90E0EA30C0F012
:1054D000C7968D939D932F5F243159F74FBF8091CD
:1054E000E800877F8093E8006AE270E0CE010196D1
:1054F0000E94C9268091E8008B778093E80057C00E
:10550000C096E7CF6091F7037091F803AE014F5F4B
:105510005F4F0E940B26BC01892B09F448C0909173
:10552000E800977F9093E80089819A810E9427275D
:10553000E1CF8038E1F58091E800877F8093E80033
:105540008091EE038093F10045CF811130C090919E
:10555000F503923060F58091E800877F8093E80042
:105560009093EE030E94BA278091EE03882311F0F6
:1055700084E005C08091E30087FDFACF81E080934D
:10558000F2030E94902413C08091F503813079F4D6
:1055900081E0933009F080E08093F0031092E900FD
:1055A0008091E800877F8093E8000E94BA2780916D
:1055B000E80083FF0AC08091E800877F8093E800BD
:1055C0008091EB0080628093EB00AA960FB6F8946E
:1055D000DEBF0FBECDBFDF91CF911F910895CF9356
:1055E0008091F2038823A1F0C091E900CF709091DF
:1055F000EC00892F817090FD80E8C82B1092E900A3
:105600008091E80083FD0E949D29CF70C093E9003E
:10561000CF910895991B79E004C0991F961708F05F
:10562000961B881F7A95C9F78095089597FB072EDA
:1056300016F4009407D077FD09D00E94302B07FCA8
:1056400005D03EF4909581959F4F08957095619592
:105650007F4F0895EE0FFF1F0590F491E02D099400
:10566000AA1BBB1B51E107C0AA1FBB1FA617B70788
:1056700010F0A61BB70B881F991F5A95A9F78095A4
:105680009095BC01CD010895F999FECF92BD81BDE1
:10569000F89A992780B50895A8E1B0E042E050E07B
:1056A0000C94782B262FF999FECF92BD81BDF89AE4
:1056B000019700B4021639F01FBA20BD0FB6F89456
:1056C000FA9AF99A0FBE08950396272F0E94532B3A
:1056D0000E94522B252F0E94532B242F0C94532BC6
:1056E0000196272F0E94532B0C94522BDC01CB01E7
:1056F000FC01F999FECF06C0F2BDE1BDF89A3196E2
:1057000000B40D9241505040B8F70895F894FFCF7F
:105710001D091D0926092609260926092609C30B84
:10572000C30BF40BF40B870CA30C230C230CAE0C53
:105730003A0D490D490DA10D230C230CAA0D230E82
:10574000230E2C0E2C0E2E0E2C0E2C0E2C0E230E99
:10575000230E330E2C0E2C0E330E261F0E1F2D1F64
:10576000971EC21FC21F091FC21FC21F591FC21F7F
:10577000691FA81FC21FC21FC21FC21F7C1FC21FDA
:10578000C21F791FC21F441FC21FC21FC01FC01FDC
:10579000C01FC01FC01FC01FC01FC01FC01FBA1F17
:1057A000C21F261F021FC21FC21FC21FC21FC21F4D
:1057B000C21FC21FC21FC21FC21FBA1FC21FC21FE9
:1057C000091FC21FBE1FBE1FBE1FBE1FBE1FBE1FA2
:1057D000BE1FBE1FBE1FBA1FC629EE29D72AEE293B
:0C57E000D72A212A422AD72A992AA52A72
:1057EC00C8006A032808641E140A321E7E23A323F1
:1057FC00822312240E24812301E200E900EA00B581
:10580C0000B600B700CD008301CC008A0192019450
:10581C00012102230224022502260227022A02B3B6
:10582C0000B4006F007000818283E200E900EA009E
:10583C00B500B600B700CD008301CC008A019201FF
:10584C0094012102230224022502260227022A02A5
:10585C00B300B4006F0070008182833F3F3F006D46
:10586C006B5F64656C6179006D6B5F696E746572FA
:10587C0076616C006D6B5F6D61785F7370656564EC
:10588C00006D6B5F74696D655F746F5F6D6178003F
:10589C006D6B5F776865656C5F6D61785F73706564
:1058AC006564006D6B5F776865656C5F74696D65C9
:1058BC005F746F5F6D61780040B622140E5E0D3C14
:0858CC000DE10CFA0C130D00B4
:00000001FF
