:100000000C9436060C947D060C947D060C947D06AB
:100010000C947D060C947D060C947D060C947D0654
:100020000C947D060C947D060C94F7260C94CB273B
:100030000C9452210C947D060C947D060C947D0644
:100040000C947D060C947D060C947D060C947D0624
:100050000C947D060C94A9210C947D060C947D06CD
:100060000C947D060C94EE070C947D060C947D0692
:100070000C947D060C947D060C947D060C947D06F4
:100080000C947D060C947D060C947D060C947D06E4
:100090000C947D060C947D060C947D060C947D06D4
:1000A0000C947D060C947D060C947D060A00253088
:1000B000313662003A200025303258000A722F6330
:1000C00020303132333435363738394142434445B4
:1000D000460A0035001E001F0020002100220023D8
:1000E00000045124002500260027002D002E002B9F
:1000F0000014001A000800150017004A004D001CEB
:100100000018000C001200130031002961040016D1
:1001100000070009000A004E00705D0B000D000E84
:10012000000F003300340002551D001B00060019AB
:100130000005004B006F5D110010003600370038DD
:1001400000125503550555E30090642C432B614C78
:10015000002A0028002C425000510052004F003568
:10016000001E001F00200021002200230004512453
:10017000002500260027002D002E002B0014001A59
:10018000000800150017004A004D001C0018000C64
:100190000012001300310029610400160007000955
:1001A000000A004E00705D0B000D000E000F0033C2
:1001B00000340002551D001B000600190005004B0D
:1001C000006F5D1100100036003700380012550A2C
:1001D000550C55055590642C432B684C002A00287B
:1001E000002C425000510052004F0001003A003BE9
:1001F000003C003D003E003F000100400041004245
:10020000004300440045000100570055002F023014
:10021000023102010001000100F900520001000159
:1002200000010039002002210226022702240201D7
:10023000000100FB00500051004F00FC00010001D4
:1002400000220223022F003000670001000100019C
:1002500000FA00010001000100010001000100019D
:100260000001000100295D01000100010001000101
:100270000001000100010001003A003B003C003D8C
:10028000003E003F000100400041004200430044A6
:100290000045000100F200F300ED00F900F100015B
:1002A00000010057005F0060006100560067000118
:1002B00000FB00EF00EE00F000FC00010001005523
:1002C000005C005D005E0054006700010001000159
:1002D000000100FA00010001000100620059005A0B
:1002E000005B0001000100010001000100010001AC
:1002F00000010001000100010001000100010001F6
:10030000000100005C1050115000000000000000CF
:1003100000000000000000000000000000000000DD
:10032000000000FF000000000000000000000000CE
:10033000000000000000000000000000000000FEBF
:1003400000000000000000000000000000000000AD
:100350000000000000000000000000FD00000000A0
:10036000000000000000000000000000000000008D
:10037000000000000000000000000000000000007D
:100380000000000000000000000000000000004429
:10039000454255473A2064697361626C65642E0A70
:1003A0000044454255473A20656E61626C65642E93
:1003B0000A004F6E6573686F743A2074696D656FDB
:1003C00075740A004F6E6573686F743A20616374C8
:1003D0006976653A2025640A000A00253032580003
:1003E0006B6579626F6172645F7365745F6C65647D
:1003F0003A2000290A002575002F002575005D2888
:1004000000256400200025640020002564002000F1
:100410002564007C0025303258006D6F7573656B64
:100420006579205B62746E7C782079207620685D27
:10043000287265702F61636C293A205B006E6F2013
:100440006B6E6F627320736F7272790A00703A0973
:100450007072696E742076616C7565730A643A090E
:100460007365742064656661756C74730A75703A9F
:10047000092B310A646E3A092D310A6C743A092B42
:1004800031300A72743A092D31300A4553432F71C5
:100490003A09717569740A004D3E20004D25753A80
:1004A00025733E20003F0A003D2025750A003F0AC3
:1004B0000064656661756C74730A0025750A003FF7
:1004C0000A000A092D2056616C756573202D0A00FB
:1004D000710A000A092D204D6F7573656B657920CF
:1004E0002D0A003F00433E20004C25640A000A0903
:1004F0002D20537461747573202D0A686F73745FB7
:100500006B6579626F6172645F6C65647328293A08
:1005100020253032580A6B6579626F6172645F70B2
:10052000726F746F636F6C3A20253032580A6B65B6
:1005300079626F6172645F69646C653A202530325C
:10054000580A6B65796D61705F636F6E6669672EBF
:100550006E6B726F3A20253032580A74696D65727D
:100560005F72656164333228293A202530386C582F
:100570000A000A092D2056657273696F6E202D0AD4
:100580005649443A20307834443434284D617474E8
:1005900069612044616C2042656E29205049443ACB
:1005A00020307835323537285265646F785F776947
:1005B00072656C65737329205645523A2030783045
:1005C0003030310A4255494C443A2020284A756E51
:1005D0002032302032303232290A4F5054494F4EA7
:1005E000533A204C554641204D4F5553454B4559A4
:1005F0002045585452414B455920434F4E534F4C80
:100600004520434F4D4D414E44204E4B524F2034D8
:100610003039360A4743433A20382E342E302041B1
:1006200056522D4C4942433A20322E302E30204132
:1006300056525F415243483A20617672350A000AA9
:10064000092D20436F6E736F6C65202D0A4553434F
:100650002F713A09717569740A6D3A096D6F757376
:10066000656B65790A000A092D204D616769632071
:100670002D0A443A094465627567204D65737361BC
:10068000676520546F67676C650A583A094D617455
:10069000726978204465627567204D6F64652054E7
:1006A0006F67676C65202D2053686F77206B6579C5
:1006B0007072657373657320696E206D6174726901
:1006C0007820677269640A4B3A094B6579626F61F9
:1006D000726420446562756720546F67676C65209B
:1006E0002D2053686F77206B657970726573732066
:1006F0007265706F72740A4D3A09446562756720BD
:100700004D6F75736520546F67676C650A563A09BB
:1007100056657273696F6E0A533A09537461747542
:10072000730A433A09416374697661746520436FC3
:100730006E736F6C65204D6F64650A46312D4631CE
:10074000303A0953776974636820746F204C61797B
:10075000657220302D392028463130203D204C3024
:10076000290A302D393A0953776974636820746F08
:10077000204C6179657220302D390A475241564527
:100780003A0953776974636820746F204C61796506
:100790007220302028616C7465726E617465290A5C
:1007A000423A094A756D7020746F20426F6F746C05
:1007B0006F616465720A4553433A094A756D70204A
:1007C000746F20426F6F746C6F6164657220286172
:1007D0006C7465726E617465290A453A09507269D4
:1007E0006E7420454550524F4D2053657474696EA8
:1007F00067730A4253504143453A09436C6561723D
:1008000020454550524F4D0A4E3A094E4B524F200B
:10081000546F67676C650A006B65796D61705F6323
:100820006F6E6669672E7261773A20253032580AFA
:100830002E737761705F636F6E74726F6C5F63614C
:1008400070736C6F636B3A2025750A2E6361707349
:100850006C6F636B5F746F5F636F6E74726F6C3A13
:100860002025750A2E737761705F6C63746C5F6C02
:100870006775693A2025750A2E737761705F726318
:10088000746C5F726775693A2025750A2E737761FB
:10089000705F6C616C745F6C6775693A2025750ACE
:1008A0002E737761705F72616C745F726775693AFD
:1008B0002025750A2E6E6F5F6775693A2025750AC7
:1008C0002E737761705F67726176655F6573633AF7
:1008D0002025750A2E737761705F6261636B736C9C
:1008E0006173685F6261636B73706163653A202551
:1008F000750A2E6E6B726F3A2025750A0064656268
:1009000075675F636F6E6669672E7261773A20253F
:100910003032580A2E656E61626C653A2025750A80
:100920002E6D61747269783A2025750A2E6B65798F
:10093000626F6172643A2025750A2E6D6F7573655A
:100940003A2025750A006565636F6E6669673A0A25
:1009500064656661756C745F6C617965723A2025B7
:10096000750A003F004E4B524F3A206F66660A00F0
:100970004E4B524F3A206F6E0A000A6D6F757365C9
:100980003A206F66660A000A6D6F7573653A206FCC
:100990006E0A000A6B6579626F6172643A206F6655
:1009A000660A000A6B6579626F6172643A206F6E45
:1009B0000A000A6D61747269783A206F66660A00EF
:1009C0000A6D61747269783A206F6E0A000A646574
:1009D0006275673A206F66660A000A646562756729
:1009E0003A206F6E0A000A0A4A756D70696E6720B8
:1009F000746F20626F6F746C6F616465722E2E2E3F
:100A00002000433E2000436C656172696E6720459B
:100A10004550524F4D0A000A002530325820006BD5
:100A20006579626F6172645F7265706F72743A208B
:100A30000064656C5F6B65795F6269743A2063611D
:100A40006E27742064656C3A20253032580A0061A4
:100A500064645F6B65795F6269743A2063616E27D5
:100A600074206164643A20253032580A005B735D5B
:100A7000005B575D005B535D005B525D005B445D56
:100A8000005B435D001E035200650064006F007848
:100A9000005F0077006900720065006C00650073FC
:100AA00000730000001E034D0061007400740069B3
:100AB0000061002000440061006C002000420065DD
:100AC000006E0000000403090409025B000301003A
:100AD000A0FA09040000010301010009211101002D
:100AE000012240000705810308000A0904010001F2
:100AF0000300000009211101000122D40007058232
:100B00000320000A09040200020300000009211169
:100B100001000122220007058303200001070503CD
:100B2000032000011201000200000008444D57524A
:100B30000100010200010631FF0974A101097515C8
:100B40000026FF009520750881020976150026FF12
:100B500000952075089102C005010902A1018502D6
:100B60000901A100050919012908150025019508A9
:100B7000750181020501093009311581257F950232
:100B80007508810609381581257F9501750881064C
:100B9000050C0A38021581257F950175088106C06C
:100BA000C005010980A101850319012AB7001501BB
:100BB00026B700950175108100C0050C0901A1013F
:100BC000850419012AA002150126A00295017510BD
:100BD0008100C0050C0901A10185050903A10405D7
:100BE000091901292015002501952075018102C0F0
:100BF000C005010906A1018506050719E029E715C9
:100C00000025019508750181020507190029EF15D6
:100C100000250195F0750181020508190129059546
:100C20000575019102950175039101C00501090641
:100C3000A101050719E029E71500250195087501AF
:100C400081029501750881010507190029FF15002A
:100C500026FF0095067508810005081901290595EC
:100C60000575019102950175039101C011241FBE04
:100C7000CFEFDAE0DEBFCDBF04B603FE27C0809120
:100C8000C7039091C803A091C903B091CA038730EC
:100C9000904BA740B04BD1F41092C7031092C803F9
:100CA0001092C9031092CA0314BE84B7877F84BF11
:100CB0000FB6F894A89580916000886180936000D9
:100CC000109260000FBEE0E0F8E3099511E0A0E0AB
:100CD000B1E0E2E7F4E502C005900D92A83AB10751
:100CE000D9F723E0A8EAB1E001C01D92A73CB20702
:100CF000E1F70E94F8170C94D0290C940000FF93A0
:100D0000EF93E091A801F091A901309709F00995BE
:100D1000EF91FF910895FC018591803011F0EFDF94
:100D2000FBCF0895FF27E0E230E247FF0CC041957A
:100D300097FF09C0EDE26095709580959095611DD3
:100D4000711D811D911D27FF02C0219530E350E2E6
:100D5000AA27660F771F881F991FAA1FA41710F0D4
:100D6000A41B63955A95A9F7AA3008F0A95FA05D66
:100D7000AF93F395611571058105910541F7ED324A
:100D800011F4EF93F395F21718F43F93F395FBCF1B
:100D90008F91B5DFFA95E1F70895E991F991859181
:100DA000803021F0853219F0AADFF9CF089520E0D4
:100DB000E89455915532C1F3503311F4689455912C
:100DC0005A3348F4505390F3220F022E220F220F71
:100DD000200D250FF4CF0EF421958991999153366A
:100DE00019F3533729F1533559F1BC018827992755
:100DF000E8945C3621F48991999168945591543620
:100E000039F446EF7EF077FF0DC08FEF9FEF0AC0F9
:100E100055374AE039F0583540E121F0523642E08A
:100E200009F00895FF93EF937DDFEF91FF91B7CF26
:100E3000FF93EF93FC0181918030B9F360DFFBCF2A
:100E4000FF93EF9368DFF1CFDF93CF93CDB7DEB79A
:100E50002596A3DFCF91DF910895089508950C940E
:100E60002E070E9485080C94E307EF92FF921F93D0
:100E7000CF93DF93CDB7DEB72B970FB6F894DEBFD5
:100E80000FBECDBF83E78093CE00CE0101967C01DB
:100E90008BE0D7011D928A95E9F7D7019E01245F67
:100EA0003F4FC70140E050E0BA011091C80017FD64
:100EB0000AC04F5F5F4F6F4F7F4F4131E7E25E07E0
:100EC0006105710590F31091CE00FC011193CF01E3
:100ED000E217F30751F78B85803EB1F42AEA31E03F
:100EE000B701665F7F4F11968C911197F0E88F9F45
:100EF000C00111244C91842BF901819391939F019E
:100F000012966A177B0779F70E948B0881E02B966F
:100F10000FB6F894DEBF0FBECDBFDF91CF911F910A
:100F2000FF90EF900895E82FF0E0EE0FFF1FE655D9
:100F3000FE4F808191810895CF92DF92EF92FF92D0
:100F40000F931F93CF93DF938CEB90E00E948B065F
:100F50008AEAE82E81E0F82ED0E0C0E097EBC92EB7
:100F600090E0D92E0EEA10E0DF93CF93DF92CF927C
:100F70000E94240784EB90E00E948B06F701819188
:100F800091917F010E947B099F938F931F930F93F1
:100F90000E9424078CEA90E00E948B0621968DB770
:100FA0009EB708960FB6F8949EBF0FBE8DBFC53092
:100FB000D105D1F6DF91CF911F910F91FF90EF9066
:100FC000DF90CF900895ECECF0E01082108288E181
:100FD0008093C90086E08093CA0008958F938FB7ED
:100FE0008F939F93EF93FF93E091B50181E08E0F74
:100FF0009091B401981741F09091CE00F0E0EA543E
:10100000FE4F90838093B501FF91EF919F918F9157
:101010008FBF8F911895519A599A80B3806380BB86
:1010200081B3806381BB08950E942D070C940B0847
:10103000CF92DF92EF92FF926B017C010E94160922
:10104000813021F0843061F08D9A0BC08D9A5998CF
:101050008C9AC701B601FF90EF90DF90CF90089572
:101060008D98599AF5CF81E0089581E008950C9408
:10107000350808950C9439081F93CF93DF9300D05F
:1010800000D00F92CDB7DEB749835A836B8330917E
:10109000B60289819A8131111DC06623B9F02223DD
:1010A000A9F00E94D20E182F682F89819A810E9480
:1010B0007E0E69817A81812F0F900F900F900F9093
:1010C0000F90DF91CF911F910C94BA150E94AA0E38
:1010D000182FEFCF0E94D20E69817A81EDCFFC01EB
:1010E000262F408151816281738184810C943C0858
:1010F00081E00895CF93DF93EC0160E00E946F08D8
:10110000BE01DF91CF910C943A080E94C8170E944B
:101110008F090C9414080C942F0780E00C9490090C
:10112000089508950E94290D0E9491082FEF84E3ED
:101130009CE0215080409040E1F700C000000C94FA
:10114000CD210F931F93CF93DF938C0161E00E9419
:101150006F08EC01B8010E9437088823F1F1B8014B
:10116000CE010E94F01E8823C1F1B801CE010E9479
:101170004A1A882391F1B801CE010E94EC1D882300
:1011800061F1B801CE010E94161E882331F1F801E9
:101190008281882361F0CF3DFCE5DF07B1F170F477
:1011A000C115ECE5DE07B9F0C130DC45E1F0C8015E
:1011B000DF91CF911F910F910C943308CC358DE5C1
:1011C000D80749F1CD35DC0719F1CB35DD4579F785
:1011D0000E94ED13ECCF0E94920880E0DF91CF9146
:1011E0001F910F91089590916003892F8E7F90FF3A
:1011F00081608093600380FF05C081EA93E00E94D4
:101200008B06EBCF8FE893E0FACF0E949814E5CFDE
:101210000E94E413CCCF0E94F013C9CF0C94900825
:101220000E944C1F0E9490090C940E09CF92DF92ED
:10123000EF92FF926C01EE24FF2420E0C114D10450
:10124000E104F10419F0C701B60120E1C72ED82E40
:10125000E92EFF24C114D104E104F10419F0285F40
:10126000C701B6016B017C0154E0F694E794D79472
:10127000C7945A95D1F7C114D104E104F10419F0CF
:101280002C5FC701B6016B017C0142E0F694E79444
:10129000D794C7944A95D1F7C114D104E104F1045D
:1012A00019F02E5FC701B6019695879577956795DA
:1012B000672B682B692B09F02F5F822FFF90EF902F
:1012C000DF90CF900895829590E09C01220F331F0C
:1012D000220F331F2C7C9595879595958795837361
:1012E000282B30E0C901880F991F8A7A35952795F8
:1012F0002575822B0895CF93DF93D92F0E94630920
:10130000C82F8D2F0E9463099C2FDF91CF910895E4
:1013100008950C94880981E008950C948B09089530
:10132000CF93C82F0E9489098C2FCF910C948D09DF
:10133000CF93DF93CDB7DEB72B970FB6F894DEBF10
:101340000FBECDBF4F83588769877A878B8761111E
:101350000E94F2121E821D8285E0FE013796DE0198
:10136000119601900D928A95E1F78091B50382FD67
:101370000CC00E94B512882319F082E00E94A013CD
:101380000E949C1281110E9423138C819D81892BC4
:1013900089F449815A816B817C818D819E810E9473
:1013A000EE112B960FB6F894DEBF0FBECDBFDF91C6
:1013B000CF91089589819A8189238F3F51F3CE017E
:1013C00001960E9478088111E4CFEBCFFC01808167
:1013D00091810C94140FCF93C82F882309F44CC02B
:1013E0008CEF8C0F813AC8F48C2F0E94981D8111CC
:1013F00043C06C2F80910201909103010E9427202D
:10140000882329F08C2F0E948F120E9431138C2F79
:101410000E948812CF910C94311380E28C0F883097
:1014200048F4C77081E001C0880FCA95EAF70E94AE
:10143000D512F0CFEBE5EC0FE33040F4F0E0E05AEA
:10144000FE4F808190E0CF910C94C11FE8E5EC0F36
:10145000E73150F4F0E0EE0FFF1FEE5CFE4F8081AD
:101460009181CF910C94D71FCD3E30F08C2F0E94EC
:101470007C18CF910C942719CF910895882361F19E
:101480009CEF980F913A20F40E948F120C94311324
:1014900090E2980F983050F4877091E001C0990F56
:1014A0008A95EAF7892F0E94DB12F0CF9BE5980F0F
:1014B000933020F490E080E00C94C11F98E5980FE1
:1014C000973120F490E080E00C94D71F8D3E20F0FF
:1014D0000E94D1180C94271908951F93CF93DF937E
:1014E000182FEB010E94EB09209731F4812FDF9137
:1014F000CF911F910C943E0A8FE99FE00197F1F77D
:1015000000C000002197F0CF70E060E0893311F453
:1015100060E570E00C946D0A882321F00E94D512DA
:101520000C9431130895882321F00E94DB120C944F
:1015300031130895BF92CF92DF92EF92FF920F93F3
:101540001F93CF93DF936C01D62FC72FFC0112811D
:10155000F580F2949FE0F9220E94CB12E82E8823B6
:10156000B9F0E12E1123A1F08C2F807F803421F07F
:1015700080E28D0F8830B0F08091B50382FD12C0FB
:1015800082E00E94A0130E94CB1291E0E82EE9268F
:10159000BC2EB2948FE0B822EB2DF0E0EE52F64D67
:1015A0000C948829E12CF4CF0C2F0F70C07F11F020
:1015B0000295007F112399F0002359F080E28D0FEE
:1015C000883010F0D11107C0802F0E94D5120E94E0
:1015D00031138D2F41C0802F0E94E512F8CF8D2F3F
:1015E0000E943E0A002309F43FC080E28D0F88303C
:1015F00010F0D11104C0802F0E94DB1203C0802F95
:101600000E94EB120E9431132FC00C2F0F70C07F6D
:10161000C03211F00295007FDD2381F0D13009F452
:1016200069C0112309F473C0FF2009F469C0F601F1
:10163000858180FFCECF8F70858362C08091B50396
:1016400082FF38C0112359F0002329F0802F0E9417
:10165000D5120E94311380E00E94EB0905C080E0A2
:101660000E943E0A0111C7CFEB2DE850FF0B3497C3
:1016700020F40E944C1F0E949009EE2009F482C1C0
:101680000E94B11280FD7EC1F60112820E94AB124F
:101690000E94E20DC6010E94E30C0E94AB12DF9192
:1016A000CF911F910F91FF90EF90DF90CF90BF905F
:1016B0000C94030E112389F0F11006C00E9405134B
:1016C000802B0E948C0AD0CFF1E0FF12F7CF0E944E
:1016D0000513802B0E940B13C7CFF11006C00E9488
:1016E0002313802F0E94930ABFCF21E0F21609F442
:1016F000BBCFF5CF112331F035E03F1508F4B4CF5F
:10170000802FDFCF84E08F1508F4AECFEACFFF2023
:1017100041F3D93349F4FFEF27EE33E0F150204095
:101720003040E1F700C000008D2F0E943E0A9CCFA0
:101730008C2F86958695837069F0813009F094CF5F
:101740008D2F9C2F9370111102C090E080E00E94B9
:10175000D71F8ACF8D2F9C2F9370111102C090E05C
:1017600080E00E94C11F80CF8D2F112329F00E949D
:101770007C180E94271978CF0E94D118FACF8C2F9D
:10178000837009F041C011116FCF4D2F42954695DE
:101790004770440F440F0D2F0F7010E030E020E031
:1017A000042E04C0000F111F221F331F0A94D2F70A
:1017B00060E070E0CB01D4FF0FC06FE070E080E02C
:1017C00090E004C0660F771F881F991F4A95D2F7D3
:1017D0006095709580959095C695C695C370602B61
:1017E000712B822B932BC23049F058F4C13019F081
:1017F0000E94960D39CF0E94840D36CF0E94A80D0D
:1018000033CF0E94820D30CF8695112311F08C2F9B
:101810008170882309F428CF4D2F42954695477053
:10182000440F440F0D2F0F7010E030E020E0042E25
:1018300004C0000F111F221F331F0A94D2F760E06B
:1018400070E0CB01D4FF0FC06FE070E080E090E06B
:1018500004C0660F771F881F991F4A95D2F76095BD
:10186000709580959095C695C695C370602B712B29
:10187000822B932BC23049F058F4C13019F00E94EA
:10188000590EF2CE0E94470EEFCE0E946B0EECCEA8
:101890000E94BC0DE9CECF70112329F08C2F0E943D
:1018A000E20D8D2F0ECF8D2F0E94930A8C2F0E9458
:1018B000030EDACED23F51F160F4D03FB9F0D13F00
:1018C00081F0112309F449C0F11083CE8C2F8F7160
:1018D00021C0D33F11F1D43FA1F78091B50382FF1E
:1018E00026C08C2F8F71112311F314C0112349F0DE
:1018F00084E08F1508F4B8CE8C2F8F710E94260ECD
:10190000B3CE95E09F1508F4AFCEF6CF8C2F8F7134
:101910001111CDCF0E94E20DA7CE112329F08C2FFB
:101920008F710E94CD0DA0CE0E94C80D9DCE1123B7
:1019300049F0CF718C2F0E94E20D63E08C2F0E9442
:101940007B1392CE81E00E94A013E1E0EF1508F036
:101950008BCE82E00E94A01387CEF110DACE8C2FBE
:101960008F71A5CF4C2F4F706D2FC6010E94B615F9
:101970000E94420F79CE4C2F4F706D2FC6010E94EE
:10198000B91572CEDF91CF911F910F91FF90EF901B
:10199000DF90CF90BF9008950F931F93CF93DF9365
:1019A000EC01688179818A810E941E0F8C010E945E
:1019B0007D0E0E94810DB801CE01DF91CF911F9164
:1019C0000F910C949A0ACF93DF93EC018B819C8149
:1019D000892B29F08881998189238F3F59F4DF91E0
:1019E000CF910895CE010E94CC0CCE01DF91CF9112
:1019F0000C947A08CE010E94A1088111F3CF0E94B5
:101A0000CB12882361F38A81882349F38091B5033F
:101A100082FDE5CF82E0DF91CF910C94A01390E09E
:101A200080E00E94C11F90E080E00E94D71F0E94CA
:101A3000F2120E9402130E9431130E943E1A0E9469
:101A400027190E94281E0C94311E0E9496120C9495
:101A50000F0D0E94E2120C94250DE92FE295EF7014
:101A6000E250EE3070F4F0E0EE51F64D0C9488291F
:101A7000803F19F020F4883E20F481E00895843FEF
:101A8000E1F380E00895883EC0F3813FD1F7F5CFC0
:101A900093FB882780F90895FC01808191810E9441
:101AA000140F0C942D0DCF93DF9300D000D00F9224
:101AB000CDB7DEB70F900F900F900F900F90DF9182
:101AC000CF910895CF93DF9300D000D000D0CDB751
:101AD000DEB726960FB6F894DEBF0FBECDBFDF91FE
:101AE000CF91089508950C94720D0E94730D609328
:101AF000E8027093E9028093EA029093EB020C945F
:101B00000F0D08950C94750D0F931F930091E8022B
:101B10001091E9022091EA023091EB02602B712BC7
:101B2000822B932B1F910F910C94750D0F931F9384
:101B30000091E8021091E9022091EA023091EB0253
:101B400060237123822393231F910F910C94750DB1
:101B50000F931F930091E8021091E9022091EA028D
:101B60003091EB0260277127822793271F910F91F5
:101B70000C94750D0C9418080E94BA0D6093E40241
:101B80007093E5028093E6029093E7020C940F0DA8
:101B900060E070E0CB010C94BC0D0F931F9341E00B
:101BA00050E060E070E08A019B0104C0000F111F4B
:101BB000221F331F8A95D2F7C901B8011F910F91D7
:101BC0000C94BC0D0F931F9341E050E060E070E077
:101BD00004C0440F551F661F771F8A95D2F7809166
:101BE000E4029091E502A091E602B091E7028A0139
:101BF0009B01082B192B2A2B3B2BC901B8011F91E4
:101C00000F910C94BC0D0F931F9341E050E060E0E6
:101C100070E004C0440F551F661F771F8A95D2F7E6
:101C2000CB01BA0160957095809590950091E40282
:101C30001091E5022091E6023091E70260237123C2
:101C4000822393231F910F910C94BC0D0F931F932C
:101C500041E050E060E070E004C0440F551F661F93
:101C6000771F8A95D2F78091E4029091E502A091C6
:101C7000E602B091E7028A019B01082719272A276B
:101C80003B27C901B8011F910F910C94BC0D0F9314
:101C90001F930091E4021091E5022091E602309139
:101CA000E702602B712B822B932B1F910F910C94C9
:101CB000BC0D0F931F930091E4021091E502209157
:101CC000E6023091E70260237123822393231F9160
:101CD0000F910C94BC0D0F931F930091E40210918F
:101CE000E5022091E6023091E70260277127822702
:101CF00093271F910F910C94BC0D08952EE0929F95
:101D0000800D1124982F977041E001C0440F9A95DF
:101D1000EAF786958695869595E0899FF0011124CE
:101D2000E954FD4F90E080E070E05191DF011197A0
:101D30009B01082E02C0369527950A94E2F7217080
:101D400021952527242325272C930196853091055D
:101D500061F708952EE0929F800D1124982F9770BF
:101D600086958695869525E0829FF0011124E95499
:101D7000FD4F50E040E080E0219130E0092E02C0AC
:101D8000369527950A94E2F721703327042E01C077
:101D9000220F0A94EAF7822B4F5F5F4F45305105BF
:101DA00059F70895BF92CF92DF92EF92FF920F936F
:101DB0001F93CF93DF938C01C090E402D090E50293
:101DC000E090E602F090E7028091E8029091E9024B
:101DD000A091EA02B091EB02C82AD92AEA2AFB2A8A
:101DE000CFE1D0E0BC2ED701C6010C2E04C0B695C1
:101DF000A795979587950A94D2F780FD0EC02197F5
:101E000088F7B12C8B2DDF91CF911F910F91FF900F
:101E1000EF90DF90CF90BF900895B8018C2F0E9473
:101E2000E916019761F3EECFCF93DF93EC010E94A7
:101E3000D20EBE01DF91CF910C94E9161F93CF9380
:101E4000DF93EB019091B602992331F0CB01DF9142
:101E5000CF911F910C94140F882379F0CB010E942D
:101E6000D20E182F682FCE010E947E0EBE01812F48
:101E7000DF91CF911F910C94E916CB010E94AA0E1D
:101E8000182FF4CFEF92FF920F931F93CF93DF930E
:101E90008C01892B81F0F12CEE24E394E80121964A
:101EA000F8018491843770F4843008F05FC0813089
:101EB000B1F08230A1F1DF91CF911F910F91FF908E
:101EC000EF900895853709F44CC008F43DC09CE7B5
:101ED000980F903780F78F770E943E0A49C00E5FB7
:101EE0001F4FFE01849190E2980F983060F4877044
:101EF000FE2D01C0FF0F8A95EAF78F2F0E94F51281
:101F00000E94311302C00E94EB098F2D815030F2E4
:101F1000EFE9FFE03197F1F700C00000F7CF0E5F67
:101F20001F4FFE01849190E2980F983050F4877013
:101F3000FE2D01C0FF0F8A95EAF78F2F0E94FB123A
:101F4000DFCF0E943E0AE1CF0E5F1F4FFE01C4911A
:101F5000C150D8F28FE99FE00197F1F700C000006F
:101F6000F7CF0E5F1F4FFE01F490CFCF0E94EB0919
:101F70008E01CBCF1F93CF93DF93C091EC0216E07D
:101F80008091ED028C1304C0DF91CF911F910895D1
:101F9000D0E01C9FF0011D9FF00D1124E251FD4F78
:101FA0004081518162817381848195810E94620D9B
:101FB0002196C770E5CF40911E0350911F03609199
:101FC00020037091210380912203909123030C94AC
:101FD000620DFF920F931F93CF93DF9380912303A2
:101FE000807FD1F4809120038823B1F08091EC02AE
:101FF0001091ED0260911E0370911F03A0912103C7
:10200000B0912203062F0723C0910001D091010156
:1020100096E0F92E181306C0DF91CF911F910F9112
:10202000FF90089590E0109711F00F3F19F401967A
:102030008770F0CFF89E9001F99E300D1124F901C0
:10204000E251FD4F41814713F2CF40814613EFCF5C
:1020500042814111ECCF438154814A1B5B0B4C17E9
:102060005D0728F7809123038F708061809323039D
:10207000F901ED50FD4F80818F70806180838EE18A
:1020800093E00E94E30CDF91CF911F910F91FF909D
:102090000C94BA0FAF92BF92CF92DF92EF92FF9261
:1020A0000F931F93CF93DF93CDB7DEB761970FB632
:1020B000F894DEBF0FBECDBF8C0185E0F801DE01D4
:1020C0001D9601900D928A95E1F7F801E2808EE16C
:1020D000C82E83E0D82E60912103709122036115F0
:1020E000710509F45FC190911E0320911F03892F90
:1020F00082238F3F09F456C140815181A380B4806F
:10210000F0902003F501E61BF70BBF01E091000101
:10211000F0910101FF2009F4F6C080912303382FCC
:10212000307F6E177F0708F0AFC0311179C0FE2CE9
:10213000251323C0941321C0E1101FC08F7080614C
:10214000809323030E94DB0FC6010E94E30C809161
:102150002303F80185838F2D61960FB6F894DEBFB7
:102160000FBECDBFDF91CF911F910F91FF90EF90E8
:10217000DF90CF90BF90AF900895AB2829F0842FC7
:1021800085238F3F09F027C180E0F82FF170DF2E03
:1021900080FF3CC08091EC022091ED0236E082137A
:1021A00015C04D875E878D859E850E94140F292F4F
:1021B00022952F702230F0F0243018F59F70F1F046
:1021C000F8019581907FD1F4D12C1EC090E0389F0A
:1021D000F001399FF00D1124E251FD4F618165132B
:1021E00006C06081641303C062816E110FC0019646
:1021F0008770D5CF9F7011F0882331F3805E8830CF
:1022000018F3C8010E94E30CFD2CA5CFEE2009F4C1
:10221000A2CF80912303816080932303F12C9BCF75
:10222000251306C0941304C0F801EE2009F487C0FA
:10223000C8010E944C0D882319F1EE2009F180910C
:102240002303803270F020911E0330911F033887E2
:102250002F831986BB86AA868C87CE0107960E949B
:10226000E30C86E0F801AEE1B3E001900D928A95AF
:10227000E1F70E94E90F0E94DB0FFF24F3946BCF7C
:10228000C8010E94E30CF9CF311113C07A2DB98A2D
:10229000A88A6E2D89890E94530D8EE193E00E94D9
:1022A000E30C86E0F60111928A95E9F70E94DB0FB4
:1022B000B5CF25130FC094130DC0E1100BC0F8016A
:1022C0008583C8010E94E30C86E0F60111928A958D
:1022D000E9F741CFC8010E944C0D882389F2EE2016
:1022E00079F280912303803208F4BBCF20911E0342
:1022F00030911F033A8329831B82BD82AC828E8377
:10230000CE010196ACCF6E177F0708F03EC0FE2CC1
:10231000EE2009F4B5CF25132AC0941328C080916C
:10232000230380FD1BC0982F907FC1F0F8018583A7
:10233000903F31F0982F907F905F8F70892B85832D
:10234000C8010E94E30C86E0F801AEE1B3E0019021
:102350000D928A95E1F70E94DB0FFDCE86E0F80131
:10236000AEE1B3E001900D928A95E1F7F4CEC80199
:102370000E944C0D811175CF809123038160809361
:102380002303C8010E94E30CE6CE7A2DB98AA88AFD
:102390006E2D89890E94530D86E0F60111928A956F
:1023A000E9F7D9CFEE2009F46BCFC8010E944C0D9C
:1023B000F82E882309F464CF86E0F801AEE1B3E09B
:1023C00001900D928A95E1F78EE193E00E94E60973
:1023D0000E94E90FC0CF81E08E25D7CE1F93CF9307
:1023E000DF93CDB7DEB72C970FB6F894DEBF0FBEE4
:1023F000CDBF4F83588769877A878B879C87CE01AB
:1024000007960E944A10882369F08A859B85892B4C
:1024100039F04F815885842F85238F3F09F071C093
:1024200016E05FC086E0FE013796DE01119601904E
:102430000D928A95E1F78A859B85892B89F38F8197
:10244000988589238F3F61F32091ED0230E0C90127
:102450000196877099274091EC024817190671F48C
:102460000E94290D1092ED021092EC0286E0EEE13E
:10247000F3E0DF011D928A95E9F7D2CF96E0929FB3
:10248000D001939FB00D1124A251BD4FFE01319692
:1024900001900D929A95E1F78093ED020E94BA0F98
:1024A000BFCF819FC001112482519D4F0E944A10CD
:1024B0008823E9F0E091EC021E9FF0011124E25123
:1024C000FD4F4081518162817381848195810E9499
:1024D000620D8091EC0290E00196877099278093BD
:1024E000EC028091EC029091ED028913DACF2C96E8
:1024F0000FB6F894DEBF0FBECDBFDF91CF911F9115
:10250000089569857A858B859C850E94620D88CFA8
:10251000682F80910201909103010C94C920682FCB
:1025200080910201909103010C94D42080910201CA
:10253000909103010C94DF200E94822120912703B7
:1025400030912803821B930B9C0181E0243F314092
:1025500008F480E0089580912603859585958595FA
:10256000089580912603877008950E94822120910A
:10257000240330912503821B930B843F914048F044
:102580008091260382FB882780F991E0892781705A
:10259000089580E0FCCF90912603977081E009F4C4
:1025A00080E0089580914C03089590914C03892B0D
:1025B00080934C030895809590914C0398239093B9
:1025C0004C03089510924C03089590914B03892B6E
:1025D00080934B030895809590914B03982390939B
:1025E0004B03089510924B03089590914A03892B51
:1025F00080934A030895809590914A03982390937D
:102600004A03089510924A0308958091290308957A
:1026100008950C940813CF93C82F8091B50382FDC1
:1026200010C0809129038C1761F00E948221909341
:10263000280380932703C09329038C2FCF910C94F8
:102640000913CF91089580912903882349F01092AE
:102650002903109228031092270380E00C94091399
:102660000895E0910201F091030180914C03808371
:10267000E0910201F0910301808190914B03892B3D
:102680008083E0910201F0910301808190914A03DF
:10269000892B808380912903882321F10E949C1239
:1026A000882371F08091600380FF08C082EB93E083
:1026B0009F938F930E9424070F900F900E942313E3
:1026C000E0910201F0910301808190912903892B0F
:1026D000808380910201909103010E941320811157
:1026E0000E94231380910201909103010C94581FC2
:1026F00008950C9478139091B50392FD16C098E05C
:10270000899F90011124622B609326030E94E20DA1
:102710000E948221909325038093240380912603B5
:102720008595859585950C9479130C94E20D1092FE
:102730002603109225031092240380E00C94791351
:10274000909126038095892380932603282F277054
:1027500091F4282F082E000C330B9217130659F012
:102760009091B50392FD07C08595859585950E944A
:10277000030E0C9497130895CF93C82F8091B5033F
:1027800082FB992790F99C17E9F0C0FB82F98093AE
:10279000B5038091B4039091B5030E94141482E0B4
:1027A0000E94A0138091600380FF0CC01F92CF9302
:1027B00084EC93E09F938F930E9424070F900F90D7
:1027C0000F900F90CF9108958091B50382FB8827D9
:1027D00080F991E089270C94BC1381E00C94BC1320
:1027E00080E00C94BC1390E080E00E94962921E0E8
:1027F000893E9E4F09F020E0822F089582E090E00C
:102800000C948E2983E090E00C948E29CF9384E081
:1028100090E00E948E29C82F82E290E00E948E29CB
:10282000982F8C2FCF910895CF93C92F682F84E0D4
:1028300090E00E949C296C2F82E290E0CF910C9452
:102840009C29AB01BC018FE090E00C94AE29AB0158
:10285000BC0183E190E00C94AE2960E070E0CB0114
:102860000C94271460E070E0CB010E9421140C94BA
:102870002D1469EE7EEF90E080E00E94BA2960E0BE
:1028800082E090E00E949C2960E083E090E00E945A
:102890009C291092E8021092E9021092EA0210922A
:1028A000EB0260E084E090E00E949C2960E082E21C
:1028B00090E00E949C2960E085E090E00E949C29C5
:1028C00060E086E090E00E949C296FEF87E090E056
:1028D0000E949C2940E050E0BA0188E090E00E940C
:1028E000AE2960E08DE090E00E949C2940E050E03D
:1028F000BA0188E190E00E94AE2960E087E190E0B3
:102900000E949C2940E050E0BA018CE190E00E94D6
:10291000AE2970E060E080E290E00E94BA2940E0D9
:1029200050E0BA0188E190E00E94AE290C94321484
:102930000C943914682F8EE090E00C949C290E942E
:102940008E2160935C0370935D0380935E0390938C
:102950005F03609358037093590380935A039093D5
:102960005B03089585B7806885BF85B7806885BF9C
:102970000895089508950C94B91408950C94BD1405
:102980000E94B21483ED93E20E94421F0E94BA1487
:102990000C94BB1481E008950C94CA140895089512
:1029A0000E94CE140C94CF140E9479210E9431070A
:1029B0000C94BE14CF93C82F8091600382FF1EC079
:1029C00080FF1CC080EE93E00E948B068091600324
:1029D00080FF14C01F92CF938BED93E09F938F9352
:1029E0000E942407809160030F900F900F900F902A
:1029F00080FF04C089ED93E00E948B068C2FCF915D
:102A00000C9490098F929F92AF92BF92CF92DF92D7
:102A1000EF92FF920F931F93CF93DF93CDB7DEB763
:102A20002A970FB6F894DEBF0FBECDBF0E943507C0
:102A300081110E949F145EE4852E53E0952E10E0D4
:102A400000E0A02E802F0E9493076C01F401E1901A
:102A5000F1904F01E816F90609F45EC08091600319
:102A600081FD0E949C07C7018C259D25B12CEE2479
:102A7000E394F12C9C012E213F21232B09F446C025
:102A80000E94CC148823A9F0BE82AF82CE20DF2022
:102A900081E0CD2809F480E088870E94822181604E
:102AA000782F9A8789874E815F8168858A850E9401
:102AB0009809000F111FF801E25BFC4F80819181A2
:102AC000E826F926F182E0820E94C4190E94311E94
:102AD0000E944C1F90914D038917A9F10E944C1F31
:102AE00080934D032A960FB6F894DEBF0FBECDBF7C
:102AF000DF91CF911F910F91FF90EF90DF90CF90DA
:102B0000BF90AF909F908F900C94DA14B394EE0C1A
:102B1000FF1CFEE0BF12AECF0F5F1F4F0530110547
:102B200009F08FCF8FEF89838A831B820E948221D5
:102B30008160782F9D838C8349815A816B818D813F
:102B40000E949809C1CF2A960FB6F894DEBF0FBE37
:102B5000CDBFDF91CF911F910F91FF90EF90DF904C
:102B6000CF90BF90AF909F908F90089590E080E0BD
:102B700008950895972F70E02EE0929F600D711DCB
:102B80001124FB0196E4899FE00DF11D1124EE0F45
:102B9000FF1FED52FF4F859194910895FC01EE0FB8
:102BA000FF1FED50FC4F859194910895CF93DF93D3
:102BB0000E94ED16EC01811520E5920708F042C055
:102BC000811530E4930708F0BDC0883E910528F5D3
:102BD000803E910508F09DC0883A910588F4853AB9
:102BE000910508F08FC08130910509F492C00097DB
:102BF00009F48FC0049708F08CC0D0E0C0E089C011
:102C00008F3B910508F489C0805C9109C03CD105D7
:102C1000A0F30E94CE15EC017CC08115904250F4C7
:102C2000C11581E0D80708F074C0CD3ED10528F366
:102C3000D0656FC0C11590E3D90708F079C0CE0107
:102C40009F70E7CF811525E5920758F5811534E58A
:102C5000930708F0A6C0811542E5940750F4C1150A
:102C600081E5D80708F471C0DC2FCC27C16FD06A8A
:102C700050C0982F969596959E0123703327C115C5
:102C8000D34508F07FC0C1E0D0E002C0CC0FDD1F0B
:102C90002A95E2F720E2929FC0011124C82BD92B7C
:102CA0006FC0C11589E5D807A8F4C11598E5D90703
:102CB00008F07CC0C11526E5D20708F09ECF8C2F06
:102CC0000E948417C82FD0E0DC2FCC27CC27DF71DF
:102CD000D0621FC0C1153AE5D30708F46CC0CE011D
:102CE00090568115904208F088CF8D2F8F710E94E9
:102CF000841790E0982F882788279F719C012C2BA0
:102D0000E901E6CFC55AD0E0CF56DE4FC881D0E00A
:102D1000D064CE01DF91CF910895C85AD0E0CC0F96
:102D2000DD1FCD59DE4F0990D881C02DD464F1CF7D
:102D3000CE019927D3FF03C0EC01D86CEACFEC0198
:102D4000D06CE7CFDF70D06AE4CFCE01E4E0969597
:102D50008795EA95E1F783702C2F269526952370A9
:102D600090E2299F90011124382B8C2F8370C1E0B1
:102D7000D0E002C0CC0FDD1F8A95E2F7C22BD32B27
:102D8000DC68C7CFC1E0D0E002C0CC0FDD1F2A95C0
:102D9000E2F730E2939FC0011124C82BD92BDA68E7
:102DA000B8CFD82FCC27C46FD06AB3CFDC2FCC27B5
:102DB000C06FD06AAECF8C2F8F700E94841734E022
:102DC000D695C7953A95E1F7CF709C2FEC01D06965
:102DD000A0CF0E94BA150C94D61582389105B1F196
:102DE000B0F48133910509F475C048F48932910536
:102DF00009F469C08A32910509F473C008958533D6
:102E0000910509F459C08933910501F10895833E74
:102E10009105A9F138F4803E9105F9F0823E9105C3
:102E200049F10895863E9105A9F1873E9105C9F1C2
:102E3000843E910519F52091B50321FF1FC08091B3
:102E4000B40384FD14C087EE90E008952091B4038C
:102E50002370A1F080EE90E008952091B40320FD4E
:102E600047C03091B50330FF09C024FF44C090E053
:102E700080E004C02091B40322FDF7CF0895209193
:102E8000B40322FD3BC03091B50330FDE3CF24FFF6
:102E9000F5CFEDCF2091B40323FFF0CF24FDE7CF92
:102EA000D2CF2091B40323FD2CC03091B50331FF64
:102EB000EECF84EE90E008952091B40325FFDECF9D
:102EC00089E290E008952091B40325FFD7CF85E3F0
:102ED00090E008952091B40326FFD0CF8AE290E0DD
:102EE00008952091B40326FFC9CF81E390E00895AF
:102EF00089E390E0089583EE90E0089582EE90E0FB
:102F0000089586EE90E008959091B40392FF06C074
:102F1000282F28712830F9F4877F846093FF06C03A
:102F2000282F28712831F1F4877E84612091B50320
:102F300020FF06C0382F38713830D9F4877F816080
:102F400021FF06C0282F28712831D1F4877E8161A6
:102F500094FD877E0895282F24712430F9F68B7F05
:102F60008860DCCF282F2471243101F78B7E8861A3
:102F7000DDCF382F3171313019F78E7F8860E0CF87
:102F8000282F2171213121F78E7E8861E1CF0895AC
:102F90000E94F313811102C00E9498140E94FE1334
:102FA000809360030E9406149093B5038093B4034A
:102FB0000E94C7170E940214682F70E090E080E022
:102FC0000E94820D6091E4027091E5028091E60218
:102FD0009091E7020C94BA0D0E944E240E94D414E2
:102FE0000C945A240E945E240E9402150C947C24A6
:102FF0000E940B210E9435240E94C0140E94EC17ED
:103000000E94F2170E94D014FBCF8091240190E01F
:10301000880F991FFC01E45EFE4F2081845F9E4F64
:10302000FC01808190916903191614F420936903BF
:103030009091690397FF04C0922F91959093690333
:1030400090916A03191614F420936A0390916A030D
:1030500097FF03C0219520936A0390916C03191682
:1030600014F480936C0390916C0397FF04C0982F25
:10307000919590936C0390916B03191614F48093BF
:103080006B0390916B0397FF03C0819580936B0353
:10309000309169033323A1F020916A03222381F048
:1030A00045EB3403C00111249923F1F09093690397
:1030B00045EB2403900111243323D1F030936A03AC
:1030C00040916C03442379F030916B03332359F022
:1030D00025EB4203A001112450936C0332039001AD
:1030E000112430936B03089581E080936903E0CF4E
:1030F00081E080936A03E4CF40912401242F30E0E3
:10310000220F331FF901E45EFE4F90818D3E21F4C2
:10311000919590936A0308958E3ED9F38F3E21F4E2
:103120009195909369030895803FD9F3245F3E4FB2
:10313000F9019081893F19F490936B0308958A3FB8
:1031400011F49195F9CF8B3F21F4919590936C03F5
:1031500008958C3FD9F39FE0980F983070F4815F09
:10316000990B21E030E001C0220F8A95EAF78091A7
:103170006803822B8093680308958D3F49F481E0B2
:103180008093240180912401481751F00C94051874
:103190008E3F11F482E0F4CF8F3F11F483E0F0CF43
:1031A00008958D3E39F480916A0387FF29C01092FB
:1031B0006A0308958E3E29F480916A031816BCF3C1
:1031C00008958F3E39F48091690387FF19C01092EA
:1031D00069030895803F29F4809169031816BCF3B0
:1031E0000895893F39F480916B0318164CF41092BE
:1031F0006B0308958A3F29F480916B0387FDF7CF15
:1032000008958B3F39F480916C0387FFF9CF1092BA
:103210006C0308958C3F29F480916C031816BCF35D
:1032200008959FE0980F983058F7815F990B21E03F
:1032300030E0A90102C0440F551F8A95E2F7CA0188
:10324000809590916803892380936803D9CF8091FA
:10325000600383FF7EC08AE194E00E948B06809128
:1032600068031F928F9385E194E09F938F930E9450
:10327000240783E194E00E948B0680916903282F44
:10328000082E000C330B3F938F9380E194E09F93C3
:103290008F930E9424078EE094E00E948B06809119
:1032A0006A03282F082E000C330B3F938F938BE07B
:1032B00094E09F938F930E94240789E094E00E94FA
:1032C0008B0680916B03282F082E000C330B3F9345
:1032D0008F9386E094E09F938F930E94240784E06D
:1032E00094E00E948B0680916C03282F082E000C1E
:1032F000330B3F938F9381E094E09F938F930E94D1
:1033000024078EEF93E00E948B06809165031F9245
:103310008F938BEF93E09F938F930E94240789EF05
:1033200093E00E948B06809166031F928F9386EF35
:1033300093E09F938F930E94240783EF93E00E9472
:103340008B068DB79EB74C960FB6F8949EBF0FBEF6
:103350008DBF0E9482219C019091690380916A0334
:10336000982B21F0309364032093630390916B03B7
:1033700080916C03982B21F03093620320936103BA
:1033800087E693E00C94B31FEF92FF920F931F9385
:10339000CF93DF9300D000D000D0CDB7DEB786E06A
:1033A000E7E6F3E0DE01119601900D928A95E1F7D0
:1033B000E0906903F0906A0300916B0310916C0335
:1033C0001092690310926A0310926B0310926C03BF
:1033D0008E2D8F29B1F080916303909164030E9438
:1033E0009A21E0912401F0E0EE0FFF1FEC5EFE4F0A
:1033F000208131812817390720F4E0926903F09287
:103400006A03802F812BB1F0809161039091620358
:103410000E949A21E0912401F0E0EE0FFF1FEC5F83
:10342000FE4F208131812817390720F400936B0368
:1034300010936C038091690390916A03892B90919A
:103440006B03892B90916C03892B11F00E94271933
:1034500086E0FE013196A7E6B3E001900D928A95D1
:10346000E1F726960FB6F894DEBF0FBECDBFDF9111
:10347000CF911F910F91FF90EF90089586E0E7E6BE
:10348000F3E0DF011D928A95E9F71092650310922F
:1034900066030895CF93DF93EC01FB0182818823BB
:1034A00009F420C1C430FDE5DF07C8F5CB3F9CE53A
:1034B000D90730F49E0122503C452431310598F55E
:1034C0000E9406149093B5038093B403C031FCE5C9
:1034D000DF0709F4E0C008F061C0C8309CE5D907F7
:1034E00009F4CBC088F5C430FCE5DF0709F4B3C0AC
:1034F000E8F4C2309CE5D90709F4A7C08091B40371
:103500008260C330DC4509F4A3C08091B40390917C
:10351000B5030E9414140E94290D80E004C0C23635
:10352000EDE5DE0769F2DF91CF9108958091B40354
:103530008061C630FCE5DF0709F48AC008F48FC05B
:103540008091B403806284C08091B4038D7FCC30BD
:103550009CE5D90709F47CC070F48091B4038C60B9
:10356000CA30FCE5DF0709F473C008F48AC0809113
:10357000B4038E7F6DC08091B403877FCE309CE50D
:10358000D90709F465C08091B4038B7FCF30DC4547
:1035900008F45EC08091B4038F7E5AC0CD3FFCE535
:1035A000DF0709F474C040F5C4319CE5D90709F47C
:1035B0008AC058F4C231FCE5DF0709F474C008F48E
:1035C0006EC08091B403837F43C0CB3F9CE5D90795
:1035D00009F449C008F04DC0C531DC4509F095CF6C
:1035E0008091B40382FB992790F921E0922790FB08
:1035F00082F990FB83F92CC0C1308DE5D80709F41E
:1036000058C088F48091B5038360CF3FECE5DE07B6
:1036100069F18091B5038D7FC115DD4538F1809149
:10362000B5038C7F23C0C3308DE5D80709F458C09B
:1036300008F452C0C236DD4509F067CF9091B4035B
:10364000892F8F7E94FF806103C08091B4038160D5
:103650008093B4035ACF8091B4038460F9CF8091F2
:10366000B4038860F5CF8091B50381608093B50382
:103670004CCF8091B5038260F9CF8091B403806410
:10368000E7CF0E94290D8091B4038068E1CF80913B
:10369000B5038E7FEBCF8091B4038F7DD9CF80911E
:1036A000B4038F7BD5CF0E94290D8091B4038F770F
:1036B000CFCF8091B503982F909591708E7F892BF5
:1036C00090FB81F9D3CF0E94290D9091B403892FEB
:1036D00097FB87F98058BCCF81E00E949A1415CFE0
:1036E00080E0FBCF81E01FCFCF93C82F1F928F9335
:1036F00089EE94E09F938F930E94240761E070E02D
:1037000080E090E004C0660F771F881F991FCA955C
:10371000D2F70E94820D0F900F900F900F90CF91D3
:103720000C94290D883208F044C08E3108F076C020
:103730008B3009F447C030F4873009F483C08EEA37
:1037400094E082C0833109F45CC08431C1F780ED1C
:1037500094E00E948B0680917103882309F4A0C035
:10376000109271031092700310926F0310926E0307
:1037700010926D0320917103222309F48CC0809173
:103780006D0390916E03009711F484E991E09F938B
:103790008F931F922F938CE994E09F938F930E94B5
:1037A00024070F900F900F900F900F900F9081E0D3
:1037B00008958F3409F44BC0D0F4893241F2883334
:1037C00009F0BDCF83ED94E00E948B068DE394E079
:1037D0009F938F930E9424078DE494E09F938F938F
:1037E0000E9424070F900F900F900F90C3CF813548
:1037F00009F441C008F441C0823509F0A0CF81E04E
:1038000027C082EC94E00E948B068DE394E09F93A6
:103810008F930E9424070F900F90ACCF10927103EA
:103820008FEB94E00E948B0680917103882309F44A
:10383000A1CF1F928F938BEB94E09F938F930E9465
:103840002407D0CF81EB94E00E948B0693CF8AE0CF
:10385000E0916F03F09170033097D1F02081082E32
:10386000000C990B820F911D8F3F910541F03CF0A8
:103870008FEF808307C08FEFEBCF86EFE9CF97FF05
:10388000F8CF108280811F928F9388EA94E0D5CF81
:1038900085EA94E0D9CF88E994E00E948B0687CF2F
:1038A00080E00895DF92EF92FF920F931F93CF93E2
:1038B000DF93EBEFE80FEF3308F030C1F0E0E051B9
:1038C000F64D0C9488290E9402141F928F9386E46F
:1038D00099E09F938F930E9424070E94FE1383FB1D
:1038E000992790F91F929F9382FB992790F91F9235
:1038F0009F9381FB992790F91F929F93982F917026
:103900001F929F931F928F938DEF98E09F938F93B9
:103910000E9424070E94061487FB222720F91F9289
:103920002F9386FB222720F91F922F9385FB2227B6
:1039300020F91F922F9384FB222720F91F922F93A7
:1039400083FB222720F91F922F9382FB222720F945
:103950001F922F9391FB222720F91F922F93292F3B
:1039600021701F922F9381FB222720F91F922F9302
:10397000282F21701F922F939F938F9388E198E0B7
:103980009F938F930E9424078DB79EB788960FB69A
:10399000F8949EBF0FBE8DBF81E01CC086E09AE008
:1039A0000E948B060E949814F7CF86E696E00E944C
:1039B0008B06F2CF80916003807F809360038FE35A
:1039C00096E00E948B0682E09AE00E948B0681E0DE
:1039D00080937203DF91CF911F910F91FF90EF9031
:1039E000DF90089586EE99E00E948B060E9492086F
:1039F000D3CF90916003892F8E7F90FF8160809359
:103A0000600380FF03C08AED99E0D1CF8DEC99E08F
:103A10000E948B0680916003817F80936003BCCFFE
:103A200090916003892F8D7F91FF82608093600366
:103A300081FF08C080EC99E00E948B0680916003B2
:103A40008160EBCF82EB99E0B2CF90916003892F38
:103A50008B7F92FF84608093600382FF03C083EAC0
:103A600099E0EACF83E999E0A2CF90916003892F92
:103A7000877F93FF88608093600383FF03C087E89C
:103A800099E0DACF8AE799E092CF82E795E08FCF8D
:103A90000E948E21062FF72EE82ED92EC091B40356
:103AA000C7FBCC27C0F91091B303D09131010E941C
:103AB0004C1FDF92EF92FF920F931F92CF931F92B2
:103AC0001F931F92DF931F928F938EEE94E09F932C
:103AD0008F930E9424078DB79EB70E960FB6F89469
:103AE0009EBF0FBE8DBF58CF0E94290D9091B40389
:103AF000892F97FB87F980588093B40387FF03C011
:103B000080E799E054CF85E699E051CF80E00E94AC
:103B1000741B42CF8953FBCF8D51F9CF83E699E0D7
:103B20000E948B0680E056CF80E008950C94941D8F
:103B3000CF93C82F809172038130C1F0882339F070
:103B4000823009F444C01092720380E00DC00E94DC
:103B5000D2128232D1F78C2F0E94941D81111BC08A
:103B60008C2F0E94521C8170CF9108950E94D21216
:103B7000823289F38C2F0E94961D81111BC0C431A3
:103B8000D9F060F4CB3071F0C031D1F083EE94E025
:103B90000E948B0613C081E090E0E5CFC93261F04E
:103BA000C833A1F78FE396E00E948B0685EE94E080
:103BB0000E948B0681E0D7CF1092720380E0D3CFB2
:103BC00082E08093720388E30E94921BF3CF8C2FD4
:103BD0000E94921B81E0C8CFCF93DF93EB01863127
:103BE0009C4511F50E94D2129A81992399F08A7A04
:103BF00091E009F490E090937303811109C089E288
:103C00000E9488120E94311380E0DF91CF910895C5
:103C100085E3F6CF80917303811104C089E20E948D
:103C20008F12F0CF85E3FBCF81E0EFCF9C012656CA
:103C30003D452032310538F48556FB0192819923A8
:103C400021F00E943B1E81E008950E945E1EFBCF82
:103C500010927403109275031092760310927703FA
:103C6000089560917403709175038091760390912B
:103C700077030C94ED1F482F4150550B81E090E0E5
:103C8000A0E0B0E004C0880F991FAA1FBB1F4A958F
:103C9000D2F740917403509175036091760370914F
:103CA0007703842B952BA62BB72B809374039093CB
:103CB0007503A0937603B093770308958150990B11
:103CC00041E050E060E070E004C0440F551F661F03
:103CD000771F8A95D2F740955095609570958091A1
:103CE000740390917503A0917603B09177038423B8
:103CF0009523A623B7238093740390937503A09311
:103D00007603B093770308950F931F93CF93DF93B8
:103D1000C42FD22FFC0182818823C9F040937A03FB
:103D20000E948221909379038093780380E28C0F24
:103D3000883008F050C0C77081E001C0880FCA9574
:103D4000EAF7DF91CF911F910F910C948C0A10919B
:103D50007A03141335C080917803909179030E94FF
:103D60009A21883C910560F5C0E2CD0F1D17B9F08E
:103D700080E2810F883040F4177081E001C0880F25
:103D80001A95EAF70E94930AC83048F481E09D2F03
:103D9000977001C0880F9A95EAF70E948C0A802FCD
:103DA0000E94840AC830B8F4D77081E001C0880F3F
:103DB000DA95EAF7DF91CF911F910F910C94930A56
:103DC00080E28C0F883038F4C77081E001C0880F22
:103DD000CA95EAF7EFCFDF91CF911F910F91089528
:103DE0000F939C01CB01243F4CE5340759F1A8F413
:103DF000293DFCE53F0701F12A3D4CE53407D1F1AF
:103E0000283D3C4591F406E221EE41EE68ED7CE56B
:103E10000E94841E80E00F910895263FFCE53F0735
:103E2000E9F0B0F0273F3C45F9F0FC01828188239E
:103E300039F110927A03EFCF07E225EE45EE69EDF6
:103E40007CE5E6CF06E221EE40EE64EF7CE5E0CFD4
:103E500007E225EE44EE65EF7CE5DACF06E221EEDF
:103E600042EE66EF7CE5D4CF07E225EE46EE67EF43
:103E70007CE5CECF08E221E045EE6AED7CE5C8CFD7
:103E800081E0C9CF9093A9018093A80108959093F0
:103E90008403809383030895E0918303F091840366
:103EA000309721F00190F081E02D099480E0089591
:103EB000EF92FF920F931F93CF93DF93EC01E0916A
:103EC0008303F0918403309709F446C08091310157
:103ED000882341F08091B40387FF04C088818983DF
:103EE00086E088830280F381E02DCE0109958091E0
:103EF000600382FF31C080FF04C08FE19AE00E941E
:103F00008B0610E000E089E1E82E8AE0F82E80912F
:103F1000600380FF0EC0FE01E00FF11F80811F9241
:103F20008F93FF92EF920E9424070F900F900F90B3
:103F30000F900F5F1F4F0830110549F78091600304
:103F400080FF0AC087E19AE0DF91CF911F910F9126
:103F5000FF90EF900C948B06DF91CF911F910F9102
:103F6000FF90EF900895E0918303F09184033097E0
:103F700039F022E0DC012C930480F581E02D0994D6
:103F8000089520918103309182032817390771F039
:103F90009093820380938103E0918303F0918403E3
:103FA000309721F00680F781E02D09940895209143
:103FB0007F03309180032817390771F090938003B5
:103FC00080937F03E0918303F0918403309721F085
:103FD0000084F185E02D099408950F931F930091BB
:103FE0007B0310917C0320917D0330917E030617A3
:103FF000170728073907A1F060937B0370937C03B0
:1040000080937D0390937E03E0918303F09184037A
:10401000309731F00284F385E02D1F910F910994C0
:104020001F910F910895FC013296809131018823F0
:1040300021F08091B4039EE187FF96E080E09150EB
:1040400008F4089521912223D1F38F5FF8CF6623DE
:1040500001F1209131012223F1F02091B40327FFD7
:104060001AC0462F4695469546954E3190F4677096
:1040700021E030E002C0220F331F6A95E2F7840F7F
:10408000911DFC01828190E02823392381E0232BBC
:1040900069F480E00895FC01329608962191261774
:1040A00021F0E817F907D1F7F4CF81E008959C01DA
:1040B000FC0132969FEF80E04191461751F09F3FFF
:1040C00019F4411101C0982F8F5F8630A9F79F3FE7
:1040D00009F40895290F311D97FD3A95F90162837E
:1040E0000895FC01329608962191261303C0DF0142
:1040F00011971C92E817F907B9F70895E62FE6958E
:10410000E695E695EE3170F4E80FF92FF11D677032
:1041100021E030E001C0220F6A95EAF78281822B0C
:10412000828308958091600380FF0CC01F926F937B
:104130008FE49AE09F938F930E9424070F900F9033
:104140000F900F900895E62FE695E695E695EE31EF
:1041500078F4E80FF92FF11D677021E030E001C01D
:10416000220F6A95EAF720958281282322830895F9
:104170008091600380FF0CC01F926F9381E39AE0EF
:104180009F938F930E9424070F900F900F900F9092
:10419000089520913101222329F02091B40327FDB5
:1041A0000C947E200C94572020913101222329F079
:1041B0002091B40327FD0C94A3200C947120FC01E2
:1041C000329680913101882351F08091B40387FFAA
:1041D00006C08EE1DF011D928A95E9F7089586E019
:1041E000F9CF08950C94F120811105C081E08093EE
:1041F00085030C94F22082E0FACF83E0809385035C
:104200000C94F2200C94F42081E0809385030C94AC
:10421000F2200C94042108958091BE03843031F182
:104220000E948D081092860388E190E020E40FB68A
:10423000F894A895809360000FBE2093600083B728
:10424000817F846083BF83B7816083BF78948895C2
:1042500083B78E7F83BF0FB6F894A89580916000D6
:10426000886180936000109260000FBE08950895E9
:104270000895CF930E9437210E9435070E9438216C
:10428000C0E08C2F0E949307892B31F4CF5FC5309B
:10429000C1F780E0CF91089581E0FCCF0E94290D05
:1042A0000C9410091F921FB61F9211248F939F9395
:1042B000AF93BF9380918603811113C08091B603A1
:1042C0009091B703A091B803B091B9034196A11D95
:1042D000B11D8093B6039093B703A093B803B09336
:1042E000B903BF91AF919F918F911F901FBE1F90F7
:1042F000189582E084BD93E095BD9AEF97BD8093B9
:104300006E0008952FB7F8948091B6039091B7038B
:10431000A091B803B091B9032FBF08952FB7F894B7
:104320006091B6037091B7038091B8039091B9037F
:104330002FBF08959C014FB7F8948091B6039091D8
:10434000B703A091B803B091B9034FBF821B930B81
:10435000089578941F921FB61F9211248F939F93F4
:10436000AF93BF938091B6039091B703A091B80328
:10437000B091B9030196A11DB11D8093B60390932E
:10438000B703A093B803B093B903BF91AF919F91C6
:104390008F911F901FBE1F90189587E797E7909306
:1043A00001088093000888E19AE00FB6F894A89578
:1043B000809360000FBE90936000FFCF8091B203A6
:1043C00008959C018091BE038430E9F482E08093DB
:1043D000E9009FEF8091E800915085FD06C085EDD2
:1043E0008A95F1F700009111F5CF8091E80085FFE3
:1043F0000AC050E040E0C9010E94EC248091E8002E
:104400008E778093E8000895ECE8F3E025E02083C0
:10441000618372838383948365E070E0CF010C94A1
:10442000E121E9E8F3E024E020839283818363E0E3
:1044300070E0CF010C94E1219C0182E08093E900BF
:104440009FEF8091E800915085FD06C085ED8A952B
:10445000F1F700009111F5CF8091E80085FF0CC0C5
:1044600050E040E066E070E0C9010E94EC248091D9
:10447000E8008E778093E8000895CF93DF93EC01F6
:10448000809131018823B1F18091B40387FF32C05C
:1044900060E282E08093E9008FEF9091E800815024
:1044A00095FD06C095ED9A95F1F700008111F5CFC5
:1044B0008091E80085FF1BC08091310170E050E0E1
:1044C00040E0811104C050E040E068E070E0CE01BF
:1044D0000E94EC248091E8008E778093E80080E2CF
:1044E000FE01A2E9B3E001900D928A95E1F7DF9118
:1044F000CF91089568E081E0CDCFE9E8F3E023E0D3
:1045000020839283818363E070E0CF010C94E121EA
:1045100081E89AE00E948B068091BD03811109C059
:104520000E947C260E94D9268091E20084608093BC
:10453000E20008958DE79AE00E948B061092BD0379
:10454000089589E79AE00E948B060C94042185E780
:104550009AE00E948B066091BA0381E0611101C06C
:1045600080E00C94FD2081E79AE00E948B069091F8
:10457000BE0381E0943009F080E06091BA030C94AE
:104580000221209188032F5F822F62E30E947C2901
:10459000992319F02093880308951092880380913D
:1045A00091038823F1F08091BE038430C1F490918F
:1045B000E9009F702091EC00822F817020FD80E83F
:1045C000892B93E09093E9009091EB0090FF04C059
:1045D0009091EE0097FD08C08F708093E9001092D3
:1045E000910308951092F1009091E80095FDFACFA3
:1045F0009091E80090FFF0CF9091E8009E77909323
:10460000E800EACF42E061EC81E00E94F82542E256
:1046100061EC82E00E94F82542E261EC83E00E94B6
:10462000F8259091BE0381E0943009F080E060911C
:10463000BA030C94F4208091C003833009F460C065
:1046400030F48130C9F1823009F49CC008958A3079
:1046500009F488C08B3009F46EC0893009F04FC06E
:104660008091BF03813209F04AC08091C3039091C9
:10467000C403029708F043C08091E800877F8093CD
:10468000E8008091E80082FF36C09091F3008091AD
:10469000F200029731F48091F100813011F0863000
:1046A00021F48091F1008093B2038091E8008B7730
:1046B0008093E8000C942C268091BF03813AF9F492
:1046C0008091E800877F8093E8008091C3039091F8
:1046D000C403892B61F460E282E993E070E00E94F8
:1046E0003B258091E8008B778093E800089560E097
:1046F00090E080E0F3CF8091BE038111C2CF089596
:104700008091BF03813AD9F78091C3039091C4038C
:10471000892BA9F78091E800877F8093E80080913A
:10472000E80080FFFCCF809131018093F1008091FF
:10473000E8008E77BDCF8091BF03813201F7809171
:10474000C3039091C403892BD1F68091E800877F41
:104750008093E8000E942C268091C1038093310150
:104760000C94290D8091BF03813249F68091E800B5
:10477000877F8093E8000E942C268091C20380935B
:10478000B30308958091BF03813A09F0B8CF8091B7
:10479000E800877F8093E8008091E80080FFFCCFED
:1047A0008091B303C2CF9FB7F894109291039FBF3B
:1047B0009091BE03943009F048C02091E9002F7019
:1047C0003091EC00932F917030FD90E8922B23E014
:1047D0002093E9002091EB0020FF34C02091EE00EF
:1047E00027FF30C020918703222321F02091E80089
:1047F00025FF28C01092870326E03091E80035FF9E
:1048000014C08093F1008091E80085FD27C080915D
:10481000E80080FFFCCF8091E8008E778093E8006D
:104820009F709093E90080E008953091BE0334308A
:1048300049F43091EB0035FD05C0215041F481E091
:10484000809387039F709093E9008FEF0895EFE9BD
:10485000FFE03197F1F700C00000CFCF8FB7F89499
:1048600021E0209391038FBFDBCF84B7877F84BF84
:104870000FB6F894A89580916000886180936000DD
:10488000109260000FBE80E890E00FB6F89480931D
:104890006100909361000FBE0C9409210E947C2658
:1048A0000E94D926E2EEF0E08081846080837894D3
:1048B0000C94612985E291E00C94471F8091BE031E
:1048C0008530C9F48DE69AE00E948B068091BE0384
:1048D000853011F00C944E210E940C218091BC0374
:1048E0008823A1F30E943921882381F30E94D624D2
:1048F0000E94290DEBCF089508950C947F24292F51
:1049000033272330310521F168F42130310509F4D2
:1049100043C02230310509F444C090E080E030E02B
:1049200020E026C02132310551F122323105A9F7AC
:104930006330710590F7FB01EE0FFF1FE556FE4F48
:104940002081318168567E4FFB01808190E010C04C
:1049500099278130910581F0009729F00297E9F6B7
:10496000E5E8FAE002C0E5ECFAE0849190E09F010E
:10497000FA01318320830895E5EAFAE0F6CF633047
:10498000710558F6660F771FFB01EF55FE4F20812A
:10499000318189E090E0ECCF82E190E024E23BE0DD
:1049A000E7CF8BE590E029EC3AE0E2CF80E189BDEA
:1049B00082E189BD09B400FEFDCF8091D8008F7DD2
:1049C0008093D8008091E00082608093E000809125
:1049D000E00081FDFCCF0895AF92BF92CF92DF92AD
:1049E000FF920F931F93CF93DF936C01EB018A012A
:1049F0000E944B26F82E811123C00115110539F0B4
:104A0000F80180819181C81BD90BC80ED91EB12C29
:104A1000A12C2097A9F08091E80085FD22C080910B
:104A2000E8008E778093E80001151105A1F0F801E8
:104A300080819181A80EB91EB182A08285E0F82EF6
:104A40008F2DDF91CF911F910F91FF90DF90CF902D
:104A5000BF90AF9008950E944B268823D1F2F82E84
:104A6000EFCFF60181916F018093F1002197FFEF65
:104A7000AF1ABF0ACECFFC018091C5039091C60347
:104A800086179707A0F06115710529F49091E80049
:104A90009E779093E80090E06115710551F49111B3
:104AA00008C08091E80082FF34C080E00895BC0116
:104AB000F2CF8091BE038823C1F18530C1F180918E
:104AC000E80083FD30C08091E80082FDEACF80914C
:104AD000E80080FFE1CF8091F3002091F200382FB1
:104AE0006115710519F02830310558F091E0283032
:104AF000310509F090E02091E8002E772093E8003E
:104B0000CBCF81918093F100615071092F5F3F4FAE
:104B1000E7CF8091BE03882341F0853041F080913A
:104B2000E80083FFBECF81E0089582E0089583E02E
:104B30000895FC018091C5039091C60386179707DD
:104B4000A0F06115710529F48091E8008E778093BB
:104B5000E80090E06115710551F4911108C0809151
:104B6000E80082FF35C080E00895BC01F2CF80915B
:104B7000BE038823C9F18530C9F18091E80083FD27
:104B800031C08091E80082FDEACF8091E80080FF8B
:104B9000E1CF8091F3002091F200382F611571056B
:104BA00019F02830310558F091E02830310509F02E
:104BB00090E08091E8008E778093E800CBCF8491DD
:104BC0008093F1003196615071092F5F3F4FE6CF1E
:104BD0008091BE03882341F0853041F08091E80048
:104BE00083FFBDCF81E0089582E0089583E00895BA
:104BF000982F973028F08F708093E90081E0089516
:104C00009093E900242F762F50E0981731F070919F
:104C1000EC002091ED005091F00021FD02C09F5F5B
:104C2000E8CF3091EB003E7F3093EB003091ED0008
:104C30003D7F3093ED003091EB0031603093EB001D
:104C40007093EC002093ED005093F0002091EE0063
:104C500027FDE5CF80E008958091BF0387FF13C053
:104C60008091E80082FF06C08091E8008B778093F6
:104C7000E80004C08091BE038111F2CF08958091B5
:104C8000BE038823D9F38091E80080FFF8CF80919C
:104C9000E8008E77ECCF2091E4003091E50095E6B6
:104CA000A9012091EC00822F817020FF06C0809125
:104CB000E80080FF06C080E008952091E80022FD12
:104CC0001AC08091BE03882389F0853089F08091D5
:104CD000EB0085FD0FC02091E4003091E500421704
:104CE0005307F9F29150E1F684E0089582E00895C7
:104CF00083E0089581E008950E94EA260E94F2264A
:104D0000E0EEF0E0808181608083E8EDF0E080817A
:104D10008F77808319BCA7EDB0E08C918E7F8C9348
:104D200080818F7E80831092BD0308950F931F931F
:104D3000CF93DF930E94EA260E94F226C8EDD0E0CE
:104D400088818F77888388818068888388818F7D38
:104D5000888319BC1092BE031092BA031092BC0350
:104D60001092BB0300EE10E0F80180818B7F8083FE
:104D700088818160888342E060E080E00E94F825BD
:104D8000E1EEF0E080818E7F8083E2EEF0E08081D2
:104D900081608083808188608083F80180818E7F3C
:104DA0008083888180618883DF91CF911F910F91EB
:104DB0000895E8EDF0E080818F7E8083E7EDF0E0FC
:104DC00080818160808384E082BF81E08093BD0325
:104DD0000C949626E8EDF0E080818E7F808310921F
:104DE000E20008951092DA001092E10008951F92F7
:104DF0000F920FB60F9211242F933F934F935F930F
:104E00006F937F938F939F93AF93BF93EF93FF9392
:104E10008091E10082FF0BC08091E20082FF07C019
:104E20008091E1008B7F8093E1000E94C1228091FC
:104E3000DA0080FF19C08091D80080FF15C08091F2
:104E4000DA008E7F8093DA008091D90080FF96C0CF
:104E500080E189BD82E189BD09B400FEFDCF81E01A
:104E60008093BE030E9488228091E10080FF19C0D8
:104E70008091E20080FF15C08091E2008E7F8093D8
:104E8000E2008091E20080618093E2008091D8008E
:104E900080628093D80019BC85E08093BE030E9495
:104EA000A7228091E10084FF2BC08091E20084FF63
:104EB00027C080E189BD82E189BD89B5982F9170B5
:104EC00080FFFBCF8091D8008F7D8093D8008091A8
:104ED000E1008F7E8093E1008091E2008F7E8093DD
:104EE000E2008091E20081608093E2008091BA0349
:104EF000882309F449C084E08093BE030E94B32252
:104F00008091E10083FF29C08091E20083FF25C0EA
:104F10008091E100877F8093E10082E08093BE036F
:104F20001092BA038091E1008E7F8093E10080911E
:104F3000E2008E7F8093E2008091E20080618093A6
:104F4000E20042E060E080E00E94F8258091F000FD
:104F500088608093F0000E94A122FF91EF91BF91A1
:104F6000AF919F918F917F916F915F914F913F9101
:104F70002F910F900FBE0F901F90189519BC109293
:104F8000BE030E949A2270CF8091E30087FD93E0D8
:104F90009093BE03B3CF1F920F920FB60F921124BE
:104FA0002F933F934F935F936F937F938F939F9331
:104FB000AF93BF93CF93DF93EF93FF93D091E9002B
:104FC000DF708091EC00C82FC17080FDC0E81092A6
:104FD000E9008091F000877F8093F00078940E9430
:104FE0000F281092E9008091F00088608093F00013
:104FF000CD2BCF70C093E900FF91EF91DF91CF915E
:10500000BF91AF919F918F917F916F915F914F91E0
:105010003F912F910F900FBE0F901F9018951F93E7
:10502000CF93DF93CDB7DEB7AA970FB6F894DEBF64
:105030000FBECDBF8FEB93E02091F100FC012193D7
:10504000CF01F3E0873C9F07B9F70E941B238091B3
:10505000E80083FF1EC18091BF039091C0039A3086
:1050600008F017C1E92FF0E0E15DF54D0C948829B7
:10507000803899F0823809F00CC18091C3038F7099
:10508000873008F006C18093E9008091EB0085FB32
:10509000882780F91092E90006C08091BB039091A7
:1050A000BC03911182609091E800977F9093E80093
:1050B0008093F1001092F1008091E8008E77E5C0B6
:1050C000882309F4D3C0823009F0E3C08091C10382
:1050D0008111D6C08091C3038F702FEF280F263027
:1050E00008F0D7C08093E9002091EB0020FFC8C0F2
:1050F000933031F48091EB0080628093EB00C0C06C
:105100009091EB0090619093EB0021E030E001C0C2
:10511000220F8A95EAF72093EA001092EA00809124
:10512000EB008860EACF8111B4C01091C1031F77F2
:105130008091E3008078812B8093E3008091E800E8
:10514000877F8093E8000E942C268091E80080FFF2
:10515000FCCF8091E30080688093E30082E011112E
:1051600083E08093BE0395C08058823008F091C0E0
:105170008091C1039091C2038C3D23E09207A1F579
:1051800083E08A838AE289834FB7F894DE0113961D
:1051900020E03EE051E2E32FF0E050935700E4912D
:1051A00020FF03C0E295EF703F5FEF708E2F90E01D
:1051B000EA30C0F0C7968D939D932F5F243159F745
:1051C0004FBF8091E800877F8093E8006AE270E03B
:1051D000CE0101960E943B258091E8008B77809359
:1051E000E80057C0C096E7CF6091C3037091C40335
:1051F000AE014F5F5F4F0E947D24BC01892B09F4F3
:1052000048C09091E800977F9093E80089819A8147
:105210000E949925E1CF8038E1F58091E800877FF1
:105220008093E8008091BA038093F10045CF81110B
:1052300030C09091C103923060F58091E800877F83
:105240008093E8009093BA030E942C268091BA03C1
:10525000882311F084E005C08091E30087FDFACF38
:1052600081E08093BE030E94022313C08091C1039A
:10527000813079F481E0933009F080E08093BC03C1
:105280001092E9008091E800877F8093E8000E94F7
:105290002C268091E80083FF0AC08091E800877F78
:1052A0008093E8008091EB0080628093EB00AA96E7
:1052B0000FB6F894DEBF0FBECDBFDF91CF911F9127
:1052C0000895CF938091BE038823A1F0C091E90097
:1052D000CF709091EC00892F817090FD80E8C82BF1
:1052E0001092E9008091E80083FD0E940F28CF70A2
:1052F000C093E900CF910895991B79E004C0991FEC
:10530000961708F0961B881F7A95C9F7809508951F
:10531000EE0FFF1F0590F491E02D0994F999FECF4F
:1053200092BD81BDF89A992780B50895A8E1B0E0B3
:1053300042E050E00C94C229262FF999FECF92BD8D
:1053400081BDF89A019700B4021639F01FBA20BD4A
:105350000FB6F894FA9AF99A0FBE08950396272F7C
:105360000E949D290E949C29252F0E949D29242F5F
:105370000C949D290196272F0E949D290C949C290D
:10538000DC01CB01FC01F999FECF06C0F2BDE1BD05
:10539000F89A319600B40D9241505040B8F70895F4
:1053A000F894FFCFD40AD40A050B050B980BB40B65
:1053B000340B340BBF0B4B0C5A0C5A0CB20C340B85
:1053C000340BBB0C380D380D410D410D430D410D13
:1053D000410D410D380D380D480D410D410D480D61
:1053E000F21CDA1CF91C631C8E1D8E1DD51C8E1D33
:1053F0008E1D251D8E1D351D741D8E1D8E1D8E1D31
:105400008E1D481D8E1D8E1D451D8E1D101D8E1D51
:105410008E1D8C1D8C1D8C1D8C1D8C1D8C1D8C1D42
:105420008C1D8C1D861D8E1DF21CCE1C8E1D8E1D8E
:105430008E1D8E1D8E1D8E1D8E1D8E1D8E1D8E1D14
:10544000861D8E1D8E1DD51C8E1D8A1D8A1D8A1DD2
:105450008A1D8A1D8A1D8A1D8A1D8A1D861D38285F
:1054600060284929602849299328B42849290B290B
:025470001729FA
:10547200C8002A0328003C001E000A0001000100A7
:1054820001000100100010001000100010000400C4
:105492001000200002DE213D221C227D2211220466
:1054A2002201E200E900EA00B500B600B700CD0033
:1054B2008301CC008A019201940121022302240279
:1054C2002502260227022A02B300B4006F007000F0
:1054D200818283E200E900EA00B500B600B700CDA0
:1054E200008301CC008A019201940121022302244B
:1054F200022502260227022A02B300B4006F0070BE
:10550200008182833F3F3F0040D4222C0C580B364F
:085512000BDB0AF40A0D0B008B
:00000001FF
