:100000000C94D0050C94ED050C94ED050C94ED05C5
:100010000C94ED050C94ED050C94ED050C94ED0598
:100020000C94ED050C94ED050C946C290C94402A6D
:100030000C9491230C94ED050C94ED050C94ED05B6
:100040000C94ED050C94ED050C94ED050C94ED0568
:100050000C94ED050C9418240C94ED050C94ED050E
:100060000C94ED050C9497210C9474210C94ED05DF
:100070000C94ED050C94ED050C94ED050C94ED0538
:100080000C94ED050C94ED050C94ED050C94ED0528
:100090000C94ED050C94ED050C94ED050C94ED0518
:1000A0000C94ED050C94ED050C94ED050D000E007F
:1000B000000035001E001F00200021002200230048
:1000C000045124002500260027002D002E002B00BF
:1000D00014001A000800150017004A004D001C000B
:1000E00018000C00120013003100296104001600F2
:1000F000070009000A0050014F010B000D000E001F
:100100000F003300340002551D001B0006001900CB
:10011000050052015101110010003600370038006F
:100120001255E000E200E300E6002C432B684C008F
:100130002A0028002C425000510052004F00350088
:100140001E001F0020002100220023000451240073
:100150002500260027002D002E002B0014001A0079
:100160000800150017004A004D001C0018000C0084
:100170001200130031002961040016000700090075
:100180000A0050094F090B000D000E000F0033004C
:10019000340002551D001B000600190005002B0845
:1001A0002B08110010003600370038001255E0000F
:1001B000E300E200E6002C432B614C002A002800FB
:1001C0002C425000510052004F0001003A003B0009
:1001D0003C003D003E003F00010040004100420065
:1001E0004300440045000100570055002F02300233
:1001F0003102010001000100F9005200010001007C
:1002000001003900200221022602270224020100F7
:100210000100FB00500051004F00FC0001000100F4
:10022000220223022F0030006700010001000100BC
:10023000FA000100010001000100010001000100BD
:1002400001000100295D0100010001000100010021
:1002500001000100010001003A003B003C003D00AC
:100260003E003F00010040004100420043004400C6
:1002700045000100F200F300ED00F900F10001007B
:10028000010053005F00600061005600360001006D
:10029000FB00EF00EE00F000FC0001000100010097
:1002A0005C005D005E00540063000100010001007D
:1002B0000100FA00010001000100620059005A002B
:1002C0005B00670001000100010001000100010066
:1002D0000100010001000100010001000100010016
:1002E0000100005C00500150000000000000000010
:1002F00000000000000000000000000000000000FE
:100300000000FF00000000000000000000000000EE
:100310000000000000000000000000000000FE00DF
:1003200000000000000000000000000000000000CD
:1003300000000000000000000000FD0000000000C0
:1003400000000000000000000000000000000000AD
:10035000000000000000000000000000000000009D
:100360000000000000000000000000000000444504
:100370004255473A2064697361626C65642E0A00D5
:1003800044454255473A20656E61626C65642E0AA9
:10039000000A0025303258006C65645F7461736B2D
:1003A0003A20004F6E6573686F743A2074696D650A
:1003B0006F75740A004F6E6573686F743A206163DD
:1003C000746976653A2025640A000A0025303136C2
:1003D00062003A200025303258000A722F63203024
:1003E0003132333435363738394142434445460A91
:1003F00000290A002575002F002575005D280025BD
:10040000640020002564002000256400200025648D
:10041000007C0025303258006D6F7573656B65790F
:10042000205B62746E7C782079207620685D28726B
:1004300065702F61636C293A205B006E6F206B6ED4
:100440006F627320736F7272790A00703A0970726A
:10045000696E742076616C7565730A643A09736518
:10046000742064656661756C74730A75703A092B43
:10047000310A646E3A092D310A6C743A092B313015
:100480000A72743A092D31300A4553432F713A09E3
:10049000717569740A004D3E20004D25753A25732B
:1004A0003E20003F0A003D2025750A003F0A0064F7
:1004B000656661756C74730A0025750A003F0A0051
:1004C0000A092D2056616C756573202D0A00710A8A
:1004D000000A092D204D6F7573656B6579202D0A13
:1004E000003F00433E20004C25640A000A092D20ED
:1004F000537461747573202D0A686F73745F6B6534
:1005000079626F6172645F6C65647328293A202593
:100510003032580A6B6579626F6172645F70726F16
:10052000746F636F6C3A20253032580A6B657962BC
:100530006F6172645F69646C653A20253032580AD5
:100540006B65796D61705F636F6E6669672E6E6B48
:10055000726F3A20253032580A74696D65725F7285
:10056000656164333228293A202530386C580A00F6
:100570002573000A092D20436F6E736F6C65202D63
:100580000A4553432F713A09717569740A6D3A0926
:100590006D6F7573656B65790A000A092D204D61D1
:1005A000676963202D0A443A094465627567204DE6
:1005B00065737361676520546F67676C650A583AA5
:1005C000094D6174726978204465627567204D6FCA
:1005D000646520546F67676C65202D2053686F77C2
:1005E000206B65797072657373657320696E206D19
:1005F000617472697820677269640A4B3A094B65C5
:1006000079626F61726420446562756720546F6718
:10061000676C65202D2053686F77206B6579707249
:10062000657373207265706F72740A4D3A09446580
:10063000627567204D6F75736520546F67676C65D1
:100640000A563A0956657273696F6E0A533A09532E
:1006500074617475730A433A09416374697661740D
:100660006520436F6E736F6C65204D6F64650A463D
:10067000312D4631303A0953776974636820746FBD
:10068000204C6179657220302D3920284631302088
:100690003D204C30290A302D393A0953776974636B
:1006A0006820746F204C6179657220302D390A47BB
:1006B000524156453A0953776974636820746F2034
:1006C0004C6179657220302028616C7465726E61AE
:1006D0007465290A423A094A756D7020746F204288
:1006E0006F6F746C6F616465720A4553433A094ACF
:1006F000756D7020746F20426F6F746C6F616465EC
:10070000722028616C7465726E617465290A453ABD
:10071000095072696E7420454550524F4D20536503
:100720007474696E67730A4241434B5350414345A9
:100730003A09436C65617220454550524F4D0A4E4F
:100740003A094E4B524F20546F67676C650A006B35
:1007500065796D61705F636F6E6669672E72617730
:100760003A20253032580A2E737761705F636F6EBE
:1007700074726F6C5F636170736C6F636B3A20258A
:10078000750A2E636170736C6F636B5F746F5F6368
:100790006F6E74726F6C3A2025750A2E73776170D4
:1007A0005F6C63746C5F6C6775693A2025750A2EFF
:1007B000737761705F7263746C5F726775693A20FA
:1007C00025750A2E737761705F6C616C745F6C675E
:1007D00075693A2025750A2E737761705F72616CB6
:1007E000745F726775693A2025750A2E6E6F5F67B0
:1007F00075693A2025750A2E737761705F6772619B
:1008000076655F6573633A2025750A2E737761708C
:100810005F6261636B736C6173685F6261636B736A
:10082000706163653A2025750A2E6E6B726F3A20EF
:1008300025750A2E737761705F6573636170655FFC
:10084000636170736C6F636B3A2025750A00646591
:100850006275675F636F6E6669672E7261773A20B3
:10086000253032580A2E656E61626C653A20257516
:100870000A2E6D61747269783A2025750A2E6B65AF
:1008800079626F6172643A2025750A2E6D6F7573F7
:10089000653A2025750A006565636F6E6669673A7B
:1008A0000A64656661756C745F6C617965723A2083
:1008B00025750A003F004E4B524F3A206F66660A7C
:1008C000004E4B524F3A206F6E0A000A6D6F7573DF
:1008D000653A206F66660A000A6D6F7573653A2087
:1008E0006F6E0A000A6B6579626F6172643A206FFD
:1008F00066660A000A6B6579626F6172643A206FFE
:100900006E0A000A6D61747269783A206F66660A31
:10091000000A6D61747269783A206F6E0A000A6489
:10092000656275673A206F66660A000A64656275DB
:10093000673A206F6E0A000A0A4A756D70696E6721
:1009400020746F20626F6F746C6F616465722E2EFD
:100950002E2000433E2000436C656172696E672063
:10096000454550524F4D0A000A00253032582000AC
:100970006B6579626F6172645F7265706F72743AF1
:10098000200064656C5F6B65795F6269743A20630F
:10099000616E27742064656C3A20253032580A0055
:1009A0006164645F6B65795F6269743A2063616E4C
:1009B0002774206164643A20253032580A005B7342
:1009C0005D005B575D005B535D005B525D005B4407
:1009D0005D005B435D001E035200650064006F0014
:1009E0007800200057006900720065006C00650007
:1009F0007300730000001E034D006100740074005A
:100A0000690061002000440061006C002000420089
:100A100065006E0000000403090409025B00030185
:100A200000A0FA09040000010301010009211101DD
:100A300000012240000705810308000109040100AC
:100A4000010300000009211101000122B600070581
:100A500082032000010904020002030000000921B2
:100A60001101000122220007058303200001070570
:100A700003032000011201000200000008444D574A
:100A8000520100010200010631FF0974A10109753C
:100A9000150026FF009520750881020976150026AD
:100AA000FF00952075089102C005010902A101858A
:100AB000020901A100050919012908150025019560
:100AC00008750181020501093009311581257F95DD
:100AD000027508810609381581257F950175088101
:100AE00006050C0A38021581257F950175088106D7
:100AF000C0C005010980A101850319012AB70015AD
:100B00000126B700950175108100C0050C0901A1EF
:100B100001850419012AA002150126A0029501757C
:100B2000108100C005010906A1018506050719E02D
:100B300029E71500250195087501810205071900AF
:100B400029EF1500250195F07501810205081901AD
:100B50002905950575019102950175039101C0055F
:100B6000010906A101050719E029E71500250195EE
:100B70000875018102950175088101050719002991
:100B8000FF150026FF00950675088100050819016C
:100B90002905950575019102950175039101C00024
:100BA00011241FBECFEFDAE0DEBFCDBF12E0A0E020
:100BB000B1E0E0E0FAE502C005900D92AC37B10774
:100BC000D9F725E0ACE7B2E001C01D92A737B20724
:100BD000E1F70E948A160C94A92C0C940000FF9354
:100BE000EF93E0917C02F0917D02309709F0099536
:100BF000EF91FF910895FC018591803011F0EFDFB6
:100C0000FBCF0895FF27E0E230E247FF0CC041959B
:100C100097FF09C0EDE26095709580959095611DF4
:100C2000711D811D911D27FF02C0219530E350E207
:100C3000AA27660F771F881F991FAA1FA41710F0F5
:100C4000A41B63955A95A9F7AA3008F0A95FA05D87
:100C5000AF93F395611571058105910541F7ED326B
:100C600011F4EF93F395F21718F43F93F395FBCF3C
:100C70008F91B5DFFA95E1F70895E991F9918591A2
:100C8000803021F0853219F0AADFF9CF089520E0F5
:100C9000E89455915532C1F3503311F4689455914D
:100CA0005A3348F4505390F3220F022E220F220F92
:100CB000200D250FF4CF0EF421958991999153368B
:100CC00019F3533729F1533559F1BC018827992776
:100CD000E8945C3621F48991999168945591543641
:100CE00039F446EF7EF077FF0DC08FEF9FEF0AC01B
:100CF00055374AE039F0583540E121F0523642E0AC
:100D000009F00895FF93EF937DDFEF91FF91B7CF47
:100D1000FF93EF93FC0181918030B9F360DFFBCF4B
:100D2000FF93EF9368DFF1CFDF93CF93CDB7DEB7BB
:100D30002596A3DFCF91DF91089560E472E48FE000
:100D400090E00E940B210895ABE0B0E0EAEAF6E003
:100D50000C941C2C4C0183E70E9431218E010F5F03
:100D60001F4F8BE0D8011D928A95E9F778015E014B
:100D7000BCE0AB0EB11C6801412C512C32010E9429
:100D80005E218823B1F180E1481687E258066104AC
:100D90007104E0F50E944A21D6018C93FFEFCF1A2F
:100DA000DF0ACA14DB0459F78B85803E91F5F40104
:100DB000065F1F4F80E0D70111962C91B0E82B9F62
:100DC00090011124D7019C91292B419151914217F7
:100DD000530709F081E0DF0112972D933C93B2E0B5
:100DE000EB0EF11C0E151F0531F72B96E0E10C946C
:100DF000382CEFEF4E1A5E0A6E0A7E0AF1E14F16AA
:100E0000F7E25F066104710408F4B9CFF6011082BD
:100E1000C5CF80E0EACF509A519A849A859A589A21
:100E2000599A8C9A8D9A08950E94B1150E940B07C9
:100E30000895CF93DF93EC010E941E08813021F0CA
:100E4000843051F08D9A09C08D9A59988C9A589A8D
:100E5000CE01DF91CF9108958D98599AF7CF81E017
:100E6000089581E008950E943107089508950E9431
:100E700036070895A5E0B0E0E0E4F7E00C94292CF3
:100E800049835A833091830289819A81311119C033
:100E9000662399F0222389F00E94730D182F682F82
:100EA00089819A810E944F0D69817A81812F0E94E8
:100EB0008D142596E3E00C94452C0E94610D182FAB
:100EC000F3CF0E94730D69817A81F1CFFC01262F47
:100ED00086819781009739F44081518162817381C5
:100EE00084810E943A070895CF93DF93EC0161E07B
:100EF0000E946607BE010E94021CDF91CF910895F7
:100F0000CF93DF93EC0160E00E946607BE010E9470
:100F10003707DF91CF9108950E94140708950E942A
:100F2000B315089508950E94160C0E9492072FEFA2
:100F300084E39CE0215080409040E1F700C0000035
:100F400008950E9493070E943C2408950E949307ED
:100F50000E944D2408950F931F93CF93DF938C012C
:100F600061E00E946607EC01B8010E94330781111D
:100F700006C080E0DF91CF911F910F910895B801D5
:100F8000CE010E94B9208823A1F3B801CE010E94AE
:100F9000E218882371F3B801CE010E942B20882328
:100FA00041F3F80182818823D9F0CB35FDE5DF07D5
:100FB000A9F170F4C130ECE5DE07B1F0CF3DFCE5FE
:100FC000DF0721F1C115DC4559F40E94A107D1CFFB
:100FD000CD35EDE5DE07F9F020F1C83ADD45C1F089
:100FE000C8010E942F07C6CF90915203892F8E7F90
:100FF00090FF81608093520380FF05C080E893E0FA
:101000000E94FB05B6CF8EE693E0FACF0E94C6128F
:101010000E94A607AECF0E940B12E2CF0E941512CB
:10102000DFCF0E941912DCCF0E946D230E947A0844
:1010300008950E947E080E9472230895292F332765
:1010400040E02115310511F0C90148E09C0164E040
:10105000369527956A95E1F72115310511F04C5F1A
:10106000C9019C013695279536952795211531059F
:1010700011F04E5FC90196958795892B09F04F5F56
:10108000842F0895829590E09C01220F331F220F38
:10109000331F2C7C95958795959587958373282B81
:1010A00030E0C901880F991F8A7A359527952575F3
:1010B000822B0895CF93DF93D92F0E944208C82F27
:1010C0008D2F0E9442089C2FDF91CF9108950895A3
:1010D0000E946708089581E008950E946B080895B2
:1010E0000895CF93C82F0E9468088C2F0E946D0826
:1010F000CF91089580E00E94710808950E94C32155
:101100000E9471080895CF930E94C321C82F809137
:101110007E028C1789F1C0937E020E94FD236093AA
:101120007F0270938002809381029093820280916B
:10113000520382FF1EC080FF1CC088E993E00E941A
:10114000FB058091520380FF14C01F92CF9383E967
:1011500093E09F938F930E949406809152030F9087
:101160000F900F900F9080FF04C081E993E00E94E0
:10117000FB058C2F0E947108CF910895ADE0B0E07F
:10118000E4ECF8E00C942A2C49875A876B877C871B
:101190008D8761110E9417111D821E821F82188681
:1011A00085E0FE013996DE01119601900D928A9537
:1011B000E1F78091510582FF0CC00E94DA1088236C
:1011C00019F082E00E94C7110E94C11081110E9493
:1011D00038118C819D81892B71F429813A814B8151
:1011E0005C816D817E818F8198850E9413102D9680
:1011F000E2E00C94462C89819A8189238F3F69F320
:10120000CE0101960E9474078111E7CFF0CFFC0157
:10121000808191810E94A50D0895CF93C82F8823C6
:10122000E1F08CEF8C0F813AD0F48C2F0E94D71F05
:10123000811113C06C2F80910701909108010E94C9
:101240007122882329F08C2F0E94B2100E9446112F
:101250008C2F0E94AA100E944611CF91089580E21F
:101260008C0F883048F4C77081E001C0880FCA95A0
:10127000EAF70E94FA10EFCFEBE5EC0FE33040F411
:10128000F0E0E859FE4F808190E00E943122E5CFE6
:10129000E8E5EC0FE73150F4F0E0EE0FFF1FE65CFD
:1012A000FE4F808191810E944722D7CFCD3EA8F288
:1012B0008C2F0E940E170E94B817CFCF882379F188
:1012C0009CEF980F913A28F40E94B2100E944611A8
:1012D000089590E2980F983050F4877091E001C023
:1012E000990F8A95EAF7892F0E940011EFCF9BE5AD
:1012F000980F933028F490E080E00E943122089506
:1013000098E5980F973128F490E080E00E944722FA
:1013100008958D3E20F00E9462170E94B81708952C
:101320001F93CF93DF93182FEB010E940D09209795
:1013300039F4812F0E945E09DF91CF911F910895AA
:101340008FE99FE00197F1F700C000002197EFCFF0
:1013500070E060E0893311F460E570E00E9490096C
:101360000895882321F00E94FA100E9446110895E2
:10137000882321F00E9400110E9446110895B0E0D8
:10138000A0E0E5ECF9E00C94232C6C01D62FC72FDC
:10139000FC011281F580F2949FE0F9220E94F01086
:1013A000E82E8823B9F0E12E1123A1F08C2F807F45
:1013B000803421F080E28D0F8830D0F0809151058B
:1013C00082FF16C082E00E94C7110E94F01091E0D7
:1013D000E82EE926BC2EB2948FE0B822FBE0FB1584
:1013E00008F468C0EB2DF0E0E555F34D0C94142C97
:1013F000E12CF0CF0C2F0F70C07F11F00295007F11
:10140000112399F0002359F080E28D0F883010F0FD
:10141000D11107C0802F0E94FA100E9446118D2F13
:1014200041C0802F0E940A11F8CF8D2F0E945E09C3
:10143000002309F43FC080E28D0F883010F0D111F5
:1014400004C0802F0E94001103C0802F0E94101141
:101450000E9446112FC00C2F0F70C07FC03211F0B8
:101460000295007FDD2381F0D13009F463C01123A0
:1014700009F46DC0FF2009F463C0F601858180FF87
:10148000CECF8F7085835CC08091510582FD33C0C3
:10149000112359F0002329F0802F0E94FA100E9496
:1014A000461180E00E940D0905C080E00E945E099F
:1014B0000111C7CFEB2DE850FF0B349720F40E94A9
:1014C000C3210E947108EE2089F00E94D61080FD91
:1014D0000DC0F60112820E94D0100E94AD0CC60110
:1014E0000E94D60B0E94D0100E94BD0CCDB7DEB773
:1014F000E9E00C943F2C112389F0F11006C00E9402
:101500001A11802B0E94B109D5CF21E0F212F7CF3A
:101510000E941A11802B0E942111CCCFF11006C01D
:101520000E943811802F0E94B809C4CF31E0F31611
:1015300009F2F6CF112331F085E08F1508F4BACF08
:10154000802FE0CF94E09F1508F4B4CFEBCFFF20BD
:1015500049F3D93349F4FFEF27EE33E0F15020404F
:101560003040E1F700C000008D2F0E945E09A2CF3D
:101570008C2F86958695837069F0813009F09ACF1B
:101580008D2F9C2F9370111102C090E080E00E947B
:10159000472290CF8D2F9C2F9370111102C090E0A5
:1015A00080E00E94312286CF8D2F112329F00E94E6
:1015B0000E170E94B8177ECF0E946217FACF8C2FA9
:1015C0008370A1F5111176CF4D2F42954695477046
:1015D000440F440F2D2F2F7030E0042E02C0220F35
:1015E000331F0A94E2F790E080E0D4FF09C08FE057
:1015F00090E002C0880F991F4A95E2F78095909578
:10160000C695C695C370822B932BC23049F058F40F
:10161000C13019F00E947E0C4DCF0E94750C4ACF4C
:101620000E94870C47CF0E94720C44CF86951123ED
:1016300011F08C2F8170882309F43CCF4D2F4295F7
:1016400046954770440F440F2D2F2F7030E0042E25
:1016500002C0220F331F0A94E2F790E080E0D4FF2B
:1016600009C08FE090E002C0880F991F4A95E2F709
:1016700080959095C695C695C370822B932BC230EA
:1016800049F058F4C13019F00E94E80C13CF0E94C1
:10169000DF0C10CF0E94F10C0DCF0E94930C0ACFEB
:1016A000CF70112329F08C2F0E94AD0C8D2F2ACFE3
:1016B0008D2F0E94B8098C2F0E94BD0CFBCED23F0B
:1016C00051F160F4D03FB9F0D13F81F0112309F41A
:1016D00049C0F110A4CE8C2F8F7121C0D33F11F1DE
:1016E000D43FA1F78091510582FD26C08C2F8F71C8
:1016F000112311F314C0112349F084E08F1508F46D
:10170000D9CE8C2F8F710E94CF0CD4CE95E09F152F
:1017100008F4D0CEF6CF8C2F8F711111CDCF0E944F
:10172000AD0CC8CE112329F08C2F8F710E94A10C13
:10173000C1CE0E949C0CBECE112349F0CF718C2FDC
:101740000E94AD0C63E08C2F0E949F11B3CE81E00C
:101750000E94C711E1E0EF1508F0ACCE82E00E94D4
:10176000C711A8CEF110F5CE8C2F8F71A5CF0F9396
:101770001F93CF93DF93EC018E819F81009781F0BF
:101780000E949C138C010E94FA0C0E94710CB801FB
:10179000CE010E94BF09DF91CF911F910F91089553
:1017A000688179818A810E94B00DECCFCF93DF935D
:1017B000EC018B819C81892B29F088819981892377
:1017C0008F3F51F4DF91CF910895CE010E94B70B66
:1017D000CE010E948007F6CFCE010E94AB07811197
:1017E000F4CF0E94F010882369F38A81882351F393
:1017F0008091510582FFE6CF82E00E94C711E2CFBF
:1018000090E080E00E94312290E080E00E94472238
:101810000E9417110E9446110E9456180E94B81784
:1018200008950E94BA100E94000C08950E940711AA
:101830000E94110C089592959F70963091F058F483
:10184000925F9F70923058F4803F19F030F4883ED8
:1018500030F481E008959A5FF4CF843FD1F380E0C3
:101860000895883EB0F3813FD1F7F3CFFC01838127
:101870009481892B29F08081918189238F3F39F4CC
:1018800080E008950E949C130E941B0C089586819D
:1018900097810097B9F7808191810E94A50DF4CFBF
:1018A000A5E0B0E0E6E5FCE00C942A2C2596E2E009
:1018B0000C94462CA8E0B0E0E0E6FCE00C942A2C66
:1018C0002896E2E00C94462C08950E94640C08953A
:1018D0000E94650C9093AB028093AA020E94000CB8
:1018E000089508950E94680C08952091AA023091ED
:1018F000AB02822B932B0E94680C08952091AA02C0
:101900003091AB02822393230E94680C08952091AA
:10191000AA023091AB02822793270E94680C089597
:101920000E94190708950E94900C9093A902809339
:10193000A8020E94000C089590E080E00E94930CA1
:10194000089521E030E0A90102C0440F551F8A9597
:10195000E2F7CA010E94930C089521E030E002C032
:10196000220F331F8A95E2F78091A8029091A90275
:10197000822B932B0E94930C089521E030E002C04B
:10198000220F331F8A95E2F7209530958091A802A7
:101990009091A902822393230E94930C089521E041
:1019A00030E002C0220F331F8A95E2F78091A8022F
:1019B0009091A902822793270E94930C0895209169
:1019C000A8023091A902822B932B0E94930C0895B8
:1019D0002091A8023091A902822393230E94930CA4
:1019E00008952091A8023091A902822793270E948E
:1019F000930C08950895262F277091E001C0990F48
:101A00002A95EAF723E0769567952A95E1F7660F20
:101A1000771F660F771FFA01E60FF71F50E040E0CF
:101A2000682F70E08191DF0111979B01042E02C0A5
:101A3000369527950A94E2F72170219528272923C6
:101A400028272C934F5F5F4F4430510559F7089575
:101A5000A82FA77023E0969587952A95E1F7880F20
:101A6000991F880F991FFB01E80FF91F50E040E014
:101A700080E0219130E00A2E02C0369527950A9425
:101A8000E2F721703327042E01C0220F0A94EAF7EF
:101A9000822B4F5F5F4F4430510559F70895262F31
:101AA000953070F48E3060F4682F70E08EE0989F6F
:101AB000600D711D112444E852E0822F0E94FB0C3E
:101AC0000895292F953068F48E3058F490E064E83A
:101AD00072E03EE0239F800D911D11240E94280D8D
:101AE000089580E00895B0E0A0E0E9E7FDE00C94FF
:101AF000232C7C010091A8021091A9028091AA02D6
:101B00009091AB02082B192BCFE0D0E0CC24C394EA
:101B1000D12CBC2EC6010C2E02C0880F991F0A942E
:101B2000E2F780239123892B49F4219790F7B12C78
:101B30008B2DCDB7DEB7E9E00C943F2CB7018C2F8D
:101B40000E94A814019789F3F3CFCF93DF93EC01A0
:101B50000E94730DBE010E94A814DF91CF910895D9
:101B60001F93CF93DF93EB0190918302992339F078
:101B7000CB010E94A50DDF91CF911F91089588237D
:101B800069F0CB010E94730D182F682FCE010E94BF
:101B90004F0DBE01812F0E94A814EDCFCB010E94F2
:101BA000610D182FF6CFCF93DF93C091AC028091D7
:101BB000AD028C1303C0DF91CF910895D0E0FE01F8
:101BC00083E0EE0FFF1F8A95E1F7E255FD4F20817C
:101BD00031814281538164817581868197810E9420
:101BE0005A0C2196C770E3CF2091EE023091EF029C
:101BF0004091F0025091F1026091F2027091F30273
:101C00008091F4029091F5020E945A0C0895CF93AE
:101C1000DF938091F302807F09F049C08091F00248
:101C2000882309F444C08091AC02C091AD02609158
:101C3000EE027091EF02A091F102B091F202D62F64
:101C4000D723C817A1F190E0109711F0DF3F19F4E6
:101C500001968770F6CF9C0143E0220F331F4A950F
:101C6000E1F7F901E255FD4F41814713F1CF408182
:101C70004613EECF42814111EBCF438154814A1B81
:101C80005B0B483C510520F78091F3028F70806117
:101C90008093F302F901ED54FD4F80818F708061D4
:101CA00080838EEE92E00E94D60B0E94D30DDF91CE
:101CB000CF910895A5E1B0E0E0E6FEE00C94222C7F
:101CC0008C0185E0F801DE01519601900D928A9514
:101CD000E1F7F801E2804EEEC42E42E0D42E60918E
:101CE000F1027091F2026115710509F480C19091C1
:101CF000EE022091EF02892F82238F3F09F477C1F2
:101D000040815181A380B480F090F002F501E61B80
:101D1000F70BFF2009F420C18091F302382F307FA8
:101D2000E83CF10508F0CAC0311177C0FE2C25133C
:101D300020C094131EC06091F4027091F502F80166
:101D40002681378162177307A1F4E11012C08F70EA
:101D500080618093F3020E94F40DC6010E94D60BAD
:101D60008091F302F80185838F2D6596EAE00C944B
:101D70003E2CA114B10429F0842F85238F3F09F054
:101D80004FC180E0F82FF170DF2E80FF3CC08091C2
:101D9000AC022091AD02821315C0498B5A8B898900
:101DA0009A890E94A50D292F22952F702230F8F0D4
:101DB000243020F59F70F9F0F8019581907FD9F4D7
:101DC000D12C1FC090E0FC0133E0EE0FFF1F3A95CD
:101DD000E1F7E255FD4F3181351306C030813413F0
:101DE00003C032813E110FC001968770D4CF9F701F
:101DF00011F0882329F3805E883010F3C8010E9417
:101E0000D60BFD2CB1CFEE2009F4AECF8091F302BA
:101E100081608093F302F12CA7CF25131DC094138A
:101E20001BC04091F4025091F502F80126813781E0
:101E30004217530789F4E1100FC08583C8010E943F
:101E4000D60B88E0F801AEEEB2E001900D928A95D3
:101E5000E1F70E94F40D88CFC8010E94360C882358
:101E600049F1EE2039F18091F3028032A0F0209107
:101E7000EE023091EF023A8729871B86BD86AC8639
:101E80008E878091F4029091F502988B8F87CE0116
:101E900009960E94D60B88E0F801AEEEB2E0019000
:101EA0000D928A95E1F70E94070E0E94F40DFF241F
:101EB000F3945ACFC8010E94D60BF9CF311113C049
:101EC0007A2DBD8AAC8A6E2D8D890E94500C8EEEC3
:101ED00092E00E94D60B88E0F60111928A95E9F70C
:101EE0000E94F40D98CF251318C0941316C040918A
:101EF000F4025091F502F801268137814217530709
:101F000061F4E1100AC08583C8010E94D60B88E005
:101F1000F60111928A95E9F727CFC8010E94360C85
:101F2000882341F2EE2031F28091F302803208F4EE
:101F3000B2CF2091EE023091EF023A8329831B82C7
:101F4000BD82AC828E838091F4029091F5029887D5
:101F50008F83CE0101969DCFE83CF105D8F5FE2C8C
:101F6000EE2009F4A7CF251327C0941325C0209194
:101F7000F4023091F502F80186819781281739071C
:101F8000D9F49091F30290FD0EC0907F61F08091A2
:101F9000F3028583903F09F451CF982F907F905F93
:101FA0008F70892B4ACF88E0F801AEEEB2E0019045
:101FB0000D928A95E1F7D8CEC8010E94360C8111A6
:101FC0006ACF8091F30281608093F302C8010E947E
:101FD000D60BCACE7A2DBD8AAC8A6E2D8D890E9411
:101FE000500C88E0F60111928A95E9F732CFEE2085
:101FF00009F460CFC8010E94360CF82E882309F43A
:1020000059CF88E0F801AEEEB2E001900D928A95CA
:10201000E1F78EEE92E00E9407090E94070E19CFA9
:1020200081E08E25AFCEA0E1B0E0E9E1F0E10C94D3
:102030002A2C29873A874B875C876D877E878F8715
:10204000988BCE0109960E945A0E8823A9F08C85A0
:102050009D85892B39F029853A85822F83238F3FEF
:1020600009F06FC08091AC029091AD02891343C01A
:102070006096E2E00C94462C88E0FE013996DE0181
:10208000119601900D928A95E1F78C859D85892B9B
:1020900049F389859A8589238F3F21F3A091AD0269
:1020A000B0E0CD010196877099272091AC022817E6
:1020B000190671F40E94160C1092AD021092AC0237
:1020C00088E0EEEEF2E0DF011D928A95E9F7CACFD3
:1020D00093E0AA0FBB1F9A95E1F7A255BD4F98E078
:1020E000FE01319601900D929A95E1F78093AD0231
:1020F0000E94D30DB7CFB8E08B9FC0011124825549
:102100009D4F0E945A0E882309F4B2CFE091AC0291
:1021100028E0E29FF0011124E255FD4F208131813A
:102120004281538164817581868197810E945A0C16
:102130008091AC0290E00196877099278093AC0261
:1021400091CF4B855C856D857E858F8598890E94B2
:102150005A0C88CF682F80910701909108010E9446
:1021600013230895682F80910701909108010E9420
:102170002123089580910701909108010E942F2347
:1021800008950E94F1232091190330911A03821BB4
:10219000930B9C0181E0243F314008F480E00895D6
:1021A00080911803859585958595089580911803EC
:1021B000877008950E94F123209116033091170330
:1021C000821B930B843F914048F08091180382FB5F
:1021D000882780F991E089278170089580E0FCCFFD
:1021E00090911803977081E009F480E00895809140
:1021F0003D03089590913D03892B80933D030895FD
:10220000809590913D03982390933D0308951092FB
:102210003D03089590913C03892B80933C030895DE
:10222000809590913C03982390933C0308951092DD
:102230003C03089580911B03089508950E941D1189
:102240000895CF93C82F8091510582FF0FC08091D0
:102250001B038C1759F00E94F12390931A0380936B
:102260001903C0931B038C2F0E941E11CF91089558
:1022700080911B03882349F010921B0310921A03CC
:102280001092190380E00E941E110895CF93DF93EE
:10229000E0910701F091080180913D038083E09176
:1022A0000701F0910801808190913C03892B808384
:1022B00080911B03882321F10E94C110882371F0B3
:1022C0008091520380FF08C083EA93E09F938F932D
:1022D0000E9494060F900F900E943811E091070120
:1022E000F0910801808190911B03892B808380915C
:1022F0000701909108010E945D2281110E9438110E
:10230000C0910701D091080140E250E066EF72E011
:10231000CE010E94512C892B59F080E2FE01A6EFDC
:10232000B2E001900D928A95E1F7CE010E94D02192
:10233000DF91CF91089508950E949B110895909187
:10234000510592FF17C098E0899F90011124622BDC
:10235000609318030E94AD0C0E94F1239093170321
:1023600080931603809118038595859585950E9425
:102370009C1108950E94AD0C0895109218031092BC
:1023800017031092160380E00E949C11089590910B
:1023900018038095892380931803282F277091F4C0
:1023A000282F082E000C330B9217130659F090912A
:1023B000510592FF07C08595859585950E94BD0CB6
:1023C0000E94BD110895CF93C82F8091510582FBC3
:1023D000992790F99C17E9F0C0FB82F98093510589
:1023E00080915005909151050E94401282E00E9418
:1023F000C7118091520380FF0CC01F92CF9385EBD1
:1024000093E09F938F930E9494060F900F900F90EC
:102410000F90CF9108958091510582FB882780F914
:1024200091E089270E94E311089581E00E94E31161
:10243000089580E00E94E311089590E080E00E94FA
:102440006F2C21E0883E9E4F09F020E0822F0895F6
:1024500082E090E00E94672C089583E090E00E9463
:10246000672C0895CF9384E090E00E94672CC82FDA
:1024700082E290E00E94672C982F8C2FCF910895D4
:10248000CF93C92F682F84E090E00E94752C6C2FA9
:1024900082E290E00E94752CCF910895AB01BC01BF
:1024A0008FE090E00E94872C0895AB01BC0183E18E
:1024B00090E00E94872C089560E070E0CB010E94BC
:1024C0005512089560E070E0CB010E944E120E9408
:1024D0005C12089568EE7EEF90E080E00E94932CFD
:1024E00060E082E090E00E94752C60E083E090E084
:1024F0000E94752C1092AB021092AA0260E084E058
:1025000090E00E94752C64E082E290E00E94752CBD
:1025100060E085E090E00E94752C60E086E090E04D
:102520000E94752C6FEF87E090E00E94752C40E0D0
:1025300050E0BA0188E090E00E94872C60E08DE0D6
:1025400090E00E94752C40E050E0BA0188E190E0F4
:102550000E94872C60E087E190E00E94752C40E0AB
:1025600050E0BA018CE190E00E94872C70E060E0BE
:1025700080E290E00E94932C40E050E0BA0188E1B4
:1025800090E00E94872C0E94621208950E946A12B5
:102590000895682F8EE090E00E94752C08950E94A7
:1025A000FD2360934E0370934F03809350039093E9
:1025B000510360934A0370934B0380934C039093B1
:1025C0004D030895089508950E94E3120895089513
:1025D0000E94E712089583E496E20E94B9210E94C6
:1025E000E2120E94E412089581E008950E94F4121C
:1025F0000895089508950E94F9120E94FA1208950C
:102600000E9493150E94700808950E94E8230E947A
:1026100000160E9400130E94E8120895AAE0B0E09C
:10262000E4E1F3E10C941F2C0E94291620E4822E91
:1026300023E0922E640110E0F601E190F1906F0129
:10264000812F0E94B6151F5F153009F449C0E816A6
:10265000F90691F38091520381FD0E94BF150E94FB
:10266000F612782E10E0812F0E94B6157C01F4013D
:10267000A190B1904F018A159B0561F1A826BF2456
:1026800000E0CC24C394D12CC5018C219D21892B41
:10269000C1F07720B1F00E831F8321E0C7018C21A8
:1026A0009D21892B09F420E028870E94F123816075
:1026B000782F9A8789874E815F8168858A850E94F5
:1026C000BE080F5FCC0CDD1C0E30F1F6F401329722
:1026D000F182E0821F5F153031F60E94CF1222C0D6
:1026E000E816F90609F0B6CF0E94F1238C0180911B
:1026F0003E0390913F0308171907A1F08FEF8983DC
:102700008A831B820E94F1238160782F9D838C83B2
:1027100049815A816B818D810E94BE0810933F03CD
:1027200000933E030E94BB1B0E9476180E94830800
:102730002A96EDE00C943B2CCF93DF930E94AD14CE
:10274000EC01811521E5920708F042C0811530E5C2
:10275000930708F09FC0883E910530F5803E9105B3
:1027600008F094C0883A910588F4853A910508F0FC
:1027700086C08130910509F489C0009709F486C0AC
:10278000049708F083C0D0E0C0E080C08F3B910583
:10279000D0F7C85AD0E0CC0FDD1FC559DE4F0990E5
:1027A000D881C02DD46472C0811540E2940750F4E2
:1027B000C11581E0D80708F069C0CD3ED10518F3F6
:1027C000D06564C081159044F0F2DF70D06A5EC0BD
:1027D000811535E5930718F5811544E5940708F050
:1027E00085C0C11583E5D80708F06CC0C11522E586
:1027F000D20708F462C0CE018370992721E030E04F
:1028000002C0220F331F8A95E2F7C695C69580E273
:10281000C89FE0011124C22BD32BDC6837C081157F
:1028200039E59307A8F4811548E5940708F063C0DB
:10283000C11586E5D80708F0A6CF8C2F0E944F154A
:10284000C82FD0E0DC2FCC27CC27DF71D0621EC090
:1028500081152AE5920708F453C0905681159042DD
:1028600008F091CF8D2F8F710E944F1590E0982F17
:10287000882788279F719C012C2BE901E7CFC55A37
:10288000D0E0C756DE4FC881D0E0D064CE01DF91E2
:10289000CF9108958370992721E030E002C0220F84
:1028A000331F8A95E2F7C695C69540E2C49FE001C2
:1028B0001124C22BD32BDD68E9CFDC2FCC27C16FCD
:1028C000D06AE4CFCE018370992721E030E002C0C6
:1028D000220F331F8A95E2F7C695C69540E2C49F42
:1028E000E0011124C22BD32BDA68D0CFD82FCC270C
:1028F000C46FD06ACBCFD82FCC27C06FD06AC6CFD9
:102900008F700E944F1534E0D695C7953A95E1F740
:10291000CF709C2FEC01D069B9CF972F7530A8F4F8
:102920006E3098F470E02EE0929F600D711D1124BE
:10293000FB0196E4899FE00DF11D1124EE0FFF1FAE
:10294000EE54FF4F85919491089580E090E00895B2
:102950000E948D140E949C13089582389105B9F14C
:10296000B0F48133910509F47DC048F489329105B2
:1029700009F46DC08A32910509F47BC0089585334E
:10298000910509F45FC08933910509F10895833EEB
:102990009105D9F138F4803E910529F1823E9105E7
:1029A00079F10895863E9105D9F1873E910509F4A4
:1029B0003EC0843E910541F52091510521FF24C080
:1029C0008091500584FD19C087EE90E00895209114
:1029D0005005237009F05AC02091510523FF14C0FF
:1029E00089E290E008952091500520FD38C0309193
:1029F000510530FF09C024FF43C090E080E00895F6
:102A00002091500522FDF7CF08952091500522FD19
:102A10003AC03091510530FD39C024FFF5CFEDCFDC
:102A20002091500523FFF0CF24FDE7CFCDCF20919B
:102A3000500523FD2EC03091510531FFEECF84EEBD
:102A400090E008952091500525FFDECFC9CF209159
:102A5000500525FD21C02091510523FFD5CF89E3E5
:102A600090E0D2CF2091500526FFCECF8AE290E0B1
:102A700008952091500526FFC7CF81E390E0089587
:102A800083EE90E0089582EE90E0089580EE90E06D
:102A9000089586EE90E0089585E390E00895909182
:102AA000500592FF06C0282F28712830F9F4877F3F
:102AB000846093FF06C0282F28712831F1F4877EA7
:102AC00084612091510520FF06C0382F38713830BD
:102AD000D9F4877F816021FF06C0282F2871283113
:102AE000D1F4877E816194FD877E0895282F24711B
:102AF0002430F9F68B7F8860DCCF282F24712431B5
:102B000001F78B7E8861DDCF382F3171313019F7B5
:102B10008E7F8860E0CF282F2171213121F78E7EB2
:102B20008861E1CF08950E941D12811102C00E94A8
:102B3000C6120E942812809352030E943212909370
:102B40005105809350050E9492150E942D1290E02D
:102B50000E94720C8091A8029091A9020E94900C90
:102B60000895089508950E94B2150895E82FF0E0A1
:102B7000EE0FFF1FE45AFA4F808191810895B0E073
:102B8000A0E0E5ECF5E10C94242C8AED93E00E94A2
:102B9000FB058CE5E82E85E0F82ED0E0C0E095ED51
:102BA000C92E93E0D92E0CEC13E0DF93CF93DF9284
:102BB000CF920E94940682ED93E00E94FB05F701FC
:102BC000819191917F010E945A089F938F931F9347
:102BD0000F930E9494068AEC93E00E94FB052196D5
:102BE0008DB79EB708960FB6F8949EBF0FBE8DBFE7
:102BF000C530D105D1F6CDB7DEB7E8E00C94402C56
:102C00000E949D06A2E5B5E011961C921E92ECE58D
:102C1000F5E01182108213961C921E921297138275
:102C2000128215961C921E92149715821482179682
:102C30001C921E9216971782168219961C921E924B
:102C400018971186108685E00E943C160E948C071A
:102C50000895CF9382E595E00E94A406282F45E0D1
:102C60006CE575E082E595E00E943D16C82F0E9454
:102C70008F078C2FCF9108950895CF92DF92EF9216
:102C8000FF921F93CF93DF936C017B01C42F22230C
:102C900049F081E0809355030E94F12390935403FF
:102CA000809353031091550311110AC010E0812F36
:102CB000DF91CF911F91FF90EF90DF90CF9008951B
:102CC00080915303909154030E940924059770F357
:102CD000D0E0CC0FDD1FAE01B601C7010E94512C20
:102CE000892B41F0AE01B601C7010E945E2C109203
:102CF0005503DDCF10E0FBCF0E94BF260E940513D5
:102D00000E94CC2608950E94D1260E940E130E9494
:102D1000EF2608950E948A230E94A5260E94EB12A6
:102D20000E947C160E9483160E94FB12FBCF8091AA
:102D3000290190E0880F991FFC01EF5DFE4F208173
:102D40008F5E9E4FFC01808190915E03191614F4F2
:102D500020935E0390915E0397FF04C0922F91959C
:102D600090935E0390915F03191614F420935F0310
:102D700090915F0397FF03C0219520935F0390918B
:102D80006103191614F4809361039091610397FF16
:102D900004C0982F91959093610390916003191648
:102DA00014F4809360039091600397FF03C08195B2
:102DB0008093600330915E033323A1F020915F0381
:102DC000222381F045EB3403C00111249923F1F053
:102DD00090935E0345EB2403900111243323D1F03B
:102DE00030935F0340916103442379F03091600395
:102DF000332359F025EB4203A001112450936103C2
:102E000032039001112430936003089581E0809390
:102E10005E03E0CF81E080935F03E4CF409129011E
:102E2000242F30E0220F331FF901EF5DFE4F908118
:102E30008D3E21F4919590935F0308958E3ED9F3D2
:102E40008F3E21F4919590935E030895803FD9F3CE
:102E50002F5E3E4FF9019081893F19F490936003F2
:102E600008958A3F11F49195F9CF8B3F21F4919504
:102E70009093610308958C3FD9F39FE0980F9830A9
:102E800070F4815F990B21E030E001C0220F8A9538
:102E9000EAF780915D03822B80935D0308958D3F57
:102EA00049F481E0809329018091290148130E940F
:102EB000971608958E3F11F482E0F4CF8F3FC9F743
:102EC00083E0F0CF8D3E39F480915F0387FF29C006
:102ED00010925F0308958E3E29F480915F031816C7
:102EE000BCF308958F3E39F480915E0387FF19C0CB
:102EF00010925E030895803F29F480915E031816B6
:102F0000BCF30895893F39F48091600318164CF49E
:102F10001092600308958A3F29F48091600387FD31
:102F2000F7CF08958B3F39F48091610387FFF9CF84
:102F30001092610308958C3F29F480916103181663
:102F4000BCF308959FE0980F983058F7815F990B74
:102F500021E030E0A90102C0440F551F8A95E2F735
:102F6000CA01809590915D03892380935D03D9CF39
:102F70008091520383FF7EC088E194E00E94FB05AC
:102F800080915D031F928F9383E194E09F938F93D1
:102F90000E94940681E194E00E94FB0580915E030B
:102FA000282F082E000C330B3F938F938EE094E074
:102FB0009F938F930E9494068CE094E00E94FB05FF
:102FC00080915F03282F082E000C330B3F938F93C3
:102FD00089E094E09F938F930E94940687E094E0A9
:102FE0000E94FB0580916003282F082E000C330BF4
:102FF0003F938F9384E094E09F938F930E94940675
:1030000082E094E00E94FB0580916103282F082E46
:10301000000C330B3F938F938FEF93E09F938F932D
:103020000E9494068CEF93E00E94FB0580915A0366
:103030001F928F9389EF93E09F938F930E94940642
:1030400087EF93E00E94FB0580915B031F928F93B3
:1030500084EF93E09F938F930E94940681EF93E017
:103060000E94FB058DB79EB74C960FB6F8949EBF95
:103070000FBE8DBF0E94F1239C0190915E03809151
:103080005F03982B21F030935903209358039091BC
:10309000600380916103982B21F0309357032093B4
:1030A00056038CE593E00E942322089586E0ECE528
:1030B000F3E0DF011D928A95E9F710925A0310920E
:1030C0005B030895FC01828181110EC0838181110F
:1030D0000BC08481811108C091E08581811101C0FC
:1030E00090E0892F8170089581E0FCCFA6E0B0E0E8
:1030F000ECE7F8E10C942A2C86E0ECE5F3E0DE0145
:10310000119601900D928A95E1F710925E0310924C
:103110005F0310926003109261038B819C81892B65
:10312000C1F080915803909159030E940924E091C5
:103130002901F0E0EE0FFF1FE75EFE4F2081318195
:103140002817390730F48B8180935E038C8180933C
:103150005F038E819D81892BC1F0809156039091F0
:1031600057030E940924E0912901F0E0EE0FFF1FB0
:10317000E75FFE4F208131812817390730F48D81B8
:10318000809360038E8180936103BE016F5F7F4FE8
:103190008CE593E00E944123811105C08CE593E00A
:1031A0000E94621881110E94B81786E0FE013196D4
:1031B000ACE5B3E001900D928A95E1F72696E2E046
:1031C0000C94462CCF93DF93EC01FB018281882382
:1031D00009F464C1C430FDE5DF07E0F5CB3F9CE5B1
:1031E000D90730F49E0122503C4524313105D8F5F1
:1031F0000E9432129093510580935005C231ECE544
:10320000DE0709F41FC108F06EC0C9308CE5D8078D
:1032100009F4F2C008F03FC0C530ECE5DE0709F460
:10322000DBC058F5C3308CE5D80709F4CDC008F0F1
:10323000CFC0809150058160C230DC4509F4AEC03A
:1032400080915005909151050E9440120E94160CE9
:1032500080E009C0C63AEDE5DE0751F238F4C23627
:103260009DE5D90729F2DF91CF9108959E012E5A4D
:103270003D4523303105B8F7BBCF809150058062C2
:10328000C730FCE5DF0709F489C008F4B1C08091BC
:103290005005806483C0CD309CE5D90709F4BAC0DD
:1032A00070F4809150058E7FCB30FCE5DF0709F488
:1032B00075C008F4A7C0809150058D7F6FC0CF30D6
:1032C0009CE5D90709F4B6C008F4A8C0C031FCE5F4
:1032D000DF0709F4B3C0C131DC4509F0B1CF8091FB
:1032E00050058F7B5BC0C1159DE5D90709F4B4C0BB
:1032F00098F5CB3FFCE5DF0709F472C0B8F4C431A0
:103300009CE5D90709F4B6C008F4A2C0C531DC4574
:1033100009F096CF8091500582FB992790F921E022
:10332000922790FB82F990FB83F938C0CD3F8CE562
:10333000D80709F477C008F457C0CE3FECE5DE07A4
:1033400009F474C0809151058360CF3FDC4509F0DA
:1033500077CF8093510574CFC2368DE5D80709F435
:1033600096C068F4C230EDE5DE0709F48CC008F4BD
:1033700077C0C330DD4509F063CF80E085C0CE3A29
:103380009DE5D907E9F068F490915005892F8E7F6B
:1033900090FF8160C63ADD4509F052CF8093500519
:1033A0004FCFCF3A8DE5D80789F1C03BDD4509F015
:1033B00047CF90915105892F877F93FF8860C9CFB0
:1033C000809151058860C5CF809150058260E6CF1D
:1033D000809150058460E2CF809150058860DECFF7
:1033E000809151058160B5CF809151058260B1CF48
:1033F000809150058061D2CF0E94160C80915005BB
:103400008068CCCF809150058C60C8CF80915105E9
:10341000877F9FCF809150058B7FC0CF80915005D3
:10342000877FBCCF809151058E7F93CF80915105CE
:103430008D7F8FCF809150058F7EB0CF80915005CA
:103440008F7DACCF0E94160C809150058F77A6CF50
:1034500080915005837FA2CF809151058C7F79CFD9
:1034600080915105982F909591708E7F892B90FBBC
:1034700081F96FCF0E94160C90915005892F97FB10
:1034800087F980588BCF81E00E94C912D9CE9091E4
:103490005005892F8F7E94FF806180CF81E0E3CE3D
:1034A00008950F931F93CF93DF938091CD03E09105
:1034B00062031CE081111AC0DF91CF911F910F911F
:1034C000089501E00E0F00936203CE2FD0E0E19F3C
:1034D000F0011124E359FC4F83819481892B29F059
:1034E0008081918189238F3FF9F4E02F8091CD0372
:1034F000E81738F31092CD0310926203DDCF1896CF
:103500008D919C918F3F9807E1F061E00E94501AE5
:103510001C9FF0011D9FF00D1124E359FC4F1482F4
:1035200013820E941711E1CF1C9FD0011D9FB00D87
:103530001124A359BC4F16968D919C911797892BF6
:10354000F1F22081318142815381648175818681CC
:1035500097810E941310DCCF1092CF031092CE03FC
:1035600020912B0130912C01E0E0F1E090E080E02F
:103570002817390709F408954581411102C01482C2
:10358000168201963796F4CFDC0160916B0380912F
:103590006C03962F891301C00895292F30E0F9019B
:1035A000EE0FFF1FED59FC4F408151814A175B0719
:1035B000A1F487E08A9FA0018B9F500D11244050F9
:1035C0005F4F81E0FA0184839613E6CF2F5F3F4F70
:1035D0002370332720936B0308952F5F3F4F922F63
:1035E0009370D8CFB0E0A0E0E8EFFAE10C941F2C84
:1035F000EB012C81211152C07090CD03ADE6B3E0F8
:1036000030E020E0812C61E070E0271508F044C034
:103610001A96CD90DC901B97A880B9804FEF5FEF92
:10362000912CE92CF12CF701EE0FFF1FEA0DFB1D89
:1036300005911491C016D10609F4A70101151105D1
:1036400011F09394EECF4F3F540789F1FB0102C074
:10365000EE0FFF1F4A95E2F78E2AAB01092C02C03C
:10366000440F551F0A94E2F741505109841615067C
:10367000D1F44A815B816CE0629FF001639FF00DA1
:103680001124E359FC4F578346832EEF2083218377
:103690009187808721E02D830E94C41ACDB7DEB7C1
:1036A000EDE00C943B2C14961C921E9213972F5F06
:1036B0003F4F1C96AACF1F93CF93DF93C0916B030C
:1036C00017E080916C038C1308C00E94511A0E946D
:1036D000AC1ADF91CF911F910895D0E0FE01EE0F5B
:1036E000FF1FED59FC4F80819181189FB001199FF8
:1036F000700D112460507F4F0E94F21A2196C37002
:10370000E0CFEF92FF921F93CF93DF93FC012081D4
:10371000318110E040E050E0E52FF0E0EE0FFF1FB8
:10372000E20FF31FA591B4911097B9F0FB01C0818E
:10373000D18140E005C0AE15BF0509F411E04F5F2F
:10374000E42FF0E0EE0FFF1FEC0FFD1FE590F4906B
:10375000E114F10481F75F5FDFCF112349F04517D2
:1037600008F4CB01DF91CF911F91FF90EF90089566
:1037700090E080E0F7CF80912A01882341F1809189
:10378000D0039091D103009711F10E940924209158
:10379000CE033091CF0328173907C8F490916B03FB
:1037A00080916C03981759F00E945B1B1092CF0315
:1037B0001092CE031092D1031092D00308950E946C
:1037C000511A1092D1031092D0030E94AC1A08959E
:1037D0001092D1031092D00310922A0180916C03B1
:1037E00080936B030E94AC1A0E94511A0895809135
:1037F0002A01882319F00E94E81B089581E0809334
:103800002A010895A9E0B0E0E8E0FCE10C941A2C4C
:103810006C013B01FB011281883FFCE59F0751F4DD
:10382000112379F081E080932A01812F2996E2E12A
:103830000C94362C893F2CE5920709F04DC01111EC
:1038400048C000E011E0F12CE12C19868824839413
:10385000912C80912B0190912C01E816F90608F427
:1038600045C0F3018281882309F460C1F985FF23F3
:1038700009F45CC10E94F1239093D1038093D0039B
:103880008091CD03883008F591E0980F9093CD0397
:1038900098E0F301DE01119601900D929A95E1F7FF
:1038A0002CE0829FC001112483599C4F28E0FE0127
:1038B0003196DC0101900D922A95E1F72FEF3FEF51
:1038C000FC0131872087D386C28611E0F9851F2746
:1038D000ACCF0E94E81BA9CF8A3F9C4509F0B1CF2D
:1038E000112309F4AECF0E94F71B9FCFF80160812E
:1038F0007181AA24AA94BA2C20E0422F50E0FA0148
:10390000EE0FFF1FE60FF71F85919491C816D90699
:1039100009F45A01892B11F02F5FEFCF312CFFEF03
:10392000AF16BF0609F445C0F801448130902A0162
:10393000832D411180E0F82FF1703F2EF801558062
:103940008681F3019281992309F48EC0332009F412
:103950008BC0511015C0A4010A2C01C0440F0A9459
:10396000EAF7842BF80186838091CE039091CF03F0
:10397000C29730F462E370E07093CF036093CE039C
:10398000C40102C0880F991F2A95E2F70197F80138
:1039900026812817190669F48091D0039091D103EC
:1039A000009781F00E940924C39760F021E0F8019C
:1039B0002483F985F329F9872FEFE21AF20A095FC8
:1039C0001F4F47CF20906B0390E080E020916C0365
:1039D000221215C08017910761F3A22CB12CF501BA
:1039E000EE0FFF1FED59FC4FF182E0826FEFA61A38
:1039F000B60A73E0A722BB24A0926C03DACFA22CF4
:103A0000B12CF501EE0FFF1FED59FC4F20813181E4
:103A100047E0429FC001439F900D1124BC016050BC
:103A20007F4F2B01B801C2010E94811B0097A9F0B2
:103A300021E0FC0124838017910709F4BACF20917B
:103A40006B0322120AC04816590639F495012F5FFC
:103A50003F4F2370332720936B033FEFA31AB30A22
:103A60004A2D4370242EB2CF90E0511020C0F401B3
:103A700002C0EE0FFF1F2A95E2F79F012150310986
:103A80002817390731F4442309F44EC0C7010E94B6
:103A9000C41AC4010A2C01C0880F0A94EAF7982FAF
:103AA0009095F801868189238683352C82CF9C01ED
:103AB0000A2C02C0359527950A94E2F7A9014170B6
:103AC0005527BC016150710986239723892B41F545
:103AD000452B31F1F80182819381892BE1F01B8222
:103AE0001C821D821E82FEEFF983FA830E94F1235D
:103AF0008160582F9D838C83F801828193818F830D
:103B0000988729813A814B816D817E810E941310B3
:103B1000F8011582BECF60E0C7010E94501AF8CFAD
:103B2000F22FF1705F2EB5CF532CB3CF90916B0372
:103B300080916C03981719F00E945B1BC6CE0E94FF
:103B4000511A1092D1031092D0030E94AC1ABDCE2C
:103B5000CF93C82F1F928F9387EE94E09F938F93FC
:103B60000E94940681E090E002C0880F991FCA95D8
:103B7000E2F70E94720C0E94160C0F900F900F90AB
:103B80000F90CF910895883208F044C08E3108F02C
:103B900076C08B3009F447C030F4873009F483C015
:103BA0008CEA94E082C0833109F45CC08431C1F7AF
:103BB0008EEC94E00E94FB058091D603882309F4E3
:103BC000A0C01092D6031092D5031092D403109285
:103BD000D3031092D2032091D603222309F48CC080
:103BE0008091D2039091D303009711F48CE991E076
:103BF0009F938F931F922F938AE994E09F938F93C3
:103C00000E9494060F900F900F900F900F900F90BE
:103C100081E008958F3409F44BC0D0F4893241F229
:103C2000883309F0BDCF81ED94E00E94FB058BE362
:103C300094E09F938F930E9494068BE494E09F936B
:103C40008F930E9494060F900F900F900F90C3CF08
:103C5000813509F441C008F441C0823509F0A0CF94
:103C600081E027C080EC94E00E94FB058BE394E0A8
:103C70009F938F930E9494060F900F90ACCF109259
:103C8000D6038DEB94E00E94FB058091D603882338
:103C900009F4A1CF1F928F9389EB94E09F938F93A8
:103CA0000E949406D0CF8FEA94E00E94FB0593CF48
:103CB0008AE0E091D403F091D5033097D1F02081D0
:103CC000082E000C990B820F911D8F3F910541F03A
:103CD0003CF08FEF808307C08FEFEBCF86EFE9CF0B
:103CE00097FFF8CF108280811F928F9386EA94E02D
:103CF000D5CF83EA94E0D9CF86E994E00E94FB0512
:103D000087CF80E00895B0E0A0E0E9E8FEE10C9400
:103D1000252CEBEFE80FEF3308F03EC1F0E0E9545B
:103D2000F34D0C94142C0E942D121F928F9387E94F
:103D300098E09F938F930E9494060E94281283FB21
:103D4000992790F91F929F9382FB992790F91F92D0
:103D50009F9381FB992790F91F929F93982F9170C1
:103D60001F929F931F928F938EE498E09F938F935F
:103D70000E9494060E94321293FB222720F91F9280
:103D80002F9387FB222720F91F922F9386FB222750
:103D900020F91F922F9385FB222720F91F922F9342
:103DA00084FB222720F91F922F9383FB222720F9DF
:103DB0001F922F9382FB222720F91F922F9391FBB2
:103DC000222720F91F922F93292F21701F922F93C2
:103DD00081FB222720F91F922F93282F21701F92F9
:103DE0002F939F938F938FE497E09F938F930E94DD
:103DF00094068DB79EB78A960FB6F8949EBF0FBEF5
:103E00008DBF81E01CC087E599E00E94FB050E9400
:103E1000C612F7CF8AE995E00E94FB05F2CF8091A8
:103E20005203807F8093520383E795E00E94FB0555
:103E300083E599E00E94FB0581E08093D703CDB72D
:103E4000DEB7E7E00C94412C87E399E00E94FB0584
:103E50000E94A107D6CF90915203892F8E7F90FFA9
:103E600081608093520380FF03C08BE299E0D4CF3E
:103E70008EE199E00E94FB0580915203817F80933F
:103E80005203BFCF90915203892F8D7F91FF8260A3
:103E90008093520381FF08C081E199E00E94FB05F5
:103EA000809152038160EBCF83E099E0B5CF909190
:103EB0005203892F8B7F92FF84608093520382FF8D
:103EC00003C084EF98E0EACF84EE98E0A5CF90910C
:103ED0005203892F877F93FF88608093520383FF6B
:103EE00003C088ED98E0DACF8BEC98E095CF80EABC
:103EF00091E09F938F9380E795E09F938F930E942B
:103F000094060F900F900F900F907BCF0E94FD238F
:103F1000062FF72EE82ED92EC0915005C7FBCC27CF
:103F2000C0F910914F05D09139010E94C321DF9251
:103F3000EF92FF920F931F92CF931F921F931F92A6
:103F4000DF931F928F938CEE94E09F938F930E9448
:103F500094068DB79EB70E960FB6F8949EBF0FBE0F
:103F60008DBF4FCF0E94160C90915005892F97FB63
:103F700087F980588093500587FF03C081EC98E053
:103F80004BCF86EB98E048CF80E00E94A81D39CF48
:103F90008953FBCF8D51F9CF84EB98E00E94FB054C
:103FA00080E04DCF80E008950E94D21F0895CF9306
:103FB000C82F8091D7038130C1F0882339F0823037
:103FC00009F444C01092D70380E00DC00E94F7109E
:103FD0008232D1F78C2F0E94D21F81111BC08C2FEF
:103FE0000E94831E8170CF9108950E94F710823243
:103FF00089F38C2F0E94D41F81111BC0C431D9F0CA
:1040000060F4CB3071F0C031D1F081EE94E00E94C9
:10401000FB0513C081E090E0E5CFC93261F0C83301
:10402000A1F783E795E00E94FB0583EE94E00E94F0
:10403000FB0581E0D7CF1092D70380E0D3CF82E099
:104040008093D70388E30E94C31DF3CF8C2F0E9477
:10405000C31D81E0C8CFCF93DF93EB0186319C4530
:1040600011F50E94F7109A81992399F08A7A91E0CC
:1040700009F490E09093D803811109C089E20E946D
:10408000AA100E94461180E0DF91CF91089585E348
:10409000F6CF8091D803811104C089E20E94B2104A
:1040A000F0CF85E3FBCF81E0EFCF0F931F93CF934A
:1040B000DF93C42FD22FFC0182818823C9F0409363
:1040C000DB030E94F1239093DA038093D90380E20B
:1040D0008C0F883040F4C77081E001C0880FCA950A
:1040E000EAF70E94B109DF91CF911F910F910895D6
:1040F0001091DB03141332C08091D9039091DA033D
:104100000E940924883C910548F5C0E2CD0F1D1797
:10411000B9F080E2810F883040F4177081E001C06F
:10412000880F1A95EAF70E94B809C83048F481E070
:104130009D2F977001C0880F9A95EAF70E94B109E8
:10414000802F0E94A809C83070F6D77081E001C0A6
:10415000880FDA95EAF70E94B809C5CF80E28C0F84
:10416000883008F6C77081E001C0880FCA95EAF769
:10417000F2CF0F939C01CB01243F4CE5340759F15A
:10418000A8F4293DFCE53F0701F12A3D4CE5340741
:10419000D1F1283D3C4591F406E221EE41EE68ED77
:1041A0007CE50E94552080E00F910895263FFCE5B4
:1041B0003F07E9F0B0F0273F3C45F9F0FC01828170
:1041C000882339F11092DB03EFCF07E225EE45EEAD
:1041D00069ED7CE5E6CF06E221EE40EE64EF7CE59A
:1041E000E0CF07E225EE44EE65EF7CE5DACF06E2AC
:1041F00021EE42EE66EF7CE5D4CF07E225EE46EEF7
:1042000067EF7CE5CECF08E221E045EE6AED7CE584
:10421000C8CF81E0C9CF9B01AC01F89460E079E0A0
:104220008DE390E00E94F22B2150310941095109A0
:1042300056954795379527952093CC0082E080933B
:10424000C80088E98093C90086E08093CA00109274
:104250001E0410921F041092DC031092DD03789468
:10426000089590911F049F5F20911E04291303C09D
:104270000FB607FE0EC020911E042917E1F3E92FA7
:10428000F0E0E05EFB4F808390931F0488EB809307
:10429000C90008959091DD038091DC039817D1F354
:1042A0009091DC039F5F903408F090E0E92FF0E0FC
:1042B000E252FC4F80819093DC0308955091DD031E
:1042C0004091DC03852F90E0242F30E0541748F014
:1042D000AC01421B530B81E0141615060CF080E074
:1042E0000895805C9F4FF4CF8F938FB78F939F93E8
:1042F000EF93FF9390911F0480911E0498130AC0BE
:1043000088E98093C900FF91EF919F918F918FBFB2
:104310008F91189580911E048F5FE82FF0E0E05E8A
:10432000FB4F90819093CE0080931E04ECCF2F938F
:104330002FB72F938F939F93EF93FF939091CE007E
:104340008091DD038F5F803408F080E02091DC03F2
:10435000281739F0E82FF0E0E252FC4F9083809369
:10436000DD03FF91EF919F918F912F912FBF2F919F
:10437000189590937D0280937C0208959093250573
:10438000809324050895E0912405F0912505309748
:1043900029F00190F081E02D0995089580E00895BD
:1043A000EF92FF920F931F93CF93DF93EC01E09175
:1043B0002405F0912505309709F440C0809139011A
:1043C000882341F08091500587FF04C0888189834C
:1043D00086E088830280F381E02DCE0109958091EB
:1043E000520382FF2BC080FF04C080E799E00E9447
:1043F000FB0510E000E08AE6E82E89E0F82E8091C7
:10440000520380FF0EC0FE01E00FF11F80811F925A
:104410008F93FF92EF920E9494060F900F900F904F
:104420000F900F5F1F4F0830110549F7809152031D
:1044300080FF04C088E699E00E94FB05CDB7DEB797
:10444000E6E00C94422CE0912405F091250530978C
:1044500039F022E0DC012C930480F581E02D0995F0
:10446000089520912205309123052817390771F00E
:104470009093230580932205E0912405F091250572
:10448000309721F00680F781E02D0995089520915D
:104490002005309121052817390771F090932105E7
:1044A00080932005E0912405F0912505309721F0B7
:1044B0000084F185E02D09950895FC0132968091E4
:1044C0003901882321F0809150059EE187FF96E015
:1044D00080E0915008F4089521912223D1F38F5F59
:1044E000F8CF662301F1209139012223F1F02091C8
:1044F000500527FF1AC0462F4695469546954E31E2
:1045000090F4677021E030E002C0220F331F6A95FB
:10451000E2F7840F911DFC01828190E0282339236A
:1045200081E0232B69F480E00895FC01329608961F
:104530002191261721F0E817F907D1F7F4CF81E090
:1045400008959C01FC0132969FEF80E0419146174F
:1045500051F09F3F19F4411101C0982F8F5F8630B1
:10456000A9F79F3F09F40895290F311D97FD3A954A
:10457000F90162830895FC01329608962191261371
:1045800003C0DF0111971C92E817F907B9F70895E6
:10459000E62FE695E695E695EE3170F4E80FF92FF3
:1045A000F11D677021E030E001C0220F6A95EAF743
:1045B0008281822B828308958091520380FF0CC0F8
:1045C0001F926F9380EA99E09F938F930E949406C5
:1045D0000F900F900F900F900895E62FE695E695B7
:1045E000E695EE3178F4E80FF92FF11D677021E0C0
:1045F00030E001C0220F6A95EAF7209582812823D6
:10460000228308958091520380FF0CC01F926F9304
:1046100082E899E09F938F930E9494060F900F90E9
:104620000F900F90089520913901222339F02091A5
:10463000500527FF03C00E94C82208950E94A122AE
:10464000089520913901222339F02091500527FF48
:1046500003C00E94ED2208950E94BB220895FC0130
:10466000329680913901882351F08091500587FF5F
:1046700006C08EE1DF011D928A95E9F7089586E074
:10468000F9CF46E050E00E94512C21E0892B09F43B
:1046900020E0822F089508950E944B2308958111F0
:1046A00006C081E0809326050E944C23089582E095
:1046B000F9CF83E0809326050E944C2308950E9441
:1046C0004F23089581E0809326050E944C2308958E
:1046D0000E9462230895089508950E946C2308950E
:1046E000089508950E946B230895CF930E9470232C
:1046F0000E9429160E947123C0E08C2F0E94B615DB
:10470000892B31F4CF5FC530C1F780E0CF91089598
:1047100081E0FCCF85B7806885BF85B7806885BF9D
:1047200008951F921FB61F9211248F939F93AF93EA
:10473000BF9380912705811113C0809166059091E8
:104740006705A0916805B09169054196A11DB11D4D
:104750008093660590936705A0936805B0936905FB
:10476000BF91AF919F918F911F901FBE1F90189581
:1047700080916E05843031F10E9414081092270553
:1047800088E190E020E40FB6F894A895809360004B
:104790000FBE2093600083B7817F846083BF83B79F
:1047A000816083BF7894889583B78E7F83BF0FB66F
:1047B000F894A895809160008861809360001092C1
:1047C00060000FBE08950E94160C0E9419080895FB
:1047D00082E084BD93E095BD9AEF97BD80936E0013
:1047E00008952FB7F8948091660590916705A09180
:1047F0006805B09169052FBF08952FB7F8946091AF
:1048000066057091670580916805909169052FBFD5
:1048100008959C014FB7F8948091660590916705C3
:10482000A0916805B09169054FBF821B930B089555
:1048300078941F921FB61F9211248F939F93AF936A
:10484000BF938091660590916705A0916805B0912E
:1048500069050196A11DB11D8093660590936705BA
:10486000A0936805B0936905BF91AF919F918F9117
:104870001F901FBE1F90189587E797E79093010838
:104880008093000888E19AE00FB6F894A895809389
:1048900060000FBE90936000FFCF88E19AE00FB6F2
:1048A000F894A895809360000FBE90936000FFCFAE
:1048B00080914E05089508959C0182E08093E9005F
:1048C0009FEF8091E800915085FD06C085ED8A95A7
:1048D000F1F700009111F5CF8091E80085FF0CC041
:1048E00050E040E066E070E0C9010E9460278091DE
:1048F000E8008E778093E8000895CF93DF93EC0172
:10490000809139018823B1F18091500587FF32C031
:1049100060E282E08093E9008FEF9091E80081509F
:1049200095FD06C095ED9A95F1F700008111F5CF40
:104930008091E80085FF1BC08091390170E050E054
:1049400040E0811104C050E040E068E070E0CE013A
:104950000E9460278091E8008E778093E80080E2D3
:10496000FE01AEE2B5E001900D928A95E1F7DF918C
:10497000CF91089568E081E0CDCF80932A057093B0
:104980002C0560932B0580916E05843001F582E043
:104990008093E9008FEF9091E800815095FD06C06B
:1049A00095ED9A95F1F700008111F5CF8091E8001F
:1049B00085FF0DC050E040E063E070E08AE295E0E2
:1049C0000E9460278091E8008E778093E800089528
:1049D000BC0184E00E94BD240895BC0183E00E94D4
:1049E000BD24089582ED99E00E94FB0580916D053C
:1049F000811109C00E94F0280E944D298091E20097
:104A000084608093E20008958EEC99E00E94FB059B
:104A100010926D0508958AEC99E00E94FB050E94B2
:104A20006223089586EC99E00E94FB0560916A0577
:104A300081E0611101C080E00E945923089582EC59
:104A400099E00E94FB0590916E0581E0943009F099
:104A500080E060916A050E945F23089520912905F6
:104A60002F5F822F62E30E94E62B992319F0209397
:104A7000290508951092290580912D058823F1F0CC
:104A800080916E058430C1F49091E9009F7020916F
:104A9000EC00822F817020FD80E8892B93E09093B9
:104AA000E9009091EB0090FF04C09091EE0097FD1B
:104AB00008C08F708093E90010922D050895109220
:104AC000F1009091E80095FDFACF9091E80090FFF9
:104AD000F0CF9091E8009E779093E800EACF42E013
:104AE00061EC81E00E946C2842E261EC82E00E946D
:104AF0006C2842E261EC83E00E946C2890916E0584
:104B000081E0943009F080E060916A050E944F23B3
:104B1000089580917005833009F461C030F48130CC
:104B2000D1F1823009F49EC008958A3009F48AC018
:104B30008B3009F46FC0893009F050C080916F0547
:104B4000813209F04BC080917305909174050297F2
:104B500008F044C08091E800877F8093E80080914E
:104B6000E80082FF37C09091F3008091F200029735
:104B700031F48091F100813011F0863021F4809180
:104B8000F10080934E058091E8008B778093E800D8
:104B90000E94A02823C080916F05813AF9F480918A
:104BA000E800877F8093E8008091730590917405F9
:104BB000892B61F460E28EE295E070E00E94AF27FD
:104BC0008091E8008B778093E800089560E090E0A2
:104BD00080E0F3CF80916E058111C1CF089580915F
:104BE0006F05813AD9F78091730590917405892BEF
:104BF000A9F78091E800877F8093E8008091E80022
:104C000080FFFCCF809139018093F1008091E80012
:104C10008E77BCCF80916F05813201F7809173054B
:104C200090917405892BD1F68091E800877F80935D
:104C3000E8000E94A02880917105809339010E94AC
:104C4000160C089580916F05813241F68091E8003D
:104C5000877F8093E8000E94A0288091720580934E
:104C60004F05089580916F05813A09F0B7CF809183
:104C7000E800877F8093E8008091E80080FFFCCF08
:104C800080914F05C1CF9FB7F89410922D059FBF1B
:104C900090916E05943009F048C02091E9002F7082
:104CA0003091EC00932F917030FD90E8922B23E02F
:104CB0002093E9002091EB0020FF34C02091EE000A
:104CC00027FF30C020912805222321F02091E80001
:104CD00025FF28C01092280526E03091E80035FF16
:104CE00014C08093F1008091E80085FD27C0809179
:104CF000E80080FFFCCF8091E8008E778093E80089
:104D00009F709093E90080E0089530916E053430F3
:104D100049F43091EB0035FD05C0215041F481E0AC
:104D2000809328059F709093E9008FEF0895EFE935
:104D3000FFE03197F1F700C00000CFCF8FB7F894B4
:104D400021E020932D058FBFDBCF84B7877F84BF01
:104D50000FB6F894A89580916000886180936000F8
:104D6000109260000FBE80E890E00FB6F894809338
:104D70006100909361000FBE0E94682308950E9415
:104D8000F0280E944D29E2EEF0E08081846080836B
:104D900078940E94CB2B08958DE291E00E94BE2171
:104DA000089580916E05853051F48EEB99E00E9454
:104DB000FB0580916E05853019F00E94E32308956C
:104DC0000E94B82380916C05882399F30E94752373
:104DD000882379F30E944A270E94160CEACF08958F
:104DE0000E94F3260895292F33272330310521F11E
:104DF00068F42130310509F443C02230310509F44B
:104E000044C090E080E030E020E026C0213231054F
:104E100051F122323105A9F76330710590F7FB019A
:104E2000EE0FFF1FE059FD4F2081318163597D4F07
:104E3000FB01808190E010C099278130910581F0BD
:104E4000009729F00297E9F6E6EDF9E002C0E6E105
:104E5000FAE0849190E09F01FA0131832083089564
:104E6000E6EFF9E0F6CF6330710558F6660F771F6D
:104E7000FB01EA58FD4F2081318189E090E0ECCFC1
:104E800082E190E025E73AE0E7CF8BE590E02AE188
:104E90003AE0E2CF80E189BD82E189BD09B400FE3C
:104EA000FDCF8091D8008F7D8093D8008091E00065
:104EB00082608093E0008091E00081FDFCCF089546
:104EC000AF92BF92CF92DF92FF920F931F93CF9337
:104ED000DF936C01EB018A010E94BF28F82E81113B
:104EE00023C00115110539F0F80180819181C81B9B
:104EF000D90BC80ED91EB12CA12C2097A9F08091F6
:104F0000E80085FD22C08091E8008E778093E8005C
:104F100001151105A1F0F80180819181A80EB91E3B
:104F2000B182A08285E0F82E8F2DDF91CF911F9165
:104F30000F91FF90DF90CF90BF90AF9008950E94A7
:104F4000BF288823D1F2F82EEFCFF60181916F01AF
:104F50008093F1002197FFEFAF1ABF0ACECFFC017B
:104F6000809175059091760586179707A0F06115D9
:104F7000710529F49091E8009E779093E80090E005
:104F80006115710551F4911108C08091E80082FF0C
:104F900034C080E00895BC01F2CF80916E05882373
:104FA000C1F18530C1F18091E80083FD30C080916E
:104FB000E80082FDEACF8091E80080FFE1CF809198
:104FC000F3002091F200382F6115710519F0283097
:104FD000310558F091E02830310509F090E020913A
:104FE000E8002E772093E800CBCF81918093F100E9
:104FF000615071092F5F3F4FE7CF80916E05882385
:1050000041F0853041F08091E80083FFBECF81E020
:10501000089582E0089583E00895FC01809175056C
:105020009091760586179707A0F06115710529F410
:105030008091E8008E778093E80090E0611571051B
:1050400051F4911108C08091E80082FF35C080E0E2
:105050000895BC01F2CF80916E058823C9F1853097
:10506000C9F18091E80083FD31C08091E80082FDA4
:10507000EACF8091E80080FFE1CF8091F30020919A
:10508000F200382F6115710519F02830310558F0FC
:1050900091E02830310509F090E08091E8008E77AA
:1050A0008093E800CBCF84918093F10031966150DA
:1050B00071092F5F3F4FE6CF80916E05882341F045
:1050C000853041F08091E80083FFBDCF81E00895F5
:1050D00082E0089583E00895982F973028F08F702C
:1050E0008093E90081E008959093E900242F762FC2
:1050F00050E0981731F07091EC002091ED00509144
:10510000F00021FD02C09F5FE8CF3091EB003E7FB1
:105110003093EB003091ED003D7F3093ED00309106
:10512000EB0031603093EB007093EC002093ED00C6
:105130005093F0002091EE0027FDE5CF80E0089528
:1051400080916F0587FF13C08091E80082FF06C041
:105150008091E8008B778093E80004C080916E0511
:105160008111F2CF089580916E058823D9F3809143
:10517000E80080FFF8CF8091E8008E77ECCF209197
:10518000E4003091E50095E6A9012091EC00822F22
:10519000817020FF06C08091E80080FF06C080E09B
:1051A00008952091E80022FD1AC080916E058823A1
:1051B00089F0853089F08091EB0085FD0FC020914A
:1051C000E4003091E50042175307F9F29150E1F6FF
:1051D00084E0089582E0089583E0089581E00895D1
:1051E0000E945F290E946729E0EEF0E080818160E3
:1051F0008083E8EDF0E080818F77808319BCA7ED94
:10520000B0E08C918E7F8C9380818F7E8083109212
:105210006D0508950F931F93CF93DF930E945F292D
:105220000E946729C8EDD0E088818F7788838881C4
:105230008068888388818F7D888319BC10926E0571
:1052400010926A0510926C0510926B0500EE10E04A
:10525000F80180818B7F808388818160888342E030
:1052600060E080E00E946C28E1EEF0E080818E7FBB
:105270008083E2EEF0E080818160808380818860BD
:105280008083F80180818E7F80838881806188831C
:10529000DF91CF911F910F910895E8EDF0E08081AB
:1052A0008F7E8083E7EDF0E080818160808384E001
:1052B00082BF81E080936D050E940A290895E8ED80
:1052C000F0E080818E7F80831092E200089510923A
:1052D000DA001092E10008951F920F920FB60F921C
:1052E00011242F933F934F935F936F937F938F93EB
:1052F0009F93AF93BF93EF93FF938091E10082FF61
:105300000BC08091E20082FF07C08091E1008B7F9B
:105310008093E1000E942E258091DA0080FF19C061
:105320008091D80080FF15C08091DA008E7F809335
:10533000DA008091D90080FF96C080E189BD82E1CA
:1053400089BD09B400FEFDCF81E080936E050E9407
:10535000F2248091E10080FF19C08091E20080FF7B
:1053600015C08091E2008E7F8093E2008091E20080
:1053700080618093E2008091D80080628093D800A1
:1053800019BC85E080936E050E9412258091E10092
:1053900084FF2BC08091E20084FF27C080E189BD9B
:1053A00082E189BD89B5982F917080FFFBCF8091F4
:1053B000D8008F7D8093D8008091E1008F7E80930C
:1053C000E1008091E2008F7E8093E2008091E20014
:1053D00081608093E20080916A05882309F449C0C6
:1053E00084E080936E050E941F258091E10083FF79
:1053F00029C08091E20083FF25C08091E100877F72
:105400008093E10082E080936E0510926A0580919E
:10541000E1008E7F8093E1008091E2008E7F809397
:10542000E2008091E20080618093E20042E060E06F
:1054300080E00E946C288091F00088608093F000EA
:105440000E940B25FF91EF91BF91AF919F918F919A
:105450007F916F915F914F913F912F910F900FBE70
:105460000F901F90189519BC10926E050E9404258C
:1054700070CF8091E30087FD93E090936E05B3CFEA
:105480001F920F920FB60F9211242F933F934F93B9
:105490005F936F937F938F939F93AF93BF93CF93BC
:1054A000DF93EF93FF93D091E900DF708091EC00E0
:1054B000C82FC17080FDC0E81092E9008091F00013
:1054C000877F8093F00078940E94842A1092E900EC
:1054D0008091F00088608093F000CD2BCF70C09356
:1054E000E900FF91EF91DF91CF91BF91AF919F9133
:1054F0008F917F916F915F914F913F912F910F907D
:105500000FBE0F901F901895AAE2B0E0EAE8FAE209
:105510000C94292C8FE695E02091F100FC01219359
:10552000CF01F5E087379F07B9F70E948925809161
:10553000E80083FF1EC180916F05909170059A303D
:1055400008F017C1E92FF0E0EA50F34D0C94142C49
:10555000803899F0823809F00CC1809173058F7002
:10556000873008F006C18093E9008091EB0085FB4D
:10557000882780F91092E90006C080916B05909110
:105580006C05911182609091E800977F9093E800FC
:105590008093F1001092F1008091E8008E77E5C0D1
:1055A000882309F4D3C0823009F0E3C080917105EB
:1055B0008111D6C0809173058F702FEF280F263090
:1055C00008F0D7C08093E9002091EB0020FFC8C00D
:1055D000933031F48091EB0080628093EB00C0C087
:1055E0009091EB0090619093EB0021E030E001C0DE
:1055F000220F8A95EAF72093EA001092EA00809140
:10560000EB008860EACF8111B4C0109171051F775B
:105610008091E3008078812B8093E3008091E80003
:10562000877F8093E8000E94A0288091E80080FF97
:10563000FCCF8091E30080688093E30082E0111149
:1056400083E080936E0595C08058823008F091C049
:1056500080917105909172058C3D23E09207A1F530
:1056600083E08A838AE289834FB7F894DE01139638
:1056700020E03EE051E2E32FF0E050935700E49148
:1056800020FF03C0E295EF703F5FEF708E2F90E038
:10569000EA30C0F0C7968D939D932F5F243159F760
:1056A0004FBF8091E800877F8093E8006AE270E056
:1056B000CE0101960E94AF278091E8008B778093FE
:1056C000E80057C0C096E7CF6091730570917405EC
:1056D000AE014F5F5F4F0E94F026BC01892B09F499
:1056E00048C09091E800977F9093E80089819A8163
:1056F0000E940D28E1CF8038E1F58091E800877F96
:105700008093E80080916A058093F10045CF811174
:1057100030C090917105923060F58091E800877FEC
:105720008093E80090936A050E94A02880916A0502
:10573000882311F084E005C08091E30087FDFACF53
:1057400081E080936E050E946F2513C080917105E2
:10575000813079F481E0933009F080E080936C052A
:105760001092E9008091E800877F8093E8000E9412
:10577000A0288091E80083FF0AC08091E800877F1D
:105780008093E8008091EB0080628093EB00AA9602
:10579000E3E00C94452CCF9380916E058823A1F013
:1057A000C091E900CF709091EC00892F817090FD3D
:1057B00080E8C82B1092E9008091E80083FD0E94E8
:1057C000842ACF70C093E900CF910895991B79E0A6
:1057D00004C0991F961708F0961B881F7A95C9F781
:1057E00080950895A1E21A2EAA1BBB1BFD010DC0D6
:1057F000AA1FBB1FEE1FFF1FA217B307E407F50781
:1058000020F0A21BB30BE40BF50B661F771F881F5C
:10581000991F1A9469F760957095809590959B01F2
:10582000AC01BD01CF010895EE0FFF1F0590F4916B
:10583000E02D09942F923F924F925F926F927F9248
:105840008F929F92AF92BF92CF92DF92EF92FF9290
:105850000F931F93CF93DF93CDB7DEB7CA1BDB0B3C
:105860000FB6F894DEBF0FBECDBF09942A883988E1
:1058700048885F846E847D848C849B84AA84B984E8
:10588000C884DF80EE80FD800C811B81AA81B981F4
:10589000CE0FD11D0FB6F894DEBF0FBECDBFED0108
:1058A0000895FB01DC0104C08D910190801921F461
:1058B00041505040C8F7881B990B0895FB01DC014B
:1058C00002C001900D9241505040D8F70895F999C7
:1058D000FECF92BD81BDF89A992780B50895A8E1C1
:1058E000B0E042E050E00C949B2C262FF999FECFBB
:1058F00092BD81BDF89A019700B4021639F01FBA23
:1059000020BD0FB6F894FA9AF99A0FBE089503963F
:10591000272F0E94762C0E94752C252F0E94762C12
:10592000242F0C94762C0196272F0E94762C0C9411
:10593000752CDC01CB01FC01F999FECF06C0F2BD4C
:10594000E1BDF89A319600B40D9241505040B8F73D
:105950000895F894FFCFFA09FA092B0A2B0AB80A1E
:10596000D40A5A0A5A0ADF0A500B5F0B5F0B241F36
:105970000F1F2B1F931ECC1FCC1F0A1FCC1FCC1F29
:10598000571FCC1F671FB21FCC1FCC1FCC1FCC1FB3
:10599000861FCC1FCC1F771FCC1F421FCC1FCC1FD4
:1059A000CA1FCA1FCA1FCA1FCA1FCA1FCA1FCA1FAF
:1059B000CA1FC41FCC1F241F031FCC1FCC1FCC1F0A
:1059C000CC1FCC1FCC1FCC1FCC1FCC1FCC1FC41F87
:1059D000CC1FCC1F0A1FCC1FC81FC81FC81FC81F41
:1059E000C81FC81FC81FC81FC81FC41FA82AD02A85
:1059F000B92BD02AB92B032B242BB92B7B2B872B2C
:105A0000AC0029000000001C0328003C001E000A16
:105A10000001000100010001001000100010001042
:105A20000010000400100020000201010058247D35
:105A3000245C24ED24E8245B2401E200E900EA0070
:105A4000B500B600B700CD008301CC008A019201F9
:105A500094012102230224022502260227022A029F
:105A6000B300B4006F007000818283E200E900EAB5
:105A700000B500B600B700CD008301CC008A0192CA
:105A80000194012102230224022502260227022A70
:105A900002B300B4006F0070008182833F3F3F007B
:105AA0000A092D2056657273696F6E202D0A5649BA
:105AB000443A20307834443434284D617474696138
:105AC0002044616C2042656E29205049443A2030C0
:105AD0007835323537285265646F7820576972659A
