:100000000C94DF050C94FC050C94FC050C94FC0589
:100010000C94FC050C94FC050C94FC050C94FC055C
:100020000C94FC050C94FC050C942D2A0C94012BCB
:100030000C943F240C94FC050C94FC050C94FC05DA
:100040000C94FC050C94FC050C94FC050C94FC052C
:100050000C94FC050C94C6240C94FC050C94FC0533
:100060000C94FC050C9421220C94FE210C94FC05AC
:100070000C94FC050C94FC050C94FC050C94FC05FC
:100080000C94FC050C94FC050C94FC050C94FC05EC
:100090000C94FC050C94FC050C94FC050C94FC05DC
:1000A0000C94FC050C94FC050C94FC050D000E0052
:1000B000000035001E001F00200021002200230048
:1000C000045124002500260027002D002E002B00BF
:1000D00014001A000800150017004A004D001C000B
:1000E00018000C00120013003100296104001600F2
:1000F000070009000A004E00705D0B000D000E00A5
:100100000F003300340002551D001B0006001900CB
:1001100005004B006F5D11001000360037003800FD
:100120001255E000E300E200E6002C43E0004C0042
:100130002A0028002C425000510052004F00350088
:100140001E001F0020002100220023000451240073
:100150002500260027002D002E002B0014001A0079
:100160000800150017004A004D001C0018000C0084
:100170001200130031002961040016000700090075
:100180000A004E00705D0B000D000E000F003300E2
:10019000340002551D001B000600190005004B002D
:1001A0006F5D110010003600370038001255E00076
:1001B000E200E300E6002C43E3004C002A002800A4
:1001C0002C425000510052004F0001003A003B0009
:1001D0003C003D003E003F00010040004100420065
:1001E0004300440045000100570055002F02300233
:1001F0003102010001000100F9005200010001007C
:1002000001003900200221022602270224020100F7
:100210000100FB00500051004F00FC0001000100F4
:10022000220223022F0030006700010001000100BC
:10023000FA000100010001000100010001000100BD
:1002400001000100295D0100010001000100010021
:1002500001000100010001003A003B003C003D00AC
:100260003E003F00010040004100420043004400C6
:1002700045000100F200F300ED00F900F10001007B
:10028000010053005F00600061005600360001006D
:10029000FB00EF00EE00F000FC0001000100010097
:1002A0005C005D005E00540063000100010001007D
:1002B0000100FA00010001000100620059005A002B
:1002C0005B00670001000100010001000100010066
:1002D0000100010001000100010001000100010016
:1002E0000100005C00500150000000000000000010
:1002F00000000000000000000000000000000000FE
:100300000000FF00000000000000000000000000EE
:100310000000000000000000000000000000FE00DF
:1003200000000000000000000000000000000000CD
:1003300000000000000000000000FD0000000000C0
:1003400000000000000000000000000000000000AD
:10035000000000000000000000000000000000009D
:100360000000000000000000000000000000444504
:100370004255473A2064697361626C65642E0A00D5
:1003800044454255473A20656E61626C65642E0AA9
:10039000000A0025303258006C65645F7461736B2D
:1003A0003A20004F6E6573686F743A2074696D650A
:1003B0006F75740A004F6E6573686F743A206163DD
:1003C000746976653A2025640A000A0025303136C2
:1003D00062003A200025303258000A722F63203024
:1003E0003132333435363738394142434445460A91
:1003F00000290A002575002F002575005D280025BD
:10040000640020002564002000256400200025648D
:10041000007C0025303258006D6F7573656B65790F
:10042000205B62746E7C782079207620685D28726B
:1004300065702F61636C293A205B006E6F206B6ED4
:100440006F627320736F7272790A00703A0970726A
:10045000696E742076616C7565730A643A09736518
:10046000742064656661756C74730A75703A092B43
:10047000310A646E3A092D310A6C743A092B313015
:100480000A72743A092D31300A4553432F713A09E3
:10049000717569740A004D3E20004D25753A25732B
:1004A0003E20003F0A003D2025750A003F0A0064F7
:1004B000656661756C74730A0025750A003F0A0051
:1004C0000A092D2056616C756573202D0A00710A8A
:1004D000000A092D204D6F7573656B6579202D0A13
:1004E000003F00433E20004C25640A000A092D20ED
:1004F000537461747573202D0A686F73745F6B6534
:1005000079626F6172645F6C65647328293A202593
:100510003032580A6B6579626F6172645F70726F16
:10052000746F636F6C3A20253032580A6B657962BC
:100530006F6172645F69646C653A20253032580AD5
:100540006B65796D61705F636F6E6669672E6E6B48
:10055000726F3A20253032580A74696D65725F7285
:10056000656164333228293A202530386C580A00F6
:100570002573000A092D20436F6E736F6C65202D63
:100580000A4553432F713A09717569740A6D3A0926
:100590006D6F7573656B65790A000A092D204D61D1
:1005A000676963202D0A443A094465627567204DE6
:1005B00065737361676520546F67676C650A583AA5
:1005C000094D6174726978204465627567204D6FCA
:1005D000646520546F67676C65202D2053686F77C2
:1005E000206B65797072657373657320696E206D19
:1005F000617472697820677269640A4B3A094B65C5
:1006000079626F61726420446562756720546F6718
:10061000676C65202D2053686F77206B6579707249
:10062000657373207265706F72740A4D3A09446580
:10063000627567204D6F75736520546F67676C65D1
:100640000A563A0956657273696F6E0A533A09532E
:1006500074617475730A433A09416374697661740D
:100660006520436F6E736F6C65204D6F64650A463D
:10067000312D4631303A0953776974636820746FBD
:10068000204C6179657220302D3920284631302088
:100690003D204C30290A302D393A0953776974636B
:1006A0006820746F204C6179657220302D390A47BB
:1006B000524156453A0953776974636820746F2034
:1006C0004C6179657220302028616C7465726E61AE
:1006D0007465290A423A094A756D7020746F204288
:1006E0006F6F746C6F616465720A4553433A094ACF
:1006F000756D7020746F20426F6F746C6F616465EC
:10070000722028616C7465726E617465290A453ABD
:10071000095072696E7420454550524F4D20536503
:100720007474696E67730A4241434B5350414345A9
:100730003A09436C65617220454550524F4D0A4E4F
:100740003A094E4B524F20546F67676C650A006B35
:1007500065796D61705F636F6E6669672E72617730
:100760003A20253032580A2E737761705F636F6EBE
:1007700074726F6C5F636170736C6F636B3A20258A
:10078000750A2E636170736C6F636B5F746F5F6368
:100790006F6E74726F6C3A2025750A2E73776170D4
:1007A0005F6C63746C5F6C6775693A2025750A2EFF
:1007B000737761705F7263746C5F726775693A20FA
:1007C00025750A2E737761705F6C616C745F6C675E
:1007D00075693A2025750A2E737761705F72616CB6
:1007E000745F726775693A2025750A2E6E6F5F67B0
:1007F00075693A2025750A2E737761705F6772619B
:1008000076655F6573633A2025750A2E737761708C
:100810005F6261636B736C6173685F6261636B736A
:10082000706163653A2025750A2E6E6B726F3A20EF
:1008300025750A2E737761705F6573636170655FFC
:10084000636170736C6F636B3A2025750A00646591
:100850006275675F636F6E6669672E7261773A20B3
:10086000253032580A2E656E61626C653A20257516
:100870000A2E6D61747269783A2025750A2E6B65AF
:1008800079626F6172643A2025750A2E6D6F7573F7
:10089000653A2025750A006565636F6E6669673A7B
:1008A0000A64656661756C745F6C617965723A2083
:1008B00025750A003F004E4B524F3A206F66660A7C
:1008C000004E4B524F3A206F6E0A000A6D6F7573DF
:1008D000653A206F66660A000A6D6F7573653A2087
:1008E0006F6E0A000A6B6579626F6172643A206FFD
:1008F00066660A000A6B6579626F6172643A206FFE
:100900006E0A000A6D61747269783A206F66660A31
:10091000000A6D61747269783A206F6E0A000A6489
:10092000656275673A206F66660A000A64656275DB
:10093000673A206F6E0A000A0A4A756D70696E6721
:1009400020746F20626F6F746C6F616465722E2EFD
:100950002E2000433E2000436C656172696E672063
:10096000454550524F4D0A000A00253032582000AC
:100970006B6579626F6172645F7265706F72743AF1
:10098000200064656C5F6B65795F6269743A20630F
:10099000616E27742064656C3A20253032580A0055
:1009A0006164645F6B65795F6269743A2063616E4C
:1009B0002774206164643A20253032580A005B7342
:1009C0005D005B575D005B535D005B525D005B4407
:1009D0005D005B435D001E035200650064006F0014
:1009E0007800200057006900720065006C00650007
:1009F0007300730000001E034D006100740074005A
:100A0000690061002000440061006C002000420089
:100A100065006E0000000403090409025B00030185
:100A200000A0FA09040000010301010009211101DD
:100A300000012240000705810308000109040100AC
:100A4000010300000009211101000122D400070563
:100A500082032000010904020002030000000921B2
:100A60001101000122220007058303200001070570
:100A700003032000011201000200000008444D574A
:100A8000520100010200010631FF0974A10109753C
:100A9000150026FF009520750881020976150026AD
:100AA000FF00952075089102C005010902A101858A
:100AB000020901A100050919012908150025019560
:100AC00008750181020501093009311581257F95DD
:100AD000027508810609381581257F950175088101
:100AE00006050C0A38021581257F950175088106D7
:100AF000C0C005010980A101850319012AB70015AD
:100B00000126B700950175108100C0050C0901A1EF
:100B100001850419012AA002150126A0029501757C
:100B2000108100C0050C0901A10185050903A1047C
:100B3000050919012920150025019520750181025B
:100B4000C0C005010906A1018506050719E029E7CE
:100B5000150025019508750181020507190029EF87
:100B60001500250195F07501810205081901290577
:100B7000950575019102950175039101C005010963
:100B800006A101050719E029E7150025019508755B
:100B90000181029501750881010507190029FF15DA
:100BA0000026FF0095067508810005081901290532
:100BB000950575019102950175039101C0001124FD
:100BC0001FBECFEFDAE0DEBFCDBF12E0A0E0B1E0A4
:100BD000E2E8FBE502C005900D92AC37B107D9F70A
:100BE00025E0ACE7B2E001C01D92A438B207E1F7FE
:100BF0000E94A5160C946A2D0C940000FF93EF93AD
:100C0000E0917C02F0917D02309709F00995EF9117
:100C1000FF910895FC018591803011F0EFDFFBCF4B
:100C20000895FF27E0E230E247FF0CC0419597FFAF
:100C300009C0EDE26095709580959095611D711DDC
:100C4000811D911D27FF02C0219530E350E2AA27A4
:100C5000660F771F881F991FAA1FA41710F0A41BE7
:100C600063955A95A9F7AA3008F0A95FA05DAF93E4
:100C7000F395611571058105910541F7ED3211F488
:100C8000EF93F395F21718F43F93F395FBCF8F9101
:100C9000B5DFFA95E1F70895E991F99185918030F2
:100CA00021F0853219F0AADFF9CF089520E0E89409
:100CB00055915532C1F3503311F4689455915A331C
:100CC00048F4505390F3220F022E220F220F200DD2
:100CD000250FF4CF0EF4219589919991533619F38C
:100CE000533729F1533559F1BC0188279927E894E6
:100CF0005C3621F48991999168945591543639F470
:100D000046EF7EF077FF0DC08FEF9FEF0AC055379B
:100D10004AE039F0583540E121F0523642E009F01E
:100D20000895FF93EF937DDFEF91FF91B7CFFF938E
:100D3000EF93FC0181918030B9F360DFFBCFFF932B
:100D4000EF9368DFF1CFDF93CF93CDB7DEB7259672
:100D5000A3DFCF91DF91089560E472E48FE090E02B
:100D60000E9495210895ABE0B0E0E9EBF6E00C9429
:100D7000DD2C4C0183E70E94BB218E010F5F1F4FCA
:100D80008BE0D8011D928A95E9F778015E01BCE0FD
:100D9000AB0EB11C6801412C512C32010E94E8219C
:100DA0008823B1F180E1481687E258066104710496
:100DB000E0F50E94D421D6018C93FFEFCF1ADF0A11
:100DC000CA14DB0459F78B85803E91F5F401065F68
:100DD0001F4F80E0D70111962C91B0E82B9F900116
:100DE0001124D7019C91292B41915191421753070E
:100DF00009F081E0DF0112972D933C93B2E0EB0EF6
:100E0000F11C0E151F0531F72B96E0E10C94F92C1F
:100E1000EFEF4E1A5E0A6E0A7E0AF1E14F16F7E214
:100E20005F066104710408F4B9CFF6011082C5CFE2
:100E300080E0EACF509A519A849A859A589A599AA2
:100E40008C9A8D9A08950E94CC150E941A070895D5
:100E5000CF93DF93EC010E943308813021F084307E
:100E600051F08D9A09C08D9A59988C9A589ACE0152
:100E7000DF91CF9108958D98599AF7CF81E0089529
:100E800081E008950E944007089508950E94450753
:100E90000895A5E0B0E0EFE4F7E00C94EA2C498374
:100EA0005A833091830289819A81311119C0662356
:100EB00099F0222389F00E948C0D182F682F8981C8
:100EC0009A810E94680D69817A81812F0E94A814FD
:100ED0002596E3E00C94062D0E947A0D182FF3CF8F
:100EE0000E948C0D69817A81F1CFFC01262F8681C9
:100EF0009781009739F440815181628173818481A7
:100F00000E9449070895CF93DF93EC0161E00E94AE
:100F10007507BE010E941D1CDF91CF910895CF93EC
:100F2000DF93EC0160E00E947507BE010E94460756
:100F3000DF91CF9108950E94230708950E94CE1556
:100F4000089508950E942F0C0E94A1072FEF84E3BB
:100F50009CE0215080409040E1F700C000000895DF
:100F60000E94A2070E94EA2408950E94A2070E94FC
:100F7000FB2408950F931F93CF93DF938C0161E0BF
:100F80000E947507EC01B8010E944207811106C05A
:100F900080E0DF91CF911F910F910895B801CE01AC
:100FA0000E9443218823A1F3B801CE010E94FD18BD
:100FB000882371F3B801CE010E944620882341F3B3
:100FC000B801CE010E947020882311F3F8018281BC
:100FD0008823D9F0CB35FDE5DF07A9F170F4C130E6
:100FE000ECE5DE07B1F0CF3DFCE5DF0721F1C115EF
:100FF000DC4559F40E94B007CBCFCD35EDE5DE07D7
:10100000F9F020F1C83ADD45C1F0C8010E943E0761
:10101000C0CF90915203892F8E7F90FF8160809383
:10102000520380FF05C080E893E00E940A06B0CF1B
:101030008EE693E0FACF0E94DF120E94B507A8CF98
:101040000E942412E2CF0E942E12DFCF0E943212A1
:10105000DCCF0E941B240E948F0808950E949308F1
:101060000E9420240895292F332740E021153105BF
:1010700011F0C90148E09C0164E0369527956A9516
:10108000E1F72115310511F04C5FC9019C0136953E
:101090002795369527952115310511F04E5FC90129
:1010A00096958795892B09F04F5F842F0895829537
:1010B00090E09C01220F331F220F331F2C7C95954B
:1010C0008795959587958373282B30E0C901880F04
:1010D000991F8A7A359527952575822B0895CF9388
:1010E000DF93D92F0E945708C82F8D2F0E945708D1
:1010F0009C2FDF91CF91089508950E947C08089558
:1011000081E008950E94800808950895CF93C82F24
:101110000E947D088C2F0E948208CF91089580E064
:101120000E94860808950E944D220E948608089514
:10113000CF930E944D22C82F80917E028C1789F197
:10114000C0937E020E94AB2460937F027093800262
:1011500080938102909382028091520382FF1EC08D
:1011600080FF1CC088E993E00E940A068091520328
:1011700080FF14C01F92CF9383E993E09F938F93D6
:101180000E94A306809152030F900F900F900F9032
:1011900080FF04C081E993E00E940A068C2F0E9420
:1011A0008608CF910895ADE0B0E0E9EDF8E00C9449
:1011B000EB2C49875A876B877C878D8761110E944A
:1011C00030111D821E821F82188685E0FE0139962D
:1011D000DE01119601900D928A95E1F780915E05EE
:1011E00082FF0CC00E94F310882319F082E00E9455
:1011F000E0110E94DA1081110E9451118C819D81B1
:10120000892B71F429813A814B815C816D817E81CA
:101210008F8198850E942C102D96E2E00C94072D6A
:1012200089819A8189238F3F69F3CE0101960E94BB
:1012300083078111E7CFF0CFFC01808191810E946B
:10124000BE0D0895CF93C82F8823E1F08CEF8C0F4B
:10125000813AD0F48C2F0E94F21F811113C06C2FA1
:1012600080910701909108010E941F23882329F093
:101270008C2F0E94CB100E945F118C2F0E94C310F4
:101280000E945F11CF91089580E28C0F883048F45E
:10129000C77081E001C0880FCA95EAF70E94131158
:1012A000EFCFEBE5EC0FE33040F4F0E0E859FE4F10
:1012B000808190E00E94BB22E5CFE8E5EC0FE731AA
:1012C00050F4F0E0EE0FFF1FE65CFE4F808191814D
:1012D0000E94D122D7CFCD3EA8F28C2F0E94291791
:1012E0000E94D317CFCF882379F19CEF980F913AC2
:1012F00028F40E94CB100E945F11089590E2980F8D
:10130000983050F4877091E001C0990F8A95EAF700
:10131000892F0E941911EFCF9BE5980F933028F485
:1013200090E080E00E94BB22089598E5980F9731E5
:1013300028F490E080E00E94D12208958D3E20F0B4
:101340000E947D170E94D31708951F93CF93DF93B8
:10135000182FEB010E942209209739F4812F0E9457
:101360007309DF91CF911F9108958FE99FE0019755
:10137000F1F700C000002197EFCF70E060E0893303
:1013800011F460E570E00E94A5090895882321F01A
:101390000E9413110E945F110895882321F00E947A
:1013A00019110E945F110895B0E0A0E0EAEDF9E0A4
:1013B0000C94E42C6C01D62FC72FFC011281F58010
:1013C000F2949FE0F9220E940911E82E8823B9F0D7
:1013D000E12E1123A1F08C2F807F803421F080E258
:1013E0008D0F8830D0F080915E0582FF16C082E0BC
:1013F0000E94E0110E94091191E0E82EE926BC2E1E
:10140000B2948FE0B822FBE0FB1508F468C0EB2D26
:10141000F0E0E459F24D0C94D52CE12CF0CF0C2FD8
:101420000F70C07F11F00295007F112399F0002307
:1014300059F080E28D0F883010F0D11107C0802F55
:101440000E9413110E945F118D2F41C0802F0E94B6
:101450002311F8CF8D2F0E947309002309F43FC098
:1014600080E28D0F883010F0D11104C0802F0E94CF
:10147000191103C0802F0E9429110E945F112FC0F3
:101480000C2F0F70C07FC03211F00295007FDD235A
:1014900081F0D13009F463C0112309F46DC0FF203D
:1014A00009F463C0F601858180FFCECF8F708583FC
:1014B0005CC080915E0582FD33C0112359F000238A
:1014C00029F0802F0E9413110E945F1180E00E947A
:1014D000220905C080E00E9473090111C7CFEB2DDE
:1014E000E850FF0B349720F40E944D220E9486089A
:1014F000EE2089F00E94EF1080FD0DC0F6011282EF
:101500000E94E9100E94C60CC6010E94EB0B0E94CB
:10151000E9100E94D60CCDB7DEB7E9E00C94002D9F
:10152000112389F0F11006C00E943311802B0E9414
:10153000C609D5CF21E0F212F7CF0E943311802BDC
:101540000E943A11CCCFF11006C00E945111802F99
:101550000E94CD09C4CF31E0F31609F2F6CF112372
:1015600031F085E08F1508F4BACF802FE0CF94E0FA
:101570009F1508F4B4CFEBCFFF2049F3D93349F4DA
:10158000FFEF27EE33E0F15020403040E1F700C09C
:1015900000008D2F0E947309A2CF8C2F869586950F
:1015A000837069F0813009F09ACF8D2F9C2F937052
:1015B000111102C090E080E00E94D12290CF8D2FC7
:1015C0009C2F9370111102C090E080E00E94BB221A
:1015D00086CF8D2F112329F00E9429170E94D3173F
:1015E0007ECF0E947D17FACF8C2F8370A1F5111149
:1015F00076CF4D2F429546954770440F440F2D2FBF
:101600002F7030E0042E02C0220F331F0A94E2F73D
:1016100090E080E0D4FF09C08FE090E002C0880F26
:10162000991F4A95E2F780959095C695C695C37027
:10163000822B932BC23049F058F4C13019F00E942C
:10164000970C4DCF0E948E0C4ACF0E94A00C47CF22
:101650000E948B0C44CF8695112311F08C2F817042
:10166000882309F43CCF4D2F429546954770440F8F
:10167000440F2D2F2F7030E0042E02C0220F331F95
:101680000A94E2F790E080E0D4FF09C08FE090E098
:1016900002C0880F991F4A95E2F780959095C695EC
:1016A000C695C370822B932BC23049F058F4C130D9
:1016B00019F00E94010D13CF0E94F80C10CF0E9468
:1016C0000A0D0DCF0E94AC0C0ACFCF70112329F068
:1016D0008C2F0E94C60C8D2F2ACF8D2F0E94CD09F2
:1016E0008C2F0E94D60CFBCED23F51F160F4D03F3C
:1016F000B9F0D13F81F0112309F449C0F110A4CE13
:101700008C2F8F7121C0D33F11F1D43FA1F780916D
:101710005E0582FD26C08C2F8F71112311F314C03A
:10172000112349F084E08F1508F4D9CE8C2F8F71E6
:101730000E94E80CD4CE95E09F1508F4D0CEF6CFE9
:101740008C2F8F711111CDCF0E94C60CC8CE1123E2
:1017500029F08C2F8F710E94BA0CC1CE0E94B50C5B
:10176000BECE112349F0CF718C2F0E94C60C63E0CE
:101770008C2F0E94B811B3CE81E00E94E011E1E00D
:10178000EF1508F0ACCE82E00E94E011A8CEF11077
:10179000F5CE8C2F8F71A5CF0F931F93CF93DF932F
:1017A000EC018E819F81009781F00E94B7138C011C
:1017B0000E94130D0E948A0CB801CE010E94D40928
:1017C000DF91CF911F910F910895688179818A816E
:1017D0000E94C90DECCFCF93DF93EC018B819C81EC
:1017E000892B29F08881998189238F3F51F4DF91DA
:1017F000CF910895CE010E94CC0BCE010E948F079D
:10180000F6CFCE010E94BA078111F4CF0E940911D0
:10181000882369F38A81882351F380915E0582FFD2
:10182000E6CF82E00E94E011E2CF90E080E00E94EB
:10183000BB2290E080E00E94D1220E9430110E94E1
:101840005F110E9471180E94D3170E9482200E948B
:101850008B2008950E94D3100E94150C08950E94B9
:1018600020110E942A0C089592959F70963091F055
:1018700058F4925F9F70923058F4803F19F030F422
:10188000883E30F481E008959A5FF4CF843FD1F32D
:1018900080E00895883EB0F3813FD1F7F3CFFC019B
:1018A00083819481892B29F08081918189238F3FC5
:1018B00039F480E008950E94B7130E94340C089513
:1018C000868197810097B9F7808191810E94BE0D32
:1018D000F4CFA5E0B0E0EFE6FCE00C94EB2C25960D
:1018E000E2E00C94072DA8E0B0E0E9E7FCE00C94FE
:1018F000EB2C2896E2E00C94072D08950E947D0CB5
:1019000008950E947E0C9093AB028093AA020E94DD
:10191000150C089508950E94810C08952091AA0243
:101920003091AB02822B932B0E94810C0895209161
:10193000AA023091AB02822393230E94810C089566
:101940002091AA023091AB02822793270E94810C3A
:1019500008950E94280708950E94A90C9093A90257
:101960008093A8020E94150C089590E080E00E94E8
:10197000AC0C089521E030E0A90102C0440F551FCE
:101980008A95E2F7CA010E94AC0C089521E030E08C
:1019900002C0220F331F8A95E2F78091A80290912E
:1019A000A902822B932B0E94AC0C089521E030E019
:1019B00002C0220F331F8A95E2F72095309580915F
:1019C000A8029091A902822393230E94AC0C08954F
:1019D00021E030E002C0220F331F8A95E2F78091A8
:1019E000A8029091A902822793270E94AC0C089527
:1019F0002091A8023091A902822B932B0E94AC0C5B
:101A000008952091A8023091A902822393230E9475
:101A1000AC0C08952091A8023091A9028227932747
:101A20000E94AC0C08950895262F277091E001C004
:101A3000990F2A95EAF723E0769567952A95E1F7BD
:101A4000660F771F660F771FFA01E60FF71F50E04A
:101A500040E0682F70E08191DF0111979B01042E17
:101A600002C0369527950A94E2F721702195282720
:101A7000292328272C934F5F5F4F4430510559F796
:101A80000895A82FA77023E0969587952A95E1F7EA
:101A9000880F991F880F991FFB01E80FF91F50E06D
:101AA00040E080E0219130E00A2E02C03695279573
:101AB0000A94E2F721703327042E01C0220F0A9402
:101AC000EAF7822B4F5F5F4F4430510559F7089575
:101AD000262F953070F48E3060F4682F70E08EE021
:101AE000989F600D711D112444E852E0822F0E94DE
:101AF000140D0895292F953068F48E3058F490E035
:101B000064E872E03EE0239F800D911D11240E9445
:101B1000410D089580E00895B0E0A0E0E2E9FDE025
:101B20000C94E42C7C010091A8021091A9028091F0
:101B3000AA029091AB02082B192BCFE0D0E0CC2465
:101B4000C394D12CBC2EC6010C2E02C0880F991F45
:101B50000A94E2F780239123892B49F4219790F787
:101B6000B12C8B2DCDB7DEB7E9E00C94002DB70179
:101B70008C2F0E94C314019789F3F3CFCF93DF9387
:101B8000EC010E948C0DBE010E94C314DF91CF9125
:101B900008951F93CF93DF93EB01909183029923D4
:101BA00039F0CB010E94BE0DDF91CF911F910895B6
:101BB000882369F0CB010E948C0D182F682FCE016D
:101BC0000E94680DBE01812F0E94C314EDCFCB018E
:101BD0000E947A0D182FF6CFCF93DF93C091AC02FD
:101BE0008091AD028C1303C0DF91CF910895D0E0B6
:101BF000FE0183E0EE0FFF1F8A95E1F7E255FD4FEE
:101C000020813181428153816481758186819781F0
:101C10000E94730C2196C770E3CF2091EE023091A1
:101C2000EF024091F0025091F1026091F202709146
:101C3000F3028091F4029091F5020E94730C0895D2
:101C4000CF93DF938091F302807F09F049C08091A8
:101C5000F002882309F444C08091AC02C091AD0227
:101C60006091EE027091EF02A091F102B091F20248
:101C7000D62FD723C817A1F190E0109711F0DF3FBE
:101C800019F401968770F6CF9C0143E0220F331FB1
:101C90004A95E1F7F901E255FD4F41814713F1CF34
:101CA00040814613EECF42814111EBCF43815481F5
:101CB0004A1B5B0B483C510520F78091F3028F7063
:101CC00080618093F302F901ED54FD4F80818F70A4
:101CD000806180838EEE92E00E94EB0B0E94EC0DFF
:101CE000DF91CF910895A5E1B0E0E9E7FEE00C9423
:101CF000E32C8C0185E0F801DE01519601900D92F4
:101D00008A95E1F7F801E2804EEEC42E42E0D42E2F
:101D10006091F1027091F2026115710509F480C1C0
:101D20009091EE022091EF02892F82238F3F09F4D8
:101D300077C140815181A380B480F090F002F50119
:101D4000E61BF70BFF2009F420C18091F302382F26
:101D5000307FE83CF10508F0CAC0311177C0FE2C95
:101D6000251320C094131EC06091F4027091F502F7
:101D7000F8012681378162177307A1F4E11012C0C0
:101D80008F7080618093F3020E940D0EC6010E9445
:101D9000EB0B8091F302F80185838F2D6596EAE0C5
:101DA0000C94FF2CA114B10429F0842F85238F3FBC
:101DB00009F04FC180E0F82FF170DF2E80FF3CC0AA
:101DC0008091AC022091AD02821315C0498B5A8BD1
:101DD00089899A890E94BE0D292F22952F70223061
:101DE000F8F0243020F59F70F9F0F8019581907F8C
:101DF000D9F4D12C1FC090E0FC0133E0EE0FFF1F9F
:101E00003A95E1F7E255FD4F3181351306C0308137
:101E1000341303C032813E110FC001968770D4CFB6
:101E20009F7011F0882329F3805E883010F3C80179
:101E30000E94EB0BFD2CB1CFEE2009F4AECF8091C8
:101E4000F30281608093F302F12CA7CF25131DC00C
:101E500094131BC04091F4025091F502F8012681C1
:101E600037814217530789F4E1100FC08583C801F9
:101E70000E94EB0B88E0F801AEEEB2E001900D920B
:101E80008A95E1F70E940D0E88CFC8010E944F0C81
:101E9000882349F1EE2039F18091F3028032A0F0DD
:101EA0002091EE023091EF023A8729871B86BD868A
:101EB000AC868E878091F4029091F502988B8F8783
:101EC000CE0109960E94EB0B88E0F801AEEEB2E07D
:101ED00001900D928A95E1F70E94200E0E940D0E4E
:101EE000FF24F3945ACFC8010E94EB0BF9CF3111B4
:101EF00013C07A2DBD8AAC8A6E2D8D890E94690C23
:101F00008EEE92E00E94EB0B88E0F60111928A952A
:101F1000E9F70E940D0E98CF251318C0941316C030
:101F20004091F4025091F502F80126813781421761
:101F3000530761F4E1100AC08583C8010E94EB0BCE
:101F400088E0F60111928A95E9F727CFC8010E942F
:101F50004F0C882341F2EE2031F28091F30280325F
:101F600008F4B2CF2091EE023091EF023A83298338
:101F70001B82BD82AC828E838091F4029091F50227
:101F800098878F83CE0101969DCFE83CF105D8F567
:101F9000FE2CEE2009F4A7CF251327C0941325C0EB
:101FA0002091F4023091F502F8018681978128177B
:101FB0003907D9F49091F30290FD0EC0907F61F043
:101FC0008091F3028583903F09F451CF982F907F41
:101FD000905F8F70892B4ACF88E0F801AEEEB2E0B7
:101FE00001900D928A95E1F7D8CEC8010E944F0C5E
:101FF00081116ACF8091F30281608093F302C8015E
:102000000E94EB0BCACE7A2DBD8AAC8A6E2D8D89CB
:102010000E94690C88E0F60111928A95E9F732CFA7
:10202000EE2009F460CFC8010E944F0CF82E8823DF
:1020300009F459CF88E0F801AEEEB2E001900D92BC
:102040008A95E1F78EEE92E00E941C090E94200E14
:1020500019CF81E08E25AFCEA0E1B0E0E2E3F0E160
:102060000C94EB2C29873A874B875C876D877E879A
:102070008F87988BCE0109960E94730E8823A9F052
:102080008C859D85892B39F029853A85822F83237C
:102090008F3F09F06FC08091AC029091AD0289131F
:1020A00043C06096E2E00C94072D88E0FE0139966B
:1020B000DE01119601900D928A95E1F78C859D8540
:1020C000892B49F389859A8589238F3F21F3A09134
:1020D000AD02B0E0CD010196877099272091AC0246
:1020E0002817190671F40E942F0C1092AD0210925D
:1020F000AC0288E0EEEEF2E0DF011D928A95E9F78E
:10210000CACF93E0AA0FBB1F9A95E1F7A255BD4F26
:1021100098E0FE01319601900D929A95E1F7809337
:10212000AD020E94EC0DB7CFB8E08B9FC001112427
:1021300082559D4F0E94730E882309F4B2CFE0911F
:10214000AC0228E0E29FF0011124E255FD4F20810E
:1021500031814281538164817581868197810E949A
:10216000730C8091AC0290E0019687709927809360
:10217000AC0291CF4B855C856D857E858F85988976
:102180000E94730C88CF682F8091070190910801FD
:102190000E94C1230895682F809107019091080142
:1021A0000E94CF23089580910701909108010E9419
:1021B000DD2308950E949F242091190330911A0372
:1021C000821B930B9C0181E0243F314008F480E0A6
:1021D000089580911803859585958595089580913A
:1021E0001803877008950E949F2420911603309150
:1021F0001703821B930B843F914048F08091180392
:1022000082FB882780F991E089278170089580E01A
:10221000FCCF90911803977081E009F480E0089555
:1022200080913D03089590913D03892B80933D0358
:102230000895809590913D03982390933D030895D0
:1022400010923D03089590913C03892B80933C03A9
:102250000895809590913C03982390933C030895B2
:1022600010923C03089580911B03089508950E94E5
:1022700036110895CF93C82F80915E0582FF0FC05D
:1022800080911B038C1759F00E949F2490931A038E
:1022900080931903C0931B038C2F0E943711CF9199
:1022A000089580911B03882349F010921B0310921C
:1022B0001A031092190380E00E9437110895CF93FA
:1022C000DF93E0910701F091080180913D03808345
:1022D000E0910701F0910801808190913C03892BE6
:1022E000808380911B03882321F10E94DA108823C8
:1022F00071F08091520380FF08C083EA93E09F93BE
:102300008F930E94A3060F900F900E945111E091AD
:102310000701F0910801808190911B03892B808334
:1023200080910701909108010E940B2381110E9466
:102330005111C0910701D091080140E250E066EFD1
:1023400072E0CE010E94122D892B59F080E2FE012D
:10235000A6EFB2E001900D928A95E1F7CE010E94BE
:102360005A22DF91CF91089508950E94B4110895E3
:1023700090915E0592FF17C098E0899F900111240B
:10238000622B609318030E94C60C0E949F249093B6
:10239000170380931603809118038595859585957D
:1023A0000E94B51108950E94C60C0895109218035A
:1023B000109217031092160380E00E94B511089541
:1023C000909118038095892380931803282F2770F4
:1023D00091F4282F082E000C330B9217130659F096
:1023E00090915E0592FF07C08595859585950E9421
:1023F000D60C0E94D6110895CF93C82F80915E0508
:1024000082FB992790F99C17E9F0C0FB82F9809331
:102410005E0580915D0590915E050E94591282E0F3
:102420000E94E0118091520380FF0CC01F92CF9355
:1024300085EB93E09F938F930E94A3060F900F90DC
:102440000F900F90CF91089580915E0582FB8827B1
:1024500080F991E089270E94FC11089581E00E9493
:10246000FC11089580E00E94FC11089590E080E046
:102470000E94302D21E0883E9E4F09F020E0822FFF
:10248000089582E090E00E94282D089583E090E076
:102490000E94282D0895CF9384E090E00E94282D7B
:1024A000C82F82E290E00E94282D982F8C2FCF9188
:1024B0000895CF93C92F682F84E090E00E94362DB5
:1024C0006C2F82E290E00E94362DCF910895AB01EF
:1024D000BC018FE090E00E94482D0895AB01BC0143
:1024E00083E190E00E94482D089560E070E0CB0108
:1024F0000E946E12089560E070E0CB010E946712A6
:102500000E947512089568EE7EEF90E080E00E94D0
:10251000542D60E082E090E00E94362D60E083E080
:1025200090E00E94362D1092AB021092AA0260E059
:1025300084E090E00E94362D64E082E290E00E9408
:10254000362D60E085E090E00E94362D60E086E068
:1025500090E00E94362D6FEF87E090E00E94362DCC
:1025600040E050E0BA0188E090E00E94482D60E031
:102570008DE090E00E94362D40E050E0BA0188E105
:1025800090E00E94482D60E087E190E00E94362DA7
:1025900040E050E0BA018CE190E00E94482D70E0EC
:1025A00060E080E290E00E94542D40E050E0BA01EB
:1025B00088E190E00E94482D0E947B1208950E94BD
:1025C00083120895682F8EE090E00E94362D0895C2
:1025D0000E94AB2460934E0370934F03809350038B
:1025E0009093510360934A0370934B0380934C0381
:1025F00090934D030895089508950E94FC12089544
:1026000008950E940013089584E097E20E944322F7
:102610000E94FB120E94FD12089581E008950E941D
:102620000D130895089508950E9412130E94131324
:1026300008950E94AE150E94850808950E94962470
:102640000E941B160E9419130E9401130895AAE00C
:10265000B0E0EDE2F3E10C94E02C0E94441620E49B
:10266000822E23E0922E640110E0F601E190F190B9
:102670006F01812F0E94D1151F5F153009F449C0E9
:10268000E816F90691F38091520381FD0E94DA1554
:102690000E940F13782E10E0812F0E94D1157C012B
:1026A000F401A190B1904F018A159B0561F1A82614
:1026B000BF2400E0CC24C394D12CC5018C219D21E2
:1026C000892BC1F07720B1F00E831F8321E0C70171
:1026D0008C219D21892B09F420E028870E949F24CA
:1026E0008160782F9A8789874E815F8168858A8586
:1026F0000E94D3080F5FCC0CDD1C0E30F1F6F40104
:102700003297F182E0821F5F153031F60E94E812A5
:1027100022C0E816F90609F0B6CF0E949F248C016A
:1027200080913E0390913F0308171907A1F08FEFA6
:1027300089838A831B820E949F248160782F9D83D6
:102740008C8349815A816B818D810E94D3081093BB
:102750003F0300933E030E94D61B0E9491180E94E3
:102760008B200E9498082A96EDE00C94FC2CCF93C5
:10277000DF930E94C814EC01811521E5920708F04F
:1027800042C0811530E5930708F09FC0883E91054F
:1027900030F5803E910508F094C0883A910588F4A0
:1027A000853A910508F086C08130910509F489C009
:1027B000009709F486C0049708F083C0D0E0C0E019
:1027C00080C08F3B9105D0F7C85AD0E0CC0FDD1FF9
:1027D000C559DE4F0990D881C02DD46472C08115CF
:1027E00040E2940750F4C11581E0D80708F069C0B1
:1027F000CD3ED10518F3D06564C081159044F0F248
:10280000DF70D06A5EC0811535E5930718F5811534
:1028100044E5940708F085C0C11583E5D80708F0A2
:102820006CC0C11522E5D20708F462C0CE018370E6
:10283000992721E030E002C0220F331F8A95E2F78A
:10284000C695C69580E2C89FE0011124C22BD32B08
:10285000DC6837C0811539E59307A8F4811548E590
:10286000940708F063C0C11586E5D80708F0A6CF25
:102870008C2F0E946A15C82FD0E0DC2FCC27CC27E4
:10288000DF71D0621EC081152AE5920708F453C09B
:1028900090568115904208F091CF8D2F8F710E9434
:1028A0006A1590E0982F882788279F719C012C2B10
:1028B000E901E7CFC55AD0E0C756DE4FC881D0E066
:1028C000D064CE01DF91CF9108958370992721E0E4
:1028D00030E002C0220F331F8A95E2F7C695C695F5
:1028E00040E2C49FE0011124C22BD32BDD68E9CF65
:1028F000DC2FCC27C16FD06AE4CFCE01837099273B
:1029000021E030E002C0220F331F8A95E2F7C6951E
:10291000C69540E2C49FE0011124C22BD32BDA6894
:10292000D0CFD82FCC27C46FD06ACBCFD82FCC270D
:10293000C06FD06AC6CF8F700E946A1534E0D695FA
:10294000C7953A95E1F7CF709C2FEC01D069B9CFCC
:10295000972F7530A8F46E3098F470E02EE0929FB7
:10296000600D711D1124FB0196E4899FE00DF11D9E
:102970001124EE0FFF1FEE54FF4F8591949108959F
:1029800080E090E008950E94A8140E94B713089573
:1029900082389105B9F1B0F48133910509F47DC015
:1029A00048F48932910509F46DC08A32910509F421
:1029B0007BC008958533910509F45FC08933910583
:1029C00009F10895833E9105D9F138F4803E9105CF
:1029D00029F1823E910579F10895863E9105D9F15C
:1029E000873E910509F43EC0843E910541F5209152
:1029F0005E0521FF24C080915D0584FD19C087EE2E
:102A000090E0089520915D05237009F05AC020914F
:102A10005E0523FF14C089E290E0089520915D05D2
:102A200020FD38C030915E0530FF09C024FF43C04F
:102A300090E080E0089520915D0522FDF7CF089594
:102A400020915D0522FD3AC030915E0530FD39C010
:102A500024FFF5CFEDCF20915D0523FFF0CF24FDBE
:102A6000E7CFCDCF20915D0523FD2EC030915E05CF
:102A700031FFEECF84EE90E0089520915D0525FFB3
:102A8000DECFC9CF20915D0525FD21C020915E05D7
:102A900023FFD5CF89E390E0D2CF20915D0526FFBB
:102AA000CECF8AE290E0089520915D0526FFC7CF42
:102AB00081E390E0089583EE90E0089582EE90E047
:102AC000089580EE90E0089586EE90E0089585E305
:102AD00090E0089590915D0592FF06C0282F28711F
:102AE0002830F9F4877F846093FF06C0282F28716F
:102AF0002831F1F4877E846120915E0520FF06C0B5
:102B0000382F38713830D9F4877F816021FF06C0B3
:102B1000282F28712831D1F4877E816194FD877E2A
:102B20000895282F24712430F9F68B7F8860DCCF3C
:102B3000282F2471243101F78B7E8861DDCF382F57
:102B40003171313019F78E7F8860E0CF282F2171E5
:102B5000213121F78E7E8861E1CF08950E943612DF
:102B6000811102C00E94DF120E9441128093520321
:102B70000E944B1290935E0580935D050E94AD15F7
:102B80000E94461290E00E948B0C8091A8029091C6
:102B9000A9020E94A90C0895089508950E94CD15D8
:102BA0000895E82FF0E0EE0FFF1FE759FA4F8081FC
:102BB00091810895B0E0A0E0E0EEF5E10C94E52C01
:102BC0008AED93E00E940A0689E6E82E85E0F82E59
:102BD000D0E0C0E095EDC92E93E0D92E0CEC13E0C7
:102BE000DF93CF93DF92CF920E94A30682ED93E012
:102BF0000E940A06F701819191917F010E946F085E
:102C00009F938F931F930F930E94A3068AEC93E0E8
:102C10000E940A0621968DB79EB708960FB6F894C3
:102C20009EBF0FBE8DBFC530D105D1F6CDB7DEB783
:102C3000E8E00C94012D0E94AC06AFE5B5E01196DA
:102C40001C921E92E9E6F5E01182108213961C9206
:102C50001E9212971382128215961C921E9214973E
:102C60001582148217961C921E921697178216824E
:102C700019961C921E9218971186108685E00E9464
:102C800057160E949B070895CF938FE595E00E9409
:102C9000B306282F45E069E675E08FE595E00E94D0
:102CA0005816C82F0E949E078C2FCF910895089523
:102CB000CF92DF92EF92FF921F93CF93DF936C013D
:102CC0007B01C42F222349F081E0809355030E94A9
:102CD0009F24909354038093530310915503111133
:102CE0000AC010E0812FDF91CF911F91FF90EF90EC
:102CF000DF90CF90089580915303909154030E94E8
:102D0000B724059770F3D0E0CC0FDD1FAE01B601FC
:102D1000C7010E94122D892B41F0AE01B601C701F7
:102D20000E941F2D10925503DDCF10E0FBCF0E94B3
:102D300080270E941E130E948D2708950E949227CB
:102D40000E9427130E94B02708950E9438240E94F1
:102D500066270E9404130E9497160E949E160E94E6
:102D60001413FBCF8091290190E0880F991FFC017B
:102D7000EF5DFE4F20818F5E9E4FFC018081909120
:102D80005E03191614F420935E0390915E0397FF7F
:102D900004C0922F919590935E0390915F03191652
:102DA00014F420935F0390915F0397FF03C0219574
:102DB00020935F0390916103191614F480936103CB
:102DC0009091610397FF04C0982F919590936103B0
:102DD00090916003191614F480936003909160033E
:102DE00097FF03C081958093600330915E03332386
:102DF000A1F020915F03222381F045EB3403C00151
:102E000011249923F1F090935E0345EB2403900184
:102E100011243323D1F030935F03409161034423A5
:102E200079F030916003332359F025EB4203A00180
:102E300011245093610332039001112430936003F5
:102E4000089581E080935E03E0CF81E080935F038B
:102E5000E4CF40912901242F30E0220F331FF901E4
:102E6000EF5DFE4F90818D3E21F4919590935F032D
:102E700008958E3ED9F38F3E21F4919590935E0391
:102E80000895803FD9F32F5E3E4FF9019081893F2D
:102E900019F49093600308958A3F11F49195F9CF46
:102EA0008B3F21F491959093610308958C3FD9F362
:102EB0009FE0980F983070F4815F990B21E030E02B
:102EC00001C0220F8A95EAF780915D03822B8093DF
:102ED0005D0308958D3F49F481E08093290180913D
:102EE000290148130E94B21608958E3F11F482E022
:102EF000F4CF8F3FC9F783E0F0CF8D3E39F4809156
:102F00005F0387FF29C010925F0308958E3E29F466
:102F100080915F031816BCF308958F3E39F48091B9
:102F20005E0387FF19C010925E030895803F29F465
:102F300080915E031816BCF30895893F39F480919F
:102F4000600318164CF41092600308958A3F29F428
:102F50008091600387FDF7CF08958B3F39F480910E
:102F6000610387FFF9CF1092610308958C3F29F424
:102F7000809161031816BCF308959FE0980F983074
:102F800058F7815F990B21E030E0A90102C0440F9E
:102F9000551F8A95E2F7CA01809590915D038923B8
:102FA00080935D03D9CF8091520383FF7EC088E177
:102FB00094E00E940A0680915D031F928F9383E143
:102FC00094E09F938F930E94A30681E194E00E9476
:102FD0000A0680915E03282F082E000C330B3F93C6
:102FE0008F938EE094E09F938F930E94A3068CE0D2
:102FF00094E00E940A0680915F03282F082E000C9F
:10300000330B3F938F9389E094E09F938F930E94BB
:10301000A30687E094E00E940A0680916003282FAF
:10302000082E000C330B3F938F9384E094E09F9322
:103030008F930E94A30682E094E00E940A0680918A
:103040006103282F082E000C330B3F938F938FEFD3
:1030500093E09F938F930E94A3068CEF93E00E94CE
:103060000A0680915A031F928F9389EF93E09F93F2
:103070008F930E94A30687EF93E00E940A06809137
:103080005B031F928F9384EF93E09F938F930E9433
:10309000A30681EF93E00E940A068DB79EB74C9677
:1030A0000FB6F8949EBF0FBE8DBF0E949F249C0157
:1030B00090915E0380915F03982B21F03093590328
:1030C000209358039091600380916103982B21F025
:1030D00030935703209356038CE593E00E94AD2272
:1030E000089586E0ECE5F3E0DF011D928A95E9F7AB
:1030F00010925A0310925B030895FC0182818111A2
:103100000EC0838181110BC08481811108C091E0C0
:103110008581811101C090E0892F8170089581E03F
:10312000FCCFA6E0B0E0E7E9F8E10C94EB2C86E0F8
:10313000ECE5F3E0DE01119601900D928A95E1F73E
:1031400010925E0310925F0310926003109261036D
:103150008B819C81892BC1F08091580390915903F8
:103160000E94B724E0912901F0E0EE0FFF1FE75E17
:10317000FE4F208131812817390730F48B818093ED
:103180005E038C8180935F038E819D81892BC1F0CA
:1031900080915603909157030E94B724E091290132
:1031A000F0E0EE0FFF1FE75FFE4F2081318128170F
:1031B000390730F48D81809360038E8180936103A1
:1031C000BE016F5F7F4F8CE593E00E94EF2381117A
:1031D00005C08CE593E00E947D1881110E94D317F1
:1031E00086E0FE013196ACE5B3E001900D928A9540
:1031F000E1F72696E2E00C94072DCF93DF93EC01E4
:10320000FB018281882309F464C1C430FDE5DF0736
:10321000E0F5CB3F9CE5D90730F49E0122503C45B8
:1032200024313105D8F50E944B1290935E058093AE
:103230005D05C231ECE5DE0709F41FC108F06EC080
:10324000C9308CE5D80709F4F2C008F03FC0C5309A
:10325000ECE5DE0709F4DBC058F5C3308CE5D80790
:1032600009F4CDC008F0CFC080915D058160C23007
:10327000DC4509F4AEC080915D0590915E050E9429
:1032800059120E942F0C80E009C0C63AEDE5DE0716
:1032900051F238F4C2369DE5D90729F2DF91CF917A
:1032A00008959E012E5A3D4523303105B8F7BBCF16
:1032B00080915D058062C730FCE5DF0709F489C0B5
:1032C00008F4B1C080915D05806483C0CD309CE579
:1032D000D90709F4BAC070F480915D058E7FCB30B8
:1032E000FCE5DF0709F475C008F4A7C080915D050F
:1032F0008D7F6FC0CF309CE5D90709F4B6C008F4C4
:10330000A8C0C031FCE5DF0709F4B3C0C131DC451A
:1033100009F0B1CF80915D058F7B5BC0C1159DE544
:10332000D90709F4B4C098F5CB3FFCE5DF0709F4F1
:1033300072C0B8F4C4319CE5D90709F4B6C008F4EA
:10334000A2C0C531DC4509F096CF80915D0582FBB6
:10335000992790F921E0922790FB82F990FB83F95D
:1033600038C0CD3F8CE5D80709F477C008F457C0C2
:10337000CE3FECE5DE0709F474C080915E05836002
:10338000CF3FDC4509F077CF80935E0574CFC2361E
:103390008DE5D80709F496C068F4C230EDE5DE0784
:1033A00009F48CC008F477C0C330DD4509F063CF61
:1033B00080E085C0CE3A9DE5D907E9F068F49091A8
:1033C0005D05892F8E7F90FF8160C63ADD4509F04B
:1033D00052CF80935D054FCFCF3A8DE5D80789F165
:1033E000C03BDD4509F047CF90915E05892F877F6F
:1033F00093FF8860C9CF80915E058860C5CF8091BA
:103400005D058260E6CF80915D058460E2CF8091AA
:103410005D058860DECF80915E058160B5CF8091CB
:103420005E058260B1CF80915D058061D2CF0E9440
:103430002F0C80915D058068CCCF80915D058C60FC
:10344000C8CF80915E05877F9FCF80915D058B7F80
:10345000C0CF80915D05877FBCCF80915E058E7F58
:1034600093CF80915E058D7F8FCF80915D058F7E9C
:10347000B0CF80915D058F7DACCF0E942F0C8091E5
:103480005D058F77A6CF80915D05837FA2CF809168
:103490005E058C7F79CF80915E05982F9095917015
:1034A0008E7F892B90FB81F96FCF0E942F0C90911A
:1034B0005D05892F97FB87F980588BCF81E00E94AB
:1034C000E212D9CE90915D05892F8F7E94FF8061A5
:1034D00080CF81E0E3CE08950F931F93CF93DF93C6
:1034E0008091CD03E09162031CE081111AC0DF914D
:1034F000CF911F910F91089501E00E0F0093620389
:10350000CE2FD0E0E19FF0011124E359FC4F8381DD
:103510009481892B29F08081918189238F3FF9F44F
:10352000E02F8091CD03E81738F31092CD0310926D
:103530006203DDCF18968D919C918F3F9807E1F043
:1035400061E00E946B1A1C9FF0011D9FF00D112479
:10355000E359FC4F148213820E943011E1CF1C9F6B
:10356000D0011D9FB00D1124A359BC4F16968D910B
:103570009C911797892BF1F22081318142815381EF
:1035800064817581868197810E942C10DCCF109216
:10359000CF031092CE0320912B0130912C01E0E05B
:1035A000F1E090E080E02817390709F4089545819B
:1035B000411102C01482168201963796F4CFDC01C5
:1035C00060916B0380916C03962F891301C008955D
:1035D000292F30E0F901EE0FFF1FED59FC4F40811C
:1035E00051814A175B07A1F487E08A9FA0018B9F56
:1035F000500D112440505F4F81E0FA0184839613EF
:10360000E6CF2F5F3F4F2370332720936B0308953E
:103610002F5F3F4F922F9370D8CFB0E0A0E0E3E14F
:10362000FBE10C94E02CEB012C81211152C0709035
:10363000CD03ADE6B3E030E020E0812C61E070E046
:10364000271508F044C01A96CD90DC901B97A880EF
:10365000B9804FEF5FEF912CE92CF12CF701EE0FC1
:10366000FF1FEA0DFB1D05911491C016D10609F448
:10367000A7010115110511F09394EECF4F3F5407A8
:1036800089F1FB0102C0EE0FFF1F4A95E2F78E2A77
:10369000AB01092C02C0440F551F0A94E2F74150B8
:1036A000510984161506D1F44A815B816CE0629F52
:1036B000F001639FF00D1124E359FC4F57834683BB
:1036C0002EEF208321839187808721E02D830E9424
:1036D000DF1ACDB7DEB7EDE00C94FC2C14961C92EB
:1036E0001E9213972F5F3F4F1C96AACF1F93CF9325
:1036F000DF93C0916B0317E080916C038C1308C0BB
:103700000E946C1A0E94C71ADF91CF911F910895F1
:10371000D0E0FE01EE0FFF1FED59FC4F808191813B
:10372000189FB001199F700D112460507F4F0E94A7
:103730000D1B2196C370E0CFEF92FF921F93CF93A2
:10374000DF93FC012081318110E040E050E0E52F63
:10375000F0E0EE0FFF1FE20FF31FA591B491109759
:10376000B9F0FB01C081D18140E005C0AE15BF05B5
:1037700009F411E04F5FE42FF0E0EE0FFF1FEC0FB4
:10378000FD1FE590F490E114F10481F75F5FDFCF56
:10379000112349F0451708F4CB01DF91CF911F9118
:1037A000FF90EF90089590E080E0F7CF80912A019C
:1037B000882341F18091D0039091D103009711F1BA
:1037C0000E94B7242091CE033091CF0328173907E8
:1037D000C8F490916B0380916C03981759F00E9484
:1037E000761B1092CF031092CE031092D103109249
:1037F000D00308950E946C1A1092D1031092D00346
:103800000E94C71A08951092D1031092D00310920B
:103810002A0180916C0380936B030E94C71A0E9457
:103820006C1A089580912A01882319F00E94031CC4
:10383000089581E080932A010895A9E0B0E0E3E2D1
:10384000FCE10C94DB2C6C013B01FB011281883FF5
:10385000FCE59F0751F4112379F081E080932A0160
:10386000812F2996E2E10C94F72C893F2CE59207F1
:1038700009F04DC0111148C000E011E0F12CE12C1D
:10388000198688248394912C80912B0190912C018E
:10389000E816F90608F445C0F3018281882309F48B
:1038A00060C1F985FF2309F45CC10E949F249093B5
:1038B000D1038093D0038091CD03883008F591E047
:1038C000980F9093CD0398E0F301DE0111960190DB
:1038D0000D929A95E1F72CE0829FC0011124835943
:1038E0009C4F28E0FE013196DC0101900D922A9553
:1038F000E1F72FEF3FEFFC0131872087D386C286A7
:1039000011E0F9851F27ACCF0E94031CA9CF8A3F85
:103910009C4509F0B1CF112309F4AECF0E94121CCF
:103920009FCFF80160817181AA24AA94BA2C20E06B
:10393000422F50E0FA01EE0FFF1FE60FF71F8591AF
:103940009491C816D90609F45A01892B11F02F5FFA
:10395000EFCF312CFFEFAF16BF0609F445C0F801D9
:10396000448130902A01832D411180E0F82FF170BD
:103970003F2EF80155808681F3019281992309F445
:103980008EC0332009F48BC0511015C0A4010A2C3D
:1039900001C0440F0A94EAF7842BF80186838091D2
:1039A000CE039091CF03C29730F462E370E070933E
:1039B000CF036093CE03C40102C0880F991F2A95DC
:1039C000E2F70197F80126812817190669F480911A
:1039D000D0039091D103009781F00E94B724C39740
:1039E00060F021E0F8012483F985F329F9872FEFAE
:1039F000E21AF20A095F1F4F47CF20906B0390E055
:103A000080E020916C03221215C08017910761F3AA
:103A1000A22CB12CF501EE0FFF1FED59FC4FF182E6
:103A2000E0826FEFA61AB60A73E0A722BB24A09229
:103A30006C03DACFA22CB12CF501EE0FFF1FED596C
:103A4000FC4F2081318147E0429FC001439F900D90
:103A50001124BC0160507F4F2B01B801C2010E94AC
:103A60009C1B0097A9F021E0FC012483801791079B
:103A700009F4BACF20916B0322120AC048165906E6
:103A800039F495012F5F3F4F2370332720936B0349
:103A90003FEFA31AB30A4A2D4370242EB2CF90E011
:103AA000511020C0F40102C0EE0FFF1F2A95E2F76B
:103AB0009F01215031092817390731F4442309F4B3
:103AC0004EC0C7010E94DF1AC4010A2C01C0880F32
:103AD0000A94EAF7982F9095F801868189238683C6
:103AE000352C82CF9C010A2C02C0359527950A946B
:103AF000E2F7A90141705527BC0161507109862385
:103B00009723892B41F5452B31F1F801828193816F
:103B1000892BE1F01B821C821D821E82FEEFF9833D
:103B2000FA830E949F248160582F9D838C83F80123
:103B3000828193818F83988729813A814B816D811E
:103B40007E810E942C10F8011582BECF60E0C70173
:103B50000E946B1AF8CFF22FF1705F2EB5CF532C65
:103B6000B3CF90916B0380916C03981719F00E946A
:103B7000761BC6CE0E946C1A1092D1031092D0030D
:103B80000E94C71ABDCECF93C82F1F928F9387EE86
:103B900094E09F938F930E94A30681E090E002C07F
:103BA000880F991FCA95E2F70E948B0C0E942F0C78
:103BB0000F900F900F900F90CF910895883208F0DA
:103BC00044C08E3108F076C08B3009F447C030F421
:103BD000873009F483C08CEA94E082C0833109F411
:103BE0005CC08431C1F78EEC94E00E940A0680919B
:103BF000D603882309F4A0C01092D6031092D503EF
:103C00001092D4031092D3031092D2032091D603C2
:103C1000222309F48CC08091D2039091D3030097A2
:103C200011F48CE991E09F938F931F922F938AE96F
:103C300094E09F938F930E94A3060F900F900F9094
:103C40000F900F900F9081E008958F3409F44BC0CE
:103C5000D0F4893241F2883309F0BDCF81ED94E090
:103C60000E940A068BE394E09F938F930E94A30621
:103C70008BE494E09F938F930E94A3060F900F9084
:103C80000F900F90C3CF813509F441C008F441C0B3
:103C9000823509F0A0CF81E027C080EC94E00E943B
:103CA0000A068BE394E09F938F930E94A3060F90E4
:103CB0000F90ACCF1092D6038DEB94E00E940A06D1
:103CC0008091D603882309F4A1CF1F928F9389EBAB
:103CD00094E09F938F930E94A306D0CF8FEA94E045
:103CE0000E940A0693CF8AE0E091D403F091D503B5
:103CF0003097D1F02081082E000C990B820F911D76
:103D00008F3F910541F03CF08FEF808307C08FEF2C
:103D1000EBCF86EFE9CF97FFF8CF108280811F921B
:103D20008F9386EA94E0D5CF83EA94E0D9CF86E9F1
:103D300094E00E940A0687CF80E00895B0E0A0E0FA
:103D4000E4EAFEE10C94E62CEBEFE80FEF3308F029
:103D50003EC1F0E0E858F24D0C94D52C0E9446127A
:103D60001F928F9387E998E09F938F930E94A306F9
:103D70000E94411283FB992790F91F929F9382FB27
:103D8000992790F91F929F9381FB992790F91F9291
:103D90009F93982F91701F929F931F928F938EE401
:103DA00098E09F938F930E94A3060E944B1293FB6F
:103DB000222720F91F922F9387FB222720F91F9299
:103DC0002F9386FB222720F91F922F9385FB222712
:103DD00020F91F922F9384FB222720F91F922F9303
:103DE00083FB222720F91F922F9382FB222720F9A1
:103DF0001F922F9391FB222720F91F922F93292F97
:103E000021701F922F9381FB222720F91F922F935D
:103E1000282F21701F922F939F938F938FE497E009
:103E20009F938F930E94A3068DB79EB78A960FB675
:103E3000F8949EBF0FBE8DBF81E01CC087E599E05E
:103E40000E940A060E94DF12F7CF8AE995E00E94DD
:103E50000A06F2CF80915203807F8093520383E75A
:103E600095E00E940A0683E599E00E940A0681E037
:103E70008093D703CDB7DEB7E7E00C94022D87E33C
:103E800099E00E940A060E94B007D6CF9091520393
:103E9000892F8E7F90FF81608093520380FF03C043
:103EA0008BE299E0D4CF8EE199E00E940A068091DE
:103EB0005203817F80935203BFCF90915203892F89
:103EC0008D7F91FF82608093520381FF08C081E162
:103ED00099E00E940A06809152038160EBCF83E053
:103EE00099E0B5CF90915203892F8B7F92FF846028
:103EF0008093520382FF03C084EF98E0EACF84EE00
:103F000098E0A5CF90915203892F877F93FF886017
:103F10008093520383FF03C088ED98E0DACF8BECE7
:103F200098E095CF80EA91E09F938F9380E795E0AA
:103F30009F938F930E94A3060F900F900F900F9066
:103F40007BCF0E94AB24062FF72EE82ED92EC091EE
:103F50005D05C7FBCC27C0F910915C05D0913901F4
:103F60000E944D22DF92EF92FF920F931F92CF9308
:103F70001F921F931F92DF931F928F938CEE94E0FA
:103F80009F938F930E94A3068DB79EB70E960FB690
:103F9000F8949EBF0FBE8DBF4FCF0E942F0C909103
:103FA0005D05892F97FB87F9805880935D0587FF12
:103FB00003C081EC98E04BCF86EB98E048CF80E0DF
:103FC0000E94C31D39CF8953FBCF8D51F9CF84EBAC
:103FD00098E00E940A0680E04DCF80E008950E949C
:103FE000ED1F0895CF93C82F8091D7038130C1F082
:103FF000882339F0823009F444C01092D70380E05E
:104000000DC00E9410118232D1F78C2F0E94ED1F3B
:1040100081111BC08C2F0E949E1E8170CF9108952C
:104020000E941011823289F38C2F0E94EF1F8111A0
:104030001BC0C431D9F060F4CB3071F0C031D1F085
:1040400081EE94E00E940A0613C081E090E0E5CF83
:10405000C93261F0C833A1F783E795E00E940A06F0
:1040600083EE94E00E940A0681E0D7CF1092D70336
:1040700080E0D3CF82E08093D70388E30E94DE1DE7
:10408000F3CF8C2F0E94DE1D81E0C8CFCF93DF934A
:10409000EB0186319C4511F50E9410119A819923FC
:1040A00099F08A7A91E009F490E09093D803811115
:1040B00009C089E20E94C3100E945F1180E0DF9175
:1040C000CF91089585E3F6CF8091D803811104C084
:1040D00089E20E94CB10F0CF85E3FBCF81E0EFCFE8
:1040E0009C0126563D452032310538F48556FB01AA
:1040F0009281992321F00E94962081E008950E94E8
:10410000B920FBCF1092D9031092DA031092DB038F
:104110001092DC0308956091D9037091DA038091C5
:10412000DB039091DC030E94E7220895482F415061
:10413000550B81E090E0A0E0B0E004C0880F991F2B
:10414000AA1FBB1F4A95D2F74091D9035091DA03B9
:104150006091DB037091DC03842B952BA62BB72B8E
:104160008093D9039093DA03A093DB03B093DC032D
:1041700008958150990B41E050E060E070E004C088
:10418000440F551F661F771F8A95D2F740955095AB
:10419000609570958091D9039091DA03A091DB032B
:1041A000B091DC0384239523A623B7238093D903FE
:1041B0009093DA03A093DB03B093DC0308950F938D
:1041C0001F93CF93DF93C42FD22FFC0182818823CA
:1041D000C9F04093DF030E949F249093DE038093F5
:1041E000DD0380E28C0F883040F4C77081E001C0AD
:1041F000880FCA95EAF70E94C609DF91CF911F91F7
:104200000F9108951091DF03141332C08091DD03E4
:104210009091DE030E94B724883C910548F5C0E2E6
:10422000CD0F1D17B9F080E2810F883040F4177070
:1042300081E001C0880F1A95EAF70E94CD09C830C5
:1042400048F481E09D2F977001C0880F9A95EAF796
:104250000E94C609802F0E94BD09C83070F6D77031
:1042600081E001C0880FDA95EAF70E94CD09C5CF39
:1042700080E28C0F883008F6C77081E001C0880F9B
:10428000CA95EAF7F2CF0F939C01CB01243F4CE58E
:10429000340759F1A8F4293DFCE53F0701F12A3D17
:1042A0004CE53407D1F1283D3C4591F406E221EE7E
:1042B00041EE68ED7CE50E94DF2080E00F910895DB
:1042C000263FFCE53F07E9F0B0F0273F3C45F9F019
:1042D000FC018281882339F11092DF03EFCF07E2DE
:1042E00025EE45EE69ED7CE5E6CF06E221EE40EEF7
:1042F00064EF7CE5E0CF07E225EE44EE65EF7CE578
:10430000DACF06E221EE42EE66EF7CE5D4CF07E29B
:1043100025EE46EE67EF7CE5CECF08E221E045EEE4
:104320006AED7CE5C8CF81E0C9CF9B01AC01F89470
:1043300060E079E08DE390E00E94B32C21503109D8
:104340004109510956954795379527952093CC00FB
:1043500082E08093C80088E98093C90086E080935A
:10436000CA0010922204109223041092E0031092CB
:10437000E10378940895909123049F5F2091220493
:10438000291303C00FB607FE0EC02091220429177F
:10439000E1F3E92FF0E0EC5DFB4F80839093230481
:1043A00088EB8093C90008959091E1038091E00328
:1043B0009817D1F39091E0039F5F903408F090E05C
:1043C000E92FF0E0EE51FC4F80819093E0030895D7
:1043D0005091E1034091E003852F90E0242F30E0DD
:1043E000541748F0AC01421B530B81E0141615061C
:1043F0000CF080E00895805C9F4FF4CF8F938FB7CF
:104400008F939F93EF93FF939091230480912204C5
:1044100098130AC088E98093C900FF91EF919F919A
:104420008F918FBF8F911895809122048F5FE82F15
:10443000F0E0EC5DFB4F90819093CE0080932204DE
:10444000ECCF2F932FB72F938F939F93EF93FF93DF
:104450009091CE008091E1038F5F803408F080E07E
:104460002091E003281739F0E82FF0E0EE51FC4FDF
:1044700090838093E103FF91EF919F918F912F9112
:104480002FBF2F91189590937D0280937C02089501
:1044900090932D0580932C050895E0912C05F091C3
:1044A0002D05309729F00190F081E02D09950895B0
:1044B00080E00895EF92FF920F931F93CF93DF93C5
:1044C000EC01E0912C05F0912D05309709F440C0E6
:1044D00080913901882341F080915D0587FF04C0F8
:1044E0008881898386E088830280F381E02DCE0174
:1044F00009958091520382FF2BC080FF04C080E7A2
:1045000099E00E940A0610E000E08AE6E82E89E0C1
:10451000F82E8091520380FF0EC0FE01E00FF11FC4
:1045200080811F928F93FF92EF920E94A3060F90BB
:104530000F900F900F900F5F1F4F0830110549F734
:104540008091520380FF04C088E699E00E940A0629
:10455000CDB7DEB7E6E00C94032DE0912C05F09189
:104560002D05309739F022E0DC012C930480F58191
:10457000E02D0995089520912A0530912B052817E3
:10458000390771F090932B0580932A05E0912C0553
:10459000F0912D05309721F00680F781E02D0995E7
:1045A000089520912805309129052817390771F0C1
:1045B0009093290580932805E0912C05F0912D0515
:1045C000309721F00084F185E02D099508950F932F
:1045D0001F93009124051091250520912605309107
:1045E0002705061717072807390791F06093240558
:1045F000709325058093260590932705E0912C055F
:10460000F0912D05309721F00284F385E02D099576
:104610001F910F910895FC013296809139018823F2
:1046200021F080915D059EE187FF96E080E091504A
:1046300008F4089521912223D1F38F5FF8CF6623E8
:1046400001F1209139012223F1F020915D0527FF2E
:104650001AC0462F4695469546954E3190F46770A0
:1046600021E030E002C0220F331F6A95E2F7840F89
:10467000911DFC01828190E02823392381E0232BC6
:1046800069F480E00895FC0132960896219126177E
:1046900021F0E817F907D1F7F4CF81E008959C01E4
:1046A000FC0132969FEF80E04191461751F09F3F09
:1046B00019F4411101C0982F8F5F8630A9F79F3FF1
:1046C00009F40895290F311D97FD3A95F901628388
:1046D0000895FC01329608962191261303C0DF014C
:1046E00011971C92E817F907B9F70895E62FE69598
:1046F000E695E695EE3170F4E80FF92FF11D67703D
:1047000021E030E001C0220F6A95EAF78281822B16
:10471000828308958091520380FF0CC01F926F9393
:1047200080EA99E09F938F930E94A3060F900F90C9
:104730000F900F900895E62FE695E695E695EE31F9
:1047400078F4E80FF92FF11D677021E030E001C027
:10475000220F6A95EAF72095828128232283089503
:104760008091520380FF0CC01F926F9382E899E002
:104770009F938F930E94A3060F900F900F900F901E
:10478000089520913901222339F020915D0527FFFA
:1047900003C00E94762308950E944F23089520911C
:1047A0003901222339F020915D0527FF03C00E94C3
:1047B0009B2308950E9469230895FC0132968091FD
:1047C0003901882351F080915D0587FF06C08EE195
:1047D000DF011D928A95E9F7089586E0F9CF46E05A
:1047E00050E00E94122D21E0892B09F420E0822F55
:1047F000089508950E94F9230895811106C081E06B
:1048000080932E050E94FA23089582E0F9CF83E079
:1048100080932E050E94FA2308950E94FD23089597
:1048200081E080932E050E94FA2308950E941024AF
:104830000895089508950E941A24089508950895EA
:104840000E9419240895CF930E941E240E944416AA
:104850000E941F24C0E08C2F0E94D115892B31F4B7
:10486000CF5FC530C1F780E0CF91089581E0FCCFE4
:1048700085B7806885BF85B7806885BF08951F921A
:104880001FB61F9211248F939F93AF93BF93809174
:104890002F05811113C08091730590917405A0912B
:1048A0007505B09176054196A11DB11D80937305E4
:1048B00090937405A0937505B0937605BF91AF9161
:1048C0009F918F911F901FBE1F90189580917B051F
:1048D000843031F10E94290810922F0588E190E080
:1048E00020E40FB6F894A895809360000FBE209343
:1048F000600083B7817F846083BF83B7816083BF9B
:104900007894889583B78E7F83BF0FB6F894A89567
:1049100080916000886180936000109260000FBEFB
:1049200008950E942F0C0E942E08089582E084BDF5
:1049300093E095BD9AEF97BD80936E0008952FB7D1
:10494000F8948091730590917405A0917505B091CC
:1049500076052FBF08952FB7F89460917305709175
:10496000740580917505909176052FBF08959C017F
:104970004FB7F8948091730590917405A0917505D7
:10498000B09176054FBF821B930B089578941F92C8
:104990001FB61F9211248F939F93AF93BF93809163
:1049A000730590917405A0917505B09176050196F7
:1049B000A11DB11D8093730590937405A093750597
:1049C000B0937605BF91AF919F918F911F901FBEBD
:1049D0001F90189587E797E7909301088093000848
:1049E00088E19AE00FB6F894A895809360000FBE16
:1049F00090936000FFCF88E19AE00FB6F894A895F5
:104A0000809360000FBE90936000FFCF80915B05A4
:104A100008959C0180917B058430E9F482E08093C5
:104A2000E9009FEF8091E800915085FD06C085ED7B
:104A30008A95F1F700009111F5CF8091E80085FF8C
:104A40000AC050E040E0C9010E9421288091E8009E
:104A50008E778093E8000895E5E3F5E025E0208374
:104A6000618372838383948365E070E0CF010E9449
:104A700009250895E2E3F5E024E020839283818311
:104A800063E070E0CF010E94092508959C0182E057
:104A90008093E9009FEF8091E800915085FD06C06A
:104AA00085ED8A95F1F700009111F5CF8091E8002E
:104AB00085FF0CC050E040E066E070E0C9010E9454
:104AC00021288091E8008E778093E8000895CF93A5
:104AD000DF93EC01809139018823B1F180915D056C
:104AE00087FF32C060E282E08093E9008FEF90910F
:104AF000E800815095FD06C095ED9A95F1F700000C
:104B00008111F5CF8091E80085FF1BC080913901AC
:104B100070E050E040E0811104C050E040E068E007
:104B200070E0CE010E9421288091E8008E7780936A
:104B3000E80080E2FE01ABE3B5E001900D928A95BA
:104B4000E1F7DF91CF91089568E081E0CDCFE2E316
:104B5000F5E023E020839283818363E070E0CF015E
:104B60000E940925089582ED99E00E940A0680912D
:104B70007A05811109C00E94B1290E940E2A8091F4
:104B8000E20084608093E20008958EEC99E00E9438
:104B90000A0610927A0508958AEC99E00E940A06A6
:104BA0000E941024089586EC99E00E940A06609104
:104BB000770581E0611101C080E00E94072408951B
:104BC00082EC99E00E940A0690917B0581E0943086
:104BD00009F080E0609177050E940D2408952091EE
:104BE00031052F5F822F62E30E94A72C992319F0D1
:104BF0002093310508951092310580913A0588235C
:104C0000F1F080917B058430C1F49091E9009F70B0
:104C10002091EC00822F817020FD80E8892B93E0A9
:104C20009093E9009091EB0090FF04C09091EE000A
:104C300097FD08C08F708093E90010923A0508959F
:104C40001092F1009091E80095FDFACF9091E80064
:104C500090FFF0CF9091E8009E779093E800EACF24
:104C600042E061EC81E00E942D2942E261EC82E0A9
:104C70000E942D2942E261EC83E00E942D2990914F
:104C80007B0581E0943009F080E0609177050E9417
:104C9000FD23089580917D05833009F461C030F4CF
:104CA0008130D1F1823009F49EC008958A3009F430
:104CB0008AC08B3009F46FC0893009F050C08091F0
:104CC0007C05813209F04BC080918005909181056F
:104CD000029708F044C08091E800877F8093E80045
:104CE0008091E80082FF37C09091F3008091F2003C
:104CF000029731F48091F100813011F0863021F477
:104D00008091F10080935B058091E8008B77809320
:104D1000E8000E94612923C080917C05813AF9F462
:104D20008091E800877F8093E800809180059091D2
:104D30008105892B61F460E28BE395E070E00E94CD
:104D400070288091E8008B778093E800089560E0F8
:104D500090E080E0F3CF80917B058111C1CF089571
:104D600080917C05813AD9F78091800590918105E9
:104D7000892BA9F78091E800877F8093E8008091D4
:104D8000E80080FFFCCF809139018093F100809191
:104D9000E8008E77BCCF80917C05813201F780914D
:104DA000800590918105892BD1F68091E800877F5D
:104DB0008093E8000E94612980917E0580933901EB
:104DC0000E942F0C089580917C05813241F68091DC
:104DD000E800877F8093E8000E94612980917F0529
:104DE00080935C05089580917C05813A09F0B7CFE6
:104DF0008091E800877F8093E8008091E80080FF41
:104E0000FCCF80915C05C1CF9FB7F89410923A0512
:104E10009FBF90917B05943009F048C02091E90034
:104E20002F703091EC00932F917030FD90E8922B11
:104E300023E02093E9002091EB0020FF34C0209173
:104E4000EE0027FF30C020913005222321F0209171
:104E5000E80025FF28C01092300526E03091E800D8
:104E600035FF14C08093F1008091E80085FD27C0D4
:104E70008091E80080FFFCCF8091E8008E778093DE
:104E8000E8009F709093E90080E0089530917B05E1
:104E9000343049F43091EB0035FD05C0215041F428
:104EA00081E0809330059F709093E9008FEF089523
:104EB000EFE9FFE03197F1F700C00000CFCF8FB7E7
:104EC000F89421E020933A058FBFDBCF84B7877F2A
:104ED00084BF0FB6F894A895809160008861809394
:104EE0006000109260000FBE80E890E00FB6F8946A
:104EF00080936100909361000FBE0E941624089574
:104F00000E94B1290E940E2AE2EEF0E080818460C6
:104F1000808378940E948C2C08958DE291E00E9409
:104F20004822089580917B05853051F48EEB99E0FD
:104F30000E940A0680917B05853019F00E94912419
:104F400008950E94662480917905882399F30E9430
:104F50002324882379F30E940B280E942F0CEACF88
:104F600008950E94B4270895292F3327233031054F
:104F700021F168F42130310509F443C022303105B4
:104F800009F444C090E080E030E020E026C0213207
:104F9000310551F122323105A9F76330710590F7DF
:104FA000FB01EE0FFF1FE059FD4F20813181635956
:104FB0007D4FFB01808190E010C0992781309105E1
:104FC00081F0009729F00297E9F6E6EDF9E002C0DA
:104FD000E6E1FAE0849190E09F01FA0131832083B9
:104FE0000895E6EFF9E0F6CF6330710558F6660FE5
:104FF000771FFB01EA58FD4F2081318189E090E065
:10500000ECCF82E190E025E73AE0E7CF8BE590E056
:105010002AE13AE0E2CF80E189BD82E189BD09B4AD
:1050200000FEFDCF8091D8008F7D8093D8008091C5
:10503000E00082608093E0008091E00081FDFCCF81
:105040000895AF92BF92CF92DF92FF920F931F937A
:10505000CF93DF936C01EB018A010E948029F82E27
:10506000811123C00115110539F0F801808191816A
:10507000C81BD90BC80ED91EB12CA12C2097A9F0A2
:105080008091E80085FD22C08091E8008E778093B2
:10509000E80001151105A1F0F80180819181A80EA9
:1050A000B91EB182A08285E0F82E8F2DDF91CF91BD
:1050B0001F910F91FF90DF90CF90BF90AF90089518
:1050C0000E9480298823D1F2F82EEFCFF60181913A
:1050D0006F018093F1002197FFEFAF1ABF0ACECF87
:1050E000FC01809182059091830586179707A0F0B7
:1050F0006115710529F49091E8009E779093E8007E
:1051000090E06115710551F4911108C08091E8009B
:1051100082FF34C080E00895BC01F2CF80917B050E
:105120008823C1F18530C1F18091E80083FD30C052
:105130008091E80082FDEACF8091E80080FFE1CF16
:105140008091F3002091F200382F6115710519F05C
:105150002830310558F091E02830310509F090E011
:105160002091E8002E772093E800CBCF81918093A7
:10517000F100615071092F5F3F4FE7CF80917B05B0
:10518000882341F0853041F08091E80083FFBECF55
:1051900081E0089582E0089583E00895FC01809104
:1051A00082059091830586179707A0F06115710518
:1051B00029F48091E8008E778093E80090E06115F3
:1051C000710551F4911108C08091E80082FF35C04B
:1051D00080E00895BC01F2CF80917B058823C9F15E
:1051E0008530C9F18091E80083FD31C08091E800ED
:1051F00082FDEACF8091E80080FFE1CF8091F3004B
:105200002091F200382F6115710519F02830310511
:1052100058F091E02830310509F090E08091E800E5
:105220008E778093E800CBCF84918093F100319604
:10523000615071092F5F3F4FE6CF80917B05882336
:1052400041F0853041F08091E80083FFBDCF81E0DF
:10525000089582E0089583E00895982F973028F00C
:105260008F708093E90081E008959093E900242FE6
:10527000762F50E0981731F07091EC002091ED00FE
:105280005091F00021FD02C09F5FE8CF3091EB000C
:105290003E7F3093EB003091ED003D7F3093ED0089
:1052A0003091EB0031603093EB007093EC00209371
:1052B000ED005093F0002091EE0027FDE5CF80E057
:1052C000089580917C0587FF13C08091E80082FFDC
:1052D00006C08091E8008B778093E80004C080913D
:1052E0007B058111F2CF089580917B058823D9F346
:1052F0008091E80080FFF8CF8091E8008E77ECCFB6
:105300002091E4003091E50095E6A9012091EC00A0
:10531000822F817020FF06C08091E80080FF06C0C8
:1053200080E008952091E80022FD1AC080917B055D
:10533000882389F0853089F08091EB0085FD0FC0CE
:105340002091E4003091E50042175307F9F29150A3
:10535000E1F684E0089582E0089583E0089581E015
:1053600008950E94202A0E94282AE0EEF0E0808121
:1053700081608083E8EDF0E080818F77808319BCC5
:10538000A7EDB0E08C918E7F8C9380818F7E80839F
:1053900010927A0508950F931F93CF93DF930E9485
:1053A000202A0E94282AC8EDD0E088818F77888340
:1053B00088818068888388818F7D888319BC10925A
:1053C0007B0510927705109279051092780500EE12
:1053D00010E0F80180818B7F8083888181608883E1
:1053E00042E060E080E00E942D29E1EEF0E0808163
:1053F0008E7F8083E2EEF0E0808181608083808117
:1054000088608083F80180818E7F808388818061BD
:105410008883DF91CF911F910F910895E8EDF0E01F
:1054200080818F7E8083E7EDF0E0808181608083E2
:1054300084E082BF81E080937A050E94CB290895A1
:10544000E8EDF0E080818E7F80831092E200089585
:105450001092DA001092E10008951F920F920FB699
:105460000F9211242F933F934F935F936F937F93EA
:105470008F939F93AF93BF93EF93FF938091E1003E
:1054800082FF0BC08091E20082FF07C08091E100A3
:105490008B7F8093E1000E94EF258091DA0080FFEE
:1054A00019C08091D80080FF15C08091DA008E7FEE
:1054B0008093DA008091D90080FF96C080E189BD99
:1054C00082E189BD09B400FEFDCF81E080937B05B8
:1054D0000E94B3258091E10080FF19C08091E20015
:1054E00080FF15C08091E2008E7F8093E200809162
:1054F000E20080618093E2008091D8008062809316
:10550000D80019BC85E080937B050E94D32580914B
:10551000E10084FF2BC08091E20084FF27C080E17E
:1055200089BD82E189BD89B5982F917080FFFBCF3D
:105530008091D8008F7D8093D8008091E1008F7E8C
:105540008093E1008091E2008F7E8093E200809161
:10555000E20081608093E20080917705882309F45E
:1055600049C084E080937B050E94E0258091E100A2
:1055700083FF29C08091E20083FF25C08091E10074
:10558000877F8093E10082E080937B05109277050E
:105590008091E1008E7F8093E1008091E2008E7F18
:1055A0008093E2008091E20080618093E20042E01B
:1055B00060E080E00E942D298091F0008860809357
:1055C000F0000E94CC25FF91EF91BF91AF919F9188
:1055D0008F917F916F915F914F913F912F910F909C
:1055E0000FBE0F901F90189519BC10927B050E945A
:1055F000C52570CF8091E30087FD93E090937B05F4
:10560000B3CF1F920F920FB60F9211242F933F9397
:105610004F935F936F937F938F939F93AF93BF93BA
:10562000CF93DF93EF93FF93D091E900DF708091E8
:10563000EC00C82FC17080FDC0E81092E900809195
:10564000F000877F8093F00078940E94452B1092A1
:10565000E9008091F00088608093F000CD2BCF703E
:10566000C093E900FF91EF91DF91CF91BF91AF918E
:105670009F918F917F916F915F914F913F912F916A
:105680000F900FBE0F901F901895AAE2B0E0EBE4C8
:10569000FBE20C94EA2C8CE795E02091F100FC01F0
:1056A0002193CF01F5E084389F07B9F70E944A267D
:1056B0008091E80083FF1EC180917C0590917D055B
:1056C0009A3008F017C1E92FF0E0E954F24D0C943C
:1056D000D52C803899F0823809F00CC18091800572
:1056E0008F70873008F006C18093E9008091EB004D
:1056F00085FB882780F91092E90006C08091780523
:1057000090917905911182609091E800977F909334
:10571000E8008093F1001092F1008091E8008E770C
:10572000E5C0882309F4D3C0823009F0E3C080913A
:105730007E058111D6C0809180058F702FEF280FD4
:10574000263008F0D7C08093E9002091EB0020FFBD
:10575000C8C0933031F48091EB0080628093EB00FD
:10576000C0C09091EB0090619093EB0021E030E09D
:1057700001C0220F8A95EAF72093EA001092EA000E
:105780008091EB008860EACF8111B4C010917E0552
:105790001F778091E3008078812B8093E3008091D4
:1057A000E800877F8093E8000E9461298091E800EB
:1057B00080FFFCCF8091E30080688093E30082E06B
:1057C000111183E080937B0595C08058823008F0EA
:1057D00091C080917E0590917F058C3D23E09207DA
:1057E000A1F583E08A838AE289834FB7F894DE01CA
:1057F000139620E03EE051E2E32FF0E05093570093
:10580000E49120FF03C0E295EF703F5FEF708E2FB1
:1058100090E0EA30C0F0C7968D939D932F5F2431BE
:1058200059F74FBF8091E800877F8093E8006AE2D4
:1058300070E0CE0101960E9470288091E8008B777D
:105840008093E80057C0C096E7CF609180057091C3
:105850008105AE014F5F5F4F0E94B127BC01892BCC
:1058600009F448C09091E800977F9093E8008981FF
:105870009A810E94CE28E1CF8038E1F58091E8003E
:10588000877F8093E800809177058093F10045CF72
:10589000811130C090917E05923060F58091E800D2
:1058A000877F8093E800909377050E94612980911B
:1058B0007705882311F084E005C08091E30087FD1F
:1058C000FACF81E080937B050E94302613C080913F
:1058D0007E05813079F481E0933009F080E0809397
:1058E00079051092E9008091E800877F8093E800B5
:1058F0000E9461298091E80083FF0AC08091E8003E
:10590000877F8093E8008091EB0080628093EB00BA
:10591000AA96E3E00C94062DCF9380917B05882313
:10592000A1F0C091E900CF709091EC00892F8170B7
:1059300090FD80E8C82B1092E9008091E80083FD7B
:105940000E94452BCF70C093E900CF910895991B19
:1059500079E004C0991F961708F0961B881F7A9566
:10596000C9F780950895A1E21A2EAA1BBB1BFD0161
:105970000DC0AA1FBB1FEE1FFF1FA217B307E4072E
:10598000F50720F0A21BB30BE40BF50B661F771F86
:10599000881F991F1A9469F7609570958095909566
:1059A0009B01AC01BD01CF010895EE0FFF1F0590D3
:1059B000F491E02D09942F923F924F925F926F9253
:1059C0007F928F929F92AF92BF92CF92DF92EF928F
:1059D000FF920F931F93CF93DF93CDB7DEB7CA1B10
:1059E000DB0B0FB6F894DEBF0FBECDBF09942A883B
:1059F000398848885F846E847D848C849B84AA84E3
:105A0000B984C884DF80EE80FD800C811B81AA816F
:105A1000B981CE0FD11D0FB6F894DEBF0FBECDBF3A
:105A2000ED010895FB01DC0104C08D910190801906
:105A300021F441505040C8F7881B990B0895FB0191
:105A4000DC0102C001900D9241505040D8F70895FA
:105A5000F999FECF92BD81BDF89A992780B5089536
:105A6000A8E1B0E042E050E00C945C2D262FF999BB
:105A7000FECF92BD81BDF89A019700B4021639F0AD
:105A80001FBA20BD0FB6F894FA9AF99A0FBE08957E
:105A90000396272F0E94372D0E94362D252F0E9416
:105AA000372D242F0C94372D0196272F0E94372D48
:105AB0000C94362DDC01CB01FC01F999FECF06C018
:105AC000F2BDE1BDF89A319600B40D9241505040BC
:105AD000B8F70895F894FFCF0F0A0F0A400A400A5A
