:100000000C9405070C944C070C944C070C944C076B
:100010000C944C070C944C070C944C070C944C0714
:100020000C944C070C944C070C94CB2C0C949F2DE7
:100030000C9426270C944C070C944C070C944C07FA
:100040000C944C070C944C070C944C070C944C07E4
:100050000C944C070C947D270C944C070C944C0783
:100060000C944C070C94BD080C944C070C944C0752
:100070000C944C070C944C070C944C070C944C07B4
:100080000C944C070C944C070C944C070C944C07A4
:100090000C944C070C944C070C944C070C944C0794
:1000A0000C944C070C944C070C944C070A00253018
:1000B000313662003A200025303258000A722F6330
:1000C00020303132333435363738394142434445B4
:1000D000460A0035001E001F0020002100220023D8
:1000E00000045124002500260027002D002E002B9F
:1000F0000014001A000800150017004A004D001CEB
:100100000018000C001200130031002961040016D1
:1001100000070009000A004E00705D0B000D000E84
:10012000000F003300340002551D001B00060019AB
:100130000005004B006F5D110010003600370038DD
:1001400000125503000500E30090642C432B614C22
:10015000002A0028002C425000510052004F003568
:10016000001E001F00200021002200230004512453
:10017000002500260027002D002E002B0014001A59
:10018000000800150017004A004D001C0018000C64
:100190000012001300310029610400160007000955
:1001A000000A004B00705D0B000D000E000F0033C5
:1001B00000340002551D001B000600190005004E0A
:1001C000006F5D1100100036003700380012550A2C
:1001D000000C00050090642C432B684C002A00287A
:1001E000002C425000510052004F0035023A003BB3
:1001F000003C003D003E00440045003F00400041FF
:10020000004200430035000100570055002F023026
:10021000023102010001000100F900520001000159
:1002200000010039002002210226022702240201D7
:10023000000100FB00500051004F00FC00010001D4
:1002400000220223022F003000670001000100019C
:1002500000FA00010001000100010001000100019D
:100260000001000100295D01000100010001000101
:100270000001000100010001003A003B003C003D8C
:10028000003E00440045003F004000410042004362
:100290000001000100010001005200F9000100010D
:1002A00000010057005F00600061002D0067000141
:1002B00000FB00500051004F00FC00010001005500
:1002C000005C005D005E0056006700010001000157
:1002D000000100FA00010001000100620059005A0B
:1002E000005B0001000100010001000100010001AC
:1002F00000010001000100010001000100010001F6
:10030000000100005C1050115000000000000000CF
:1003100000000000000000000000000000000000DD
:1003200000175C185C0000000000000000000000E6
:10033000000000000000000000000000001B5C1C2A
:100340005C00000000000000000000000000000051
:10035000000000000000000000000000000000009D
:10036000000000000000000000000000000000008D
:10037000000000000000000000000000000000007D
:100380000000000000000000000000000000004429
:10039000454255473A2064697361626C65642E0A70
:1003A0000044454255473A20656E61626C65642E93
:1003B0000A0000000000000000002A2B28000000B6
:1003C0000000000000000000000000000029000004
:1003D00000002C1E3420212224342627252E362DE1
:1003E0003738271E1F202122232425263333362E7B
:1003F00037381F0405060708090A0B0C0D0E0F10ED
:100400001112131415161718191A1B1C1D2F313031
:10041000232D350405060708090A0B0C0D0E0F10D5
:100420001112131415161718191A1B1C1D2F313011
:10043000354C00000000000000000000000000003B
:1004400000000000000000000000000000000000AC
:100450000000000000007E0F00D4FFFFFFC7000077
:1004600000784F6E6573686F743A2074696D656FBC
:1004700075740A004F6E6573686F743A2061637417
:100480006976653A2025640A000A00253032580052
:100490006B6579626F6172645F7365745F6C6564CC
:1004A0003A2000290A002575002F002575005D28D7
:1004B0000025640020002564002000256400200041
:1004C0002564007C0025303258006D6F7573656BB4
:1004D0006579205B62746E7C782079207620685D77
:1004E000287265702F61636C293A205B00313A09EC
:1004F00064656C6179282A31306D73293A2025753D
:100500000A323A09696E74657276616C286D7329D6
:100510003A2025750A333A096D61785F7370656515
:10052000643A2025750A343A0974696D655F746F01
:100530005F6D61783A2025750A353A0977686565F7
:100540006C5F6D61785F73706565643A2025750A2C
:10055000363A09776865656C5F74696D655F746FBD
:100560005F6D61783A2025750A00703A09707269EA
:100570006E742076616C7565730A643A09736574EC
:100580002064656661756C74730A75703A092B3165
:100590000A646E3A092D310A6C743A092B31300A1B
:1005A00072743A092D31300A4553432F713A09715B
:1005B0007569740A0A7370656564203D2064656C12
:1005C0007461202A206D61785F7370656564202AEC
:1005D0002028726570656174202F2074696D655FD5
:1005E000746F5F6D6178290A77686572652064654C
:1005F0006C74613A20637572736F723D25642C20B0
:10060000776865656C3D25640A5365652068747478
:10061000703A2F2F656E2E77696B6970656469611A
:100620002E6F72672F77696B692F4D6F7573655FDA
:100630006B6579730A004D3E20004D25753A257390
:100640003E20003F0A003D2025750A003F0A006455
:10065000656661756C74730A0025750A003F0A00AF
:100660000A092D2056616C756573202D0A00710AE8
:10067000000A092D204D6F7573656B6579202D0A71
:10068000003F00433E20004C25640A000A092D204B
:10069000537461747573202D0A686F73745F6B6592
:1006A00079626F6172645F6C65647328293A2025F2
:1006B0003032580A6B6579626F6172645F70726F75
:1006C000746F636F6C3A20253032580A6B6579621B
:1006D0006F6172645F69646C653A20253032580A34
:1006E0006B65796D61705F636F6E6669672E6E6BA7
:1006F000726F3A20253032580A74696D65725F72E4
:10070000656164333228293A202530386C580A0054
:100710000A092D2056657273696F6E202D0A56499D
:10072000443A20307834443434284D61747469611B
:100730002044616C2042656E29205049443A2030A3
:100740007835323537285265646F785F776972651E
:100750006C65737329205645523A2030783030301A
:10076000310A4255494C443A2020284A756E2031BE
:10077000332032303232290A4F5054494F4E533AC7
:10078000204C554641204D4F5553454B455920452A
:10079000585452414B455920434F4E534F4C4520DE
:1007A000434F4D4D414E44204E4B524F2034303933
:1007B000360A4743433A20382E342E3020415652D1
:1007C0002D4C4942433A20322E302E302041565291
:1007D0005F415243483A20617672350A000A092D7A
:1007E00020436F6E736F6C65202D0A4553432F7144
:1007F0003A09717569740A6D3A096D6F7573656BA5
:1008000065790A000A092D204D61676963202D0A68
:10081000443A094465627567204D65737361676585
:1008200020546F67676C650A583A094D61747269A4
:1008300078204465627567204D6F646520546F674A
:10084000676C65202D2053686F77206B6579707217
:10085000657373657320696E206D617472697820A9
:10086000677269640A4B3A094B6579626F61726419
:1008700020446562756720546F67676C65202D2082
:1008800053686F77206B657970726573732072653A
:10089000706F72740A4D3A094465627567204D6F36
:1008A00075736520546F67676C650A563A0956651B
:1008B0007273696F6E0A533A095374617475730ADF
:1008C000433A09416374697661746520436F6E73BE
:1008D0006F6C65204D6F64650A46312D4631303AA4
:1008E0000953776974636820746F204C617965726D
:1008F00020302D392028463130203D204C30290A27
:10090000302D393A0953776974636820746F204C2D
:100910006179657220302D390A47524156453A09AE
:1009200053776974636820746F204C617965722015
:10093000302028616C7465726E617465290A423AD0
:10094000094A756D7020746F20426F6F746C6F610F
:100950006465720A4553433A094A756D7020746F95
:1009600020426F6F746C6F616465722028616C74D3
:1009700065726E617465290A453A095072696E7430
:1009800020454550524F4D2053657474696E67730E
:100990000A4253504143453A09436C656172204510
:1009A0004550524F4D0A4E3A094E4B524F20546F0C
:1009B00067676C650A006B65796D61705F636F6E68
:1009C0006669672E7261773A20253032580A2E7395
:1009D0007761705F636F6E74726F6C5F6361707369
:1009E0006C6F636B3A2025750A2E636170736C6FB0
:1009F000636B5F746F5F636F6E74726F6C3A202508
:100A0000750A2E737761705F6C63746C5F6C6775C9
:100A1000693A2025750A2E737761705F7263746C72
:100A20005F726775693A2025750A2E737761705F6A
:100A30006C616C745F6C6775693A2025750A2E735A
:100A40007761705F72616C745F726775693A2025B7
:100A5000750A2E6E6F5F6775693A2025750A2E73C9
:100A60007761705F67726176655F6573633A2025B1
:100A7000750A2E737761705F6261636B736C61736B
:100A8000685F6261636B73706163653A2025750A04
:100A90002E6E6B726F3A2025750A00646562756769
:100AA0005F636F6E6669672E7261773A2025303218
:100AB000580A2E656E61626C653A2025750A2E6DA6
:100AC00061747269783A2025750A2E6B6579626FB8
:100AD0006172643A2025750A2E6D6F7573653A2030
:100AE00025750A006565636F6E6669673A0A646515
:100AF0006661756C745F6C617965723A2025750A60
:100B0000003F004E4B524F3A206F66660A004E4B34
:100B1000524F3A206F6E0A000A6D6F7573653A2066
:100B20006F66660A000A6D6F7573653A206F6E0A0C
:100B3000000A6B6579626F6172643A206F66660ABB
:100B4000000A6B6579626F6172643A206F6E0A0009
:100B50000A6D61747269783A206F66660A000A6DE0
:100B600061747269783A206F6E0A000A6465627572
:100B7000673A206F66660A000A64656275673A2004
:100B80006F6E0A000A0A4A756D70696E6720746F8D
:100B900020626F6F746C6F616465722E2E2E200060
:100BA000433E2000436C656172696E672045455085
:100BB000524F4D0A000A002530325820006B6579EB
:100BC000626F6172645F7265706F72743A20006464
:100BD000656C5F6B65795F6269743A2063616E274B
:100BE000742064656C3A20253032580A00616464D0
:100BF0005F6B65795F6269743A2063616E27742068
:100C00006164643A20253032580A005B735D005BF2
:100C1000575D005B535D005B525D005B445D005BB4
:100C2000435D001E035200650064006F0078005FA2
:100C30000077006900720065006C00650073007346
:100C40000000001E034D0061007400740069006123
:100C5000002000440061006C002000420065006E2E
:100C60000000000403090409025B00030100A0FA6C
:100C70000904000001030101000921110100012202
:100C800040000705810308000A0904010001030070
:100C9000000009211101000122D400070582032070
:100CA000000A0904020002030000000921110100EA
:100CB000012222000705830320000107050303200A
:100CC00000011201000200000008444D57520100CB
:100CD000010200010631FF0974A101097515002602
:100CE000FF009520750881020976150026FF009502
:100CF0002075089102C005010902A10185020901C0
:100D0000A10005091901290815002501950875019B
:100D100081020501093009311581257F9502750889
:100D2000810609381581257F950175088106050C16
:100D30000A38021581257F950175088106C0C00516
:100D4000010980A101850319012AB700150126B701
:100D500000950175108100C0050C0901A1018504F1
:100D600019012AA002150126A00295017510810023
:100D7000C0050C0901A10185050903A10405091994
:100D800001292015002501952075018102C0C005AB
:100D9000010906A1018506050719E029E7150025C7
:100DA000019508750181020507190029EF15002535
:100DB0000195F07501810205081901290595057550
:100DC000019102950175039101C005010906A10178
:100DD000050719E029E7150025019508750181022D
:100DE0009501750881010507190029FF150026FFE7
:100DF00000950675088100050819012905950575F6
:100E0000019102950175039101C011241FBECFEF1E
:100E1000DAE0DEBFCDBF04B603FE27C080913A04FE
:100E200090913B04A0913C04B0913D048730904BDD
:100E3000A740B04BD1F410923A0410923B041092A8
:100E40003C0410923D0414BE84B7877F84BF0FB664
:100E5000F894A8958091600088618093600010925A
:100E600060000FBEE0E0F8E3099511E0A0E0B1E01A
:100E7000E6E1F6E602C005900D92A03FB107D9F772
:100E800024E0A0EFB1E001C01D92AA33B207E1F760
:100E90000E940F1A0C94A2320C940000FF93EF935F
:100EA000E091F001F091F101309709F00995EF918F
:100EB000FF910895FC018591803011F0EFDFFBCFA9
:100EC0000895FF27E0E230E247FF0CC0419597FF0D
:100ED00009C0EDE26095709580959095611D711D3A
:100EE000811D911D27FF02C0219530E350E2AA2702
:100EF000660F771F881F991FAA1FA41710F0A41B45
:100F000063955A95A9F7AA3008F0A95FA05DAF9341
:100F1000F395611571058105910541F7ED3211F4E5
:100F2000EF93F395F21718F43F93F395FBCF8F915E
:100F3000B5DFFA95E1F70895E991F991859180304F
:100F400021F0853219F0AADFF9CF089520E0E89466
:100F500055915532C1F3503311F4689455915A3379
:100F600048F4505390F3220F022E220F220F200D2F
:100F7000250FF4CF0EF4219589919991533619F3E9
:100F8000533729F1533559F1BC0188279927E89443
:100F90005C3621F48991999168945591543639F4CD
:100FA00046EF7EF077FF0DC08FEF9FEF0AC05537F9
:100FB0004AE039F0583540E121F0523642E009F07C
:100FC0000895FF93EF937DDFEF91FF91B7CFFF93EC
:100FD000EF93FC0181918030B9F360DFFBCFFF9389
:100FE000EF9368DFF1CFDF93CF93CDB7DEB72596D0
:100FF000A3DFCF91DF910895089508950C94FD0724
:101000000E94B4090C94B208EF92FF921F93CF9301
:10101000DF93CDB7DEB72B970FB6F894DEBF0FBEC8
:10102000CDBF83E78093CE00CE0101967C018BE09B
:10103000D7011D928A95E9F7D7019E01245F3F4FA2
:10104000C70140E050E0BA011091C80017FD0AC086
:101050004F5F5F4F6F4F7F4F4131E7E25E076105A2
:10106000710590F31091CE00FC011193CF01E217AE
:10107000F30751F78B85803EB1F422EF31E0B701E1
:10108000665F7F4F11968C911197F0E88F9FC0019A
:1010900011244C91842BF901819391939F01129615
:1010A0006A177B0779F70E94BA0981E02B960FB681
:1010B000F894DEBF0FBECDBFDF91CF911F91FF909F
:1010C000EF900895E82FF0E0EE0FFF1FEE50FE4F77
:1010D000808191810895CF92DF92EF92FF920F93DA
:1010E0001F93CF93DF938CEB90E00E945A0782EF1F
:1010F000E82E81E0F82ED0E0C0E097EBC92E90E01A
:10110000D92E0EEA10E0DF93CF93DF92CF920E94A8
:10111000F30784EB90E00E945A07F70181919191C7
:101120007F010E94840B9F938F931F930F930E94C4
:10113000F3078CEA90E00E945A0721968DB79EB77C
:1011400008960FB6F8949EBF0FBE8DBFC530D1056F
:10115000D1F6DF91CF911F910F91FF90EF90DF902B
:10116000CF900895ECECF0E01082108288E180933B
:10117000C90086E08093CA0008958F938FB78F933C
:101180009F93EF93FF93E091FD0181E08E0F90918B
:10119000FC01981741F09091CE00F0E0E250FE4F34
:1011A00090838093FD01FF91EF919F918F918FBF6D
:1011B0008F911895519A599A80B3806380BB81B3FF
:1011C000806381BB08950E94FC070C94DA08CF92DB
:1011D000DF92EF92FF926B017C010E941F0B813026
:1011E00021F0843061F08D9A0BC08D9A59988C9AB9
:1011F000C701B601FF90EF90DF90CF9008958D98D2
:10120000599AF5CF9C013A9521153F4150F5FC01C3
:10121000EE27F170BC0166277270AC014427547050
:101220009C012227387094FF0EC080E1EF2B09F457
:1012300080E0672B09F08062452B09F08064232B46
:1012400089F08068089581E0EF2B09F480E0672B36
:1012500009F08260452B09F08460232B19F0886027
:10126000089580E00895CF93DF93EC010E94020976
:101270009E01205E31092830310510F0209739F4A5
:101280000E94950C8C2FDF91CF910C94F40B0E944F
:10129000180FF8CFCF93DF93EC010E94470CCE01DB
:1012A0000E9402099E01205E31092830310510F0AC
:1012B000CD2B21F4DF91CF910C949C0CDF91CF9139
:1012C0000C941F0F81E0089581E008950C94640947
:1012D00008950C9468091F93CF93DF9300D000D03A
:1012E0000F92CDB7DEB749835A836B833091FE02EC
:1012F00089819A8131111DC06623B9F02223A9F09A
:101300000E94E910182F682F89819A810E949510F8
:1013100069817A81812F0F900F900F900F900F901D
:10132000DF91CF911F910C94D1170E94C110182FFB
:10133000EFCF0E94E91069817A81EDCFFC01262F61
:10134000408151816281738184810C946B0981E0B9
:101350000895CF93DF93EC0160E00E949E09BE01E7
:10136000DF91CF910C9469090E94DF190E94980BBC
:101370000C94E3080E94711F0C94FE0780E00C940B
:10138000990B089508950E94400F0E94C2092FEF03
:1013900084E39CE0215080409040E1F700C00000D1
:1013A0000C94A1270F931F93CF93DF938C0161E0DF
:1013B0000E949E09EC01B8010E946609882309F485
:1013C00044C0B801CE010E94D31F8823F1F1B801B7
:1013D000CE010E94C4248823C1F1B801CE010E942D
:1013E000291D882391F1B801CE010E94C0238823D2
:1013F00061F1B801CE010E94EA23882331F1F8019E
:101400008281882361F0CF3DFCE5DF07B1F170F404
:10141000C115ECE5DE07B9F0C130DC45E1F0C801EB
:10142000DF91CF911F910F910C946209CC358DE51E
:10143000D80749F1CD35DC0719F1CB35DD4579F712
:101440000E940416ECCF0E94C30980E0DF91CF9187
:101450001F910F9108959091A803892F8E7F90FF7F
:1014600081608093A80380FF05C081EA93E00E9419
:101470005A07EBCF8FE893E0FACF0E94AF16E5CF83
:101480000E94FB15CCCF0E940716C9CF0C94C1094E
:101490000E9420250E94990B0C94460ADF92EF923D
:1014A000FF920F931F93CF93DF93E82FF0E0EE545A
:1014B000FC4FD490282F26952695269530E0F901EB
:1014C000EE5AFB4F0491877010E0082E02C015956C
:1014D00007950A94E2F701701127F901EE5BFB4FC3
:1014E000E490F12C082E02C0F594E7940A94E2F7F8
:1014F00091E0E922FF24F901EE5CFB4FC491D0E0BA
:1015000002C0D595C7958A95E2F7C170DD27011510
:10151000110519F081EE0E94F40BE114F10419F0A9
:1015200086EE0E94F40B8D2D0E948D0CEF2819F091
:1015300086EE0E94470C012B19F081EE0E94470CA9
:10154000CD2B51F08CE2DF91CF911F910F91FF9045
:10155000EF90DF900C948D0CDF91CF911F910F9144
:10156000FF90EF90DF900895EF92FF920F931F93FB
:10157000CF93DF93EC01162F0AE08881882309F4CA
:1015800054C0813009F04EC08981813099F47E01C8
:1015900022E0E20EF11C8A810E948D0CE701219667
:1015A000812F815050F3EFE9FFE03197F1F700C050
:1015B0000000F7CF823041F47E0182E0E80EF11C9A
:1015C0008A810E94F40BEACF833041F47E01E2E08D
:1015D000EE0EF11C8A810E94470CE0CF843011F09E
:1015E0002196DDCF2A81229690E080E0AE014F5F08
:1015F0005F4F2053330B2A30310548F0019778F2C2
:10160000EFE9FFE03197F1F700C00000F7CF089F46
:10161000B001099F700D1124C901860F971F298100
:10162000EA01E4CF0E944E0ABACFDF91CF911F9119
:101630000F91FF90EF90089560E00C94B40ACF9260
:10164000DF92EF92FF926C01EE24FF2420E0C114A0
:10165000D104E104F10419F0C701B60120E1C72E5D
:10166000D82EE92EFF24C114D104E104F10419F0AD
:10167000285FC701B6016B017C0154E0F694E79442
:10168000D794C7945A95D1F7C114D104E104F10459
:1016900019F02C5FC701B6016B017C0142E0F694A2
:1016A000E794D794C7944A95D1F7C114D104E104C3
:1016B000F10419F02E5FC701B601969587957795CD
:1016C0006795672B682B692B09F02F5F822FFF909E
:1016D000EF90DF90CF900895829590E09C01220FCB
:1016E000331F220F331F2C7C9595879595958795F1
:1016F0008373282B30E0C901880F991F8A7A3595AA
:1017000027952575822B0895CF93DF93D92F0E94BB
:101710006C0BC82F8D2F0E946C0B9C2FDF91CF91EB
:10172000089508950C94910B81E008950C94940B06
:101730000895CF93C82F0E94920B8C2FCF910C94B9
:10174000960BCF93DF93CDB7DEB72B970FB6F894F8
:10175000DEBF0FBECDBF4F83588769877A878B87DF
:1017600061110E9409151E821D8285E0FE013796D7
:10177000DE01119601900D928A95E1F7809128047F
:1017800082FD0CC00E94CC14882319F082E00E94D4
:10179000B7150E94B31481110E943A158C819D8166
:1017A000892B89F449815A816B817C818D819E814D
:1017B0000E9405142B960FB6F894DEBF0FBECDBF66
:1017C000DF91CF91089589819A8189238F3F51F3C9
:1017D000CE0101960E94A7098111E4CFEBCFFC0155
:1017E000808191810C942B11CF93C82F882309F409
:1017F0004CC08CEF8C0F813AC8F48C2F0E946C2364
:10180000811143C06C2F80910201909103010E94CD
:10181000FB25882329F08C2F0E94A6140E944815CE
:101820008C2F0E949F14CF910C94481580E28C0F4E
:10183000883048F4C77081E001C0880FCA95EAF784
:101840000E94EC14F0CFEBE5EC0FE33040F4F0E055
:10185000E65BFE4F808190E0CF910C949525E8E502
:10186000EC0FE73150F4F0E0EE0FFF1FE45EFE4FA7
:1018700080819181CF910C94AB25CD3E30F08C2F9F
:101880000E949F1ACF910C94721BCF9108958823C8
:1018900061F19CEF980F913A20F40E94A6140C94E9
:1018A000481590E2980F983050F4877091E001C08D
:1018B000990F8A95EAF7892F0E94F214F0CF9BE5E1
:1018C000980F933020F490E080E00C94952598E5F3
:1018D000980F973120F490E080E00C94AB258D3E7A
:1018E00020F00E94F91A0C94721B08951F93CF9355
:1018F000DF93182FEB010E94F40B209731F4812F16
:10190000DF91CF911F910C94470C8FE99FE00197D5
:10191000F1F700C000002197F0CF70E060E089335C
:1019200011F460E570E00C94760C882321F00E949D
:10193000EC140C9448150895882321F00E94F214A9
:101940000C9448150895BF92CF92DF92EF92FF92C8
:101950000F931F93CF93DF936C01D62FC72FFC01FA
:101960001281F580F2949FE0F9220E94E214E82EA1
:101970008823B9F0E12E1123A1F08C2F807F8034D1
:1019800021F080E28D0F8830B0F08091280482FD34
:1019900012C082E00E94B7150E94E21491E0E82E86
:1019A000E926BC2EB2948FE0B822EB2DF0E0EC5586
:1019B000FD4C0C94702FE12CF4CF0C2F0F70C07FD6
:1019C00011F00295007F112399F0002359F080E275
:1019D0008D0F883010F0D11107C0802F0E94EC14B9
:1019E0000E9448158D2F41C0802F0E94FC14F8CF13
:1019F0008D2F0E94470C002309F43FC080E28D0F19
:101A0000883010F0D11104C0802F0E94F21403C05E
:101A1000802F0E9402150E9448152FC00C2F0F70B6
:101A2000C07FC03211F00295007FDD2381F0D130FC
:101A300009F469C0112309F473C0FF2009F469C0D7
:101A4000F601858180FFCECF8F70858362C0809143
:101A5000280482FF38C0112359F0002329F0802F79
:101A60000E94EC140E94481580E00E94F40B05C00F
:101A700080E00E94470C0111C7CFEB2DE850FF0B0F
:101A8000349720F40E9420250E94990BEE2009F43F
:101A900082C10E94C81480FD7EC1F60112820E949C
:101AA000C2140E94F90FC6010E94EC0E0E94C214DB
:101AB000DF91CF911F910F91FF90EF90DF90CF902A
:101AC000BF900C941A10112389F0F11006C00E94E7
:101AD0001C15802B0E94950CD0CFF1E0FF12F7CFA0
:101AE0000E941C15802B0E942215C7CFF11006C042
:101AF0000E943A15802F0E949C0CBFCF21E0F21665
:101B000009F4BBCFF5CF112331F035E03F1508F4D0
:101B1000B4CF802FDFCF84E08F1508F4AECFEACFAB
:101B2000FF2041F3D93349F4FFEF27EE33E0F150C2
:101B300020403040E1F700C000008D2F0E94470C8C
:101B40009CCF8C2F86958695837069F0813009F043
:101B500094CF8D2F9C2F9370111102C090E080E0E4
:101B60000E94AB258ACF8D2F9C2F9370111102C03C
:101B700090E080E00E94952580CF8D2F112329F0E1
:101B80000E949F1A0E94721B78CF0E94F91AFACF06
:101B90008C2F837009F041C011116FCF4D2F4295EA
:101BA00046954770440F440F0D2F0F7010E030E042
:101BB00020E0042E04C0000F111F221F331F0A94BF
:101BC000D2F760E070E0CB01D4FF0FC06FE070E0AF
:101BD00080E090E004C0660F771F881F991F4A9528
:101BE000D2F76095709580959095C695C695C3700F
:101BF000602B712B822B932BC23049F058F4C130EB
:101C000019F00E94AD0F39CF0E949B0F36CF0E9472
:101C1000BF0F33CF0E94990F30CF8695112311F05B
:101C20008C2F8170882309F428CF4D2F429546953B
:101C30004770440F440F0D2F0F7010E030E020E08C
:101C4000042E04C0000F111F221F331F0A94D2F765
:101C500060E070E0CB01D4FF0FC06FE070E080E087
:101C600090E004C0660F771F881F991F4A95D2F72E
:101C70006095709580959095C695C695C370602BBC
:101C8000712B822B932BC23049F058F4C13019F0DC
:101C90000E947010F2CE0E945E10EFCE0E94821061
:101CA000ECCE0E94D30FE9CECF70112329F08C2FF8
:101CB0000E94F90F8D2F0ECF8D2F0E949C0C8C2F20
:101CC0000E941A10DACED23F51F160F4D03FB9F041
:101CD000D13F81F0112309F449C0F11083CE8C2F3C
:101CE0008F7121C0D33F11F1D43FA1F78091280417
:101CF00082FF26C08C2F8F71112311F314C0112382
:101D000049F084E08F1508F4B8CE8C2F8F710E94B3
:101D10003D10B3CE95E09F1508F4AFCEF6CF8C2FD3
:101D20008F711111CDCF0E94F90FA7CE112329F089
:101D30008C2F8F710E94E40FA0CE0E94DF0F9DCEEA
:101D4000112349F0CF718C2F0E94F90F63E08C2F83
:101D50000E94921592CE81E00E94B715E1E0EF1546
:101D600008F08BCE82E00E94B71587CEF110DACE54
:101D70008C2F8F71A5CF4C2F4F706D2FC6010E94F5
:101D8000CD170E94591179CE4C2F4F706D2FC6017F
:101D90000E94D01772CEDF91CF911F910F91FF90CB
:101DA000EF90DF90CF90BF9008950F931F93CF9344
:101DB000DF93EC01688179818A810E9435118C0161
:101DC0000E9494100E94980FB801CE01DF91CF912C
:101DD0001F910F910C94A30CCF93DF93EC018B8197
:101DE0009C81892B29F08881998189238F3F59F41F
:101DF000DF91CF910895CE010E94D50ECE01DF91E3
:101E0000CF910C94A909CE010E94D2098111F3CF80
:101E10000E94E214882361F38A81882349F3809128
:101E2000280482FDE5CF82E0DF91CF910C94B715B5
:101E3000882321F00E94FC140C94481508958823EF
:101E400021F00E9402150C944815089590E080E05E
:101E50000E94952590E080E00E94AB250E94091524
:101E60000E9419150E9448150E941B1D0E94721B9A
:101E70000E94FC230C9405240E94AD140C94260FA0
:101E80000E94F9140C943C0FE92FE295EF70E25098
:101E9000EE3070F4F0E0EC54FD4C0C94702F803F69
:101EA00019F020F4883E20F481E00895843FE1F3A6
:101EB00080E00895883EC0F3813FD1F7F5CF93FBD2
:101EC000882780F90895FC01808191810E942B115F
:101ED0000C94440FCF93DF9300D000D00F92CDB776
:101EE000DEB70F900F900F900F900F90DF91CF9172
:101EF0000895CF93DF9300D000D000D0CDB7DEB7E8
:101F000026960FB6F894DEBF0FBECDBFDF91CF91FE
:101F1000089508950C94890F0E948A0F60933003EE
:101F20007093310380933203909333030C94260F04
:101F300008950C948C0F0F931F9300913003109110
:101F400031032091320330913303602B712B822BAC
:101F5000932B1F910F910C948C0F0F931F93009153
:101F60003003109131032091320330913303602309
:101F70007123822393231F910F910C948C0F0F9345
:101F80001F9300913003109131032091320330915F
:101F9000330360277127822793271F910F910C9499
:101FA0008C0F0C94E7080E94D10F60932C03709360
:101FB0002D0380932E0390932F030C94260F60E043
:101FC00070E0CB010C94D30F0F931F9341E050E0CE
:101FD00060E070E08A019B0104C0000F111F221F06
:101FE000331F8A95D2F7C901B8011F910F910C9444
:101FF000D30F0F931F9341E050E060E070E004C006
:10200000440F551F661F771F8A95D2F780912C03C6
:1020100090912D03A0912E03B0912F038A019B0173
:10202000082B192B2A2B3B2BC901B8011F910F91AB
:102030000C94D30F0F931F9341E050E060E070E0E9
:1020400004C0440F551F661F771F8A95D2F7CB0136
:10205000BA01609570958095909500912C03109130
:102060002D0320912E0330912F03602371238223AF
:1020700093231F910F910C94D30F0F931F9341E063
:1020800050E060E070E004C0440F551F661F771FEA
:102090008A95D2F780912C0390912D03A0912E0365
:1020A000B0912F038A019B01082719272A273B2774
:1020B000C901B8011F910F910C94D30F0F931F9377
:1020C00000912C0310912D0320912E0330912F03AA
:1020D000602B712B822B932B1F910F910C94D30F9C
:1020E0000F931F9300912C0310912D0320912E0329
:1020F00030912F0360237123822393231F910F912B
:102100000C94D30F0F931F9300912C0310912D0368
:1021100020912E0330912F03602771278227932768
:102120001F910F910C94D30F08952EE0929F800D74
:102130001124982F977041E001C0440F9A95EAF757
:1021400086958695869595E0899FF0011124E1504A
:10215000FD4F90E080E070E05191DF0111979B010D
:10216000082E02C0369527950A94E2F72170219532
:102170002527242325272C9301968530910561F787
:1021800008952EE0929F800D1124982F97708695C8
:102190008695869525E0829FF0011124E150FD4F40
:1021A00050E040E080E0219130E0092E02C03695F9
:1021B00027950A94E2F721703327042E01C0220FDD
:1021C0000A94EAF7822B4F5F5F4F4530510559F76C
:1021D0000895BF92CF92DF92EF92FF920F931F93D9
:1021E000CF93DF938C01C0902C03D0902D03E0900F
:1021F0002E03F0902F038091300390913103A09132
:102200003203B0913303C82AD92AEA2AFB2ACFE144
:10221000D0E0BC2ED701C6010C2E04C0B695A79500
:10222000979587950A94D2F780FD0EC0219788F77D
:10223000B12C8B2DDF91CF911F910F91FF90EF90DB
:10224000DF90CF90BF900895B8018C2F0E940019A5
:10225000019761F3EECFCF93DF93EC010E94E91079
:10226000BE01DF91CF910C9400191F93CF93DF93A0
:10227000EB019091FE02992331F0CB01DF91CF91D8
:102280001F910C942B11882379F0CB010E94E91047
:10229000182F682FCE010E949510BE01812FDF916B
:1022A000CF911F910C940019CB010E94C110182FDF
:1022B000F4CFEF92FF920F931F93CF93DF938C0194
:1022C000892B81F0F12CEE24E394E8012196F801AA
:1022D0008491843770F4843008F05FC08130B1F0AD
:1022E0008230A1F1DF91CF911F910F91FF90EF907C
:1022F0000895853709F44CC008F43DC09CE7980F59
:10230000903780F78F770E94470C49C00E5F1F4FB0
:10231000FE01849190E2980F983060F48770FE2D52
:1023200001C0FF0F8A95EAF78F2F0E940C150E94BB
:10233000481502C00E94F40B8F2D815030F2EFE956
:10234000FFE03197F1F700C00000F7CF0E5F1F4F9D
:10235000FE01849190E2980F983050F48770FE2D22
:1023600001C0FF0F8A95EAF78F2F0E941215DFCF69
:102370000E94470CE1CF0E5F1F4FFE01C491C15078
:10238000D8F28FE99FE00197F1F700C00000F7CF86
:102390000E5F1F4FFE01F490CFCF0E94F40B8E0111
:1023A000CBCF1F93CF93DF93C091340316E080917E
:1023B00035038C1304C0DF91CF911F910895D0E0B5
:1023C0001C9FF0011D9FF00D1124EA5CFC4F408121
:1023D000518162817381848195810E94790F219658
:1023E000C770E5CF40916603509167036091680321
:1023F0007091690380916A0390916B030C94790F3B
:10240000FF920F931F93CF93DF9380916B03807F95
:10241000D1F4809168038823B1F080913403109146
:1024200035036091660370916703A0916903B091D1
:102430006A03062F0723C0910001D091010196E0A5
:10244000F92E181306C0DF91CF911F910F91FF90C5
:10245000089590E0109711F00F3F19F401968770DE
:10246000F0CFF89E9001F99E300D1124F901EA5C3D
:10247000FC4F41814713F2CF40814613EFCF428199
:102480004111ECCF438154814A1B5B0B4C175D0714
:1024900028F780916B038F70806180936B03F90143
:1024A000E55CFC4F80818F708061808386E693E0DD
:1024B0000E94EC0EDF91CF911F910F91FF900C9431
:1024C000D111AF92BF92CF92DF92EF92FF920F9312
:1024D0001F93CF93DF93CDB7DEB761970FB6F89414
:1024E000DEBF0FBECDBF8C0185E0F801DE011D9679
:1024F00001900D928A95E1F7F801E28086E6C82EF8
:1025000083E0D82E6091690370916A0361157105AB
:1025100009F45FC19091660320916703892F82239C
:102520008F3F09F456C140815181A380B480F0905F
:102530006803F501E61BF70BBF01E0910001F09184
:102540000101FF2009F4F6C080916B03382F307F22
:102550006E177F0708F0AFC0311179C0FE2C25132C
:1025600023C0941321C0E1101FC08F70806180933D
:102570006B030E94F211C6010E94EC0E80916B0366
:10258000F80185838F2D61960FB6F894DEBF0FBEDC
:10259000CDBFDF91CF911F910F91FF90EF90DF9012
:1025A000CF90BF90AF900895AB2829F0842F85235A
:1025B0008F3F09F027C180E0F82FF170DF2E80FFF8
:1025C0003CC0809134032091350336E0821315C05E
:1025D0004D875E878D859E850E942B11292F229520
:1025E0002F702230F0F0243018F59F70F1F0F801D0
:1025F0009581907FD1F4D12C1EC090E0389FF001DE
:10260000399FF00D1124EA5CFC4F6181651306C00F
:102610006081641303C062816E110FC001968770E0
:10262000D5CF9F7011F0882331F3805E883018F386
:10263000C8010E94EC0EFD2CA5CFEE2009F4A2CF1C
:1026400080916B03816080936B03F12C9BCF2513EA
:1026500006C0941304C0F801EE2009F487C0C80135
:102660000E94630F882319F1EE2009F180916B031A
:10267000803270F0209166033091670338872F8392
:102680001986BB86AA868C87CE0107960E94EC0E1F
:1026900086E0F801A6E6B3E001900D928A95E1F795
:1026A0000E9400120E94F211FF24F3946BCFC80124
:1026B0000E94EC0EF9CF311113C07A2DB98AA88A85
:1026C0006E2D89890E946A0F86E693E00E94EC0EC7
:1026D00086E0F60111928A95E9F70E94F211B5CFD2
:1026E00025130FC094130DC0E1100BC0F8018583B2
:1026F000C8010E94EC0E86E0F60111928A95E9F776
:1027000041CFC8010E94630F882389F2EE2079F23D
:1027100080916B03803208F4BBCF20916603309127
:1027200067033A8329831B82BD82AC828E83CE01EC
:102730000196ACCF6E177F0708F03EC0FE2CEE204E
:1027400009F4B5CF25132AC0941328C080916B03D8
:1027500080FD1BC0982F907FC1F0F8018583903FCA
:1027600031F0982F907F905F8F70892B8583C801FF
:102770000E94EC0E86E0F801A6E6B3E001900D920F
:102780008A95E1F70E94F211FDCE86E0F801A6E6F7
:10279000B3E001900D928A95E1F7F4CEC8010E9452
:1027A000630F811175CF80916B03816080936B0300
:1027B000C8010E94EC0EE6CE7A2DB98AA88A6E2D49
:1027C00089890E946A0F86E0F60111928A95E9F7DD
:1027D000D9CFEE2009F46BCFC8010E94630FF82E09
:1027E000882309F464CF86E0F801A6E6B3E00190FF
:1027F0000D928A95E1F786E693E00E94EF0B0E9426
:102800000012C0CF81E08E25D7CE1F93CF93DF93E8
:10281000CDB7DEB72C970FB6F894DEBF0FBECDBF95
:102820004F83588769877A878B879C87CE01079665
:102830000E946112882369F08A859B85892B39F073
:102840004F815885842F85238F3F09F071C016E092
:102850005FC086E0FE013796DE01119601900D9271
:102860008A95E1F78A859B85892B89F38F819885E5
:1028700089238F3F61F32091350330E0C901019630
:1028800087709927409134034817190671F40E9404
:10289000400F109235031092340386E0E6E6F3E031
:1028A000DF011D928A95E9F7D2CF96E0929FD00181
:1028B000939FB00D1124AA5CBC4FFE01319601908C
:1028C0000D929A95E1F7809335030E94D111BFCF05
:1028D000819FC00111248A5C9C4F0E946112882351
:1028E000E9F0E09134031E9FF0011124EA5CFC4FF3
:1028F0004081518162817381848195810E94790F29
:102900008091340390E00196877099278093340377
:1029100080913403909135038913DACF2C960FB64A
:10292000F894DEBF0FBECDBFDF91CF911F91089508
:1029300069857A858B859C850E94790F88CF682F61
:1029400080910201909103010C949D26682F809143
:102950000201909103010C94A826809102019091AC
:1029600003010C94B3260E94562720916F033091E7
:102970007003821B930B9C0181E0243F314008F4DB
:1029800080E0089580916E038595859585950895DD
:1029900080916E03877008950E94562720916C03E2
:1029A00030916D03821B930B843F914048F08091DE
:1029B0006E0382FB882780F991E089278170089552
:1029C00080E0FCCF90916E03977081E009F480E085
:1029D000089580919403089590919403892B809396
:1029E0009403089580959091940398239093940371
:1029F000089510929403089590919303892B8093E6
:102A00009303089580959091930398239093930353
:102A1000089510929303089590919203892B8093C7
:102A20009203089580959091920398239093920336
:102A30000895109292030895809171030895089566
:102A40000C941F15CF93C82F8091280482FD10C0CD
:102A5000809171038C1761F00E9456279093700348
:102A600080936F03C09371038C2FCF910C9420152A
:102A7000CF91089580917103882349F010927103DA
:102A80001092700310926F0380E00C94201508954B
:102A9000E0910201F0910301809194038083E09121
:102AA0000201F0910301808190919303892B80832F
:102AB000E0910201F0910301808190919203892BB2
:102AC000808380917103882321F10E94B3148823AD
:102AD00071F08091A80380FF08C082E694E09F9384
:102AE0008F930E94F3070F900F900E943A15E09188
:102AF0000201F0910301808190917103892B808301
:102B000080910201909103010E94E72581110E94AA
:102B10003A1580910201909103010C942C2508959F
:102B20000C948F159091280492FD16C098E0899F0F
:102B300090011124622B60936E030E94F90F0E9492
:102B4000562790936D0380936C0380916E03859557
:102B5000859585950C9490150C94F90F10926E0341
:102B600010926D0310926C0380E00C94901590917C
:102B70006E038095892380936E03282F277091F42C
:102B8000282F082E000C330B9217130659F0909142
:102B9000280492FD07C08595859585950E941A1099
:102BA0000C94AE150895CF93C82F8091280482FB12
:102BB000992790F99C17E9F0C0FB82F980932804CB
:102BC00080912704909128040E942B1682E00E9495
:102BD000B7158091A80380FF0CC01F92CF9384E7A4
:102BE00094E09F938F930E94F3070F900F900F90A4
:102BF0000F90CF9108958091280482FB882780F957
:102C000091E089270C94D31581E00C94D31580E0D2
:102C10000C94D31590E080E00E94313221E0893E8F
:102C20009E4F09F020E0822F089582E090E00C94FE
:102C3000293283E090E00C942932CF9384E090E035
:102C40000E942932C82F82E290E00E942932982FF8
:102C50008C2FCF910895CF93C92F682F84E090E0F7
:102C60000E9437326C2F82E290E0CF910C94373281
:102C7000AB01BC018FE090E00C944932AB01BC0188
:102C800083E190E00C94493260E070E0CB010C9459
:102C90003E1660E070E0CB010E9438160C9444169A
:102CA00069EE7EEF90E080E00E94553260E082E0C5
:102CB00090E00E94373260E083E090E00E9437327B
:102CC00010923003109231031092320310923303AA
:102CD00060E084E090E00E94373260E082E290E0C1
:102CE0000E94373260E085E090E00E94373260E079
:102CF00086E090E00E9437326FEF87E090E00E941C
:102D0000373240E050E0BA0188E090E00E9449325A
:102D100060E08DE090E00E94373240E050E0BA0180
:102D200088E190E00E94493260E087E190E00E94F3
:102D3000373240E050E0BA018CE190E00E94493225
:102D400070E060E080E290E00E94553240E050E0A8
:102D5000BA0188E190E00E9449320C9449160C9423
:102D60005016682F8EE090E00C9437320E94622754
:102D70006093A4037093A5038093A6039093A70385
:102D80006093A0037093A1038093A2039093A30385
:102D9000089585B7806885BF85B7806885BF089529
:102DA000089508950C94D01608950C94D4160E949A
:102DB000C91687EA99E20E9416250E94D1160C9442
:102DC000D21681E008950C94E116089508950E94AA
:102DD000E5160C94E6160E944D270E9400080C94FC
:102DE000D516CF93C82F8091A80382FF1EC080FF05
:102DF0001CC080E994E00E945A078091A80380FFDC
:102E000014C01F92CF938BE894E09F938F930E94FE
:102E1000F3078091A8030F900F900F900F9080FF01
:102E200004C089E894E00E945A078C2FCF910C943B
:102E3000990B8F929F92AF92BF92CF92DF92EF92B7
:102E4000FF920F931F93CF93DF93CDB7DEB72A97EF
:102E50000FB6F894DEBF0FBECDBF0E9404088111EB
:102E60000E94B61656E9852E53E0952E10E000E03C
:102E7000A02E802F0E9462086C01F401E190F19075
:102E80004F01E816F90609F45EC08091A80381FDA0
:102E90000E946B08C7018C259D25B12CEE24E3947C
:102EA000F12C9C012E213F21232B09F446C00E94C6
:102EB000E3168823A9F0BE82AF82CE20DF2081E016
:102EC000CD2809F480E088870E9456278160782FFA
:102ED0009A8789874E815F8168858A850E94A10BC8
:102EE000000F111FF801EA56FC4F80819181E826FE
:102EF000F926F182E0820E940F1C0E9405240E94A4
:102F00002025909195038917A9F10E94202580938F
:102F100095032A960FB6F894DEBF0FBECDBFDF91A2
:102F2000CF911F910F91FF90EF90DF90CF90BF90C6
:102F3000AF909F908F900C94F116B394EE0CFF1C01
:102F4000FEE0BF12AECF0F5F1F4F0530110509F035
:102F50008FCF8FEF89838A831B820E9456278160DF
:102F6000782F9D838C8349815A816B818D810E944A
:102F7000A10BC1CF2A960FB6F894DEBF0FBECDBF0E
:102F8000DF91CF911F910F91FF90EF90DF90CF9045
:102F9000BF90AF909F908F90089590E080E008954B
:102FA0000895972F70E02EE0929F600D711D1124FF
:102FB000FB0196E4899FE00DF11D1124EE0FFF1F28
:102FC000ED52FF4F859194910895FC01EE0FFF1F84
:102FD000ED55FB4F859194910895CF93DF930E9417
:102FE0000419EC01811520E5920708F042C0811513
:102FF00030E4930708F0BDC0883E910528F5803E77
:10300000910508F09DC0883A910588F4853A9105AC
:1030100008F08FC08130910509F492C0009709F43F
:103020008FC0049708F08CC0D0E0C0E089C08F3B0F
:10303000910508F489C0805C9109C03CD105A0F3DA
:103040000E94E517EC017CC08115904250F4C11537
:1030500081E0D80708F074C0CD3ED10528F3D065D3
:103060006FC0C11590E3D90708F079C0CE019F70F9
:10307000E7CF811525E5920758F5811534E59307CB
:1030800008F0A6C0811542E5940750F4C11581E50A
:10309000D80708F471C0DC2FCC27C16FD06A50C0AC
:1030A000982F969596959E0123703327C115D34589
:1030B00008F07FC0C1E0D0E002C0CC0FDD1F2A9530
:1030C000E2F720E2929FC0011124C82BD92B6FC0D8
:1030D000C11589E5D807A8F4C11598E5D90708F006
:1030E0007CC0C11526E5D20708F09ECF8C2F0E9428
:1030F0009B19C82FD0E0DC2FCC27CC27DF71D06202
:103100001FC0C1153AE5D30708F46CC0CE01905634
:103110008115904208F088CF8D2F8F710E949B19E6
:1031200090E0982F882788279F719C012C2BE9011C
:10313000E6CFC55AD0E0C558DE4FC881D0E0D06494
:10314000CE01DF91CF910895C85AD0E0CC0FDD1F9A
:10315000C35BDE4F0990D881C02DD464F1CFCE017E
:103160009927D3FF03C0EC01D86CEACFEC01D06CF7
:10317000E7CFDF70D06AE4CFCE01E4E09695879583
:10318000EA95E1F783702C2F26952695237090E21F
:10319000299F90011124382B8C2F8370C1E0D0E03F
:1031A00002C0CC0FDD1F8A95E2F7C22BD32BDC685F
:1031B000C7CFC1E0D0E002C0CC0FDD1F2A95E2F7F7
:1031C00030E2939FC0011124C82BD92BDA68B8CF05
:1031D000D82FCC27C46FD06AB3CFDC2FCC27C06FD9
:1031E000D06AAECF8C2F8F700E949B1934E0D69599
:1031F000C7953A95E1F7CF709C2FEC01D069A0CF2D
:103200000E94D1170C94ED1782389105B1F1B0F4FA
:103210008133910509F475C048F48932910509F4A8
:1032200069C08A32910509F473C008958533910508
:1032300009F459C08933910501F10895833E910540
:10324000A9F138F4803E9105F9F0823E910549F1EB
:103250000895863E9105A9F1873E9105C9F1843E06
:10326000910519F52091280421FF1FC080912704A2
:1032700084FD14C087EE90E0089520912704237008
:10328000A1F080EE90E008952091270420FD47C032
:103290003091280430FF09C024FF44C090E080E052
:1032A00004C02091270422FDF7CF08952091270420
:1032B00022FD3BC03091280430FDE3CF24FFF5CF41
:1032C000EDCF2091270423FFF0CF24FDE7CFD2CF0D
:1032D0002091270423FD2CC03091280431FFEECF2C
:1032E00084EE90E008952091270425FFDECF89E247
:1032F00090E008952091270425FFD7CF85E390E043
:1033000008952091270426FFD0CF8AE290E0089507
:103310002091270426FFC9CF81E390E0089589E337
:1033200090E0089583EE90E0089582EE90E0089595
:1033300086EE90E008959091270492FF06C0282F12
:1033400028712830F9F4877F846093FF06C0282F06
:1033500028712831F1F4877E84612091280420FFB0
:1033600006C0382F38713830D9F4877F816021FF4B
:1033700006C0282F28712831D1F4877E816194FD01
:10338000877E0895282F24712430F9F68B7F88607A
:10339000DCCF282F2471243101F78B7E8861DDCFAB
:1033A000382F3171313019F78E7F8860E0CF282FA8
:1033B0002171213121F78E7E8861E1CF08950E942D
:1033C0000A16811102C00E94AF160E941516809342
:1033D000A8030E941D1690932804809327040E943E
:1033E000DE190E941916682F70E090E080E00E94BC
:1033F000990F60912C0370912D0380912E03909171
:103400002F030C94D10F0E94222A0E94EB160C94D9
:103410002E2A0E94322A0E9419170C94502A0E94C8
:10342000DF260E94092A0E94D7160E94031A0E94D2
:10343000091A0E94E716FBCF8091AF0380FF12C0EC
:103440006091090185E0689FB00111247595679529
:103450007595679560387105A8F561157105A1F13D
:10346000862F089581FF09C06091090185E0689F5A
:10347000B001112475956795EDCF6091090182FD2A
:103480000AC08091AE038823D1F090910801609129
:103490000901891728F085E0689FB0011124DACF6F
:1034A000869FB001112485E0869F9001879F300D93
:1034B0001124692F70E0C9010E945C2FCBCF65E019
:1034C00070E0CECF8FE7089581E008958091AF033B
:1034D00080FF0CC06091050170E07595679575954A
:1034E00067956115710549F1862F089581FF06C022
:1034F0006091050170E075956795F3CF60910501C6
:1035000082FD0BC09091AD039923A1F0609104015D
:1035100080910501961738F0682F70E060387105CA
:1035200000F38FE70895899FC001112470E00E9485
:103530005C2FF4CF61E070E0D7CF81E008958D3E3D
:1035400031F40E941C1A81958093B30308958E3E36
:1035500019F40E941C1AF8CF8F3E31F40E941C1AF5
:1035600081958093B2030895803F19F40E941C1A3C
:10357000F8CF893F29F40E94661A8093B403089516
:103580008A3F21F40E94661A8195F7CF8B3F31F470
:103590000E94661A81958093B50308958C3F19F4B3
:1035A0000E94661AF8CF9FE0980F983070F4815F00
:1035B000990B21E030E001C0220F8A95EAF7809153
:1035C000B103822B8093B10308958D3F31F4809134
:1035D000AF0381608093AF0308958E3F21F4809103
:1035E000AF038260F7CF8F3FB9F78091AF0384605C
:1035F000F1CF4091B2038D3E59F48091B30387FF20
:103600000DC01092B30341110BC01092AE0308C05D
:103610008E3E81F48091B30318169CF3442381F00D
:103620008091B4039091B503892B09F05AC0109290
:10363000AD0308958F3E49F447FFF0CF1092B203D7
:103640008091B3038111ECCFE0CF803F19F41416C1
:10365000ACF3E4CF9091B403893F29F41916F4F642
:103660001092B403DBCF8A3F19F497FFD7CFF8CF7E
:103670009091B5038B3F29F497FFD0CF1092B503FB
:10368000CDCF8C3F19F41916CCF3C8CF9FE0980F1B
:10369000983090F4815F990B21E030E0B90102C0CD
:1036A000660F771F8A95E2F7CB0180959091B10361
:1036B00089238093B103B2CF8D3F31F48091AF0362
:1036C0008E7F8093AF03AACF8E3F21F48091AF030A
:1036D0008D7FF7CF8F3F09F0A1CF8091AF038B7F14
:1036E000F0CF08958091A80383FF7EC08AEC94E018
:1036F0000E945A078091B1031F928F9385EC94E04A
:103700009F938F930E94F30783EC94E00E945A07E3
:103710008091B203282F082E000C330B3F938F9318
:1037200080EC94E09F938F930E94F3078EEB94E0DC
:103730000E945A078091B303282F082E000C330BE8
:103740003F938F938BEB94E09F938F930E94F307AB
:1037500089EB94E00E945A078091B403282F082E29
:10376000000C330B3F938F9386EB94E09F938F93E2
:103770000E94F30784EB94E00E945A078091B503FE
:10378000282F082E000C330B3F938F9381EB94E08E
:103790009F938F930E94F3078EEA94E00E945A074A
:1037A0008091AE031F928F938BEA94E09F938F9347
:1037B0000E94F30789EA94E00E945A078091AF03C0
:1037C0001F928F9386EA94E09F938F930E94F30752
:1037D00083EA94E00E945A078DB79EB74C960FB6C5
:1037E000F8949EBF0FBE8DBF0E9456279C019091FA
:1037F000B2038091B303982B21F03093AC03209354
:10380000AB039091B4038091B503982B21F03093D2
:10381000AA032093A90380EB93E00C948725EF92F1
:10382000FF920F931F93CF93DF9300D000D000D06F
:10383000CDB7DEB786E0E0EBF3E0DE011196019054
:103840000D928A95E1F7E090B203F090B3030091F6
:10385000B4031091B5031092B2031092B303109207
:10386000B4031092B5038E2D8F2991F08091AB0394
:103870009091AC030E946E27AC019091AE03992306
:1038800009F43FC080910A018417150608F447C067
:10389000802F812B91F08091A9039091AA030E941F
:1038A0006E27AC019091AD03992309F477C0809104
:1038B00006018417150608F47FC08091B203909129
:1038C000B303892B9091B403892B9091B503892B75
:1038D00011F00E94721B86E0FE013196A0EBB3E06E
:1038E00001900D928A95E1F726960FB6F894DEBF07
:1038F0000FBECDBFDF91CF911F910F91FF90EF9041
:10390000089520910B018AE0289F9001112424172B
:10391000350708F0BDCF9F5F9093AE0302C09F3F75
:10392000D1F7EE2059F00E941C1A9FEF1E140CF4E0
:1039300091E0899F802D11248093B203FF2059F0DC
:103940000E941C1A9FEF1F140CF491E0899F802D98
:1039500011248093B3033091B203332309F498CF39
:103960002091B303222309F493CF45EB3403C00124
:103970001124992359F09093B20345EB240390014D
:103980001124332339F03093B30382CF81E0809345
:10399000B203F3CF81E08093B3037ACF2091070184
:1039A0008AE0289F900111242417350708F085CF5D
:1039B0009F5F9093AD0302C09F3FD1F7002359F062
:1039C0000E94661A9FEF10160CF491E0899F802DDB
:1039D00011248093B403112359F00E94661A9FEFBB
:1039E00011160CF491E0899F802D11248093B5036A
:1039F0003091B403332309F460CF2091B50322231F
:103A000009F45BCF45EB3403C0011124992359F02D
:103A10009093B40345EB240390011124332339F030
:103A20003093B5034ACF81E08093B403F3CF81E0B4
:103A30008093B50342CF86E0E0EBF3E0DF011D9217
:103A40008A95E9F71092AE031092AD031092AF037E
:103A50000895CF93DF93EC01FB018281882309F461
:103A600020C1C430FDE5DF07C8F5CB3F9CE5D90791
:103A700030F49E0122503C452431310598F50E94D6
:103A80001D169093280480932704C031FCE5DF07BE
:103A900009F4E0C008F061C0C8309CE5D90709F41A
:103AA000CBC088F5C430FCE5DF0709F4B3C0E8F407
:103AB000C2309CE5D90709F4A7C080912704826031
:103AC000C330DC4509F4A3C08091270490912804F9
:103AD0000E942B160E94400F80E004C0C236EDE524
:103AE000DE0769F2DF91CF9108958091270480610C
:103AF000C630FCE5DF0709F48AC008F48FC0809166
:103B00002704806284C0809127048D7FCC309CE59F
:103B1000D90709F47CC070F4809127048C60CA3006
:103B2000FCE5DF0709F473C008F48AC0809127041C
:103B30008E7F6DC080912704877FCE309CE5D907AA
:103B400009F465C0809127048B7FCF30DC4508F4F1
:103B50005EC0809127048F7E5AC0CD3FFCE5DF0711
:103B600009F474C040F5C4319CE5D90709F48AC052
:103B700058F4C231FCE5DF0709F474C008F46EC0E4
:103B800080912704837F43C0CB3F9CE5D90709F48C
:103B900049C008F04DC0C531DC4509F095CF809192
:103BA000270482FB992790F921E0922790FB82F964
:103BB00090FB83F92CC0C1308DE5D80709F458C0BB
:103BC00088F4809128048360CF3FECE5DE0769F13B
:103BD000809128048D7FC115DD4538F1809128043E
:103BE0008C7F23C0C3308DE5D80709F458C008F492
:103BF00052C0C236DD4509F067CF90912704892F66
:103C00008F7E94FF806103C0809127048160809340
:103C100027045ACF809127048460F9CF809127042C
:103C20008860F5CF809128048160809328044CCF70
:103C3000809128048260F9CF809127048064E7CFC7
:103C40000E94400F809127048068E1CF8091280472
:103C50008E7FEBCF809127048F7DD9CF8091270471
:103C60008F7BD5CF0E94400F809127048F77CFCFD5
:103C700080912804982F909591708E7F892B90FBCE
:103C800081F9D3CF0E94400F90912704892F97FB91
:103C900087F98058BCCF81E00E94B11615CF80E033
:103CA000FBCF81E01FCF80910C01877F80930C01B7
:103CB00082E00E94021580910C0184FF06C08F7E75
:103CC00080930C0182E00E94EC1480910C0185FF2E
:103CD00006C08F7D80930C0180E20E94EC140C944E
:103CE000481580E008958B32910591F040F49C01D5
:103CF000245031092432310558F00C94711E8D3254
:103D00009105D8F38933910518F084369105A9F708
:103D100081E00895CF93DF93EC01662319F082E0F0
:103D20000E94FC14CE019056811520E2920720F0EB
:103D3000905E8115904108F4DD27CE01DF91CF918F
:103D40000C9433099C013056211540E2340720F0D1
:103D5000305E2115304108F499270C944A09FC0182
:103D600023E0F695E7952A95E1F7EE71FF27EA54EF
:103D7000FC4F20813181AC014F70552781E090E0EC
:103D800002C0880F991F4A95E2F7662329F0822B1B
:103D9000932B91838083089580959095822393231C
:103DA000F8CFFC0123E0F695E7952A95E1F7EE714F
:103DB000FF27EA54FC4F8F70992721E030E002C0C2
:103DC000220F331F8A95E2F78081918128233923BE
:103DD00081E0232B09F480E00895EF92FF920F9386
:103DE0001F93CF93DF93EC017B018A0180910C013B
:103DF00082FF5DC02091DC033091DD032C173D076D
:103E000019F0209709F053C090910C019B7F90937B
:103E10000C0161E091FD10C08091DE039091DF0301
:103E2000A701481B590B61E080910D0190910E0193
:103E30004817590708F460E0617080910C0160FB3D
:103E400081F980930C01C9010E94AF1E0E94E91400
:103E500081FF08C080910C01806180930C0182E099
:103E60000E94F2140E94E91485FF08C080910C01A1
:103E7000806280930C0180E20E94F21460910C0138
:103E800066956170A8018091DC039091DD030E942A
:103E90008A1E60910C0166956170A8018091DC0317
:103EA0009091DD030E94A21E0E94531E0FC0CE01FE
:103EB0000E94D11EA801682FCE010E94A21E8091EF
:103EC000DC039091DD03C817D90771F3F092DF038B
:103ED000E092DE03DF91CF911F910F91FF90EF9061
:103EE000089580910C0182FF19C00E9456272091ED
:103EF000DE033091DF03AC01421B530B20910D0117
:103F000030910E014217530748F046ED53E0BC01D3
:103F10008091DC039091DD030C94ED1E0895909147
:103F20000C01892F8E7F90FF816080930C010C948F
:103F3000531E80910C018E7F80930C010C94531EB4
:103F40000F931F93CF93DF93CDB7DEB728970FB6AC
:103F5000F894DEBF0FBECDBF80910E018F9380918C
:103F60000D018F938EE791E09F938F931F9288E0CE
:103F70008F938E010F5F1F4F1F930F930E948A2F05
:103F8000C8010E941C0B0FB6F894DEBF0FBECDBF58
:103F900028960FB6F894DEBF0FBECDBFDF91CF914C
:103FA0001F910F910895CF92DF92EF92FF921F938E
:103FB000CF93DF93EC017B010E9456276C01F70140
:103FC0008281882309F458C080910C0182FF07C0C8
:103FD00046ED53E0B60190E080E00E94ED1EC9314D
:103FE000FCE5DF0709F445C028F5C7318CE5D807A3
:103FF000B1F180910D0190910E010597C831ECE56A
:10400000DE0791F1CE0190568115E0E29E0720F087
:10401000905E81159041F0F51092DD031092DC0363
:1040200011E0812FDF91CF911F91FF90EF90DF90F2
:10403000CF900895CB31FCE5DF0759F038F0CC3153
:104040008CE5D807F9F60E94991FDCCF0E948F1FDC
:10405000D9CF80910C01816080930C01D3CF8091E6
:104060000D0190910E01059690930E0180930D0124
:10407000C9CF0E94A01FC6CF80910C018F7EC13E88
:10408000D10531F0C53ED105A1F580910C018F7DA0
:1040900080930C0180910C0180FFC2CFB701CE014B
:1040A0000E94731EF7011281882309F46BC011234B
:1040B00009F462C00E94E914182F0E941C15812B7C
:1040C0008D7F69F11092DD031092DC0360E0CE0178
:1040D0000E94AF1EA70160E0CE010E948A1E0E94CE
:1040E0001C158D7F0E94221582E00E94B71510E0FA
:1040F00098CFCE019056811520E2920720F0905E75
:104100008115904138F680910C0182FF89CF46EDF0
:1041100053E0B60190E080E00E94ED1E81CF86E082
:10412000F701A6EDB3E001900D928A95E1F71092A8
:10413000D8031092DA031092D9030E94E914182FC1
:104140000E941C15812B90910C0181FB91F9909399
:104150000C010E941C158D7F0E942215D093DD0357
:10416000C093DC03D092DF03C092DE0380910C0188
:10417000846080930C01B8CFA701B601CE010E94E4
:10418000ED1E4FCF111148CF4BCF809104011F92EC
:104190008F93809105011F928F93809108011F9248
:1041A0008F93809109011F928F9380910A011F9232
:1041B0008F9380910B011F928F938DEE94E09F93CC
:1041C0008F930E94F3078DB79EB70E960FB6F894A3
:1041D0009EBF0FBE8DBF0895883228F58E3108F03E
:1041E00072C08B3041F130F4873009F4CFC08CE4D9
:1041F00096E0E0C0833109F45FC08431C1F78EE6F8
:1042000096E00E945A078091E403882309F4FEC0D7
:104210001092E4031092E3031092E2031092E10380
:104220001092E00320C08F3409F4C7C0D8F589325A
:1042300031F38833E1F681E796E00E945A070E9445
:10424000C5201F9281E08F931F9285E08F938AE6AD
:1042500095E09F938F930E94F3070F900F900F901C
:104260000F900F900F902091E403222309F4C9C00E
:104270008091E0039091E103009711F483E891E0CD
:104280009F938F931F922F938AE396E09F938F9330
:104290000E94F3070F900F900F900F900F900F90C8
:1042A00081E00895813509F49CC008F49CC08235F2
:1042B00009F09DCF81E082C080E696E00E945A0717
:1042C0000E94C520D0CF8D518093E403833009F440
:1042D00042C058F48130C1F08230A1F11092E40361
:1042E0008DE596E00E945A071BC0853009F445C051
:1042F000D8F1863099F784E091E09093E3038093BE
:10430000E2038BEC91E008C08BE091E09093E30333
:104310008093E20387E891E09093E1038093E003C8
:104320008091E403882309F49ECF1F928F9389E53F
:1043300096E09F938F930E94F3070F900F900F903A
:104340000F9091CF8AE091E09093E3038093E20392
:1043500080E991E0E1CF89E091E09093E3038093DD
:10436000E2038CE991E0D8CF88E091E09093E303F9
:104370008093E20389EA91E0CFCF85E091E09093CA
:10438000E3038093E20388EB91E0C6CF8EE1809354
:104390000B0182E380930A018AE08093090184E1A2
:1043A0008093080188E08093050188E280930401EE
:1043B0008FE496E00E945A0756CF8AE0E091E2032C
:1043C000F091E3033097D1F02081082E000C990B77
:1043D000820F911D8F3F910541F03CF08FEF80835C
:1043E00007C08FEFEBCF86EFE9CF97FFF8CF1082B2
:1043F00080811F928F9386E496E09BCF83E496E0C2
:10440000D9CF86E396E00E945A074ACF80E008950C
:10441000CF93C82F1F928F9387E896E09F938F9337
:104420000E94F30761E070E080E090E004C0660F56
:10443000771F881F991FCA95D2F70E94990F0F9076
:104440000F900F900F90CF910C94400FDF92EF924E
:10445000FF920F931F93CF93DF93EBEFE80FEF33B0
:1044600008F030C1F0E0EE53FD4C0C94702F0E9428
:1044700019161F928F9384EE9AE09F938F930E9458
:10448000F3070E94151683FB992790F91F929F93BB
:1044900082FB992790F91F929F9381FB992790F9AE
:1044A0001F929F93982F91701F929F931F928F93AB
:1044B0008BE99AE09F938F930E94F3070E941D1649
:1044C00087FB222720F91F922F9386FB222720F9B2
:1044D0001F922F9385FB222720F91F922F9384FB95
:1044E000222720F91F922F9383FB222720F91F9266
:1044F0002F9382FB222720F91F922F9391FB2227D3
:1045000020F91F922F93292F21701F922F9381FB47
:10451000222720F91F922F93282F21701F922F936B
:104520009F938F9386EB99E09F938F930E94F3075D
:104530008DB79EB788960FB6F8949EBF0FBE8DBFFD
:1045400081E01CC084EA9BE00E945A070E94AF16DB
:10455000F7CF84E098E00E945A07F2CF8091A80339
:10456000807F8093A8038DED97E00E945A0780EA30
:104570009BE00E945A0781E08093E503DF91CF9191
:104580001F910F91FF90EF90DF90089584E89BE0DA
:104590000E945A070E94C309D3CF9091A803892F84
:1045A0008E7F90FF81608093A80380FF03C088E71F
:1045B0009BE0D1CF8BE69BE00E945A078091A80335
:1045C000817F8093A803BCCF9091A803892F8D7F12
:1045D00091FF82608093A80381FF08C08EE59BE075
:1045E0000E945A078091A8038160EBCF80E59BE091
:1045F000B2CF9091A803892F8B7F92FF8460809324
:10460000A80382FF03C081E49BE0EACF81E39BE043
:10461000A2CF9091A803892F877F93FF8860809312
:10462000A80383FF03C085E29BE0DACF88E19BE02B
:1046300092CF80E197E08FCF0E946227062FF72E5E
:10464000E82ED92EC0912704C7FBCC27C0F91091C2
:104650002604D0911B010E942025DF92EF92FF9249
:104660000F931F92CF931F921F931F92DF931F925E
:104670008F938CE896E09F938F930E94F3078DB7FA
:104680009EB70E960FB6F8949EBF0FBE8DBF58CF43
:104690000E94400F90912704892F97FB87F980583B
:1046A0008093270487FF03C08EE09BE054CF83E014
:1046B0009BE051CF80E00E94082242CF8953FBCF7C
:1046C0008D51F9CF81E09BE00E945A0780E056CFE0
:1046D00080E008950C946823CF93C82F8091E50360
:1046E0008130C1F0882339F0823009F444C010923F
:1046F000E50380E00DC00E94E9148232D1F78C2FCF
:104700000E94682381111BC08C2F0E942622817079
:10471000CF9108950E94E914823289F38C2F0E9470
:104720006A2381111BC0C431D9F060F4CB3071F021
:10473000C031D1F081E896E00E945A0713C081E0B1
:1047400090E0E5CFC93261F0C833A1F78DED97E075
:104750000E945A0783E896E00E945A0781E0D7CF6B
:104760001092E50380E0D3CF82E08093E50388E3F5
:104770000E94EC20F3CF8C2F0E94EC2081E0C8CF68
:10478000CF93DF93EB0186319C4511F50E94E9142C
:104790009A81992399F08A7A91E009F490E09093B4
:1047A000E603811109C089E20E949F140E94481506
:1047B00080E0DF91CF91089585E3F6CF8091E60305
:1047C000811104C089E20E94A614F0CF85E3FBCFDB
:1047D00081E0EFCF9C0126563D452032310538F46B
:1047E0008556FB019281992321F00E940F2481E0DC
:1047F00008950E943224FBCF1092E7031092E80341
:104800001092E9031092EA0308956091E703709112
:10481000E8038091E9039091EA030C94C125482FA5
:104820004150550B81E090E0A0E0B0E004C0880F5B
:10483000991FAA1FBB1F4A95D2F74091E7035091D9
:10484000E8036091E9037091EA03842B952BA62B72
:10485000B72B8093E7039093E803A093E903B09309
:10486000EA0308958150990B41E050E060E070E068
:1048700004C0440F551F661F771F8A95D2F74095D5
:104880005095609570958091E7039091E803A09111
:10489000E903B091EA0384239523A623B7238093E9
:1048A000E7039093E803A093E903B093EA03089524
:1048B0000F931F93CF93DF93C42FD22FFC018281DC
:1048C0008823C9F04093ED030E9456279093EC0390
:1048D0008093EB0380E28C0F883008F050C0C770E3
:1048E00081E001C0880FCA95EAF7DF91CF911F914F
:1048F0000F910C94950C1091ED03141335C0809119
:10490000EB039091EC030E946E27883C910560F5C3
:10491000C0E2CD0F1D17B9F080E2810F883040F45E
:10492000177081E001C0880F1A95EAF70E949C0C6D
:10493000C83048F481E09D2F977001C0880F9A9588
:10494000EAF70E94950C802F0E948D0CC830B8F4B5
:10495000D77081E001C0880FDA95EAF7DF91CF9137
:104960001F910F910C949C0C80E28C0F883038F4CE
:10497000C77081E001C0880FCA95EAF7EFCFDF91D9
:10498000CF911F910F9108950F939C01CB01243F6C
:104990004CE5340759F1A8F4293DFCE53F0701F146
:1049A0002A3D4CE53407D1F1283D3C4591F406E21F
:1049B00021EE41EE68ED7CE50E94582480E00F91E5
:1049C0000895263FFCE53F07E9F0B0F0273F3C455E
:1049D000F9F0FC018281882339F11092ED03EFCFC9
:1049E00007E225EE45EE69ED7CE5E6CF06E221EE35
:1049F00040EE64EF7CE5E0CF07E225EE44EE65EFA4
:104A00007CE5DACF06E221EE42EE66EF7CE5D4CF1C
:104A100007E225EE46EE67EF7CE5CECF08E221E027
:104A200045EE6AED7CE5C8CF81E0C9CF9093F101F6
:104A30008093F00108959093F7038093F60308950F
:104A4000E091F603F091F703309721F00190F081A7
:104A5000E02D099480E00895EF92FF920F931F9349
:104A6000CF93DF93EC01E091F603F091F7033097D9
:104A700009F446C080911B01882341F080912704EE
:104A800087FF04C08881898386E088830280F38160
:104A9000E02DCE0109958091A80382FF31C080FFEF
:104AA00004C08DEB9BE00E945A0710E000E087EB0A
:104AB000E82E8BE0F82E8091A80380FF0EC0FE0147
:104AC000E00FF11F80811F928F93FF92EF920E945F
:104AD000F3070F900F900F900F900F5F1F4F08304C
:104AE000110549F78091A80380FF0AC085EB9BE080
:104AF000DF91CF911F910F91FF90EF900C945A0787
:104B0000DF91CF911F910F91FF90EF900895E09169
:104B1000F603F091F703309739F022E0DC012C9393
:104B20000480F581E02D099408952091F4033091DB
:104B3000F5032817390771F09093F5038093F40378
:104B4000E091F603F091F703309721F00680F781AA
:104B5000E02D099408952091F2033091F303281772
:104B6000390771F09093F3038093F203E091F60319
:104B7000F091F703309721F00084F185E02D09943E
:104B800008950F931F930091EE031091EF0320916E
:104B9000F0033091F1030617170728073907A1F032
:104BA0006093EE037093EF038093F0039093F1030F
:104BB000E091F603F091F703309731F00284F3852A
:104BC000E02D1F910F9109941F910F910895FC0101
:104BD000329680911B01882321F0809127049EE169
:104BE00087FF96E080E0915008F4089521912223F8
:104BF000D1F38F5FF8CF662301F120911B012223AF
:104C0000F1F02091270427FF1AC0462F46954695BC
:104C100046954E3190F4677021E030E002C0220FDB
:104C2000331F6A95E2F7840F911DFC01828190E0A9
:104C30002823392381E0232B69F480E00895FC01C7
:104C4000329608962191261721F0E817F907D1F737
:104C5000F4CF81E008959C01FC0132969FEF80E043
:104C60004191461751F09F3F19F4411101C0982F0F
:104C70008F5F8630A9F79F3F09F40895290F311DF2
:104C800097FD3A95F90162830895FC0132960896E2
:104C90002191261303C0DF0111971C92E817F90731
:104CA000B9F70895E62FE695E695E695EE3170F4AE
:104CB000E80FF92FF11D677021E030E001C0220FED
:104CC0006A95EAF78281822B828308958091A803F6
:104CD00080FF0CC01F926F938DEE9BE09F938F938C
:104CE0000E94F3070F900F900F900F900895E62FFA
:104CF000E695E695E695EE3178F4E80FF92FF11D8B
:104D0000677021E030E001C0220F6A95EAF7209534
:104D100082812823228308958091A80380FF0CC0FC
:104D20001F926F938FEC9BE09F938F930E94F307EA
:104D30000F900F900F900F90089520911B01222348
:104D400029F02091270427FD0C9452260C942B2641
:104D500020911B01222329F02091270427FD0C9488
:104D600077260C944526FC01329680911B018823FE
:104D700051F08091270487FF06C08EE1DF011D926C
:104D80008A95E9F7089586E0F9CF08950C94C52631
:104D9000811105C081E08093F8030C94C62682E05F
:104DA000FACF83E08093F8030C94C6260C94C826AF
:104DB00081E08093F8030C94C6260C94D8260895BD
:104DC00080913104843031F10E94BE091092F903C0
:104DD00088E190E020E40FB6F894A89580936000F5
:104DE0000FBE2093600083B7817F846083BF83B749
:104DF000816083BF7894889583B78E7F83BF0FB619
:104E0000F894A8958091600088618093600010926A
:104E100060000FBE089508950895CF930E940B2758
:104E20000E9404080E940C27C0E08C2F0E94620898
:104E3000892B31F4CF5FC530C1F780E0CF91089561
:104E400081E0FCCF0E94400F0C94480A1F921FB6CD
:104E50001F9211248F939F93AF93BF938091F90377
:104E6000811113C08091290490912A04A0912B04F0
:104E7000B0912C044196A11DB11D809329049093FB
:104E80002A04A0932B04B0932C04BF91AF919F915F
:104E90008F911F901FBE1F90189582E084BD93E0F4
:104EA00095BD9AEF97BD80936E0008952FB7F89443
:104EB0008091290490912A04A0912B04B0912C0494
:104EC0002FBF08952FB7F8946091290470912A0498
:104ED00080912B0490912C042FBF08959C014FB713
:104EE000F8948091290490912A04A0912B04B09108
:104EF0002C044FBF821B930B089578941F921FB60A
:104F00001F9211248F939F93AF93BF938091290495
:104F100090912A04A0912B04B0912C040196A11D1C
:104F2000B11D8093290490932A04A0932B04B0937D
:104F30002C04BF91AF919F918F911F901FBE1F9026
:104F4000189587E797E7909301088093000888E118
:104F50009AE00FB6F894A895809360000FBE9093E6
:104F60006000FFCF8091250408959C018091310459
:104F70008430E9F482E08093E9009FEF8091E800BB
:104F8000915085FD06C085ED8A95F1F700009111DD
:104F9000F5CF8091E80085FF0AC050E040E0C901EC
:104FA0000E94C02A8091E8008E778093E8000895DF
:104FB000EFEFF3E025E020836183728383839483A2
:104FC00065E070E0CF010C94B527ECEFF3E024E04E
:104FD00020839283818363E070E0CF010C94B52736
:104FE0009C0182E08093E9009FEF8091E80091505E
:104FF00085FD06C085ED8A95F1F700009111F5CF8A
:105000008091E80085FF0CC050E040E066E070E071
:10501000C9010E94C02A8091E8008E778093E80041
:105020000895CF93DF93EC0180911B018823B1F1A8
:105030008091270487FF32C060E282E08093E9001C
:105040008FEF9091E800815095FD06C095ED9A95FF
:10505000F1F700008111F5CF8091E80085FF1BC0BA
:1050600080911B0170E050E040E0811104C050E0ED
:1050700040E068E070E0CE010E94C02A8091E80024
:105080008E778093E80080E2FE01A5E0B4E0019015
:105090000D928A95E1F7DF91CF91089568E081E064
:1050A000CDCFECEFF3E023E020839283818363E0B4
:1050B00070E0CF010C94B5278FE19CE00E945A0765
:1050C00080913004811109C00E94502C0E94AD2CA7
:1050D0008091E20084608093E20008958BE19CE07F
:1050E0000E945A0710923004089587E19CE00E94C4
:1050F0005A070C94D82683E19CE00E945A076091DD
:105100002D0481E0611101C080E00C94D1268FE074
:105110009CE00E945A079091310481E0943009F09C
:1051200080E060912D040C94D6262091FB032F5F24
:10513000822F62E30E94502F992319F02093FB03E2
:1051400008951092FB03809104048823F1F080916C
:1051500031048430C1F49091E9009F702091EC00FB
:10516000822F817020FD80E8892B93E09093E900E5
:105170009091EB0090FF04C09091EE0097FD08C065
:105180008F708093E9001092040408951092F1004A
:105190009091E80095FDFACF9091E80090FFF0CF54
:1051A0009091E8009E779093E800EACF42E061ECAE
:1051B00081E00E94CC2B42E261EC82E00E94CC2B89
:1051C00042E261EC83E00E94CC2B9091310481E0BB
:1051D000943009F080E060912D040C94C8268091F1
:1051E0003304833009F460C030F48130C9F1823077
:1051F00009F49CC008958A3009F488C08B3009F402
:105200006EC0893009F04FC080913204813209F0BC
:105210004AC08091360490913704029708F043C049
:105220008091E800877F8093E8008091E80082FF0A
:1052300036C09091F3008091F200029731F4809192
:10524000F100813011F0863021F48091F1008093DB
:1052500025048091E8008B778093E8000C94002C63
:1052600080913204813AF9F48091E800877F80933D
:10527000E8008091360490913704892B61F460E254
:1052800085E094E070E00E940F2B8091E8008B771E
:105290008093E800089560E090E080E0F3CF809193
:1052A00031048111C2CF089580913204813AD9F737
:1052B0008091360490913704892BA9F78091E800FA
:1052C000877F8093E8008091E80080FFFCCF809189
:1052D0001B018093F1008091E8008E77BDCF809113
:1052E0003204813201F78091360490913704892B82
:1052F000D1F68091E800877F8093E8000E94002C1F
:105300008091340480931B010C94400F80913204EF
:10531000813249F68091E800877F8093E8000E94FF
:10532000002C8091350480932604089580913204E6
:10533000813A09F0B8CF8091E800877F8093E80038
:105340008091E80080FFFCCF80912604C2CF9FB7F8
:10535000F894109204049FBF90913104943009F0A6
:1053600048C02091E9002F703091EC00932F91708C
:1053700030FD90E8922B23E02093E9002091EB0090
:1053800020FF34C02091EE0027FF30C02091FA03A7
:10539000222321F02091E80025FF28C01092FA0373
:1053A00026E03091E80035FF14C08093F100809131
:1053B000E80085FD27C08091E80080FFFCCF809148
:1053C000E8008E778093E8009F709093E90080E07A
:1053D000089530913104343049F43091EB0035FDBB
:1053E00005C0215041F481E08093FA039F709093AF
:1053F000E9008FEF0895EFE9FFE03197F1F700C082
:105400000000CFCF8FB7F89421E0209304048FBF22
:10541000DBCF84B7877F84BF0FB6F894A8958091BF
:105420006000886180936000109260000FBE80E889
:1054300090E00FB6F89480936100909361000FBEE6
:105440000C94DD260E94502C0E94AD2CE2EEF0E080
:1054500080818460808378940C94352F8FE091E074
:105460000C941B25809131048530C9F48BE09CE0BD
:105470000E945A0780913104853011F00C94222744
:105480000E94E02680912F048823A1F30E940D271B
:10549000882381F30E94AA2A0E94400FEBCF08952F
:1054A00008950C94532A292F33272330310521F1F5
:1054B00068F42130310509F443C02230310509F484
:1054C00044C090E080E030E020E026C02132310589
:1054D00051F122323105A9F76330710590F7FB01D4
:1054E000EE0FFF1FED51FE4F2081318160527E4F44
:1054F000FB01808190E010C099278130910581F0F7
:10550000009729F00297E9F6E3E2FCE002C0E3E647
:10551000FCE0849190E09F01FA013183208308959B
:10552000E3E4FCE0F6CF6330710558F6660F771FB1
:10553000FB01E751FE4F2081318189E090E0ECCF03
:1055400082E190E022EC3CE0E7CF8BE590E027E6BB
:105550003CE0E2CF80E189BD82E189BD09B400FE73
:10556000FDCF8091D8008F7D8093D8008091E0009E
:1055700082608093E0008091E00081FDFCCF08957F
:10558000AF92BF92CF92DF92FF920F931F93CF9370
:10559000DF936C01EB018A010E941F2CF82E811110
:1055A00023C00115110539F0F80180819181C81BD4
:1055B000D90BC80ED91EB12CA12C2097A9F080912F
:1055C000E80085FD22C08091E8008E778093E80096
:1055D00001151105A1F0F80180819181A80EB91E75
:1055E000B182A08285E0F82E8F2DDF91CF911F919F
:1055F0000F91FF90DF90CF90BF90AF9008950E94E1
:105600001F2C8823D1F2F82EEFCFF60181916F0184
:105610008093F1002197FFEFAF1ABF0ACECFFC01B4
:10562000809138049091390486179707A0F061158E
:10563000710529F49091E8009E779093E80090E03E
:105640006115710551F4911108C08091E80082FF45
:1056500034C080E00895BC01F2CF809131048823EA
:10566000C1F18530C1F18091E80083FD30C08091A7
:10567000E80082FDEACF8091E80080FFE1CF8091D1
:10568000F3002091F200382F6115710519F02830D0
:10569000310558F091E02830310509F090E0209173
:1056A000E8002E772093E800CBCF81918093F10022
:1056B000615071092F5F3F4FE7CF809131048823FC
:1056C00041F0853041F08091E80083FFBECF81E05A
:1056D000089582E0089583E00895FC0180913804E4
:1056E0009091390486179707A0F06115710529F488
:1056F0008091E8008E778093E80090E06115710555
:1057000051F4911108C08091E80082FF35C080E01B
:105710000895BC01F2CF809131048823C9F185300E
:10572000C9F18091E80083FD31C08091E80082FDDD
:10573000EACF8091E80080FFE1CF8091F3002091D3
:10574000F200382F6115710519F02830310558F035
:1057500091E02830310509F090E08091E8008E77E3
:105760008093E800CBCF84918093F1003196615013
:1057700071092F5F3F4FE6CF80913104882341F0BC
:10578000853041F08091E80083FFBDCF81E008952E
:1057900082E0089583E00895982F973028F08F7065
:1057A0008093E90081E008959093E900242F762FFB
:1057B00050E0981731F07091EC002091ED0050917D
:1057C000F00021FD02C09F5FE8CF3091EB003E7FEB
:1057D0003093EB003091ED003D7F3093ED00309140
:1057E000EB0031603093EB007093EC002093ED0000
:1057F0005093F0002091EE0027FDE5CF80E0089562
:105800008091320487FF13C08091E80082FF06C0B8
:105810008091E8008B778093E80004C08091310488
:105820008111F2CF0895809131048823D9F38091BA
:10583000E80080FFF8CF8091E8008E77ECCF2091D0
:10584000E4003091E50095E6A9012091EC00822F5B
:10585000817020FF06C08091E80080FF06C080E0D4
:1058600008952091E80022FD1AC080913104882318
:1058700089F0853089F08091EB0085FD0FC0209183
:10588000E4003091E50042175307F9F29150E1F638
:1058900084E0089582E0089583E0089581E008950A
:1058A0000E94BE2C0E94C62CE0EEF0E08081816058
:1058B0008083E8EDF0E080818F77808319BCA7EDCD
:1058C000B0E08C918E7F8C9380818F7E808310924C
:1058D000300408950F931F93CF93DF930E94BE2C43
:1058E0000E94C62CC8EDD0E088818F77888388819C
:1058F0008068888388818F7D888319BC10923104E9
:1059000010922D0410922F0410922E0400EE10E03D
:10591000F80180818B7F808388818160888342E069
:1059200060E080E00E94CC2BE1EEF0E080818E7F91
:105930008083E2EEF0E080818160808380818860F6
:105940008083F80180818E7F808388818061888355
:10595000DF91CF911F910F910895E8EDF0E08081E4
:105960008F7E8083E7EDF0E080818160808384E03A
:1059700082BF81E0809330040C946A2CE8EDF0E063
:1059800080818E7F80831092E20008951092DA0069
:105990001092E10008951F920F920FB60F921124FA
:1059A0002F933F934F935F936F937F938F939F9327
:1059B000AF93BF93EF93FF938091E10082FF0BC001
:1059C0008091E20082FF07C08091E1008B7F80938D
:1059D000E1000E9495288091DA0080FF19C0809133
:1059E000D80080FF15C08091DA008E7F8093DA00A6
:1059F0008091D90080FF96C080E189BD82E189BD98
:105A000009B400FEFDCF81E0809331040E945C2840
:105A10008091E10080FF19C08091E20080FF15C0F5
:105A20008091E2008E7F8093E2008091E2008061AD
:105A30008093E2008091D80080628093D80019BCE6
:105A400085E0809331040E947B288091E10084FFEF
:105A50002BC08091E20084FF27C080E189BD82E1F4
:105A600089BD89B5982F917080FFFBCF8091D800B8
:105A70008F7D8093D8008091E1008F7E8093E1003C
:105A80008091E2008F7E8093E2008091E20081604D
:105A90008093E20080912D04882309F449C084E0BA
:105AA000809331040E9487288091E10083FF29C000
:105AB0008091E20083FF25C08091E100877F809381
:105AC000E10082E08093310410922D048091E10086
:105AD0008E7F8093E1008091E2008E7F8093E200D0
