:100000000C9439060C9480060C9480060C9480069F
:100010000C9480060C9480060C9480060C94800648
:100020000C9480060C9480060C94EB2A0C94BF2B45
:100030000C9446250C9480060C9480060C94800643
:100040000C9480060C9480060C9480060C94800618
:100050000C9480060C949D250C9480060C948006CC
:100060000C9480060C94F1070C9480060C94800686
:100070000C9480060C9480060C9480060C948006E8
:100080000C9480060C9480060C9480060C948006D8
:100090000C9480060C9480060C9480060C948006C8
:1000A0000C9480060C9480060C9480060A0025307F
:1000B000313662003A200025303258000A722F6330
:1000C00020303132333435363738394142434445B4
:1000D000460A000D000E00000035001E001F002023
:1000E00000210022002300045124002500260027BF
:1000F000002D002E002B0014001A00080015001718
:10010000004A004D001C0018000C001200130031C2
:1001100000296104001600070009000A004E007063
:100120005D0B000D000E000F003300346102551D01
:10013000001B000600190005004B006F5D11001048
:1001400000360037003800125503550555E300907E
:10015000642C432B614C002A0028002C4250005193
:100160000052004F0035001E001F00200021002219
:10017000002300045124002500260027002D002E16
:10018000002B0014001A000800150017004A004D4B
:10019000001C0018000C001200130031002961043B
:1001A000001600070009000A004E00705D0B000DEC
:1001B000000E000F003300346102551D001B0006C5
:1001C00000190005004B006F5D110010003600376C
:1001D00000380012550A550C55055590642C432BD8
:1001E000684C002A0028002C425000510052004F59
:1001F0000001003A003B003C003D003E003F000192
:100200000040004100420043004400450001005707
:100210000055002F0230023102010001000100F9F7
:1002200000520001000100010039002002210226D5
:10023000022702240201000100FB00500051004F80
:1002400000FC0001000100220223022F00300067A1
:1002500000010001000100FA00010001000100019D
:100260000001000100010001000100295D01000101
:100270000001000100010001000100010001003A3D
:10028000003B003C003D003E003F000100400041BB
:100290000042004300440045000100F200F300ED7D
:1002A00000F900F1000100010057005F00600061EB
:1002B00000560067000100FB00EF00EE00F000FCBC
:1002C000000100010055005C005D005E0054006705
:1002D000000100010001000100FA0001000100011D
:1002E00000620059005A005B00010001000100019A
:1002F00000010001000100010001000100010001F6
:10030000000100010001000100005C1050115000CC
:1003100000000000000000000000000000000000DD
:10032000000000000000000000FF000000000000CE
:1003300000000000000000000000000000000000BD
:100340000000000000FE00000000000000000000AF
:10035000000000000000000000000000000000009D
:1003600000FD000000000000000000000000000090
:10037000000000000000000000000000000000007D
:10038000000000000000000000000000000000006D
:10039000000000000044454255473A2064697361FB
:1003A000626C65642E0A0044454255473A20656EEA
:1003B00061626C65642E0A004F6E6573686F743AF3
:1003C0002074696D656F75740A004F6E6573686F90
:1003D000743A206163746976653A2025640A000ADC
:1003E0000025303258006B6579626F6172645F730B
:1003F00065745F6C65643A2000290A002575002F3A
:10040000002575005D28002564002000256400207B
:100410000025640020002564007C0025303258004F
:100420006D6F7573656B6579205B62746E7C782087
:1004300079207620685D287265702F61636C293A97
:10044000205B006E6F206B6E6F627320736F727231
:10045000790A00703A097072696E742076616C7561
:1004600065730A643A097365742064656661756C26
:1004700074730A75703A092B310A646E3A092D318A
:100480000A6C743A092B31300A72743A092D3130F2
:100490000A4553432F713A09717569740A004D3E3C
:1004A00020004D25753A25733E20003F0A003D206F
:1004B00025750A003F0A0064656661756C74730AED
:1004C0000025750A003F0A000A092D2056616C7547
:1004D0006573202D0A00710A000A092D204D6F75E1
:1004E00073656B6579202D0A003F00433E20004C68
:1004F00025640A000A092D20537461747573202D38
:100500000A686F73745F6B6579626F6172645F6CA8
:1005100065647328293A20253032580A6B65796260
:100520006F6172645F70726F746F636F6C3A2025D5
:100530003032580A6B6579626F6172645F69646C0E
:10054000653A20253032580A6B65796D61705F63BA
:100550006F6E6669672E6E6B726F3A202530325867
:100560000A74696D65725F72656164333228293A75
:10057000202530386C580A000A092D205665727300
:10058000696F6E202D0A5649443A2030783444343D
:1005900034284D61747469612044616C2042656E39
:1005A00029205049443A2030783532353728526571
:1005B000646F785F776972656C657373292056453F
:1005C000523A203078303030310A4255494C443A62
:1005D0002020284A756E2033302032303232290AEA
:1005E0004F5054494F4E533A204C554641204D4FA1
:1005F0005553454B45592045585452414B45592078
:10060000434F4E534F4C4520434F4D4D414E442098
:100610004E4B524F20343039360A4743433A203844
:100620002E342E30204156522D4C4942433A20322E
:100630002E302E30204156525F415243483A2061BD
:100640007672350A000A092D20436F6E736F6C6550
:10065000202D0A4553432F713A09717569740A6D4B
:100660003A096D6F7573656B65790A000A092D206B
:100670004D61676963202D0A443A094465627567D4
:10068000204D65737361676520546F67676C650AF9
:10069000583A094D61747269782044656275672023
:1006A0004D6F646520546F67676C65202D2053681B
:1006B0006F77206B65797072657373657320696EEF
:1006C000206D617472697820677269640A4B3A0917
:1006D0004B6579626F61726420446562756720546E
:1006E0006F67676C65202D2053686F77206B657985
:1006F0007072657373207265706F72740A4D3A0977
:100700004465627567204D6F75736520546F676728
:100710006C650A563A0956657273696F6E0A533AE8
:10072000095374617475730A433A094163746976B5
:1007300061746520436F6E736F6C65204D6F6465E7
:100740000A46312D4631303A09537769746368207F
:10075000746F204C6179657220302D392028463124
:1007600030203D204C30290A302D393A0953776921
:1007700074636820746F204C6179657220302D3964
:100780000A47524156453A095377697463682074A1
:100790006F204C6179657220302028616C7465721D
:1007A0006E617465290A423A094A756D7020746F4A
:1007B00020426F6F746C6F616465720A4553433AEF
:1007C000094A756D7020746F20426F6F746C6F6191
:1007D0006465722028616C7465726E617465290AA3
:1007E000453A095072696E7420454550524F4D206C
:1007F00053657474696E67730A4253504143453AB6
:1008000009436C65617220454550524F4D0A4E3A7E
:10081000094E4B524F20546F67676C650A006B6539
:10082000796D61705F636F6E6669672E7261773A8A
:1008300020253032580A2E737761705F636F6E74B3
:10084000726F6C5F636170736C6F636B3A202575B8
:100850000A2E636170736C6F636B5F746F5F636F9D
:100860006E74726F6C3A2025750A2E737761705F13
:100870006C63746C5F6C6775693A2025750A2E731A
:100880007761705F7263746C5F726775693A202577
:10089000750A2E737761705F6C616C745F6C67753D
:1008A000693A2025750A2E737761705F72616C74E6
:1008B0005F726775693A2025750A2E6E6F5F6775DE
:1008C000693A2025750A2E737761705F67726176C9
:1008D000655F6573633A2025750A2E737761705FD3
:1008E0006261636B736C6173685F6261636B737089
:1008F0006163653A2025750A2E6E6B726F3A20256A
:10090000750A0064656275675F636F6E6669672E5E
:100910007261773A20253032580A2E656E61626C1A
:10092000653A2025750A2E6D61747269783A202522
:10093000750A2E6B6579626F6172643A2025750ABB
:100940002E6D6F7573653A2025750A006565636FB6
:100950006E6669673A0A64656661756C745F6C619E
:100960007965723A2025750A003F004E4B524F3A86
:10097000206F66660A004E4B524F3A206F6E0A0097
:100980000A6D6F7573653A206F66660A000A6D6FAF
:100990007573653A206F6E0A000A6B6579626F6144
:1009A00072643A206F66660A000A6B6579626F614D
:1009B00072643A206F6E0A000A6D61747269783A47
:1009C000206F66660A000A6D61747269783A206F5A
:1009D0006E0A000A64656275673A206F66660A00EF
:1009E0000A64656275673A206F6E0A000A0A4A75E2
:1009F0006D70696E6720746F20626F6F746C6F61C9
:100A00006465722E2E2E2000433E2000436C6561EB
:100A100072696E6720454550524F4D0A000A002505
:100A200030325820006B6579626F6172645F726565
:100A3000706F72743A200064656C5F6B65795F62F9
:100A400069743A2063616E27742064656C3A2025CE
:100A50003032580A006164645F6B65795F62697463
:100A60003A2063616E2774206164643A2025303235
:100A7000580A005B735D005B575D005B535D005B74
:100A8000525D005B445D005B435D001E03520065E8
:100A90000064006F0078005F0077006900720065F5
:100AA000006C0065007300730000001E034D0061C0
:100AB0000074007400690061002000440061006C53
:100AC000002000420065006E0000000403090409D4
:100AD000025B00030100A0FA090400000103010108
:100AE00000092111010001224000070581030800CF
:100AF0000A0904010001030000000921110100019D
:100B000022D4000705820320000A09040200020320
:100B100000000009211101000122220007058303C2
:100B2000200001070503032000011201000200005C
:100B30000008444D57520100010200010631FF092F
:100B400074A1010975150026FF0095207508810222
:100B50000976150026FF00952075089102C0050151
:100B60000902A10185020901A1000509190129084D
:100B7000150025019508750181020501093009312B
:100B80001581257F95027508810609381581257F15
:100B9000950175088106050C0A38021581257F9597
:100BA0000175088106C0C005010980A101850319EE
:100BB000012AB700150126B700950175108100C004
:100BC000050C0901A101850419012AA002150126BD
:100BD000A002950175108100C0050C0901A10185D5
:100BE000050903A10405091901292015002501950E
:100BF0002075018102C0C005010906A10185060515
:100C00000719E029E71500250195087501810205FE
:100C100007190029EF1500250195F07501810205DE
:100C20000819012905950575019102950175039132
:100C300001C005010906A101050719E029E7150012
:100C40002501950875018102950175088101050747
:100C5000190029FF150026FF00950675088100057B
:100C600008190129059505750191029501750391F2
:100C700001C011241FBECFEFDAE0DEBFCDBF04B646
:100C800003FE27C08091530490915404A091550411
:100C9000B09156048730904BA740B04BD1F41092DE
:100CA000530410925404109255041092560414BE2A
:100CB00084B7877F84BF0FB6F894A89580916000B1
:100CC000886180936000109260000FBEE0E0F8E35E
:100CD000099511E0A0E0B1E0EAE5FCE502C005906D
:100CE0000D92A23BB107D9F724E0A2EBB1E001C01D
:100CF0001D92A335B207E1F70E9458180C94C42D39
:100D00000C940000FF93EF93E091B201F091B301D6
:100D1000309709F00995EF91FF910895FC018591B5
:100D2000803011F0EFDFFBCF0895FF27E0E230E2E3
:100D300047FF0CC0419597FF09C0EDE260957095A3
:100D400080959095611D711D811D911D27FF02C029
:100D5000219530E350E2AA27660F771F881F991F5D
:100D6000AA1FA41710F0A41B63955A95A9F7AA30DF
:100D700008F0A95FA05DAF93F3956115710581053A
:100D8000910541F7ED3211F4EF93F395F21718F452
:100D90003F93F395FBCF8F91B5DFFA95E1F7089577
:100DA000E991F9918591803021F0853219F0AADF1F
:100DB000F9CF089520E0E89455915532C1F35033AE
:100DC00011F4689455915A3348F4505390F3220F1C
:100DD000022E220F220F200D250FF4CF0EF42195A5
:100DE00089919991533619F3533729F1533559F1B4
:100DF000BC0188279927E8945C3621F48991999160
:100E000068945591543639F446EF7EF077FF0DC063
:100E10008FEF9FEF0AC055374AE039F0583540E16F
:100E200021F0523642E009F00895FF93EF937DDF01
:100E3000EF91FF91B7CFFF93EF93FC018191803049
:100E4000B9F360DFFBCFFF93EF9368DFF1CFDF9360
:100E5000CF93CDB7DEB72596A3DFCF91DF9108956D
:100E6000089508950C9431070E9496080C94E607A3
:100E7000EF92FF921F93CF93DF93CDB7DEB72B97FF
:100E80000FB6F894DEBF0FBECDBF83E78093CE00D0
:100E9000CE0101967C018BE0D7011D928A95E9F77E
:100EA000D7019E01245F3F4FC70140E050E0BA01E7
:100EB0001091C80017FD0AC04F5F5F4F6F4F7F4F03
:100EC0004131E7E25E076105710590F31091CE00B4
:100ED000FC011193CF01E217F30751F78B85803E98
:100EE000B1F424EB31E0B701665F7F4F11968C912E
:100EF0001197F0E88F9FC00111244C91842BF901C8
:100F0000819391939F0112966A177B0779F70E944C
:100F10009C0881E02B960FB6F894DEBF0FBECDBFC4
:100F2000DF91CF911F91FF90EF900895E82FF0E0AF
:100F3000EE0FFF1FEC54FE4F808191810895CF92F8
:100F4000DF92EF92FF920F931F93CF93DF938CEB7F
:100F500090E00E948E0684EBE82E81E0F82ED0E02F
:100F6000C0E097EBC92E90E0D92E0EEA10E0DF9397
:100F7000CF93DF92CF920E94270784EB90E00E94EC
:100F80008E06F701819191917F010E948E099F93B6
:100F90008F931F930F930E9427078CEA90E00E9483
:100FA0008E0621968DB79EB708960FB6F8949EBF11
:100FB0000FBE8DBFC530D105D1F6DF91CF911F9106
:100FC0000F91FF90EF90DF90CF900895ECECF0E060
:100FD0001082108288E18093C90086E08093CA0065
:100FE00008958F938FB78F939F93EF93FF93E09123
:100FF000BF0181E08E0F9091BE01981741F0909152
:10100000CE00F0E0E054FE4F90838093BF01FF914B
:10101000EF919F918F918FBF8F911895519A599A07
:1010200080B3806380BB81B3806381BB08950E94DD
:1010300030070C940E08CF92DF92EF92FF926B0173
:101040007C010E942909813021F0843061F08D9A61
:101050000BC08D9A59988C9AC701B601FF90EF90FA
:10106000DF90CF9008958D98599AF5CF81E008953B
:1010700081E008950C94380808950C943C081F935F
:10108000CF93DF9300D000D00F92CDB7DEB7498366
:101090005A836B833091C00289819A8131111DC0BE
:1010A0006623B9F02223A9F00E94FA0E182F682FA8
:1010B00089819A810E94A60E69817A81812F0F9081
:1010C0000F900F900F900F90DF91CF911F910C9484
:1010D0001A160E94D20E182FEFCF0E94FA0E6981C5
:1010E0007A81EDCFFC01262F86819781009739F414
:1010F000408151816281738184810C943F080895FD
:10110000CF93DF93EC0161E00E947208BE01DF9192
:10111000CF910C949B1DCF93DF93EC0160E00E9474
:101120007208BE01DF91CF910C943D080E942818EF
:101130000E94A2090C9417080E94571D0C943207B4
:1011400080E00C94A309089508950E94470D0E9421
:10115000A4082FEF84E39CE0215080409040E1F709
:1011600000C000000C94C1250F931F93CF93DF9311
:101170008C0161E00E947208EC01B8010E943A08FB
:101180008823F1F1B801CE010E94E4228823C1F145
:10119000B801CE010E94AA1A882391F1B801CE01AC
:1011A0000E94E021882361F1B801CE010E940A2249
:1011B000882331F1F8018281882361F0CF3DFCE57D
:1011C000DF07B1F170F4C115ECE5DE07B9F0C1300D
:1011D000DC45E1F0C801DF91CF911F910F910C9494
:1011E0003608CC358DE5D80749F1CD35DC0719F146
:1011F000CB35DD4579F70E944D14ECCF0E94A50850
:1012000080E0DF91CF911F910F91089590917C0321
:10121000892F8E7F90FF816080937C0380FF05C0C3
:1012200087EA93E00E948E06EBCF85E993E0FACF40
:101230000E94F814E5CF0E944414CCCF0E945014B1
:10124000C9CF0C94A3080E9440230E94A3090C94C8
:101250002109CF92DF92EF92FF926C01EE24FF24DE
:1012600020E0C114D104E104F10419F0C701B60172
:1012700020E1C72ED82EE92EFF24C114D104E104A9
:10128000F10419F0285FC701B6016B017C0154E03D
:10129000F694E794D794C7945A95D1F7C114D10422
:1012A000E104F10419F02C5FC701B6016B017C0168
:1012B00042E0F694E794D794C7944A95D1F7C114C5
:1012C000D104E104F10419F02E5FC701B60196952F
:1012D000879577956795672B682B692B09F02F5FAA
:1012E000822FFF90EF90DF90CF900895829590E04D
:1012F0009C01220F331F220F331F2C7C959587955D
:10130000959587958373282B30E0C901880F991F25
:101310008A7A359527952575822B0895CF93DF938B
:10132000D92F0E947609C82F8D2F0E9476099C2FF5
:10133000DF91CF91089508950C949B0981E0089561
:101340000C949E090895CF93C82F0E949C098C2F5E
:10135000CF910C94A009CF93DF93CDB7DEB72D9733
:101360000FB6F894DEBF0FBECDBF49875A876B8793
:101370007C878D8761110E9452131D821E821F82FD
:10138000188685E0FE013996DE01119601900D92D6
:101390008A95E1F78091410482FD0CC00E941513EB
:1013A000882319F082E00E9400140E94FC1281112F
:1013B0000E9483138C819D81892B99F429813A8124
:1013C0004B815C816D817E818F8198850E9448125E
:1013D0002D960FB6F894DEBF0FBECDBFDF91CF9133
:1013E000089589819A8189238F3F41F3CE01019627
:1013F0000E9480088111E2CFEBCFFC0180819181B6
:101400000C943C0FCF93C82F882309F44CC08CEF69
:101410008C0F813AC8F48C2F0E948C21811143C01B
:101420006C2F8091090190910A010E941B2488234E
:1014300029F08C2F0E94EF120E9491138C2F0E9492
:10144000E812CF910C94911380E28C0F883048F40D
:10145000C77081E001C0880FCA95EAF70E94351372
:10146000F0CFEBE5EC0FE33040F4F0E0E659FE4F4F
:10147000808190E0CF910C94B523E8E5EC0FE73143
:1014800050F4F0E0EE0FFF1FE45CFE4F808191818D
:10149000CF910C94CB23CD3E30F08C2F0E94DC18E2
:1014A000CF910C948719CF910895882361F19CEF17
:1014B000980F913A20F40E94EF120C94911390E24D
:1014C000980F983050F4877091E001C0990F8A9579
:1014D000EAF7892F0E943B13F0CF9BE5980F9330DA
:1014E00020F490E080E00C94B52398E5980F9731B4
:1014F00020F490E080E00C94CB238D3E20F00E94FD
:1015000031190C94871908951F93CF93DF93182FE7
:10151000EB010E94020A209731F4812FDF91CF91D5
:101520001F910C94550A8FE99FE00197F1F700C0D5
:1015300000002197F0CF70E060E0893311F460E59E
:1015400070E00C94840A882321F00E9435130C94D7
:1015500091130895882321F00E943B130C9491135A
:101560000895BF92CF92DF92EF92FF920F931F9355
:10157000CF93DF936C01D62FC72FFC011281F5802A
:10158000F2949FE0F9220E942B13E82E8823B9F0F1
:10159000E12E1123A1F08C2F807F803421F080E296
:1015A0008D0F8830B0F08091410482FD12C082E03E
:1015B0000E9400140E942B1391E0E82EE926BC2E15
:1015C000B2948FE0B822EB2DF0E0EA53F24D0C9488
:1015D0007C2DE12CF4CF0C2F0F70C07F11F0029501
:1015E000007F112399F0002359F080E28D0F88309D
:1015F00010F0D11107C0802F0E9435130E94911363
:101600008D2F41C0802F0E944513F8CF8D2F0E944F
:10161000550A002309F43FC080E28D0F883010F096
:10162000D11104C0802F0E943B1303C0802F0E9461
:101630004B130E9491132FC00C2F0F70C07FC0322C
:1016400011F00295007FDD2381F0D13009F469C0EB
:10165000112309F473C0FF2009F469C0F6018581E4
:1016600080FFCECF8F70858362C08091410482FF5E
:1016700038C0112359F0002329F0802F0E94351320
:101680000E94911380E00E94020A05C080E00E943F
:10169000550A0111C7CFEB2DE850FF0B349720F40A
:1016A0000E9440230E94A309EE2009F482C10E94F7
:1016B000111380FD7EC1F60112820E940B130E945D
:1016C0000A0EC6010E94010D0E940B13DF91CF91FB
:1016D0001F910F91FF90EF90DF90CF90BF900C94EF
:1016E0002B0E112389F0F11006C00E946513802B88
:1016F0000E94A30AD0CFF1E0FF12F7CF0E9465133A
:10170000802B0E946B13C7CFF11006C00E94831379
:10171000802F0E94AA0ABFCF21E0F21609F4BBCFA6
:10172000F5CF112331F035E03F1508F4B4CF802F09
:10173000DFCF84E08F1508F4AECFEACFFF2041F36E
:10174000D93349F4FFEF27EE33E0F1502040304029
:10175000E1F700C000008D2F0E94550A9CCF8C2F0E
:1017600086958695837069F0813009F094CF8D2F2E
:101770009C2F9370111102C090E080E00E94CB2357
:101780008ACF8D2F9C2F9370111102C090E080E0C2
:101790000E94B52380CF8D2F112329F00E94DC18E1
:1017A0000E94871978CF0E943119FACF8C2F83704D
:1017B00009F041C011116FCF4D2F429546954770EA
:1017C000440F440F0D2F0F7010E030E020E0042E86
:1017D00004C0000F111F221F331F0A94D2F760E0CC
:1017E00070E0CB01D4FF0FC06FE070E080E090E0CC
:1017F00004C0660F771F881F991F4A95D2F760951E
:10180000709580959095C695C695C370602B712B89
:10181000822B932BC23049F058F4C13019F00E944A
:10182000BE0D39CF0E94AC0D36CF0E94D00D33CF04
:101830000E94AA0D30CF8695112311F08C2F817054
:10184000882309F428CF4D2F429546954770440FC1
:10185000440F0D2F0F7010E030E020E0042E04C084
:10186000000F111F221F331F0A94D2F760E070E0AF
:10187000CB01D4FF0FC06FE070E080E090E004C0C7
:10188000660F771F881F991F4A95D2F7609570954C
:1018900080959095C695C695C370602B712B822B51
:1018A000932BC23049F058F4C13019F00E94810ED8
:1018B000F2CE0E946F0EEFCE0E94930EECCE0E94ED
:1018C000E40DE9CECF70112329F08C2F0E940A0E6F
:1018D0008D2F0ECF8D2F0E94AA0A8C2F0E942B0EC7
:1018E000DACED23F51F160F4D03FB9F0D13F81F070
:1018F000112309F449C0F11083CE8C2F8F7121C0C0
:10190000D33F11F1D43FA1F78091410482FF26C05B
:101910008C2F8F71112311F314C0112349F084E02F
:101920008F1508F4B8CE8C2F8F710E944E0EB3CE57
:1019300095E09F1508F4AFCEF6CF8C2F8F71111163
:10194000CDCF0E940A0EA7CE112329F08C2F8F71C4
:101950000E94F50DA0CE0E94F00D9DCE112349F0FE
:10196000CF718C2F0E940A0E63E08C2F0E94DB1334
:1019700092CE81E00E940014E1E0EF1508F08BCEDA
:1019800082E00E94001487CEF110DACE8C2F8F7186
:10199000A5CF4C2F4F706D2FC6010E9416160E94C6
:1019A0006A0F79CE4C2F4F706D2FC6010E94191609
:1019B00072CEDF91CF911F910F91FF90EF90DF904A
:1019C000CF90BF9008950F931F93CF93DF93EC01B7
:1019D0008E819F81009779F00E9436168C010E94BB
:1019E000A50E0E94A90DB801CE01DF91CF911F91E4
:1019F0000F910C94B10A688179818A810E94460F07
:101A0000EDCFCF93DF93EC018B819C81892B29F063
:101A10008881998189238F3F59F4DF91CF9108956F
:101A2000CE010E94E30CCE01DF91CF910C948B0884
:101A3000CE010E94B4088111F3CF0E942B1388239A
:101A400061F38A81882349F38091410482FDE5CFC7
:101A500082E0DF91CF910C94001490E080E00E942E
:101A6000B52390E080E00E94CB230E9452130E9495
:101A700062130E9491130E949E1A0E9487190E946D
:101A80001C220C9425220E94F6120C942D0D0E940B
:101A900042130C94430DE92FE295EF70E250EE30C3
:101AA00070F4F0E0EA52F24D0C947C2D803F19F076
:101AB00020F4883E20F481E00895843FE1F380E043
:101AC0000895883EC0F3813FD1F7F5CF93FB882777
:101AD00080F90895FC0186819781009721F00E948A
:101AE00036160C944B0D808191810E943C0FF9CFEA
:101AF000CF93DF9300D000D00F92CDB7DEB70F9019
:101B00000F900F900F900F90DF91CF910895CF938A
:101B1000DF93CDB7DEB728970FB6F894DEBF0FBEC0
:101B2000CDBF28960FB6F894DEBF0FBECDBFDF91B4
:101B3000CF91089508950C949A0D0E949B0D609387
:101B4000F2027093F3028093F4029093F5020C94E6
:101B50002D0D08950C949D0D0F931F930091F2028B
:101B60001091F3022091F4023091F502602B712B59
:101B7000822B932B1F910F910C949D0D0F931F930C
:101B80000091F2021091F3022091F4023091F502DB
:101B900060237123822393231F910F910C949D0D39
:101BA0000F931F930091F2021091F3022091F4021F
:101BB0003091F50260277127822793271F910F919B
:101BC0000C949D0D0C941B080E94E20D6093EE0294
:101BD0007093EF028093F0029093F1020C942D0D1C
:101BE00060E070E0CB010C94E40D0F931F9341E093
:101BF00050E060E070E08A019B0104C0000F111FFB
:101C0000221F331F8A95D2F7C901B8011F910F9186
:101C10000C94E40D0F931F9341E050E060E070E0FE
:101C200004C0440F551F661F771F8A95D2F7809115
:101C3000EE029091EF02A091F002B091F1028A01C0
:101C40009B01082B192B2A2B3B2BC901B8011F9193
:101C50000F910C94E40D0F931F9341E050E060E06E
:101C600070E004C0440F551F661F771F8A95D2F796
:101C7000CB01BA0160957095809590950091EE0228
:101C80001091EF022091F0023091F1026023712354
:101C9000822393231F910F910C94E40D0F931F93B4
:101CA00041E050E060E070E004C0440F551F661F43
:101CB000771F8A95D2F78091EE029091EF02A09162
:101CC000F002B091F1028A019B01082719272A2707
:101CD0003B27C901B8011F910F910C94E40D0F939C
:101CE0001F930091EE021091EF022091F0023091CB
:101CF000F102602B712B822B932B1F910F910C946F
:101D0000E40D0F931F930091EE021091EF022091CA
:101D1000F0023091F10260237123822393231F91FB
:101D20000F910C94E40D0F931F930091EE0210910C
:101D3000EF022091F0023091F10260277127822793
:101D400093271F910F910C94E40D08952EE0929F1C
:101D5000800D1124982F977041E001C0440F9A958F
:101D6000EAF786958695869595E0899FF00111247E
:101D7000EF53FD4F90E080E070E05191DF0111974B
:101D80009B01082E02C0369527950A94E2F7217030
:101D900021952527242325272C930196853091050D
:101DA00061F708952EE0929F800D1124982F97706F
:101DB00086958695869525E0829FF0011124EF5344
:101DC000FD4F50E040E080E0219130E0092E02C05C
:101DD000369527950A94E2F721703327042E01C027
:101DE000220F0A94EAF7822B4F5F5F4F453051056F
:101DF00059F70895BF92CF92DF92EF92FF920F931F
:101E00001F93CF93DF938C01C090EE02D090EF022E
:101E1000E090F002F090F1028091F2029091F302D2
:101E2000A091F402B091F502C82AD92AEA2AFB2A25
:101E3000CFE1D0E0BC2ED701C6010C2E04C0B69570
:101E4000A795979587950A94D2F780FD0EC02197A4
:101E500088F7B12C8B2DDF91CF911F910F91FF90BF
:101E6000EF90DF90CF90BF900895B8018C2F0E9423
:101E70004917019761F3EECFCF93DF93EC010E94F6
:101E8000FA0EBE01DF91CF910C9449171F93CF93A7
:101E9000DF93EB019091C002992331F0CB01DF91E8
:101EA000CF911F910C943C0F882379F0CB010E94B5
:101EB000FA0E182F682FCE010E94A60EBE01812FA8
:101EC000DF91CF911F910C944917CB010E94D20E44
:101ED000182FF4CFEF92FF920F931F93CF93DF93BE
:101EE0008C01892B81F0F12CEE24E394E8012196FA
:101EF000F8018491843770F4843008F05FC0813039
:101F0000B1F08230A1F1DF91CF911F910F91FF903D
:101F1000EF900895853709F44CC008F43DC09CE764
:101F2000980F903780F78F770E94550A49C00E5F4F
:101F30001F4FFE01849190E2980F983060F48770F3
:101F4000FE2D01C0FF0F8A95EAF78F2F0E945513CF
:101F50000E94911302C00E94020A8F2D815030F21C
:101F6000EFE9FFE03197F1F700C00000F7CF0E5F17
:101F70001F4FFE01849190E2980F983050F48770C3
:101F8000FE2D01C0FF0F8A95EAF78F2F0E945B1389
:101F9000DFCF0E94550AE1CF0E5F1F4FFE01C491B3
:101FA000C150D8F28FE99FE00197F1F700C000001F
:101FB000F7CF0E5F1F4FFE01F490CFCF0E94020AB1
:101FC0008E01CBCFCF93DF93C091F6028091F702C1
:101FD0008C1303C0DF91CF910895D0E0FE0183E020
:101FE000EE0FFF1F8A95E1F7E850FD4F2081318108
:101FF0004281538164817581868197810E94870D1A
:102000002196C770E3CF2091380330913903409176
:102010003A0350913B0360913C0370913D038091E2
:102020003E0390913F030C94870D0F931F93CF9322
:10203000DF9380913D03807FC1F480913A03882330
:10204000A1F08091F6021091F7026091380370912F
:102050003903A0913B03B0913C03062F0723C091A5
:102060000701D0910801181305C0DF91CF911F918E
:102070000F91089590E0109711F00F3F19F4019619
:102080008770F1CF9C0143E0220F331F4A95E1F79F
:10209000F901E850FD4F41814713F1CF40814613CC
:1020A000EECF42814111EBCF438154814A1B5B0B40
:1020B0004C175D0720F780913D038F7080618093FE
:1020C0003D03F901E350FD4F80818F708061808373
:1020D00088E393E00E94010DDF91CF911F910F9152
:1020E0000C94E20FAF92BF92CF92DF92EF92FF92E9
:1020F0000F931F93CF93DF93CDB7DEB765970FB6DE
:10210000F894DEBF0FBECDBF8C0185E0F801DE0183
:10211000519601900D928A95E1F7F801E28048E32B
:10212000C42E43E0D42E60913B0370913C036115B3
:10213000710509F491C19091380320913903892FD9
:1021400082238F3F09F488C140815181A380B480EC
:10215000F0903A03F501E61BF70BBF01E091070190
:10216000F0910801FF2009F42CC180913D03382F24
:10217000307F6E177F0708F0D6C0311183C0FE2C68
:1021800025132DC094132BC060913E0370913F0323
:10219000F801268137816217730709F5E1101FC026
:1021A0008F70806180933D030E940310C6010E94DE
:1021B000010D80913D03F80185838F2D65960FB643
:1021C000F894DEBF0FBECDBFDF91CF911F910F916D
:1021D000FF90EF90DF90CF90BF90AF900895AB2825
:1021E00029F0842F85238F3F09F04FC180E0F82F1D
:1021F000F170DF2E80FF3CC08091F6022091F70243
:10220000821315C0498B5A8B89899A890E943C0F89
:10221000292F22952F702230F8F0243020F59F705E
:10222000F9F0F8019581907FD9F4D12C1FC090E08E
:10223000FC0133E0EE0FFF1F3A95E1F7E850FD4F48
:102240003181351306C03081341303C032813E1111
:102250000FC001968770D4CF9F7011F0882329F3A7
:10226000805E883010F3C8010E94010DFD2CA5CFBF
:10227000EE2009F4A2CF80913D03816080933D035D
:10228000F12C9BCF25131DC094131BC040913E031E
:1022900050913F03F801268137814217530789F493
:1022A000E1100FC08583C8010E94010D88E0F8018C
:1022B000A8E3B3E001900D928A95E1F70E94031024
:1022C0007CCFC8010E946A0D882349F1EE2039F1C4
:1022D00080913D038032A0F0209138033091390382
:1022E0003A8729871B86BD86AC868E8780913E0300
:1022F00090913F03988B8F87CE0109960E94010D24
:1023000088E0F801A8E3B3E001900D928A95E1F727
:102310000E9415100E940310FF24F3944ECFC801B1
:102320000E94010DF9CF311113C07A2DBD8AAC8AFC
:102330006E2D8D890E94780D88E393E00E94010D37
:1023400088E0F60111928A95E9F70E94031098CF70
:10235000251318C0941316C040913E0350913F03BB
:10236000F801268137814217530761F4E1100AC052
:102370008583C8010E94010D88E0F60111928A95BB
:10238000E9F71BCFC8010E946A0D882341F2EE20B5
:1023900031F280913D03803208F4B2CF20913803AE
:1023A000309139033A8329831B82BD82AC828E83AC
:1023B00080913E0390913F0398878F83CE010196D1
:1023C0009DCF6E177F07D8F5FE2CEE2009F4A7CF1E
:1023D000251327C0941325C020913E0330913F035D
:1023E000F8018681978128173907D9F490913D0328
:1023F00090FD0EC0907F61F080913D038583903FFA
:1024000009F451CF982F907F905F8F70892B4ACF1E
:1024100088E0F801A8E3B3E001900D928A95E1F716
:10242000CCCEC8010E946A0D81116ACF80913D0314
:10243000816080933D03C8010E94010DBECE7A2DBC
:10244000BD8AAC8A6E2D8D890E94780D88E0F601D8
:1024500011928A95E9F732CFEE2009F460CFC801D6
:102460000E946A0DF82E882309F459CF88E0F801FC
:10247000A8E3B3E001900D928A95E1F788E393E039
:102480000E94FD090E94151019CF81E08E25AFCE64
:10249000CF93DF93CDB7DEB760970FB6F894DEBF6A
:1024A0000FBECDBF29873A874B875C876D877E87B4
:1024B0008F87988BCE0109960E9472108823D1F0E5
:1024C0008C859D85892B39F029853A85822F832338
:1024D0008F3F09F074C08091F6029091F702891342
:1024E00048C060960FB6F894DEBF0FBECDBFDF9137
:1024F000CF91089588E0FE013996DE011196019092
:102500000D928A95E1F78C859D85892B21F389852C
:102510009A8589238F3FF9F2A091F702B0E0CD01AF
:102520000196877099272091F6022817190671F4F1
:102530000E94470D1092F7021092F60288E0E8E33D
:10254000F3E0DF011D928A95E9F7C5CF93E0AA0F6A
:10255000BB1F9A95E1F7A850BD4F98E0FE01319658
:1025600001900D929A95E1F78093F7020E94E20F95
:10257000B2CFB8E08B9FC001112488509D4F0E94BC
:102580007210882309F4ADCFE091F60228E0E29FB3
:10259000F0011124E850FD4F2081318142815381A7
:1025A00064817581868197810E94870D8091F602F2
:1025B00090E00196877099278093F6028CCF4B8527
:1025C0005C856D857E858F8598890E94870D83CF78
:1025D000682F8091090190910A010C94BD24682F05
:1025E0008091090190910A010C94C82480910901FD
:1025F00090910A010C94D3240E94762520914303E4
:1026000030914403821B930B9C0181E0243F3140B5
:1026100008F480E00895809142038595859585951D
:10262000089580914203877008950E947625209135
:10263000400330914103821B930B843F914048F04B
:102640008091420382FB882780F991E0892781707D
:10265000089580E0FCCF90914203977081E009F4E7
:1026600080E0089580916803089590916803892B14
:1026700080936803089580959091680398239093C0
:102680006803089510926803089590916703892B59
:1026900080936703089580959091670398239093A2
:1026A0006703089510926703089590916603892B3C
:1026B0008093660308958095909166039823909384
:1026C0006603089510926603089580914503089566
:1026D00008950C946813CF93C82F8091410482FD14
:1026E00010C0809145038C1761F00E94762590936D
:1026F000440380934303C09345038C2FCF910C94E4
:102700006913CF91089580914503882349F0109271
:102710004503109244031092430380E00C94691324
:102720000895E0910901F0910A0180916803808386
:10273000E0910901F0910A01808190916703892B52
:102740008083E0910901F0910A01808190916603F4
:10275000892B808380914503882321F10E94FC12FC
:10276000882371F080917C0380FF08C088EB93E0A0
:102770009F938F930E9427070F900F900E948313BF
:10278000E0910901F0910A01808190914503892B24
:1027900080838091090190910A010E940724811190
:1027A0000E9483138091090190910A010C944C239B
:1027B00008950C94D8139091410492FD16C098E0AE
:1027C000899F90011124622B609342030E940A0E9C
:1027D0000E947625909341038093400380914203A9
:1027E0008595859585950C94D9130C940A0E1092B5
:1027F0004203109241031092400380E00C94D913DD
:10280000909142038095892380934203282F27705B
:1028100091F4282F082E000C330B9217130659F051
:102820009091410492FD07C08595859585950E94FC
:102830002B0E0C94F7130895CF93C82F8091410469
:1028400082FB992790F99C17E9F0C0FB82F98093ED
:10285000410480914004909141040E94741482E0EC
:102860000E94001480917C0380FF0CC01F92CF93C4
:102870008AEC93E09F938F930E9427070F900F900D
:102880000F900F90CF9108958091410482FB88278B
:1028900080F991E089270C941C1481E00C941C149D
:1028A00080E00C941C1490E080E00E948A2D21E0CE
:1028B000893E9E4F09F020E0822F089582E090E04B
:1028C0000C94822D83E090E00C94822DCF9384E0D1
:1028D00090E00E94822DC82F82E290E00E94822D1B
:1028E000982F8C2FCF910895CF93C92F682F84E014
:1028F00090E00E94902D6C2F82E290E0CF910C949A
:10290000902DAB01BC018FE090E00C94A22DAB01A7
:10291000BC0183E190E00C94A22D60E070E0CB015B
:102920000C94871460E070E0CB010E9481140C9439
:102930008D1469EE7EEF90E080E00E94AE2D60E0A5
:1029400082E090E00E94902D60E083E090E00E94A1
:10295000902D1092F2021092F3021092F402109253
:10296000F50260E084E090E00E94902D60E082E259
:1029700090E00E94902D60E085E090E00E94902D14
:1029800060E086E090E00E94902D6FEF87E090E09D
:102990000E94902D40E050E0BA0188E090E00E9453
:1029A000A22D60E08DE090E00E94902D40E050E08C
:1029B000BA0188E190E00E94A22D60E087E190E0FA
:1029C0000E94902D40E050E0BA018CE190E00E941E
:1029D000A22D70E060E080E290E00E94AE2D40E029
:1029E00050E0BA0188E190E00E94A22D0C9492146C
:1029F0000C949914682F8EE090E00C94902D0E9416
:102A00008225609378037093790380937A0390937F
:102A10007B036093740370937503809376039093A4
:102A20007703089585B7806885BF85B7806885BFBF
:102A30000895089508950C94191508950C941D1582
:102A40000E94121587EC97E20E9436230E941A1505
:102A50000C941B1581E008950C942A15089508958F
:102A60000E942E150C942F150E946D250E9434078C
:102A70000C941E15CF93C82F80917C0382FF1EC03B
:102A800080FF1CC086EE93E00E948E0680917C033E
:102A900080FF14C01F92CF9381EE93E09F938F939A
:102AA0000E94270780917C030F900F900F900F904A
:102AB00080FF04C08FED93E00E948E068C2FCF9193
:102AC0000C94A3098F929F92AF92BF92CF92DF9204
:102AD000EF92FF920F931F93CF93DF93CDB7DEB7A3
:102AE0002A970FB6F894DEBF0FBECDBF0E943807FD
:102AF00081110E94FF145AE6852E53E0952E10E0B6
:102B000000E0A02E802F0E9496076C01F401E19056
:102B1000F1904F01E816F90609F45EC080917C033C
:102B200081FD0E949F07C7018C259D25B12CEE24B5
:102B3000E394F12C9C012E213F21232B09F446C064
:102B40000E942C158823A9F0BE82AF82CE20DF2000
:102B500081E0CD2809F480E088870E947625816095
:102B6000782F9A8789874E815F8168858A850E9440
:102B7000AB09000F111FF801E659FC4F80819181CC
:102B8000E826F926F182E0820E94241A0E9425227A
:102B90000E944023909169038917A9F10E94402364
:102BA000809369032A960FB6F894DEBF0FBECDBF9F
:102BB000DF91CF911F910F91FF90EF90DF90CF9019
:102BC000BF90AF909F908F900C943A15B394EE0CF9
:102BD000FF1CFEE0BF12AECF0F5F1F4F0530110587
:102BE00009F08FCF8FEF89838A831B820E9476251D
:102BF0008160782F9D838C8349815A816B818D817F
:102C00000E94AB09C1CF2A960FB6F894DEBF0FBE63
:102C1000CDBFDF91CF911F910F91FF90EF90DF908B
:102C2000CF90BF90AF909F908F90089590E080E0FC
:102C300008950895972F70E02EE0929F600D711D0A
:102C40001124FB0196E4899FE00DF11D1124EE0F84
:102C5000FF1FE752FF4F859194910895FC01EE0FFD
:102C6000FF1FE750FC4F859194910895CF93DF9318
:102C70000E944D17EC01811520E5920708F042C033
:102C8000811530E4930708F0BDC0883E910528F512
:102C9000803E910508F09DC0883A910588F4853AF8
:102CA000910508F08FC08130910509F492C000971A
:102CB00009F48FC0049708F08CC0D0E0C0E089C050
:102CC0008F3B910508F489C0805C9109C03CD10517
:102CD000A0F30E942E16EC017CC08115904250F4A6
:102CE000C11581E0D80708F074C0CD3ED10528F3A6
:102CF000D0656FC0C11590E3D90708F079C0CE0147
:102D00009F70E7CF811525E5920758F5811534E5C9
:102D1000930708F0A6C0811542E5940750F4C11549
:102D200081E5D80708F471C0DC2FCC27C16FD06AC9
:102D300050C0982F969596959E0123703327C11504
:102D4000D34508F07FC0C1E0D0E002C0CC0FDD1F4A
:102D50002A95E2F720E2929FC0011124C82BD92BBB
:102D60006FC0C11589E5D807A8F4C11598E5D90742
:102D700008F07CC0C11526E5D20708F09ECF8C2F45
:102D80000E94E417C82FD0E0DC2FCC27CC27DF71BE
:102D9000D0621FC0C1153AE5D30708F46CC0CE015C
:102DA00090568115904208F088CF8D2F8F710E9428
:102DB000E41790E0982F882788279F719C012C2B7F
:102DC000E901E6CFC55AD0E0C556DE4FC881D0E054
:102DD000D064CE01DF91CF910895C85AD0E0CC0FD6
:102DE000DD1FC359DE4F0990D881C02DD464F1CFC7
:102DF000CE019927D3FF03C0EC01D86CEACFEC01D8
:102E0000D06CE7CFDF70D06AE4CFCE01E4E09695D6
:102E10008795EA95E1F783702C2F269526952370E8
:102E200090E2299F90011124382B8C2F8370C1E0F0
:102E3000D0E002C0CC0FDD1F8A95E2F7C22BD32B66
:102E4000DC68C7CFC1E0D0E002C0CC0FDD1F2A95FF
:102E5000E2F730E2939FC0011124C82BD92BDA6826
:102E6000B8CFD82FCC27C46FD06AB3CFDC2FCC27F4
:102E7000C06FD06AAECF8C2F8F700E94E41734E001
:102E8000D695C7953A95E1F7CF709C2FEC01D069A4
:102E9000A0CF0E941A160C94361682389105B1F113
:102EA000B0F48133910509F475C048F48932910575
:102EB00009F469C08A32910509F473C00895853315
:102EC000910509F459C08933910501F10895833EB4
:102ED0009105A9F138F4803E9105F9F0823E910503
:102EE00049F10895863E9105A9F1873E9105C9F102
:102EF000843E910519F52091410421FF1FC0809166
:102F0000400484FD14C087EE90E0089520914004B1
:102F10002370A1F080EE90E008952091400420FD00
:102F200047C03091410430FF09C024FF44C090E005
:102F300080E004C02091400422FDF7CF0895209145
:102F4000400422FD3BC03091410430FDE3CF24FF1B
:102F5000F5CFEDCF2091400423FFF0CF24FDE7CF44
:102F6000D2CF2091400423FD2CC03091410431FF89
:102F7000EECF84EE90E008952091400425FFDECF4F
:102F800089E290E008952091400425FFD7CF85E3A2
:102F900090E008952091400426FFD0CF8AE290E08F
:102FA00008952091400426FFC9CF81E390E0089561
:102FB00089E390E0089583EE90E0089582EE90E03A
:102FC000089586EE90E008959091400492FF06C027
:102FD000282F28712830F9F4877F846093FF06C07A
:102FE000282F28712831F1F4877E846120914104D3
:102FF00020FF06C0382F38713830D9F4877F8160C0
:1030000021FF06C0282F28712831D1F4877E8161E5
:1030100094FD877E0895282F24712430F9F68B7F44
:103020008860DCCF282F2471243101F78B7E8861E2
:10303000DDCF382F3171313019F78E7F8860E0CFC6
:10304000282F2171213121F78E7E8861E1CF0895EB
:103050000E945314811102C00E94F8140E945E1451
:1030600080937C030E9466149093410480934004F3
:103070000E9427180E946214682F70E090E080E0A0
:103080000E94AA0D6091EE027091EF028091F00211
:103090009091F1020C94E20D0E9442280E94341596
:1030A0000C944E280E9452280E9462150C9470289D
:1030B0000E94FF240E9429280E9420150E944C187B
:1030C0000E9452180E943015FBCF80912B0190E096
:1030D000880F991FFC01ED5DFE4F20818D5E9E4F94
:1030E000FC01808190918503191614F420938503C7
:1030F0009091850397FF04C0922F9195909385033B
:1031000090918603191614F42093860390918603F8
:1031100097FF03C021952093860390918803191689
:1031200014F4809388039091880397FF04C0982F2C
:1031300091959093880390918703191614F48093C6
:1031400087039091870397FF03C08195809387033E
:10315000309185033323A1F020918603222381F04F
:1031600045EB3403C00111249923F1F090938503BA
:1031700045EB2403900111243323D1F030938603CF
:1031800040918803442379F030918703332359F029
:1031900025EB4203A00111245093880332039001D0
:1031A000112430938703089581E080938503E0CF55
:1031B00081E080938603E4CF40912B01242F30E0FF
:1031C000220F331FF901ED5DFE4F90818D3E21F4FA
:1031D00091959093860308958E3ED9F38F3E21F406
:1031E0009195909385030895803FD9F32D5E3E4FCE
:1031F000F9019081893F19F49093870308958A3FDC
:1032000011F49195F9CF8B3F21F491959093880318
:1032100008958C3FD9F39FE0980F983070F4815F48
:10322000990B21E030E001C0220F8A95EAF78091E6
:103230008403822B8093840308958D3F49F481E0B9
:1032400080932B0180912B01481751F00C94651845
:103250008E3F11F482E0F4CF8F3F11F483E0F0CF82
:1032600008958D3E39F48091860387FF29C010921E
:10327000860308958E3E29F4809186031816BCF3C8
:1032800008958F3E39F48091850387FF19C010920D
:1032900085030895803F29F4809185031816BCF3B7
:1032A0000895893F39F48091870318164CF41092E1
:1032B000870308958A3F29F48091870387FDF7CF1C
:1032C00008958B3F39F48091880387FFF9CF1092DE
:1032D000880308958C3F29F4809188031816BCF365
:1032E00008959FE0980F983058F7815F990B21E07F
:1032F00030E0A90102C0440F551F8A95E2F7CA01C8
:10330000809590918403892380938403D9CF809101
:103310007C0383FF7EC080E294E00E948E06809151
:1033200084031F928F938BE194E09F938F930E946D
:10333000270789E194E00E948E0680918503282F5B
:10334000082E000C330B3F938F9386E194E09F93FC
:103350008F930E94270784E194E00E948E0680915B
:103360008603282F082E000C330B3F938F9381E1A7
:1033700094E09F938F930E9427078FE094E00E9430
:103380008E0680918703282F082E000C330B3F9365
:103390008F938CE094E09F938F930E9427078AE09D
:1033A00094E00E948E0680918803282F082E000C3E
:1033B000330B3F938F9387E094E09F938F930E940A
:1033C000270784E094E00E948E06809181031F927B
:1033D0008F9381E094E09F938F930E9427078FEF54
:1033E00093E00E948E06809182031F928F938CEF50
:1033F00093E09F938F930E94270789EF93E00E94A9
:103400008E068DB79EB74C960FB6F8949EBF0FBE32
:103410008DBF0E9476259C01909185038091860343
:10342000982B21F03093800320937F0390918703A2
:1034300080918803982B21F030937E0320937D03A5
:1034400083E893E00C94A723EF92FF920F931F93CE
:10345000CF93DF9300D000D000D0CDB7DEB786E0A9
:10346000E3E8F3E0DE01119601900D928A95E1F711
:10347000E0908503F0908603009187031091880304
:10348000109285031092860310928703109288038E
:103490008E2D8F29B1F080917F03909180030E943F
:1034A0008E25E0912B01F0E0EE0FFF1FE55EFE4F51
:1034B000208131812817390720F4E0928503F092AA
:1034C0008603802F812BB1F080917D0390917E0344
:1034D0000E948E25E0912B01F0E0EE0FFF1FE55FCB
:1034E000FE4F208131812817390720F4009387038C
:1034F000109388038091850390918603892B909186
:103500008703892B90918803892B11F00E948719DA
:1035100086E0FE013196A3E8B3E001900D928A9512
:10352000E1F726960FB6F894DEBF0FBECDBFDF9150
:10353000CF911F910F91FF90EF90089586E0E3E8FF
:10354000F3E0DF011D928A95E9F710928103109252
:1035500082030895CF93DF93EC01FB0182818823DE
:1035600009F420C1C430FDE5DF07C8F5CB3F9CE579
:10357000D90730F49E0122503C452431310598F59D
:103580000E9466149093410480934004C031FCE58E
:10359000DF0709F4E0C008F061C0C8309CE5D90736
:1035A00009F4CBC088F5C430FCE5DF0709F4B3C0EB
:1035B000E8F4C2309CE5D90709F4A7C08091400423
:1035C0008260C330DC4509F4A3C08091400490912F
:1035D00041040E9474140E94470D80E004C0C2366A
:1035E000EDE5DE0769F2DF91CF9108958091400407
:1035F0008061C630FCE5DF0709F48AC008F48FC09B
:1036000080914004806284C0809140048D7FCC30E2
:103610009CE5D90709F47CC070F4809140048C606B
:10362000CA30FCE5DF0709F473C008F48AC0809152
:1036300040048E7F6DC080914004877FCE309CE532
:10364000D90709F465C0809140048B7FCF30DC45F9
:1036500008F45EC0809140048F7E5AC0CD3FFCE5E7
:10366000DF0709F474C040F5C4319CE5D90709F4BB
:103670008AC058F4C231FCE5DF0709F474C008F4CD
:103680006EC080914004837F43C0CB3F9CE5D90747
:1036900009F449C008F04DC0C531DC4509F095CFAB
:1036A0008091400482FB992790F921E0922790FBBA
:1036B00082F990FB83F92CC0C1308DE5D80709F45D
:1036C00058C088F4809141048360CF3FECE5DE0769
:1036D00069F1809141048D7FC115DD4538F18091FC
:1036E00041048C7F23C0C3308DE5D80709F458C04E
:1036F00008F452C0C236DD4509F067CF909140040E
:10370000892F8F7E94FF806103C080914004816087
:10371000809340045ACF809140048460F9CF809117
:1037200040048860F5CF809141048160809341041A
:103730004CCF809141048260F9CF80914004806435
:10374000E7CF0E94470D809140048068E1CF8091CF
:1037500041048E7FEBCF809140048F7DD9CF809143
:1037600040048F7BD5CF0E94470D809140048F7716
:10377000CFCF80914104982F909591708E7F892BA7
:1037800090FB81F9D3CF0E94470D90914004892F7F
:1037900097FB87F98058BCCF81E00E94FA1415CFBF
:1037A00080E0FBCF81E01FCF08950F931F93CF934D
:1037B000DF938091F403E09189031CE081111AC02A
:1037C000DF91CF911F910F91089501E00E0F0093AB
:1037D0008903CE2FD0E0E19FF0011124EC56FC4F7D
:1037E00083819481892B29F08081918189238F3F66
:1037F000E9F4E02F8091F403E81738F31092F40312
:1038000010928903DDCF18968D919C918F3F980778
:10381000D1F061E00E94D41B1C9FF0011D9FF00DB0
:103820001124EC56FC4F14821382E3CF1C9FD0016D
:103830001D9FB00D1124AC56BC4F16968D919C91D6
:103840001797892B01F32081318142815381648153
:103850007581868197810E944812DECF1092F6030F
:103860001092F50320912D0130912E01E0E0F1E05E
:1038700090E080E02817390709F408954581411147
:1038800002C01482168201963796F4CFDC01609153
:10389000920380919303962F891301C00895292FD5
:1038A00030E0F901EE0FFF1FE657FC4F40815181D8
:1038B0004A175B07A1F487E08A9FA0018B9F500DF8
:1038C000112440505F4F81E0FA0184839613E6CFC4
:1038D0002F5F3F4F237033272093920308952F5F6C
:1038E0003F4F922F9370D8CF7F928F929F92AF923B
:1038F000BF92CF92DF92EF92FF920F931F93CF93DD
:10390000DF93EB012C81211165C07090F403A4E9D1
:10391000B3E030E020E0812C61E070E0271508F092
:1039200042C01A96CD90DC901B97A880B9804FEFCB
:103930005FEF912CE92CF12CF701EE0FFF1FEA0D40
:10394000FB1D05911491C016D10609F4A701012BA6
:1039500011F09394EFCF4F3F5407C1F1FB0102C028
:10396000EE0FFF1F4A95E2F78E2AAB0102C0440F0B
:10397000551F9A94E2F7415051098416150611F526
:103980004A815B816CE0629FF001639FF00D11241E
:10399000EC56FC4F578346832EEF2083218391877B
:1039A000808721E02D83DF91CF911F910F91FF90B0
:1039B000EF90DF90CF90BF90AF909F908F907F90CF
:1039C0000C94461C14961C921E9213972F5F3F4F27
:1039D0001C96A4CFDF91CF911F910F91FF90EF9094
:1039E000DF90CF90BF90AF909F908F907F90089581
:1039F0001F93CF93DF93C091920317E080919303BD
:103A00008C1307C00E94D51BDF91CF911F910C949E
:103A10002E1CD0E0FE01EE0FFF1FE657FC4F808109
:103A20009181189FB001199F700D112460507F4F34
:103A30000E94741C2196C370E1CFEF92FF921F93F6
:103A4000CF93DF93FC012081318110E040E050E012
:103A5000E52FF0E0EE0FFF1FE20FF31FA591B491E9
:103A60001097B9F0FB01C081D18140E005C0AE15CF
:103A7000BF0509F411E04F5FE42FF0E0EE0FFF1FE8
:103A8000EC0FFD1FE590F490E114F10481F75F5F06
:103A9000DFCF112349F0451708F4CB01DF91CF9117
:103AA0001F91FF90EF90089590E080E0F7CF809114
:103AB0002C01882341F18091F7039091F80300973E
:103AC00011F10E948E252091F5033091F6032817FD
:103AD0003907C8F49091920380919303981759F095
:103AE0000E94F81C1092F6031092F5031092F8034E
:103AF0001092F70308950E94D51B1092F8031092BC
:103B0000F7030C942E1C08951092F8031092F703FB
:103B100010922C0180919303809392030E942E1C9B
:103B20000C94D51B80912C0181110C94841D81E093
:103B300080932C0108952F923F924F925F926F9243
:103B40007F928F929F92AF92BF92CF92DF92EF922D
:103B5000FF920F931F93CF93DF93CDB7DEB72997D3
:103B60000FB6F894DEBF0FBECDBF6C013B01FB0169
:103B70001281883FFCE59F07F9F4112321F181E0D0
:103B800080932C01812F29960FB6F894DEBF0FBECB
:103B9000CDBFDF91CF911F910F91FF90EF90DF90FC
:103BA000CF90BF90AF909F908F907F906F905F90DD
:103BB0004F903F902F900895893F2CE5920709F090
:103BC0004DC0111148C000E011E0F12CE12C198624
:103BD00088248394912C80912D0190912E01E816D8
:103BE000F90608F445C0F3018281882309F45EC117
:103BF000F985FF2309F45AC10E9476259093F803B2
:103C00008093F7038091F403883008F591E0980FD2
:103C10009093F40398E0F301DE01119601900D9268
:103C20009A95E1F72CE0829FC00111248C569C4F9D
:103C300028E0FE013196DC0101900D922A95E1F712
:103C40002FEF3FEFFC0131872087D386C28611E03A
:103C5000F9851F2797CF0E94841D94CF8A3F9C45EA
:103C600009F0B1CF112309F4AECF0E94921D8ACF83
:103C7000F80160817181AA24AA94BA2C20E0422F15
:103C800050E0FA01EE0FFF1FE60FF71F85919491A8
:103C9000C816D90609F45A01892B11F02F5FEFCF0E
:103CA000312CFFEFAF16BF0609F444C0F801448180
:103CB00030902C01832D411180E0F82FF1703F2EC0
:103CC000F80155808681F3019281992309F48DC012
:103CD000332009F48AC0511014C0A40101C0440F5C
:103CE000AA94EAF7842BF80186838091F5039091DA
:103CF000F603C29730F462E370E07093F6036093CA
:103D0000F503C40102C0880F991F2A95E2F70197B5
:103D1000F80126812817190669F48091F70390911C
:103D2000F803009781F00E948E25C39760F021E090
:103D3000F8012483F985F329F9872FEFE21AF20AB3
:103D4000095F1F4F48CF2090920390E080E02091C0
:103D50009303221215C08017910761F3A22CB12C96
:103D6000F501EE0FFF1FE657FC4FF182E0826FEF87
:103D7000A61AB60A73E0A722BB24A0929303DACF57
:103D8000A22CB12CF501EE0FFF1FE657FC4F20814E
:103D9000318147E0429FC001439F900D1124BC0137
:103DA00060507F4F2B01B801C2010E941D1D00977A
:103DB000A9F021E0FC0124838017910709F4BACF10
:103DC0002091920322120AC04816590639F495012F
:103DD0002F5F3F4F23703327209392033FEFA31AA7
:103DE000B30A4A2D4370242EB2CF90E051101FC069
:103DF000F40102C0EE0FFF1F2A95E2F79F01215048
:103E000031092817390731F4442309F44DC0C7019B
:103E10000E94461CC40101C0880FAA94EAF7982F9B
:103E20009095F801868189238683352C83CF9C0168
:103E30000A2C02C0359527950A94E2F7A901417032
:103E40005527BC016150710986239723892B41F5C1
:103E5000452B31F1F80182819381892BE1F01B829E
:103E60001C821D821E82FEEFF983FA830E94762552
:103E70008160582F9D838C83F801828193818F8389
:103E8000988729813A814B816D817E810E944812F9
:103E9000F8011582BFCF60E0C7010E94D41BF8CFA4
:103EA000F22FF1705F2EB6CF532CB4CF90919203C6
:103EB00080919303981719F00E94F81CC8CE0E94B5
:103EC000D51B1092F8031092F7030E942E1CBFCE50
:103ED000CF93C82F1F928F938FEE94E09F938F9371
:103EE0000E94270761E070E080E090E004C0660F68
:103EF000771F881F991FCA95D2F70E94AA0D0F90AD
:103F00000F900F900F90CF910C94470D883208F0CE
:103F100044C08E3108F076C08B3009F447C030F4CD
:103F2000873009F483C084EB94E082C0833109F4C4
:103F30005CC08431C1F786ED94E00E948E068091CA
:103F4000FD03882309F4A0C01092FD031092FC0326
:103F50001092FB031092FA031092F9032091FD03D3
:103F6000222309F48CC08091F9039091FA03009701
:103F700011F48EE991E09F938F931F922F9382EA21
:103F800094E09F938F930E9427070F900F900F90BC
:103F90000F900F900F9081E008958F3409F44BC07B
:103FA000D0F4893241F2883309F0BDCF89ED94E035
:103FB0000E948E0683E494E09F938F930E942707CC
:103FC00083E594E09F938F930E9427070F900F90B3
:103FD0000F900F90C3CF813509F441C008F441C060
:103FE000823509F0A0CF81E027C088EC94E00E94E0
:103FF0008E0683E494E09F938F930E9427070F908F
:104000000F90ACCF1092FD0385EC94E00E948E06D9
:104010008091FD03882309F4A1CF1F928F9381EC37
:1040200094E09F938F930E942707D0CF87EB94E073
:104030000E948E0693CF8AE0E091FB03F091FC038F
:104040003097D1F02081082E000C990B820F911D22
:104050008F3F910541F03CF08FEF808307C08FEFD9
:10406000EBCF86EFE9CF97FFF8CF108280811F92C8
:104070008F938EEA94E0D5CF8BEA94E0D9CF8EE986
:1040800094E00E948E0687CF80E00895DF92EF9241
:10409000FF920F931F93CF93DF93EBEFE80FEF3374
:1040A00008F030C1F0E0EC51F24D0C947C2D0E94F0
:1040B00062141F928F938CE499E09F938F930E94D8
:1040C00027070E945E1483FB992790F91F929F9304
:1040D00082FB992790F91F929F9381FB992790F972
:1040E0001F929F93982F91701F929F931F928F936F
:1040F00083E099E09F938F930E9427070E946614A4
:1041000087FB222720F91F922F9386FB222720F975
:104110001F922F9385FB222720F91F922F9384FB58
:10412000222720F91F922F9383FB222720F91F9229
:104130002F9382FB222720F91F922F9391FB222796
:1041400020F91F922F93292F21701F922F9381FB0B
:10415000222720F91F922F93282F21701F922F932F
:104160009F938F938EE198E09F938F930E942707F0
:104170008DB79EB788960FB6F8949EBF0FBE8DBFC1
:1041800081E01CC08CE09AE00E948E060E94F81428
:10419000F7CF8CE696E00E948E06F2CF80917C03EA
:1041A000807F80937C0385E496E00E948E0688E001
:1041B0009AE00E948E0681E08093FE03DF91CF910A
:1041C0001F910F91FF90EF90DF9008958CEE99E092
:1041D0000E948E060E94A508D3CF90917C03892F60
:1041E0008E7F90FF816080937C0380FF03C080EE10
:1041F00099E0D1CF83ED99E00E948E0680917C03F7
:10420000817F80937C03BCCF90917C03892F8D7F2D
:1042100091FF826080937C0381FF08C086EC99E067
:104220000E948E0680917C038160EBCF88EB99E041
:10423000B2CF90917C03892F8B7F92FF8460809313
:104240007C0382FF03C089EA99E0EACF89E999E01B
:10425000A2CF90917C03892F877F93FF8860809302
:104260007C0383FF03C08DE899E0DACF80E899E012
:1042700092CF88E795E08FCF0E948225062FF72EF8
:10428000E82ED92EC0914004C7FBCC27C0F910916D
:104290003F04D0913B010E944023DF92EF92FF92B6
:1042A0000F931F92CF931F921F931F92DF931F9222
:1042B0008F9384EF94E09F938F930E9427078DB78D
:1042C0009EB70E960FB6F8949EBF0FBE8DBF58CF07
:1042D0000E94470D90914004892F97FB87F98058E1
:1042E0008093400487FF03C086E799E054CF8BE6B4
:1042F00099E051CF80E00E94681F42CF8953FBCFE5
:104300008D51F9CF89E699E00E948E0680E056CF64
:1043100080E008950C948821CF93C82F8091FE03EC
:104320008130C1F0882339F0823009F444C0109202
:10433000FE0380E00DC00E9432138232D1F78C2F31
:104340000E94882181111BC08C2F0E944620817001
:10435000CF9108950E943213823289F38C2F0E94EC
:104360008A2181111BC0C431D9F060F4CB3071F0C7
:10437000C031D1F089EE94E00E948E0613C081E036
:1043800090E0E5CFC93261F0C833A1F785E496E04B
:104390000E948E068BEE94E00E948E0681E0D7CFBD
:1043A0001092FE0380E0D3CF82E08093FE0388E387
:1043B0000E94861FF3CF8C2F0E94861F81E0C8CFFA
:1043C000CF93DF93EB0186319C4511F50E943213A8
:1043D0009A81992399F08A7A91E009F490E0909378
:1043E000FF03811109C089E20E94E8120E94911323
:1043F00080E0DF91CF91089585E3F6CF8091FF03B0
:10440000811104C089E20E94EF12F0CF85E3FBCF57
:1044100081E0EFCF9C0126563D452032310538F42E
:104420008556FB019281992321F00E942F2281E081
:1044300008950E945222FBCF1092000410920104B2
:104440001092020410920304089560910004709188
:10445000010480910204909103040C94E123482FFD
:104460004150550B81E090E0A0E0B0E004C0880F1F
:10447000991FAA1FBB1F4A95D2F740910004509183
:1044800001046091020470910304842B952BA62BE8
:10449000B72B8093000490930104A0930204B0937F
:1044A000030408958150990B41E050E060E070E012
:1044B00004C0440F551F661F771F8A95D2F7409599
:1044C0005095609570958091000490910104A091A1
:1044D0000204B091030484239523A623B723809379
:1044E000000490930104A0930204B0930304089580
:1044F0000F931F93CF93DF93C42FD22FFC018281A0
:104500008823C9F0409306040E9476259093050401
:104510008093040480E28C0F883008F050C0C7708C
:1045200081E001C0880FCA95EAF7DF91CF911F9112
:104530000F910C94A30A10910604141335C08091B6
:104540000404909105040E948E25883C910560F535
:10455000C0E2CD0F1D17B9F080E2810F883040F422
:10456000177081E001C0880F1A95EAF70E94AA0A25
:10457000C83048F481E09D2F977001C0880F9A954C
:10458000EAF70E94A30A802F0E949B0AC830B8F461
:10459000D77081E001C0880FDA95EAF7DF91CF91FB
:1045A0001F910F910C94AA0A80E28C0F883038F486
:1045B000C77081E001C0880FCA95EAF7EFCFDF919D
:1045C000CF911F910F9108950F939C01CB01243F30
:1045D0004CE5340759F1A8F4293DFCE53F0701F10A
:1045E0002A3D4CE53407D1F1283D3C4591F406E2E3
:1045F00021EE41EE68ED7CE50E94782280E00F918B
:104600000895263FFCE53F07E9F0B0F0273F3C4521
:10461000F9F0FC018281882339F110920604EFCF72
:1046200007E225EE45EE69ED7CE5E6CF06E221EEF8
:1046300040EE64EF7CE5E0CF07E225EE44EE65EF67
:104640007CE5DACF06E221EE42EE66EF7CE5D4CFE0
:1046500007E225EE46EE67EF7CE5CECF08E221E0EB
:1046600045EE6AED7CE5C8CF81E0C9CF9093B301F8
:104670008093B20108959093100480930F040895DD
:10468000E0910F04F0911004309721F00190F08137
:10469000E02D099480E00895EF92FF920F931F930D
:1046A000CF93DF93EC01E0910F04F0911004309769
:1046B00009F446C080913B01882341F08091400479
:1046C00087FF04C08881898386E088830280F38124
:1046D000E02DCE01099580917C0382FF31C080FFDF
:1046E00004C085E29AE00E948E0610E000E08FE1AF
:1046F000E82E8AE0F82E80917C0380FF0EC0FE0138
:10470000E00FF11F80811F928F93FF92EF920E9422
:1047100027070F900F900F900F900F5F1F4F0830DB
:10472000110549F780917C0380FF0AC08DE19AE072
:10473000DF91CF911F910F91FF90EF900C948E0617
:10474000DF91CF911F910F91FF90EF900895E0912D
:104750000F04F0911004309739F022E0DC012C9323
:104760000480F581E02D0994089520910D04309185
:104770000E042817390771F090930E0480930D04EE
:10478000E0910F04F0911004309721F00680F7813A
:10479000E02D0994089520910B0430910C04281702
:1047A000390771F090930C0480930B04E0910F048F
:1047B000F0911004309721F00084F185E02D0994E8
:1047C00008950F931F9300910704109108042091FE
:1047D000090430910A040617170728073907A1F0C2
:1047E00060930704709308048093090490930A046B
:1047F000E0910F04F0911004309731F00284F385BA
:10480000E02D1F910F9109941F910F910895FC01C4
:10481000329680913B01882321F0809140049EE1F3
:1048200087FF96E080E0915008F4089521912223BB
:10483000D1F38F5FF8CF662301F120913B01222352
:10484000F1F02091400427FF1AC0462F4695469567
:1048500046954E3190F4677021E030E002C0220F9F
:10486000331F6A95E2F7840F911DFC01828190E06D
:104870002823392381E0232B69F480E00895FC018B
:10488000329608962191261721F0E817F907D1F7FB
:10489000F4CF81E008959C01FC0132969FEF80E007
:1048A0004191461751F09F3F19F4411101C0982FD3
:1048B0008F5F8630A9F79F3F09F40895290F311DB6
:1048C00097FD3A95F90162830895FC0132960896A6
:1048D0002191261303C0DF0111971C92E817F907F5
:1048E000B9F70895E62FE695E695E695EE3170F472
:1048F000E80FF92FF11D677021E030E001C0220FB1
:104900006A95EAF78281822B8283089580917C03E5
:1049100080FF0CC01F926F9385E59AE09F938F9361
:104920000E9427070F900F900F900F900895E62F89
:10493000E695E695E695EE3178F4E80FF92FF11D4E
:10494000677021E030E001C0220F6A95EAF72095F8
:10495000828128232283089580917C0380FF0CC0EC
:104960001F926F9387E39AE09F938F930E9427078C
:104970000F900F900F900F90089520913B012223EC
:1049800029F02091400427FD0C9472240C944B24B0
:1049900020913B01222329F02091400427FD0C9413
:1049A00097240C946524FC01329680913B01882366
:1049B00051F08091400487FF06C08EE1DF011D9217
:1049C0008A95E9F7089586E0F9CF08950C94E524D7
:1049D000811105C081E0809311040C94E62482E0EB
:1049E000FACF83E0809311040C94E6240C94E8241D
:1049F00081E0809311040C94E6240C94F82408952B
:104A000080914A04843031F10E94A008109212046F
:104A100088E190E020E40FB6F894A89580936000B8
:104A20000FBE2093600083B7817F846083BF83B70C
:104A3000816083BF7894889583B78E7F83BF0FB6DC
:104A4000F894A8958091600088618093600010922E
:104A500060000FBE089508950895CF930E942B25FE
:104A60000E9438070E942C25C0E08C2F0E949607D8
:104A7000892B31F4CF5FC530C1F780E0CF91089525
:104A800081E0FCCF0E94470D0C9423091F921FB6B2
:104A90001F9211248F939F93AF93BF938091120421
:104AA000811113C08091420490914304A091440469
:104AB000B09145044196A11DB11D8093420490938D
:104AC0004304A0934404B0934504BF91AF919F91D8
:104AD0008F911F901FBE1F90189582E084BD93E0B8
:104AE00095BD9AEF97BD80936E0008952FB7F89407
:104AF0008091420490914304A0914404B0914504F4
:104B00002FBF08952FB7F894609142047091430429
:104B100080914404909145042FBF08959C014FB7A4
:104B2000F8948091420490914304A0914404B09180
:104B300045044FBF821B930B089578941F921FB6B4
:104B40001F9211248F939F93AF93BF938091420440
:104B500090914304A0914404B09145040196A11D95
:104B6000B11D8093420490934304A0934404B093F6
:104B70004504BF91AF919F918F911F901FBE1F90D1
:104B8000189587E797E7909301088093000888E1DC
:104B90009AE00FB6F894A895809360000FBE9093AA
:104BA0006000FFCF80913E0408959C0180914A04EB
:104BB0008430E9F482E08093E9009FEF8091E8007F
:104BC000915085FD06C085ED8A95F1F700009111A1
:104BD000F5CF8091E80085FF0AC050E040E0C901B0
:104BE0000E94E0288091E8008E778093E800089585
:104BF000E8E1F4E025E0208361837283838394837A
:104C000065E070E0CF010C94D525E5E1F4E024E007
:104C100020839283818363E070E0CF010C94D525DB
:104C20009C0182E08093E9009FEF8091E800915021
:104C300085FD06C085ED8A95F1F700009111F5CF4D
:104C40008091E80085FF0CC050E040E066E070E035
:104C5000C9010E94E0288091E8008E778093E800E7
:104C60000895CF93DF93EC0180913B018823B1F14C
:104C70008091400487FF32C060E282E08093E900C7
:104C80008FEF9091E800815095FD06C095ED9A95C3
:104C9000F1F700008111F5CF8091E80085FF1BC07E
:104CA00080913B0170E050E040E0811104C050E091
:104CB00040E068E070E0CE010E94E0288091E800CA
:104CC0008E778093E80080E2FE01AEE1B4E00190CF
:104CD0000D928A95E1F7DF91CF91089568E081E028
:104CE000CDCFE5E1F4E023E020839283818363E08C
:104CF00070E0CF010C94D52587E89AE00E948E06DB
:104D000080914904811109C00E94702A0E94CD2A15
:104D10008091E20084608093E200089583E89AE045
:104D20000E948E061092490408958FE79AE00E942F
:104D30008E060C94F8248BE79AE00E948E06609110
:104D4000460481E0611101C080E00C94F12487E702
:104D50009AE00E948E0690914A0481E0943009F016
:104D600080E0609146040C94F624209114042F5F97
:104D7000822F62E30E94702D992319F0209314046E
:104D800008951092140480911D048823F1F08091FD
:104D90004A048430C1F49091E9009F702091EC00A6
:104DA000822F817020FD80E8892B93E09093E900A9
:104DB0009091EB0090FF04C09091EE0097FD08C029
:104DC0008F708093E90010921D0408951092F100F5
:104DD0009091E80095FDFACF9091E80090FFF0CF18
:104DE0009091E8009E779093E800EACF42E061EC72
:104DF00081E00E94EC2942E261EC82E00E94EC2911
:104E000042E261EC83E00E94EC2990914A0481E047
:104E1000943009F080E0609146040C94E82480917D
:104E20004C04833009F460C030F48130C9F1823021
:104E300009F49CC008958A3009F488C08B3009F4C5
:104E40006EC0893009F04FC080914B04813209F067
:104E50004AC080914F0490915004029708F043C0DB
:104E60008091E800877F8093E8008091E80082FFCE
:104E700036C09091F3008091F200029731F4809156
:104E8000F100813011F0863021F48091F10080939F
:104E90003E048091E8008B778093E8000C94202AF0
:104EA00080914B04813AF9F48091E800877F8093E8
:104EB000E80080914F0490915004892B61F460E2E6
:104EC0008EE194E070E00E942F298091E8008B77BA
:104ED0008093E800089560E090E080E0F3CF809157
:104EE0004A048111C2CF089580914B04813AD9F7C9
:104EF00080914F0490915004892BA9F78091E8008C
:104F0000877F8093E8008091E80080FFFCCF80914C
:104F10003B018093F1008091E8008E77BDCF8091B6
:104F20004B04813201F780914F0490915004892BFA
:104F3000D1F68091E800877F8093E8000E94202AC4
:104F400080914D0480933B010C94470D80914B045C
:104F5000813249F68091E800877F8093E8000E94C3
:104F6000202A80914E0480933F04089580914B0441
:104F7000813A09F0B8CF8091E800877F8093E800FC
:104F80008091E80080FFFCCF80913F04C2CF9FB7A3
:104F9000F89410921D049FBF90914A04943009F038
:104FA00048C02091E9002F703091EC00932F917050
:104FB00030FD90E8922B23E02093E9002091EB0054
:104FC00020FF34C02091EE0027FF30C02091130451
:104FD000222321F02091E80025FF28C0109213041D
:104FE00026E03091E80035FF14C08093F1008091F5
:104FF000E80085FD27C08091E80080FFFCCF80910C
:10500000E8008E778093E8009F709093E90080E03D
:10501000089530914A04343049F43091EB0035FD65
:1050200005C0215041F481E0809313049F70909358
:10503000E9008FEF0895EFE9FFE03197F1F700C045
:105040000000CFCF8FB7F89421E020931D048FBFCD
:10505000DBCF84B7877F84BF0FB6F894A895809183
:105060006000886180936000109260000FBE80E84D
:1050700090E00FB6F89480936100909361000FBEAA
:105080000C94FD240E94702A0E94CD2AE2EEF0E0EA
:1050900080818460808378940C94552D8FE291E018
:1050A0000C943B2380914A048530C9F483E79AE04D
:1050B0000E948E0680914A04853011F00C9442259E
:1050C0000E940025809148048823A1F30E942D2589
:1050D000882381F30E94CA280E94470DEBCF0895D0
:1050E00008950C947328292F33272330310521F19B
:1050F00068F42130310509F443C02230310509F448
:1051000044C090E080E030E020E026C0213231054C
:1051100051F122323105A9F76330710590F7FB0197
:10512000EE0FFF1FEB55FE4F208131816E557E4FF4
:10513000FB01808190E010C099278130910581F0BA
:10514000009729F00297E9F6EBE8FAE002C0EBECF1
:10515000FAE0849190E09F01FA0131832083089561
:10516000EBEAFAE0F6CF6330710558F6660F771F69
:10517000FB01E555FE4F2081318189E090E0ECCFC5
:1051800082E190E02AE23BE0E7CF8BE590E02FEC74
:105190003AE0E2CF80E189BD82E189BD09B400FE39
:1051A000FDCF8091D8008F7D8093D8008091E00062
:1051B00082608093E0008091E00081FDFCCF089543
:1051C000AF92BF92CF92DF92FF920F931F93CF9334
:1051D000DF936C01EB018A010E943F2AF82E8111B6
:1051E00023C00115110539F0F80180819181C81B98
:1051F000D90BC80ED91EB12CA12C2097A9F08091F3
:10520000E80085FD22C08091E8008E778093E80059
:1052100001151105A1F0F80180819181A80EB91E38
:10522000B182A08285E0F82E8F2DDF91CF911F9162
:105230000F91FF90DF90CF90BF90AF9008950E94A4
:105240003F2A8823D1F2F82EEFCFF60181916F012A
:105250008093F1002197FFEFAF1ABF0ACECFFC0178
:10526000809151049091520486179707A0F0611520
:10527000710529F49091E8009E779093E80090E002
:105280006115710551F4911108C08091E80082FF09
:1052900034C080E00895BC01F2CF80914A04882395
:1052A000C1F18530C1F18091E80083FD30C080916B
:1052B000E80082FDEACF8091E80080FFE1CF809195
:1052C000F3002091F200382F6115710519F0283094
:1052D000310558F091E02830310509F090E0209137
:1052E000E8002E772093E800CBCF81918093F100E6
:1052F000615071092F5F3F4FE7CF80914A048823A7
:1053000041F0853041F08091E80083FFBECF81E01D
:10531000089582E0089583E00895FC01809151048E
:105320009091520486179707A0F06115710529F432
:105330008091E8008E778093E80090E06115710518
:1053400051F4911108C08091E80082FF35C080E0DF
:105350000895BC01F2CF80914A048823C9F18530B9
:10536000C9F18091E80083FD31C08091E80082FDA1
:10537000EACF8091E80080FFE1CF8091F300209197
:10538000F200382F6115710519F02830310558F0F9
:1053900091E02830310509F090E08091E8008E77A7
:1053A0008093E800CBCF84918093F10031966150D7
:1053B00071092F5F3F4FE6CF80914A04882341F067
:1053C000853041F08091E80083FFBDCF81E00895F2
:1053D00082E0089583E00895982F973028F08F7029
:1053E0008093E90081E008959093E900242F762FBF
:1053F00050E0981731F07091EC002091ED00509141
:10540000F00021FD02C09F5FE8CF3091EB003E7FAE
:105410003093EB003091ED003D7F3093ED00309103
:10542000EB0031603093EB007093EC002093ED00C3
:105430005093F0002091EE0027FDE5CF80E0089525
:1054400080914B0487FF13C08091E80082FF06C063
:105450008091E8008B778093E80004C080914A0433
:105460008111F2CF089580914A048823D9F3809165
:10547000E80080FFF8CF8091E8008E77ECCF209194
:10548000E4003091E50095E6A9012091EC00822F1F
:10549000817020FF06C08091E80080FF06C080E098
:1054A00008952091E80022FD1AC080914A048823C3
:1054B00089F0853089F08091EB0085FD0FC0209147
:1054C000E4003091E50042175307F9F29150E1F6FC
:1054D00084E0089582E0089583E0089581E00895CE
:1054E0000E94DE2A0E94E62AE0EEF0E080818160E0
:1054F0008083E8EDF0E080818F77808319BCA7ED91
:10550000B0E08C918E7F8C9380818F7E808310920F
:10551000490408950F931F93CF93DF930E94DE2ACF
:105520000E94E62AC8EDD0E088818F778883888141
:105530008068888388818F7D888319BC10924A0493
:1055400010924604109248041092470400EE10E0B6
:10555000F80180818B7F808388818160888342E02D
:1055600060E080E00E94EC29E1EEF0E080818E7F37
:105570008083E2EEF0E080818160808380818860BA
:105580008083F80180818E7F808388818061888319
:10559000DF91CF911F910F910895E8EDF0E08081A8
:1055A0008F7E8083E7EDF0E080818160808384E0FE
:1055B00082BF81E0809349040C948A2AE8EDF0E0F0
:1055C00080818E7F80831092E20008951092DA002D
:1055D0001092E10008951F920F920FB60F921124BE
:1055E0002F933F934F935F936F937F938F939F93EB
:1055F000AF93BF93EF93FF938091E10082FF0BC0C5
:105600008091E20082FF07C08091E1008B7F809350
:10561000E1000E94B5268091DA0080FF19C08091D8
:10562000D80080FF15C08091DA008E7F8093DA0069
:105630008091D90080FF96C080E189BD82E189BD5B
:1056400009B400FEFDCF81E080934A040E947C26CD
:105650008091E10080FF19C08091E20080FF15C0B9
:105660008091E2008E7F8093E2008091E200806171
:105670008093E2008091D80080628093D80019BCAA
:1056800085E080934A040E949B268091E10084FF7C
:105690002BC08091E20084FF27C080E189BD82E1B8
:1056A00089BD89B5982F917080FFFBCF8091D8007C
:1056B0008F7D8093D8008091E1008F7E8093E10000
:1056C0008091E2008F7E8093E2008091E200816011
:1056D0008093E20080914604882309F449C084E065
:1056E00080934A040E94A7268091E10083FF29C08D
:1056F0008091E20083FF25C08091E100877F809345
:10570000E10082E080934A04109246048091E10017
:105710008E7F8093E1008091E2008E7F8093E20093
:105720008091E20080618093E20042E060E080E0EE
:105730000E94EC298091F00088608093F0000E9424
:105740009526FF91EF91BF91AF919F918F917F919E
:105750006F915F914F913F912F910F900FBE0F90DE
:105760001F90189519BC10924A040E948E2670CF83
:105770008091E30087FD93E090934A04B3CF1F929A
:105780000F920FB60F9211242F933F934F935F9375
:105790006F937F938F939F93AF93BF93CF93DF9339
:1057A000EF93FF93D091E900DF708091EC00C82F58
:1057B000C17080FDC0E81092E9008091F000877F01
:1057C0008093F00078940E94032C1092E90080915D
:1057D000F00088608093F000CD2BCF70C093E9007B
:1057E000FF91EF91DF91CF91BF91AF919F918F91F9
:1057F0007F916F915F914F913F912F910F900FBECD
:105800000F901F9018951F93CF93DF93CDB7DEB7FE
:10581000AA970FB6F894DEBF0FBECDBF8BE494E01D
:105820002091F100FC012193CF01F4E083359F0723
:10583000B9F70E940F278091E80083FF1EC1809175
:105840004B0490914C049A3008F017C1E92FF0E016
:10585000ED5DF14D0C947C2D803899F0823809F083
:105860000CC180914F048F70873008F006C180937F
:10587000E9008091EB0085FB882780F91092E90010
:1058800006C08091470490914804911182609091E4
:10589000E800977F9093E8008093F1001092F10068
:1058A0008091E8008E77E5C0882309F4D3C0823068
:1058B00009F0E3C080914D048111D6C080914F045E
:1058C0008F702FEF280F263008F0D7C08093E900A3
:1058D0002091EB0020FFC8C0933031F48091EB00A1
:1058E00080628093EB00C0C09091EB009061909338
:1058F000EB0021E030E001C0220F8A95EAF7209307
:10590000EA001092EA008091EB008860EACF8111F2
:10591000B4C010914D041F778091E3008078812BF3
:105920008093E3008091E800877F8093E8000E94E5
:10593000202A8091E80080FFFCCF8091E3008068FE
:105940008093E30082E0111183E080934A0495C0C4
:105950008058823008F091C080914D0490914E049F
:105960008C3D23E09207A1F583E08A838AE2898354
:105970004FB7F894DE01139620E03EE051E2E32FAA
:10598000F0E050935700E49120FF03C0E295EF70E0
:105990003F5FEF708E2F90E0EA30C0F0C7968D9396
:1059A0009D932F5F243159F74FBF8091E800877F87
:1059B0008093E8006AE270E0CE0101960E942F29F0
:1059C0008091E8008B778093E80057C0C096E7CFBE
:1059D00060914F0470915004AE014F5F5F4F0E9481
:1059E0007128BC01892B09F448C09091E800977F89
:1059F0009093E80089819A810E948D29E1CF8038B7
:105A0000E1F58091E800877F8093E800809146046B
:105A10008093F10045CF811130C090914D049230B8
:105A200060F58091E800877F8093E80090934604BA
:105A30000E94202A80914604882311F084E005C04A
:105A40008091E30087FDFACF81E080934A040E94B1
:105A5000F62613C080914D04813079F481E09330B3
:105A600009F080E0809348041092E9008091E800FA
:105A7000877F8093E8000E94202A8091E80083FFBE
:105A80000AC08091E800877F8093E8008091EB0056
:105A900080628093EB00AA960FB6F894DEBF0FBE2B
:105AA000CDBFDF91CF911F910895CF9380914A048C
:105AB0008823A1F0C091E900CF709091EC00892F6C
:105AC000817090FD80E8C82B1092E9008091E80079
:105AD00083FD0E94032CCF70C093E900CF910895FD
