:100000000C94B0060C94F7060C94F7060C94F706C3
:100010000C94F7060C94F7060C94F7060C94F7066C
:100020000C94F7060C94F7060C946A2C0C943E2D55
:100030000C94D7260C94F7060C94F7060C94F7064C
:100040000C94F7060C94F7060C94F7060C94F7063C
:100050000C94F7060C942E270C94F7060C94F706D4
:100060000C94F7060C9467080C94F7060C94F706AA
:100070000C94F7060C94F7060C94F7060C94F7060C
:100080000C94F7060C94F7060C94F7060C94F706FC
:100090000C94F7060C94F7060C94F7060C94F706EC
:1000A0000C94F7060C94F7060C94F7060A0025301A
:1000B000313662003A200025303258000A722F6330
:1000C00020303132333435363738394142434445B4
:1000D000460A0035001E001F0020002100220023D8
:1000E00000035124002500260027002D002E002BA0
:1000F0000014001A000800150017004A004D001CEB
:100100000018000C001200130031002961040016D1
:1001100000070009000A004B0049010B000D000E0A
:10012000000F003300340002551D001B00060019AB
:100130000005004E0049011100100036003700385C
:1001400000125503000500E30090642C422B614C23
:10015000002A0028002C415000510052004F003569
:10016000023A003B003C003D003E00440045003F99
:10017000004000410042004300350001001E021F04
:10018000022F0230023102010001000100F9005289
:10019000000100010001003900200221022602278F
:1001A00002240201000100FB00500051004F00FC3E
:1001B0000001000100220223022F0030006700012D
:1001C0000001000100FA000100010001000100012E
:1001D000000100010001000100295D010001000192
:1001E000000100010001000100010001003A003B94
:1001F000003C003D003E00440045003F00400041FF
:10020000004200430001000100010001005200F91A
:100210000001000100010057005F00600061002D37
:100220000067000100FB00500051004F00FC00017E
:1002300000010055005C005D005E00560067000193
:1002400000010001000100FA00010001000100624C
:100250000059005A005B000100010001000100018B
:100260000001000100010001000100010001000186
:1002700000010001000100005CFD5CFB5C0000006F
:10028000000000000000000000000000000000006E
:10029000000000000000000000000000000000005E
:1002A000000000000000000000000000000000004E
:1002B000000000000000000000000000000000003E
:1002C000000000000000000000000000000000002E
:1002D000000000000000000000000000000000001E
:1002E000000000000000000000000000000000000E
:1002F00000000000000000000000000000000000FE
:1003000000000044454255473A2064697361626CBD
:1003100065642E0A0044454255473A20656E616285
:100320006C65642E0A0000000000000000002A2B0B
:100330002800000000000000000000000000000095
:100340000029000000002C1E3420212224342627FE
:10035000252E362D3738271E1F202122232425261F
:100360003333362E37381F0405060708090A0B0CED
:100370000D0E0F101112131415161718191A1B1C35
:100380001D2F3130232D350405060708090A0B0CF3
:100390000D0E0F101112131415161718191A1B1C15
:1003A0001D2F3130354C000000000000000000001F
:1003B000000000000000000000000000000000003D
:1003C000000000000000000000007E0F00D4FFFFCE
:1003D000FFC7000000784F6E6573686F743A207431
:1003E000696D656F75740A004F6E6573686F743A56
:1003F000206163746976653A2025640A000A002545
:10040000303258006B6579626F6172645F73657436
:100410005F6C65643A2000290A002575002F0025CD
:1004200075005D280025640020002564002000255B
:10043000640020002564007C0025303258006D6F78
:100440007573656B6579205B62746E7C78207920AA
:100450007620685D287265702F61636C293A205B95
:1004600000313A0964656C6179282A31306D73294D
:100470003A2025750A323A09696E74657276616CA4
:10048000286D73293A2025750A333A096D61785F22
:1004900073706565643A2025750A343A0974696D8C
:1004A000655F746F5F6D61783A2025750A353A098A
:1004B000776865656C5F6D61785F73706565643AD8
:1004C0002025750A363A09776865656C5F74696D31
:1004D000655F746F5F6D61783A2025750A00703A28
:1004E000097072696E742076616C7565730A643A7E
:1004F000097365742064656661756C74730A757040
:100500003A092B310A646E3A092D310A6C743A09A2
:100510002B31300A72743A092D31300A4553432F7A
:10052000713A09717569740A0A7370656564203DD2
:100530002064656C7461202A206D61785F7370653A
:100540006564202A2028726570656174202F2074EC
:10055000696D655F746F5F6D6178290A7768657290
:10056000652064656C74613A20637572736F723DC7
:1005700025642C20776865656C3D25640A536565A4
:1005800020687474703A2F2F656E2E77696B6970CE
:10059000656469612E6F72672F77696B692F4D6F84
:1005A0007573655F6B6579730A004D3E20004D25BC
:1005B000753A25733E20003F0A003D2025750A004C
:1005C0003F0A0064656661756C74730A0025750ADC
:1005D000003F0A000A092D2056616C756573202DB5
:1005E0000A00710A000A092D204D6F7573656B654D
:1005F00079202D0A003F00433E20004C25640A006C
:100600000A092D20537461747573202D0A686F7365
:10061000745F6B6579626F6172645F6C6564732887
:10062000293A20253032580A6B6579626F6172640D
:100630005F70726F746F636F6C3A20253032580AA6
:100640006B6579626F6172645F69646C653A2025DD
:100650003032580A6B65796D61705F636F6E6669E1
:10066000672E6E6B726F3A20253032580A74696DAE
:1006700065725F72656164333228293A202530380B
:100680006C580A000A092D2056657273696F6E2036
:100690002D0A5649443A20307834443434284D6188
:1006A000747469612044616C2042656E2920504950
:1006B000443A20307835323537285265646F785F98
:1006C000776972656C65737329205645523A2030FC
:1006D00078303030310A4255494C443A2020284A7B
:1006E000756E2031302032303232290A4F50544951
:1006F0004F4E533A204C554641204D4F5553454B94
:1007000045592045585452414B455920434F4E536B
:100710004F4C4520434F4D4D414E44204E4B524F80
:1007200020343039360A4743433A20382E342E30AD
:10073000204156522D4C4942433A20322E302E3021
:10074000204156525F415243483A20617672350A41
:10075000000A092D20436F6E736F6C65202D0A45CA
:1007600053432F713A09717569740A6D3A096D6FB7
:100770007573656B65790A000A092D204D616769FB
:1007800063202D0A443A094465627567204D6573FC
:100790007361676520546F67676C650A583A094D45
:1007A0006174726978204465627567204D6F646575
:1007B00020546F67676C65202D2053686F77206B1E
:1007C00065797072657373657320696E206D6174ED
:1007D00072697820677269640A4B3A094B657962DD
:1007E0006F61726420446562756720546F67676C3F
:1007F00065202D2053686F77206B65797072657363
:1008000073207265706F72740A4D3A09446562759F
:1008100067204D6F75736520546F67676C650A5666
:100820003A0956657273696F6E0A533A09537461D7
:100830007475730A433A094163746976617465207B
:10084000436F6E736F6C65204D6F64650A46312D82
:100850004631303A0953776974636820746F204CCD
:100860006179657220302D392028463130203D20B5
:100870004C30290A302D393A09537769746368205E
:10088000746F204C6179657220302D390A475241CE
:1008900056453A0953776974636820746F204C6138
:1008A00079657220302028616C7465726E617465A0
:1008B000290A423A094A756D7020746F20426F6FA1
:1008C000746C6F616465720A4553433A094A756DE9
:1008D0007020746F20426F6F746C6F61646572205A
:1008E00028616C7465726E617465290A453A095015
:1008F00072696E7420454550524F4D205365747493
:10090000696E67730A4253504143453A09436C6527
:10091000617220454550524F4D0A4E3A094E4B5296
:100920004F20546F67676C650A006B65796D617065
:100930005F636F6E6669672E7261773A2025303289
:10094000580A2E737761705F636F6E74726F6C5F9D
:10095000636170736C6F636B3A2025750A2E636157
:1009600070736C6F636B5F746F5F636F6E74726FC5
:100970006C3A2025750A2E737761705F6C63746C16
:100980005F6C6775693A2025750A2E737761705F11
:100990007263746C5F726775693A2025750A2E73ED
:1009A0007761705F6C616C745F6C6775693A202564
:1009B000750A2E737761705F72616C745F72677510
:1009C000693A2025750A2E6E6F5F6775693A202592
:1009D000750A2E737761705F67726176655F657304
:1009E000633A2025750A2E737761705F6261636BCD
:1009F000736C6173685F6261636B73706163653AA6
:100A00002025750A2E6E6B726F3A2025750A0064D8
:100A1000656275675F636F6E6669672E7261773AAC
:100A200020253032580A2E656E61626C653A2025A9
:100A3000750A2E6D61747269783A2025750A2E6BDD
:100A40006579626F6172643A2025750A2E6D6F7543
:100A500073653A2025750A006565636F6E66696780
:100A60003A0A64656661756C745F6C617965723AA7
:100A70002025750A003F004E4B524F3A206F6666A4
:100A80000A004E4B524F3A206F6E0A000A6D6F7586
:100A900073653A206F66660A000A6D6F7573653A72
:100AA000206F6E0A000A6B6579626F6172643A208A
:100AB0006F66660A000A6B6579626F6172643A203C
:100AC0006F6E0A000A6D61747269783A206F66660B
:100AD0000A000A6D61747269783A206F6E0A000A22
:100AE00064656275673A206F66660A000A6465622B
:100AF00075673A206F6E0A000A0A4A756D70696E52
:100B00006720746F20626F6F746C6F616465722E02
:100B10002E2E2000433E2000436C656172696E6793
:100B200020454550524F4D0A000A002530325820CA
:100B3000006B6579626F6172645F7265706F727469
:100B40003A200064656C5F6B65795F6269743A2076
:100B500063616E27742064656C3A20253032580A30
:100B6000006164645F6B65795F6269743A206361F8
:100B70006E2774206164643A20253032580A005B85
:100B8000735D005B575D005B535D005B525D005B16
:100B9000445D005B435D001E035200650064006F0E
:100BA0000078005F0077006900720065006C0065E6
:100BB000007300730000001E034D00610074007498
:100BC00000690061002000440061006C00200042C8
:100BD0000065006E0000000403090409025B0003C5
:100BE0000100A0FA0904000001030101000921111C
:100BF0000100012240000705810308000A090401E1
:100C000000010300000009211101000122B60007C4
:100C100005820320000A0904020002030000000903
:100C20002111010001222200070583032000010792
:100C30000503032000011201000200000008444DDA
:100C400057520100010200010631FF0974A1010998
:100C500075150026FF00952075088102097615009C
:100C600026FF00952075089102C005010902A10127
:100C700085020901A10005091901290815002501AE
:100C80009508750181020501093009311581257F1B
:100C900095027508810609381581257F950175082B
:100CA0008106050C0A38021581257F95017508819A
:100CB00006C0C005010980A101850319012AB700FA
:100CC000150126B700950175108100C0050C0901BA
:100CD000A101850419012AA002150126A00295018F
:100CE00075108100C005010906A1018506050719D7
:100CF000E029E7150025019508750181020507190E
:100D00000029EF1500250195F075018102050819EC
:100D1000012905950575019102950175039101C0A1
:100D200005010906A101050719E029E715002501BC
:100D30009508750181029501750881010507190063
:100D400029FF150026FF0095067508810005081982
:100D5000012905950575019102950175039101C061
:100D600011241FBECFEFDAE0DEBFCDBF04B603FE15
:100D700027C080913B0490913C04A0913D04B09128
:100D80003E048730904BA740B04BD1F410923B0407
:100D900010923C0410923D0410923E0414BE84B79D
:100DA000877F84BF0FB6F894A89580916000886112
:100DB00080936000109260000FBEE0E0F8E30995B8
:100DC00011E0A0E0B1E0E4E5F5E602C005900D9287
:100DD000A03FB107D9F724E0A0EFB1E001C01D9218
:100DE000AB33B207E1F70E94F1190C9441320C9435
:100DF0000000FF93EF93E091F001F091F101309743
:100E000009F00995EF91FF910895FC0185918030DB
:100E100011F0EFDFFBCF0895FF27E0E230E247FF5C
:100E20000CC0419597FF09C0EDE2609570958095E3
:100E30009095611D711D811D911D27FF02C0219597
:100E400030E350E2AA27660F771F881F991FAA1F59
:100E5000A41710F0A41B63955A95A9F7AA3008F0BF
:100E6000A95FA05DAF93F3956115710581059105AB
:100E700041F7ED3211F4EF93F395F21718F43F9325
:100E8000F395FBCF8F91B5DFFA95E1F70895E991DE
:100E9000F9918591803021F0853219F0AADFF9CFE0
:100EA000089520E0E89455915532C1F3503311F480
:100EB000689455915A3348F4505390F3220F022E00
:100EC000220F220F200D250FF4CF0EF421958991CA
:100ED0009991533619F3533729F1533559F1BC0120
:100EE00088279927E8945C3621F489919991689430
:100EF0005591543639F446EF7EF077FF0DC08FEFF1
:100F00009FEF0AC055374AE039F0583540E121F0EB
:100F1000523642E009F00895FF93EF937DDFEF91A1
:100F2000FF91B7CFFF93EF93FC0181918030B9F32C
:100F300060DFFBCFFF93EF9368DFF1CFDF93CF93B9
:100F4000CDB7DEB72596A3DFCF91DF910895089541
:100F50000C94AE080E949C090C945C08EF92FF92DE
:100F60001F93CF93DF93CDB7DEB72B970FB6F894CF
:100F7000DEBF0FBECDBF83E78093CE00CE010196CA
:100F80007C018BE0D7011D928A95E9F7D7019E017C
:100F9000245F3F4FC70140E050E0BA011091C80004
:100FA00017FD0AC04F5F5F4F6F4F7F4F4131E7E240
:100FB0005E076105710590F31091CE00FC0111935D
:100FC000CF01E217F30751F78B85803EB1F422EF92
:100FD00031E0B701665F7F4F11968C911197F0E871
:100FE0008F9FC00111244C91842BF901819391931F
:100FF0009F0112966A177B0779F70E94A20981E088
:101000002B960FB6F894DEBF0FBECDBFDF91CF9108
:101010001F91FF90EF900895E82FF0E0EE0FFF1F73
:10102000EE50FE4F808191810895CF92DF92EF9232
:10103000FF920F931F93CF93DF938CEB90E00E946E
:10104000050782EFE82E81E0F82ED0E0C0E097EBB4
:10105000C92E90E0D92E0EEA10E0DF93CF93DF92F5
:10106000CF920E949E0784EB90E00E940507F70153
:10107000819191917F010E946C0B9F938F931F939D
:101080000F930E949E078CEA90E00E94050721962C
:101090008DB79EB708960FB6F8949EBF0FBE8DBF52
:1010A000C530D105D1F6DF91CF911F910F91FF90FF
:1010B000EF90DF90CF900895ECECF0E0108210827A
:1010C00088E18093C90086E08093CA0008958F93D9
:1010D0008FB78F939F93EF93FF93E091FD0181E092
:1010E0008E0F9091FC01981741F09091CE00F0E0A6
:1010F000E250FE4F90838093FD01FF91EF919F910D
:101100008F918FBF8F911895519A599A80B38063B0
:1011100080BB81B3806381BB08950E94A7070C94B4
:101120008408CF92DF92EF92FF926B017C010E94C4
:10113000070B823039F08D9A833029F0813061F4C9
:1011400059988C9A8D9A59988C9AC701B601FF903C
:10115000EF90DF90CF900895599AF6CF8091F403E5
:101160008823B9F18091F2039091F3030E941F2725
:10117000853F914070F11092F4038091E8039091C3
:10118000E903459721F58091EA039091EB0341979C
:10119000F1F48091EC039091ED032091EE033091F6
:1011A000EF03822B932B2091F0033091F103822BDC
:1011B000932B892B61F481EE0E94DC0B8FE30E945C
:1011C000DC0B8FE30E942F0C81EE0E942F0C0C94FD
:1011D000CD2308959C013A9521153F4150F5FC011E
:1011E000EE27F170BC0166277270AC014427547081
:1011F0009C012227387094FF0EC080E1EF2B09F488
:1012000080E0672B09F08062452B09F08064232B76
:1012100089F08068089581E0EF2B09F480E0672B66
:1012200009F08260452B09F08460232B19F0886057
:10123000089580E00895CF93DF93EC010E94EA08BF
:101240009E01205E31092830310510F0209739F4D5
:101250000E947D0C8C2FDF91CF910C94DC0B0E94AF
:10126000000FF8CFCF93DF93EC010E942F0CCE013B
:101270000E94EA089E01205E31092830310510F0F5
:10128000CD2B21F4DF91CF910C94840CDF91CF9181
:101290000C94070F81E0089581E008950C944C09A7
:1012A00008950C9450091F93CF93DF9300D000D082
:1012B0000F92CDB7DEB749835A836B833091FE021C
:1012C00089819A8131111DC06623B9F02223A9F0CA
:1012D0000E94CD10182F682F89819A810E94791061
:1012E00069817A81812F0F900F900F900F900F904E
:1012F000DF91CF911F910C94B3170E94A510182F66
:10130000EFCF0E94CD1069817A81EDCFFC01262FAD
:10131000408151816281738184810C94530981E001
:101320000895CF93DF93EC0160E00E948609BE012F
:10133000DF91CF910C9451090E94C1190E94800B3A
:101340000C948D080E94531F0C94A80780E00C9405
:10135000810B089508950E94240F0E94AA092FEF7F
:1013600084E39CE0215080409040E1F700C0000001
:101370000C9452270F931F93CF93DF938C0161E05E
:101380000E948609EC01B8010E944E09882309F4E5
:1013900044C0B801CE010E94E7238823F1F1B801CF
:1013A000CE010E94B51F8823C1F1B801CE010E9471
:1013B0009B24882391F1B801CE010E940B1D882344
:1013C00061F1B801CE010E94A223882331F1F80116
:1013D0008281882361F0CF3DFCE5DF07B1F170F435
:1013E000C115ECE5DE07B9F0C130DC45E1F0C8011C
:1013F000DF91CF911F910F910C944A09CC358DE567
:10140000D80749F1CD35DC0719F1CB35DD4579F742
:101410000E94E815ECCF0E94AB0980E0DF91CF91EC
:101420001F910F9108959091A803892F8E7F90FFAF
:1014300081608093A80380FF05C085E193E00E944E
:101440000507EBCF83E093E0FACF0E949316E5CF38
:101450000E94DF15CCCF0E94EB15C9CF0C94A909CF
:101460000E94F7240E94810B0C942E0ADF92EF92C7
:10147000FF920F931F93CF93DF93E82FF0E0EA5D85
:10148000FC4FD490282F26952695269530E0F9011B
:10149000EA53FC4F0491877010E0082E02C01595A6
:1014A00007950A94E2F701701127F901EA54FC4FFD
:1014B000E490F12C082E02C0F594E7940A94E2F728
:1014C00091E0E922FF24F901EA55FC4FC491D0E0F4
:1014D00002C0D595C7958A95E2F7C170DD27011541
:1014E000110519F081EE0E94DC0BE114F10419F0F2
:1014F00086EE0E94DC0B8D2D0E94750CEF2819F0F2
:1015000086EE0E942F0C012B19F081EE0E942F0C09
:10151000CD2B51F08CE2DF91CF911F910F91FF9075
:10152000EF90DF900C94750CDF91CF911F910F918C
:10153000FF90EF90DF900895EF92FF920F931F932B
:10154000CF93DF93EC01162F0AE08881882309F4FA
:1015500054C0813009F04EC08981813099F47E01F8
:1015600022E0E20EF11C8A810E94750CE7012196AF
:10157000812F815050F3EFE9FFE03197F1F700C080
:101580000000F7CF823041F47E0182E0E80EF11CCA
:101590008A810E94DC0BEACF833041F47E01E2E0D5
:1015A000EE0EF11C8A810E942F0CE0CF843011F0E6
:1015B0002196DDCF2A81229690E080E0AE014F5F38
:1015C0005F4F2053330B2A30310548F0019778F2F2
:1015D000EFE9FFE03197F1F700C00000F7CF089F77
:1015E000B001099F700D1124C901860F971F298131
:1015F000EA01E4CF0E94360ABACFDF91CF911F9162
:101600000F91FF90EF90089560E00C949C0ACF92A8
:10161000DF92EF92FF926C01EE24FF2420E0C114D0
:10162000D104E104F10419F0C701B60120E1C72E8D
:10163000D82EE92EFF24C114D104E104F10419F0DD
:10164000285FC701B6016B017C0154E0F694E79472
:10165000D794C7945A95D1F7C114D104E104F10489
:1016600019F02C5FC701B6016B017C0142E0F694D2
:10167000E794D794C7944A95D1F7C114D104E104F3
:10168000F10419F02E5FC701B601969587957795FD
:101690006795672B682B692B09F02F5F822FFF90CE
:1016A000EF90DF90CF900895829590E09C01220FFB
:1016B000331F220F331F2C7C959587959595879521
:1016C0008373282B30E0C901880F991F8A7A3595DA
:1016D00027952575822B0895CF93DF93D92F0E94EC
:1016E000540BC82F8D2F0E94540B9C2FDF91CF914C
:1016F000089508950C94790B81E008950C947C0B67
:101700000895CF93C82F0E947A0B8C2FCF910C9401
:101710007E0BCF93DF93CDB7DEB72B970FB6F89440
:10172000DEBF0FBECDBF4F83588769877A878B870F
:1017300061110E94ED141E821D8285E0FE01379624
:10174000DE01119601900D928A95E1F780912904AE
:1017500082FD0CC00E94B014882319F082E00E9420
:101760009B150E94971481110E941E158C819D81EA
:10177000892B89F449815A816B817C818D819E817D
:101780000E94E9132B960FB6F894DEBF0FBECDBFB3
:10179000DF91CF91089589819A8189238F3F51F3F9
:1017A000CE0101960E948F098111E4CFEBCFFC019D
:1017B000808191810C940F11CF93C82F882309F455
:1017C0004CC08CEF8C0F813AC8F48C2F0E944E23B2
:1017D000811143C06C2F80910201909103010E94FE
:1017E000AC25882329F08C2F0E948A140E942C1586
:1017F0008C2F0E948314CF910C942C1580E28C0FB7
:10180000883048F4C77081E001C0880FCA95EAF7B4
:101810000E94D014F0CFEBE5EC0FE33040F4F0E0A1
:10182000E65BFE4F808190E0CF910C946C25E8E55B
:10183000EC0FE73150F4F0E0EE0FFF1FE45EFE4FD7
:1018400080819181CF910C948225CD3E30F08C2FF8
:101850000E94811ACF910C94541BCF910895882334
:1018600061F19CEF980F913A20F40E948A140C9435
:101870002C1590E2980F983050F4877091E001C0D9
:10188000990F8A95EAF7892F0E94D614F0CF9BE52D
:10189000980F933020F490E080E00C946C2598E54C
:1018A000980F973120F490E080E00C9482258D3ED3
:1018B00020F00E94DB1A0C94541B08951F93CF93C1
:1018C000DF93182FEB010E94DC0B209731F4812F5E
:1018D000DF91CF911F910C942F0C8FE99FE001971E
:1018E000F1F700C000002197F0CF70E060E089338D
:1018F00011F460E570E00C945E0C882321F00E94E6
:10190000D0140C942C150895882321F00E94D6142D
:101910000C942C150895BF92CF92DF92EF92FF9214
:101920000F931F93CF93DF936C01D62FC72FFC012A
:101930001281F580F2949FE0F9220E94C614E82EED
:101940008823B9F0E12E1123A1F08C2F807F803401
:1019500021F080E28D0F8830B0F08091290482FD63
:1019600012C082E00E949B150E94C61491E0E82EEE
:10197000E926BC2EB2948FE0B822EB2DF0E0ED5BAF
:10198000FD4C0C940F2FE12CF4CF0C2F0F70C07F67
:1019900011F00295007F112399F0002359F080E2A5
:1019A0008D0F883010F0D11107C0802F0E94D01405
:1019B0000E942C158D2F41C0802F0E94E014F8CF7B
:1019C0008D2F0E942F0C002309F43FC080E28D0F61
:1019D000883010F0D11104C0802F0E94D61403C0AB
:1019E000802F0E94E6140E942C152FC00C2F0F7020
:1019F000C07FC03211F00295007FDD2381F0D1302D
:101A000009F469C0112309F473C0FF2009F469C007
:101A1000F601858180FFCECF8F70858362C0809173
:101A2000290482FF38C0112359F0002329F0802FA8
:101A30000E94D0140E942C1580E00E94DC0B05C08F
:101A400080E00E942F0C0111C7CFEB2DE850FF0B57
:101A5000349720F40E94F7240E94810BEE2009F4B1
:101A600082C10E94AC1480FD7EC1F60112820E94E8
:101A7000A6140E94DD0FC6010E94D40E0E94A61477
:101A8000DF91CF911F910F91FF90EF90DF90CF905A
:101A9000BF900C94FE0F112389F0F11006C00E9434
:101AA0000015802B0E947D0CD0CFF1E0FF12F7CF04
:101AB0000E940015802B0E940615C7CFF11006C0AA
:101AC0000E941E15802F0E94840CBFCF21E0F216C9
:101AD00009F4BBCFF5CF112331F035E03F1508F401
:101AE000B4CF802FDFCF84E08F1508F4AECFEACFDC
:101AF000FF2041F3D93349F4FFEF27EE33E0F150F3
:101B000020403040E1F700C000008D2F0E942F0CD4
:101B10009CCF8C2F86958695837069F0813009F073
:101B200094CF8D2F9C2F9370111102C090E080E014
:101B30000E9482258ACF8D2F9C2F9370111102C095
:101B400090E080E00E946C2580CF8D2F112329F03A
:101B50000E94811A0E94541B78CF0E94DB1AFACF90
:101B60008C2F837009F041C011116FCF4D2F42951A
:101B700046954770440F440F0D2F0F7010E030E072
:101B800020E0042E04C0000F111F221F331F0A94EF
:101B9000D2F760E070E0CB01D4FF0FC06FE070E0DF
:101BA00080E090E004C0660F771F881F991F4A9558
:101BB000D2F76095709580959095C695C695C3703F
:101BC000602B712B822B932BC23049F058F4C1301B
:101BD00019F00E94910F39CF0E947F0F36CF0E94DB
:101BE000A30F33CF0E947D0F30CF8695112311F0C4
:101BF0008C2F8170882309F428CF4D2F429546956C
:101C00004770440F440F0D2F0F7010E030E020E0BC
:101C1000042E04C0000F111F221F331F0A94D2F795
:101C200060E070E0CB01D4FF0FC06FE070E080E0B7
:101C300090E004C0660F771F881F991F4A95D2F75E
:101C40006095709580959095C695C695C370602BEC
:101C5000712B822B932BC23049F058F4C13019F00C
:101C60000E945410F2CE0E944210EFCE0E946610E5
:101C7000ECCE0E94B70FE9CECF70112329F08C2F44
:101C80000E94DD0F8D2F0ECF8D2F0E94840C8C2F84
:101C90000E94FE0FDACED23F51F160F4D03FB9F08E
:101CA000D13F81F0112309F449C0F11083CE8C2F6C
:101CB0008F7121C0D33F11F1D43FA1F78091290446
:101CC00082FF26C08C2F8F71112311F314C01123B2
:101CD00049F084E08F1508F4B8CE8C2F8F710E94E4
:101CE0002110B3CE95E09F1508F4AFCEF6CF8C2F20
:101CF0008F711111CDCF0E94DD0FA7CE112329F0D6
:101D00008C2F8F710E94C80FA0CE0E94C30F9DCE52
:101D1000112349F0CF718C2F0E94DD0F63E08C2FCF
:101D20000E94761592CE81E00E949B15E1E0EF15AE
:101D300008F08BCE82E00E949B1587CEF110DACEA0
:101D40008C2F8F71A5CF4C2F4F706D2FC6010E9425
:101D5000AF170E943D1179CE4C2F4F706D2FC601E9
:101D60000E94B21772CEDF91CF911F910F91FF9019
:101D7000EF90DF90CF90BF9008950F931F93CF9374
:101D8000DF93EC01688179818A810E9419118C01AD
:101D90000E9478100E947C0FB801CE01DF91CF9194
:101DA0001F910F910C948B0CCF93DF93EC018B81DF
:101DB0009C81892B29F08881998189238F3F59F44F
:101DC000DF91CF910895CE010E94BD0ECE01DF912B
:101DD000CF910C949109CE010E94BA098111F3CFE1
:101DE0000E94C614882361F38A81882349F3809175
:101DF000290482FDE5CF82E0DF91CF910C949B1501
:101E0000882321F00E94E0140C942C150895882357
:101E100021F00E94E6140C942C15089590E080E0C7
:101E20000E946C2590E080E00E9482250E94ED14C3
:101E30000E94FD140E942C150E94FD1C0C94541B42
:101E40000E9491140C940E0F0E94DD140C94200F2C
:101E5000E92FE295EF70E250EE3070F4F0E0ED5AC9
:101E6000FD4C0C940F2F803F19F020F4883E20F495
:101E700081E00895843FE1F380E00895883EC0F357
:101E8000813FD1F7F5CF93FB882780F90895FC01B6
:101E9000808191810E940F110C94280FCF93DF93C2
:101EA00000D000D00F92CDB7DEB70F900F900F90FB
:101EB0000F900F90DF91CF910895CF93DF9300D0D3
:101EC00000D000D0CDB7DEB726960FB6F894DEBFAF
:101ED0000FBECDBFDF91CF91089508950C946D0F83
:101EE0000E946E0F6093300370933103809332032E
:101EF000909333030C940E0F08950C94700F0F936E
:101F00001F930091300310913103209132033091DF
:101F10003303602B712B822B932B1F910F910C9409
:101F2000700F0F931F930091300310913103209194
:101F300032033091330360237123822393231F9153
:101F40000F910C94700F0F931F9300913003109119
:101F500031032091320330913303602771278227A8
:101F600093271F910F910C94700F0C9491080E946D
:101F7000B50F60932C0370932D0380932E039093E1
:101F80002F030C940E0F60E070E0CB010C94B70FA0
:101F90000F931F9341E050E060E070E08A019B01E5
:101FA00004C0000F111F221F331F8A95D2F7C901E9
:101FB000B8011F910F910C94B70F0F931F9341E03D
:101FC00050E060E070E004C0440F551F661F771FAB
:101FD0008A95D2F780912C0390912D03A0912E0326
:101FE000B0912F038A019B01082B192B2A2B3B2B25
:101FF000C901B8011F910F910C94B70F0F931F9354
:1020000041E050E060E070E004C0440F551F661FDF
:10201000771F8A95D2F7CB01BA01609570958095AC
:10202000909500912C0310912D0320912E03309157
:102030002F0360237123822393231F910F910C940C
:10204000B70F0F931F9341E050E060E070E004C0D1
:10205000440F551F661F771F8A95D2F780912C0376
:1020600090912D03A0912E03B0912F038A019B0123
:10207000082719272A273B27C901B8011F910F916B
:102080000C94B70F0F931F9300912C0310912D0305
:1020900020912E0330912F03602B712B822B932BD9
:1020A0001F910F910C94B70F0F931F9300912C0366
:1020B00010912D0320912E0330912F036023712363
:1020C000822393231F910F910C94B70F0F931F93AB
:1020D00000912C0310912D0320912E0330912F039A
:1020E00060277127822793271F910F910C94B70FB8
:1020F00008952EE0929F800D1124982F977041E053
:1021000001C0440F9A95EAF786958695869595E0E5
:10211000899FF0011124E150FD4F90E080E070E0D4
:102120005191DF0111979B01082E02C0369527952A
:102130000A94E2F7217021952527242325272C9343
:1021400001968530910561F708952EE0929F800DEC
:102150001124982F977086958695869525E0829F05
:10216000F0011124E150FD4F50E040E080E021916A
:1021700030E0092E02C0369527950A94E2F72170C7
:102180003327042E01C0220F0A94EAF7822B4F5FF7
:102190005F4F4530510559F70895BF92CF92DF92B6
:1021A000EF92FF920F931F93CF93DF938C01C09018
:1021B0002C03D0902D03E0902E03F0902F038091FC
:1021C000300390913103A0913203B0913303C82AB8
:1021D000D92AEA2AFB2ACFE1D0E0BC2ED701C601DA
:1021E0000C2E04C0B695A795979587950A94D2F7BB
:1021F00080FD0EC0219788F7B12C8B2DDF91CF91F8
:102200001F910F91FF90EF90DF90CF90BF900895B6
:10221000B8018C2F0E94E218019761F3EECFCF93A3
:10222000DF93EC010E94CD10BE01DF91CF910C94A1
:10223000E2181F93CF93DF93EB019091FE02992355
:1022400031F0CB01DF91CF911F910C940F118823B6
:1022500079F0CB010E94CD10182F682FCE010E947B
:102260007910BE01812FDF91CF911F910C94E2185C
:10227000CB010E94A510182FF4CFEF92FF920F937D
:102280001F93CF93DF938C01892B81F0F12CEE24E7
:10229000E394E8012196F8018491843770F4843046
:1022A00008F05FC08130B1F08230A1F1DF91CF91B1
:1022B0001F910F91FF90EF900895853709F44CC05E
:1022C00008F43DC09CE7980F903780F78F770E9405
:1022D0002F0C49C00E5F1F4FFE01849190E2980FB2
:1022E000983060F48770FE2D01C0FF0F8A95EAF7E1
:1022F0008F2F0E94F0140E942C1502C00E94DC0B4C
:102300008F2D815030F2EFE9FFE03197F1F700C0F7
:102310000000F7CF0E5F1F4FFE01849190E2980FEF
:10232000983050F48770FE2D01C0FF0F8A95EAF7B0
:102330008F2F0E94F614DFCF0E942F0CE1CF0E5F8B
:102340001F4FFE01C491C150D8F28FE99FE0019761
:10235000F1F700C00000F7CF0E5F1F4FFE01F490B1
:10236000CFCF0E94DC0B8E01CBCF1F93CF93DF9397
:10237000C091340316E0809135038C1304C0DF91C3
:10238000CF911F910895D0E01C9FF0011D9FF00D8B
:102390001124EA5CFC4F4081518162817381848108
:1023A00095810E945D0F2196C770E5CF409166032D
:1023B00050916703609168037091690380916A038B
:1023C00090916B030C945D0FFF920F931F93CF932B
:1023D000DF9380916B03807FD1F480916803882321
:1023E000B1F08091340310913503609166037091D0
:1023F0006703A0916903B0916A03062F0723C09178
:102400000001D091010196E0F92E181306C0DF916A
:10241000CF911F910F91FF90089590E0109711F0C8
:102420000F3F19F401968770F0CFF89E9001F99E46
:10243000300D1124F901EA5CFC4F41814713F2CFC2
:1024400040814613EFCF42814111ECCF438154814B
:102450004A1B5B0B4C175D0728F780916B038F704D
:10246000806180936B03F901E55CFC4F80818F7084
:102470008061808386E693E00E94D40EDF91CF9145
:102480001F910F91FF900C94B511AF92BF92CF9214
:10249000DF92EF92FF920F931F93CF93DF93CDB70D
:1024A000DEB761970FB6F894DEBF0FBECDBF8C01CB
:1024B00085E0F801DE011D9601900D928A95E1F705
:1024C000F801E28086E6C82E83E0D82E6091690389
:1024D00070916A036115710509F45FC190916603FB
:1024E00020916703892F82238F3F09F456C14081D1
:1024F0005181A380B480F0906803F501E61BF70BCF
:10250000BF01E0910001F0910101FF2009F4F6C044
:1025100080916B03382F307F6E177F0708F0AFC0B4
:10252000311179C0FE2C251323C0941321C0E11072
:102530001FC08F70806180936B030E94D611C6010B
:102540000E94D40E80916B03F80185838F2D6196D4
:102550000FB6F894DEBF0FBECDBFDF91CF911F91B4
:102560000F91FF90EF90DF90CF90BF90AF900895C4
:10257000AB2829F0842F85238F3F09F027C180E005
:10258000F82FF170DF2E80FF3CC080913403209142
:10259000350336E0821315C04D875E878D859E8595
:1025A0000E940F11292F22952F702230F0F0243035
:1025B00018F59F70F1F0F8019581907FD1F4D12C3E
:1025C0001EC090E0389FF001399FF00D1124EA5CA5
:1025D000FC4F6181651306C06081641303C0628192
:1025E0006E110FC001968770D5CF9F7011F08823B0
:1025F00031F3805E883018F3C8010E94D40EFD2CA0
:10260000A5CFEE2009F4A2CF80916B038160809367
:102610006B03F12C9BCF251306C0941304C0F80163
:10262000EE2009F487C0C8010E94470F882319F1E2
:10263000EE2009F180916B03803270F020916603E7
:102640003091670338872F831986BB86AA868C87CB
:10265000CE0107960E94D40E86E0F801A6E6B3E00C
:1026600001900D928A95E1F70E94E4110E94D61123
:10267000FF24F3946BCFC8010E94D40EF9CF31111F
:1026800013C07A2DB98AA88A6E2D89890E944E0FAF
:1026900086E693E00E94D40E86E0F60111928A95B8
:1026A000E9F70E94D611B5CF25130FC094130DC0C2
:1026B000E1100BC0F8018583C8010E94D40E86E0AA
:1026C000F60111928A95E9F741CFC8010E94470FA0
:1026D000882389F2EE2079F280916B03803208F42E
:1026E000BBCF20916603309167033A8329831B8215
:1026F000BD82AC828E83CE010196ACCF6E177F0770
:1027000008F03EC0FE2CEE2009F4B5CF25132AC0F8
:10271000941328C080916B0380FD1BC0982F907F7D
:10272000C1F0F8018583903F31F0982F907F905F42
:102730008F70892B8583C8010E94D40E86E0F80132
:10274000A6E6B3E001900D928A95E1F70E94D611BA
:10275000FDCE86E0F801A6E6B3E001900D928A95E1
:10276000E1F7F4CEC8010E94470F811175CF809127
:102770006B03816080936B03C8010E94D40EE6CE88
:102780007A2DB98AA88A6E2D89890E944E0F86E01B
:10279000F60111928A95E9F7D9CFEE2009F46BCFB3
:1027A000C8010E94470FF82E882309F464CF86E001
:1027B000F801A6E6B3E001900D928A95E1F786E66E
:1027C00093E00E94D70B0E94E411C0CF81E08E25D8
:1027D000D7CE1F93CF93DF93CDB7DEB72C970FB62D
:1027E000F894DEBF0FBECDBF4F83588769877A87C5
:1027F0008B879C87CE0107960E944512882369F03B
:102800008A859B85892B39F04F815885842F8523B4
:102810008F3F09F071C016E05FC086E0FE01379679
:10282000DE01119601900D928A95E1F78A859B85CC
:10283000892B89F38F81988589238F3F61F32091BC
:10284000350330E0C9010196877099274091340320
:102850004817190671F40E94240F10923503109244
:10286000340386E0E6E6F3E0DF011D928A95E9F79E
:10287000D2CF96E0929FD001939FB00D1124AA5C15
:10288000BC4FFE01319601900D929A95E1F780932D
:1028900035030E94B511BFCF819FC00111248A5C0E
:1028A0009C4F0E9445128823E9F0E09134031E9F5B
:1028B000F0011124EA5CFC4F4081518162817381F7
:1028C000848195810E945D0F8091340390E0019690
:1028D0008770992780933403809134039091350356
:1028E0008913DACF2C960FB6F894DEBF0FBECDBF9A
:1028F000DF91CF911F91089569857A858B859C859D
:102900000E945D0F88CF682F809102019091030192
:102910000C944E26682F80910201909103010C9433
:10292000592680910201909103010C9464260E9423
:10293000072720916F0330917003821B930B9C013A
:1029400081E0243F314008F480E0089580916E03D7
:10295000859585958595089580916E038770089576
:102960000E94072720916C0330916D03821B930B0B
:10297000843F914048F080916E0382FB882780F964
:1029800091E089278170089580E0FCCF90916E03DB
:10299000977081E009F480E0089580919403089590
:1029A00090919403892B809394030895809590913E
:1029B0009403982390939403089510929403089598
:1029C00090919303892B8093930308958095909120
:1029D000930398239093930308951092930308957B
:1029E00090919203892B8093920308958095909102
:1029F000920398239093920308951092920308955E
:102A000080917103089508950C940315CF93C82FF6
:102A10008091290482FD10C0809171038C1761F0B0
:102A20000E9407279093700380936F03C0937103F4
:102A30008C2FCF910C940415CF9108958091710340
:102A4000882349F0109271031092700310926F0363
:102A500080E00C9404150895E0910201F0910301C7
:102A6000809194038083E0910201F09103018081C1
:102A700090919303892B8083E0910201F0910301EF
:102A8000808190919203892B8083809171038823A8
:102A900021F10E949714882371F08091A80380FF90
:102AA00008C086ED93E09F938F930E949E070F903E
:102AB0000F900E941E15E0910201F09103018081A8
:102AC00090917103892B8083809102019091030181
:102AD0000E94982581110E941E15809102019091FB
:102AE00003010C94032508950C9473159091290407
:102AF00092FD16C098E0899F90011124622B60938B
:102B00006E030E94DD0F0E94072790936D03809350
:102B10006C0380916E038595859585950C9474154D
:102B20000C94DD0F10926E0310926D0310926C03E3
:102B300080E00C94741590916E03809589238093A6
:102B40006E03282F277091F4282F082E000C330BCA
:102B50009217130659F09091290492FD07C08595AC
:102B6000859585950E94FE0F0C9492150895CF933C
:102B7000C82F8091290482FB992790F99C17E9F0CE
:102B8000C0FB82F980932904809128049091290444
:102B90000E940F1682E00E949B158091A80380FF7F
:102BA0000CC01F92CF9388EE93E09F938F930E9467
:102BB0009E070F900F900F900F90CF9108958091E6
:102BC000290482FB882780F991E089270C94B715A6
:102BD00081E00C94B71580E00C94B71590E080E08C
:102BE0000E94D03121E0893E9E4F09F020E0822FE3
:102BF000089582E090E00C94C83183E090E00C945A
:102C0000C831CF9384E090E00E94C831C82F82E29F
:102C100090E00E94C831982F8C2FCF910895CF93C8
:102C2000C92F682F84E090E00E94D6316C2F82E299
:102C300090E0CF910C94D631AB01BC018FE090E0D5
:102C40000C94E831AB01BC0183E190E00C94E831D5
:102C500060E070E0CB010C94221660E070E0CB01E4
:102C60000E941C160C94281669EE7EEF90E080E01E
:102C70000E94F43160E082E090E00E94D63160E092
:102C800083E090E00E94D63110923003109231031D
:102C9000109232031092330360E084E090E00E94CF
:102CA000D63160E082E290E00E94D63160E085E0BB
:102CB00090E00E94D63160E086E090E00E94D6313C
:102CC0006FEF87E090E00E94D63140E050E0BA011B
:102CD00088E090E00E94E83160E08DE090E00E94A2
:102CE000D63140E050E0BA0188E190E00E94E8313E
:102CF00060E087E190E00E94D63140E050E0BA0108
:102D00008CE190E00E94E83170E060E080E290E0C9
:102D10000E94F43140E050E0BA0188E190E00E9466
:102D2000E8310C942D160C943416682F8EE090E048
:102D30000C94D6310E9413276093A4037093A503CB
:102D40008093A6039093A7036093A0037093A103BD
:102D50008093A2039093A303089585B7806885BFED
:102D600085B7806885BF0895089508950C94B416BA
:102D700008950C94B8160E94AD1686E499E20E945C
:102D8000ED240E94B5160C94B61681E008950C94BB
:102D9000C516089508950E94C9160C94CA160E947B
:102DA000FE260E94AA070C94B916CF93C82F8091D3
:102DB000A80382FF1EC080FF1CC084E094E00E9434
:102DC00005078091A80380FF14C01F92CF938FEF57
:102DD00093E09F938F930E949E078091A8030F908A
:102DE0000F900F900F9080FF04C08DEF93E00E9432
:102DF00005078C2FCF910C94810B8F929F92AF92ED
:102E0000BF92CF92DF92EF92FF920F931F93CF93D7
:102E1000DF93CDB7DEB72A970FB6F894DEBF0FBEAB
:102E2000CDBF0E94AE0781110E949A1656E9852EE9
:102E300053E0952E10E000E0A02E802F0E940C0899
:102E40006C01F401E190F1904F01E816F90609F4E4
:102E50005CC08091A80381FD0E941508C7018C25E4
:102E60009D25B12CEE24E394F12C9C012E213F21D1
:102E7000232B09F444C00E94C7168823A9F0BE8200
:102E8000AF82CE20DF2081E0CD2809F480E0888762
:102E90000E9407278160782F9A8789874E815F81FA
:102EA00068858A850E94890B000F111FF801EA5678
:102EB000FC4F80819181E826F926F182E0820E9410
:102EC000F11B0E94F724909195038917A9F10E94A4
:102ED000F724809395032A960FB6F894DEBF0FBEB1
:102EE000CDBFDF91CF911F910F91FF90EF90DF90B9
:102EF000CF90BF90AF909F908F900C94D516B394C5
:102F0000EE0CFF1CFEE0BF12B0CF0F5F1F4F05306D
:102F1000110509F091CF8FEF89838A831B820E946C
:102F200007278160782F9D838C8349815A816B812B
:102F30008D810E94890BC3CF2A960FB6F894DEBF0D
:102F40000FBECDBFDF91CF911F910F91FF90EF90FA
:102F5000DF90CF90BF90AF909F908F90089590E0BA
:102F600080E008950895972F70E02EE0929F600D05
:102F7000711D1124FB0196E4899FE00DF11D1124C0
:102F8000EE0FFF1FED52FF4F859194910895FC01C4
:102F9000EE0FFF1FE95EFB4F859194910895CF934B
:102FA000DF930E94E618EC01811520E5920708F0F6
:102FB00042C0811530E4930708F0BDC0883E9105FA
:102FC00028F5803E910508F09DC0883A910588F467
:102FD000853A910508F08FC08130910509F492C0BF
:102FE000009709F48FC0049708F08CC0D0E0C0E0CF
:102FF00089C08F3B910508F489C0805C9109C03C71
:10300000D105A0F30E94C717EC017CC08115904246
:1030100050F4C11581E0D80708F074C0CD3ED10549
:1030200028F3D0656FC0C11590E3D90708F079C0C7
:10303000CE019F70E7CF811525E5920758F58115E0
:1030400034E5930708F0A6C0811542E5940750F4D3
:10305000C11581E5D80708F471C0DC2FCC27C16FFA
:10306000D06A50C0982F969596959E01237033276D
:10307000C115D34508F07FC0C1E0D0E002C0CC0F3D
:10308000DD1F2A95E2F720E2929FC0011124C82B90
:10309000D92B6FC0C11589E5D807A8F4C11598E5EB
:1030A000D90708F07CC0C11526E5D20708F09ECFED
:1030B0008C2F0E947D19C82FD0E0DC2FCC27CC2785
:1030C000DF71D0621FC0C1153AE5D30708F46CC0A8
:1030D000CE0190568115904208F088CF8D2F8F71C8
:1030E0000E947D1990E0982F882788279F719C0166
:1030F0002C2BE901E6CFC55AD0E0C558DE4FC88178
:10310000D0E0D064CE01DF91CF910895C85AD0E0CD
:10311000CC0FDD1FC35BDE4F0990D881C02DD46476
:10312000F1CFCE019927D3FF03C0EC01D86CEACFD1
:10313000EC01D06CE7CFDF70D06AE4CFCE01E4E0E1
:1031400096958795EA95E1F783702C2F269526951D
:10315000237090E2299F90011124382B8C2F8370CB
:10316000C1E0D0E002C0CC0FDD1F8A95E2F7C22B90
:10317000D32BDC68C7CFC1E0D0E002C0CC0FDD1F8D
:103180002A95E2F730E2939FC0011124C82BD92B76
:10319000DA68B8CFD82FCC27C46FD06AB3CFDC2F72
:1031A000CC27C06FD06AAECF8C2F8F700E947D1954
:1031B00034E0D695C7953A95E1F7CF709C2FEC0196
:1031C000D069A0CF0E94B3170C94CF178238910515
:1031D000B1F1B0F48133910509F475C048F4893236
:1031E000910509F469C08A32910509F473C0089504
:1031F0008533910509F459C08933910501F108958A
:10320000833E9105A9F138F4803E9105F9F0823EA4
:10321000910549F10895863E9105A9F1873E9105F2
:10322000C9F1843E910519F52091290421FF1FC0A1
:103230008091280484FD14C087EE90E008952091C9
:1032400028042370A1F080EE90E0089520912804D6
:1032500020FD47C03091290430FF09C024FF44C03D
:1032600090E080E004C02091280422FDF7CF08956B
:103270002091280422FD3BC03091290430FDE3CF8A
:1032800024FFF5CFEDCF2091280423FFF0CF24FDBC
:10329000E7CFD2CF2091280423FD2CC03091290400
:1032A00031FFEECF84EE90E008952091280425FFB1
:1032B000DECF89E290E008952091280425FFD7CF42
:1032C00085E390E008952091280426FFD0CF8AE27C
:1032D00090E008952091280426FFC9CF81E390E073
:1032E000089589E390E0089583EE90E0089582EEDA
:1032F00090E0089586EE90E008959091280492FF62
:1033000006C0282F28712830F9F4877F846093FF46
:1033100006C0282F28712831F1F4877E846120911E
:10332000290420FF06C0382F38713830D9F4877F40
:10333000816021FF06C0282F28712831D1F4877EB3
:10334000816194FD877E0895282F24712430F9F639
:103350008B7F8860DCCF282F2471243101F78B7E8E
:103360008861DDCF382F3171313019F78E7F886059
:10337000E0CF282F2171213121F78E7E8861E1CFA6
:1033800008950E94EE15811102C00E9493160E94BA
:10339000F9158093A8030E94011690932904809345
:1033A00028040E94C0190E94FD15682F70E090E06B
:1033B00080E00E947D0F60912C0370912D0380911D
:1033C0002E0390912F030C94B50F0E94C1290E94E7
:1033D000CF160C94CD290E94D1290E94FD160C9481
:1033E000EF290E9490260E94A8290E94BB160E94E5
:1033F000E5190E94EB190E94CB16FBCF8091AF0319
:1034000080FF12C06091090185E0689FB00111241E
:10341000759567957595679560387105A8F561157F
:103420007105A1F1862F089581FF09C060910901FE
:1034300085E0689FB001112475956795EDCF609187
:10344000090182FD0AC08091AE038823D1F09091DA
:10345000080160910901891728F085E0689FB00193
:103460001124DACF869FB001112485E0869F900158
:10347000879F300D1124692F70E0C9010E94FB2E37
:10348000CBCF65E070E0CECF8FE7089581E008955F
:103490008091AF0380FF0CC06091050170E07595CD
:1034A0006795759567956115710549F1862F0895A2
:1034B00081FF06C06091050170E075956795F3CFB7
:1034C0006091050182FD0BC09091AD039923A1F09D
:1034D0006091040180910501961738F0682F70E023
:1034E0006038710500F38FE70895899FC0011124AA
:1034F00070E00E94FB2EF4CF61E070E0D7CF81E056
:1035000008958D3E31F40E94FE1981958093B30396
:1035100008958E3E19F40E94FE19F8CF8F3E31F4C3
:103520000E94FE1981958093B2030895803F19F49B
:103530000E94FE19F8CF893F29F40E94481A80930F
:10354000B40308958A3F21F40E94481A8195F7CF69
:103550008B3F31F40E94481A81958093B5030895FA
:103560008C3F19F40E94481AF8CF9FE0980F9830CA
:1035700070F4815F990B21E030E001C0220F8A9541
:10358000EAF78091B103822B8093B10308958D3FB8
:1035900031F48091AF0381608093AF0308958E3F33
:1035A00021F48091AF038260F7CF8F3FB9F780910C
:1035B000AF038460F1CF4091B2038D3E59F4809106
:1035C000B30387FF0DC01092B30341110BC01092DB
:1035D000AE0308C08E3E81F48091B30318169CF3AD
:1035E000442381F08091B4039091B503892B09F0B5
:1035F0005AC01092AD0308958F3E49F447FFF0CFB3
:103600001092B2038091B3038111ECCFE0CF803FE1
:1036100019F41416ACF3E4CF9091B403893F29F464
:103620001916F4F61092B403DBCF8A3F19F497FF12
:10363000D7CFF8CF9091B5038B3F29F497FFD0CF28
:103640001092B503CDCF8C3F19F41916CCF3C8CF27
:103650009FE0980F983090F4815F990B21E030E063
:10366000B90102C0660F771F8A95E2F7CB018095FA
:103670009091B10389238093B103B2CF8D3F31F490
:103680008091AF038E7F8093AF03AACF8E3F21F44A
:103690008091AF038D7FF7CF8F3F09F0A1CF80914D
:1036A000AF038B7FF0CF08958091A80383FF7EC086
:1036B0008EE394E00E9405078091B1031F928F93DF
:1036C00089E394E09F938F930E949E0787E394E0A1
:1036D0000E9405078091B203282F082E000C330B9F
:1036E0003F938F9384E394E09F938F930E949E0770
:1036F00082E394E00E9405078091B303282F082EEF
:10370000000C330B3F938F938FE294E09F938F9342
:103710000E949E078DE294E00E9405078091B40309
:10372000282F082E000C330B3F938F938AE294E0EE
:103730009F938F930E949E0788E294E00E94050762
:103740008091B503282F082E000C330B3F938F93E5
:1037500085E294E09F938F930E949E0782E294E01B
:103760000E9405078091AE031F928F938FE194E032
:103770009F938F930E949E078DE194E00E9405071E
:103780008091AF031F928F938AE194E09F938F9370
:103790000E949E0787E194E00E9405078DB79EB7BF
:1037A0004C960FB6F8949EBF0FBE8DBF0E940727A0
:1037B0009C019091B2038091B303982B21F0309338
:1037C000AC032093AB039091B4038091B503982B85
:1037D00021F03093AA032093A90380EB93E00C948B
:1037E0005E25EF92FF920F931F93CF93DF9300D04C
:1037F00000D000D0CDB7DEB786E0E0EBF3E0DE012D
:10380000119601900D928A95E1F7E090B203F09045
:10381000B3030091B4031091B5031092B203109258
:10382000B3031092B4031092B5038E2D8F2991F03B
:103830008091AB039091AC030E941F27AC01909143
:10384000AE03992309F43FC080910A01841715063D
:1038500008F447C0802F812B91F08091A9039091AB
:10386000AA030E941F27AC019091AD03992309F48C
:1038700077C0809106018417150608F47FC08091F7
:10388000B2039091B303892B9091B403892B90914B
:10389000B503892B11F00E94541B86E0FE0131967E
:1038A000A0EBB3E001900D928A95E1F726960FB652
:1038B000F894DEBF0FBECDBFDF91CF911F910F9166
:1038C000FF90EF90089520910B018AE0289F9001CE
:1038D00011242417350708F0BDCF9F5F9093AE03E6
:1038E00002C09F3FD1F7EE2059F00E94FE199FEFD2
:1038F0001E140CF491E0899F802D11248093B20353
:10390000FF2059F00E94FE199FEF1F140CF491E064
:10391000899F802D11248093B3033091B203332308
:1039200009F498CF2091B303222309F493CF45EBF8
:103930003403C0011124992359F09093B20345EB4D
:10394000240390011124332339F03093B30382CF41
:1039500081E08093B203F3CF81E08093B3037ACF09
:10396000209107018AE0289F900111242417350730
:1039700008F085CF9F5F9093AD0302C09F3FD1F7C2
:10398000002359F00E94481A9FEF10160CF491E0A2
:10399000899F802D11248093B403112359F00E9434
:1039A000481A9FEF11160CF491E0899F802D112485
:1039B0008093B5033091B403332309F460CF209191
:1039C000B503222309F45BCF45EB3403C001112476
:1039D000992359F09093B40345EB240390011124EB
:1039E000332339F03093B5034ACF81E08093B40399
:1039F000F3CF81E08093B50342CF86E0E0EBF3E0C4
:103A0000DF011D928A95E9F71092AE031092AD0383
:103A10001092AF030895CF93DF93EC01FB018281F5
:103A2000882309F420C1C430FDE5DF07C8F5CB3F8A
:103A30009CE5D90730F49E0122503C4524313105E4
:103A400098F50E9401169093290480932804C031B0
:103A5000FCE5DF0709F4E0C008F061C0C8309CE570
:103A6000D90709F4CBC088F5C430FCE5DF0709F4B9
:103A7000B3C0E8F4C2309CE5D90709F4A7C080912F
:103A800028048260C330DC4509F4A3C08091280477
:103A9000909129040E940F160E94240F80E004C018
:103AA000C236EDE5DE0769F2DF91CF91089580918E
:103AB00028048061C630FCE5DF0709F48AC008F4F9
:103AC0008FC080912804806284C0809128048D7FFB
:103AD000CC309CE5D90709F47CC070F480912804AF
:103AE0008C60CA30FCE5DF0709F473C008F48AC0B3
:103AF000809128048E7F6DC080912804877FCE300E
:103B00009CE5D90709F465C0809128048B7FCF30EC
:103B1000DC4508F45EC0809128048F7E5AC0CD3FFA
:103B2000FCE5DF0709F474C040F5C4319CE5D90712
:103B300009F48AC058F4C231FCE5DF0709F474C007
:103B400008F46EC080912804837F43C0CB3F9CE57E
:103B5000D90709F449C008F04DC0C531DC4509F06A
:103B600095CF8091280482FB992790F921E0922734
:103B700090FB82F990FB83F92CC0C1308DE5D8070A
:103B800009F458C088F4809129048360CF3FECE5A4
:103B9000DE0769F1809129048D7FC115DD4538F17B
:103BA000809129048C7F23C0C3308DE5D80709F4A8
:103BB00058C008F452C0C236DD4509F067CF909175
:103BC0002804892F8F7E94FF806103C08091280490
:103BD0008160809328045ACF809128048460F9CFB3
:103BE000809128048860F5CF8091290481608093BA
:103BF00029044CCF809129048260F9CF8091280458
:103C00008064E7CF0E94240F809128048068E1CF70
:103C1000809129048E7FEBCF809128048F7DD9CFAE
:103C2000809128048F7BD5CF0E94240F8091280497
:103C30008F77CFCF80912904982F909591708E7FA8
:103C4000892B90FB81F9D3CF0E94240F90912804F7
:103C5000892F97FB87F98058BCCF81E00E94951689
:103C600015CF80E0FBCF81E01FCF80910C01877FD3
:103C700080930C0182E00E94E61480910C0184FF85
:103C800006C08F7E80930C0182E00E94D014809148
:103C90000C0185FF06C08F7D80930C0180E20E949D
:103CA000D0140C942C1580E008958B32910591F07E
:103CB00040F49C01245031092432310558F00C9411
:103CC000531E8D329105D8F38933910518F084364F
:103CD0009105A9F781E00895CF93DF93EC01662366
:103CE00019F082E00E94E014CE019056811520E286
:103CF000920720F0905E8115904108F4DD27CE01F7
:103D0000DF91CF910C941B099C013056211540E2A4
:103D1000340720F0305E2115304108F499270C94C7
:103D20003209FC0123E0F695E7952A95E1F7EE715B
:103D3000FF27EA54FC4F20813181AC014F70552799
:103D400081E090E002C0880F991F4A95E2F7662350
:103D500029F0822B932B91838083089580959095F1
:103D600082239323F8CFFC0123E0F695E7952A956B
:103D7000E1F7EE71FF27EA54FC4F8F70992721E09D
:103D800030E002C0220F331F8A95E2F780819181D3
:103D90002823392381E0232B09F480E00895EF9252
:103DA000FF920F931F93CF93DF93EC017B018A0166
:103DB00080910C0182FF5DC02091DC033091DD0316
:103DC0002C173D0719F0209709F053C090910C0172
:103DD0009B7F90930C0161E091FD10C08091DE0308
:103DE0009091DF03A701481B590B61E080910D0101
:103DF00090910E014817590708F460E061708091B6
:103E00000C0160FB81F980930C01C9010E94911E95
:103E10000E94CD1481FF08C080910C0180618093C5
:103E20000C0182E00E94D6140E94CD1485FF08C0C8
:103E300080910C01806280930C0180E20E94D61474
:103E400060910C0166956170A8018091DC039091EE
:103E5000DD030E946C1E60910C0166956170A801E3
:103E60008091DC039091DD030E94841E0E94351E28
:103E70000FC0CE010E94B31EA801682FCE010E9480
:103E8000841E8091DC039091DD03C817D90771F37C
:103E9000F092DF03E092DE03DF91CF911F910F914B
:103EA000FF90EF90089580910C0182FF19C00E944D
:103EB00007272091DE033091DF03AC01421B530B37
:103EC00020910D0130910E014217530748F046ED45
:103ED00053E0BC018091DC039091DD030C94CF1E74
:103EE000089590910C01892F8E7F90FF81608093BF
:103EF0000C010C94351E80910C018E7F80930C0177
:103F00000C94351E0F931F93CF93DF93CDB7DEB77D
:103F100028970FB6F894DEBF0FBECDBF80910E017B
:103F20008F9380910D018F938EE791E09F938F93F4
:103F30001F9288E08F938E010F5F1F4F1F930F9387
:103F40000E94292FC8010E94040B0FB6F894DEBF0F
:103F50000FBECDBF28960FB6F894DEBF0FBECDBF03
:103F6000DF91CF911F910F910895CF92DF92EF9241
:103F7000FF921F93CF93DF93EC017B010E940727F1
:103F80006C01F7018281882309F458C080910C01EB
:103F900082FF07C046ED53E0B60190E080E00E944A
:103FA000CF1EC931FCE5DF0709F445C028F5C7314C
:103FB0008CE5D807B1F180910D0190910E01059724
:103FC000C831ECE5DE0791F1CE0190568115E0E2B3
:103FD0009E0720F0905E81159041F0F51092DD0370
:103FE0001092DC0311E0812FDF91CF911F91FF90A0
:103FF000EF90DF90CF900895CB31FCE5DF0759F0CB
:1040000038F0CC318CE5D807F9F60E947B1FDCCF65
:104010000E94711FD9CF80910C01816080930C01A7
:10402000D3CF80910D0190910E01059690930E01D2
:1040300080930D01C9CF0E94821FC6CF80910C01D1
:104040008F7EC13ED10531F0C53ED105A1F58091ED
:104050000C018F7D80930C0180910C0180FFC2CFF9
:10406000B701CE010E94551EF7011281882309F481
:104070006BC0112309F462C00E94CD14182F0E9456
:104080000015812B8D7F69F11092DD031092DC0306
:1040900060E0CE010E94911EA70160E0CE010E9467
:1040A0006C1E0E9400158D7F0E94061582E00E9402
:1040B0009B1510E098CFCE019056811520E2920713
:1040C00020F0905E8115904138F680910C0182FFBE
:1040D00089CF46ED53E0B60190E080E00E94CF1E0C
:1040E00081CF86E0F701A6EDB3E001900D928A95AD
:1040F000E1F71092D8031092DA031092D9030E94CC
:10410000CD14182F0E940015812B90910C0181FB7A
:1041100091F990930C010E9400158D7F0E94061565
:10412000D093DD03C093DC03D092DF03C092DE03A3
:1041300080910C01846080930C01B8CFA701B60177
:10414000CE010E94CF1E4FCF111148CF4BCF80918F
:1041500004011F928F93809105011F928F9380918C
:1041600008011F928F93809109011F928F93809174
:104170000A011F928F9380910B011F928F9381E60A
:1041800094E09F938F930E949E078DB79EB70E96E3
:104190000FB6F8949EBF0FBE8DBF0895883228F5E4
:1041A0008E3108F072C08B3041F130F4873009F461
:1041B000CFC080EC95E0E0C0833109F45FC084316A
:1041C000C1F782EE95E00E9405078091E403882301
:1041D00009F4FEC01092E4031092E3031092E2038C
:1041E0001092E1031092E00320C08F3409F4C7C09D
:1041F000D8F5893231F38833E1F685EE95E00E94F7
:1042000005070E94A7201F9281E08F931F9285E0EF
:104210008F938EED94E09F938F930E949E070F9053
:104220000F900F900F900F900F902091E403222396
:1042300009F4C9C08091E0039091E103009711F463
:1042400083E891E09F938F931F922F938EEA95E0DE
:104250009F938F930E949E070F900F900F900F9047
:104260000F900F9081E00895813509F49CC008F407
:104270009CC0823509F09DCF81E082C084ED95E03D
:104280000E9405070E94A720D0CF8D518093E403A0
:10429000833009F442C058F48130C1F08230A1F17A
:1042A0001092E40381ED95E00E9405071BC0853064
:1042B00009F445C0D8F1863099F784E091E09093F5
:1042C000E3038093E2038BEC91E008C08BE091E084
:1042D0009093E3038093E20387E891E09093E103F6
:1042E0008093E0038091E403882309F49ECF1F921A
:1042F0008F938DEC95E09F938F930E949E070F9074
:104300000F900F900F9091CF8AE091E09093E3038C
:104310008093E20380E991E0E1CF89E091E090931E
:10432000E3038093E2038CE991E0D8CF88E091E049
:104330009093E3038093E20389EA91E0CFCF85E095
:1043400091E09093E3038093E20388EB91E0C6CF82
:104350008EE180930B0182E380930A018AE08093CF
:10436000090184E18093080188E08093050188E2D7
:104370008093040183EC95E00E94050756CF8AE004
:10438000E091E203F091E3033097D1F02081082E11
:10439000000C990B820F911D8F3F910541F03CF06D
:1043A0008FEF808307C08FEFEBCF86EFE9CF97FFCA
:1043B000F8CF108280811F928F938AEB95E09BCF7C
:1043C00087EB95E0D9CF8AEA95E00E9405074ACFAE
:1043D00080E00895CF93C82F1F928F938BEF95E0C5
:1043E0009F938F930E949E0761E070E080E090E0D1
:1043F00004C0660F771F881F991FCA95D2F70E94C5
:104400007D0F0F900F900F900F90CF910C94240F71
:10441000DF92EF92FF920F931F93CF93DF93EBEF17
:10442000E80FEF3308F030C1F0E0EF59FD4C0C9489
:104430000F2F0E94FD151F928F9388E59AE09F939E
:104440008F930E949E070E94F91583FB992790F98C
:104450001F929F9382FB992790F91F929F9381FB54
:10446000992790F91F929F93982F91701F929F9375
:104470001F928F938FE09AE09F938F930E949E07E5
:104480000E94011687FB222720F91F922F9386FB9B
:10449000222720F91F922F9385FB222720F91F92B4
:1044A0002F9384FB222720F91F922F9383FB22272F
:1044B00020F91F922F9382FB222720F91F922F931E
:1044C00091FB222720F91F922F93292F21701F92F1
:1044D0002F9381FB222720F91F922F93282F2170E1
:1044E0001F922F939F938F938AE299E09F938F93CC
:1044F0000E949E078DB79EB788960FB6F8949EBF10
:104500000FBE8DBF81E01CC088E19BE00E940507C3
:104510000E949316F7CF88E797E00E940507F2CF35
:104520008091A803807F8093A80381E597E00E9493
:10453000050784E19BE00E94050781E08093E50385
:10454000DF91CF911F910F91FF90EF90DF90089531
:1045500088EF9AE00E9405070E94AB09D3CF9091A3
:10456000A803892F8E7F90FF81608093A80380FF2E
:1045700003C08CEE9AE0D1CF8FED9AE00E94050740
:104580008091A803817F8093A803BCCF9091A8035A
:10459000892F8D7F91FF82608093A80381FF08C0DF
:1045A00082ED9AE00E9405078091A8038160EBCF1D
:1045B00084EC9AE0B2CF9091A803892F8B7F92FF71
:1045C00084608093A80382FF03C085EB9AE0EACF62
:1045D00085EA9AE0A2CF9091A803892F877F93FF65
:1045E00088608093A80383FF03C089E99AE0DACF4B
:1045F0008CE89AE092CF84E896E08FCF0E94132750
:10460000062FF72EE82ED92EC0912804C7FBCC2701
:10461000C0F910912704D0911B010E94F724DF926A
:10462000EF92FF920F931F92CF931F921F931F92AF
:10463000DF931F928F9380E096E09F938F930E9469
:104640009E078DB79EB70E960FB6F8949EBF0FBE0D
:104650008DBF58CF0E94240F90912804892F97FB7B
:1046600087F980588093280487FF03C082E89AE086
:1046700054CF87E79AE051CF80E00E94EA2142CFF1
:104680008953FBCF8D51F9CF85E79AE00E9405074A
:1046900080E056CF80E008950C944A23CF93C82F32
:1046A0008091E5038130C1F0882339F0823009F42C
:1046B00044C01092E50380E00DC00E94CD14823208
:1046C000D1F78C2F0E944A2381111BC08C2F0E948E
:1046D00008228170CF9108950E94CD14823289F30F
:1046E0008C2F0E944C2381111BC0C431D9F060F47F
:1046F000CB3071F0C031D1F085EF95E00E94050715
:1047000013C081E090E0E5CFC93261F0C833A1F772
:1047100081E597E00E94050787EF95E00E94050775
:1047200081E0D7CF1092E50380E0D3CF82E0809381
:10473000E50388E30E94CE20F3CF8C2F0E94CE2089
:1047400081E0C8CFCF93DF93EB0186319C4511F513
:104750000E94CD149A81992399F08A7A91E009F404
:1047600090E09093E603811109C089E20E948314CE
:104770000E942C1580E0DF91CF91089585E3F6CF5C
:104780008091E603811104C089E20E948A14F0CF6F
:1047900085E3FBCF81E0EFCF089508958091F40386
:1047A000811114C00E94CC2381E08093F4030E9405
:1047B00007279093F3038093F2031092E703E8EE48
:1047C000F3E08AE0DF011D928A95E9F708951F93CF
:1047D000CF93DF93EC01FB011281111106C011E0B0
:1047E000812FDF91CF911F9108958091F403882349
:1047F00081F18091F2039091F3030E941F27843F7F
:10480000914068F7CE019056811520E2920720F082
:10481000905E8115904108F4DD278091E703853093
:1048200098F4E82FF0E0EE0FFF1FE851FC4FD18322
:10483000C0838F5F8093E7030E9407279093F30361
:104840008093F20310E0CCCF1092F4030E94CD23AA
:10485000F3CFC932DD4519F60E94CE23C1CF0F93A5
:104860001F93CF93DF93C42FD22FFC018281882323
:10487000C9F04093F7030E9407279093F6038093B3
:10488000F50380E28C0F883008F050C0C77081E0DB
:1048900001C0880FCA95EAF7DF91CF911F910F9160
:1048A0000C947D0C1091F703141335C08091F5031F
:1048B0009091F6030E941F27883C910560F5C0E2A5
:1048C000CD0F1D17B9F080E2810F883040F41770CA
:1048D00081E001C0880F1A95EAF70E94840CC83065
:1048E00048F481E09D2F977001C0880F9A95EAF7F0
:1048F0000E947D0C802F0E94750CC830B8F4D770D0
:1049000081E001C0880FDA95EAF7DF91CF911F911E
:104910000F910C94840C80E28C0F883038F4C770AF
:1049200081E001C0880FCA95EAF7EFCFDF91CF9100
:104930001F910F9108950F939C01CB01243F4CE5EB
:10494000340759F1A8F4293DFCE53F0701F12A3D60
:104950004CE53407D1F1283D3C4591F406E221EEC7
:1049600041EE68ED7CE50E942F2480E00F910895D0
:10497000263FFCE53F07E9F0B0F0273F3C45F9F062
:10498000FC018281882339F11092F703EFCF07E20F
:1049900025EE45EE69ED7CE5E6CF06E221EE40EE40
:1049A00064EF7CE5E0CF07E225EE44EE65EF7CE5C1
:1049B000DACF06E221EE42EE66EF7CE5D4CF07E2E5
:1049C00025EE46EE67EF7CE5CECF08E221E045EE2E
:1049D0006AED7CE5C8CF81E0C9CF9093F101809367
:1049E000F00108959093FD038093FC030895E091F6
:1049F000FC03F091FD03309721F00190F081E02D50
:104A0000099480E00895EF92FF920F931F93CF9344
:104A1000DF93EC01E091FC03F091FD03309709F482
:104A200046C080911B01882341F08091280487FFB4
:104A300004C08881898386E088830280F381E02D29
:104A4000CE0109958091A80382FF31C080FF04C088
:104A500081E39BE00E94050710E000E08BE2E82E76
:104A60008BE0F82E8091A80380FF0EC0FE01E00FBE
:104A7000F11F80811F928F93FF92EF920E949E07F9
:104A80000F900F900F900F900F5F1F4F0830110580
:104A900049F78091A80380FF0AC089E29BE0DF917B
:104AA000CF911F910F91FF90EF900C940507DF912C
:104AB000CF911F910F91FF90EF900895E091FC032B
:104AC000F091FD03309739F022E0DC012C93048053
:104AD000F581E02D099408952091FA033091FB03AC
:104AE0002817390771F09093FB038093FA03E09144
:104AF000FC03F091FD03309721F00680F781E02D53
:104B0000099408952091F8033091F9032817390783
:104B100071F09093F9038093F803E091FC03F09116
:104B2000FD03309721F00084F185E02D099408956C
:104B3000FC01329680911B01882321F0809128048A
:104B40009EE187FF96E080E0915008F4089521915E
:104B50002223D1F38F5FF8CF662301F120911B014F
:104B60002223F1F02091280427FF1AC0462F4695F2
:104B7000469546954E3190F4677021E030E002C0D2
:104B8000220F331F6A95E2F7840F911DFC01828189
:104B900090E02823392381E0232B69F480E00895F5
:104BA000FC01329608962191261721F0E817F907A3
:104BB000D1F7F4CF81E008959C01FC0132969FEF7C
:104BC00080E04191461751F09F3F19F4411101C017
:104BD000982F8F5F8630A9F79F3F09F40895290F1A
:104BE000311D97FD3A95F90162830895FC013296D3
:104BF00008962191261303C0DF0111971C92E81734
:104C0000F907B9F70895E62FE695E695E695EE31B2
:104C100070F4E80FF92FF11D677021E030E001C05A
:104C2000220F6A95EAF78281822B82830895809110
:104C3000A80380FF0CC01F926F9381E69BE09F93B7
:104C40008F930E949E070F900F900F900F900895E2
:104C5000E62FE695E695E695EE3178F4E80FF92F24
:104C6000F11D677021E030E001C0220F6A95EAF77C
:104C7000209582812823228308958091A80380FFB4
:104C80000CC01F926F9383E49BE09F938F930E94CD
:104C90009E070F900F900F900F90089520911B0189
:104CA000222329F02091280427FD0C9403260C943C
:104CB000DC2520911B01222329F02091280427FDC7
:104CC0000C9428260C94F625FC01329680911B0149
:104CD000882351F08091280487FF06C08EE1DF0110
:104CE0001D928A95E9F7089586E0F9CF08950C940E
:104CF0007626811105C081E08093FE030C9477260F
:104D000082E0FACF83E08093FE030C9477260C9424
:104D1000792681E08093FE030C9477260C948926F3
:104D2000089580913204843031F10E94A6091092D6
:104D3000FF0388E190E020E40FB6F894A8958093F3
:104D400060000FBE2093600083B7817F846083BFC3
:104D500083B7816083BF7894889583B78E7F83BF44
:104D60000FB6F894A89580916000886180936000E8
:104D7000109260000FBE089508950895CF930E9489
:104D8000BC260E94AE070E94BD26C0E08C2F0E9468
:104D90000C08892B31F4CF5FC530C1F780E0CF918B
:104DA000089581E0FCCF0E94240F0C94300A1F92DA
:104DB0001FB61F9211248F939F93AF93BF9380913F
:104DC000FF03811113C080912A0490912B04A091BC
:104DD0002C04B0912D044196A11DB11D80932A048D
:104DE00090932B04A0932C04B0932D04BF91AF910A
:104DF0009F918F911F901FBE1F90189582E084BDD8
:104E000093E095BD9AEF97BD80936E0008952FB7FC
:104E1000F89480912A0490912B04A0912C04B091D5
:104E20002D042FBF08952FB7F89460912A04709134
:104E30002B0480912C0490912D042FBF08959C0188
:104E40004FB7F89480912A0490912B04A0912C04E0
:104E5000B0912D044FBF821B930B089578941F923D
:104E60001FB61F9211248F939F93AF93BF9380918E
:104E70002A0490912B04A0912C04B0912D0401964A
:104E8000A11DB11D80932A0490932B04A0932C04A0
:104E9000B0932D04BF91AF919F918F911F901FBE32
:104EA0001F90189587E797E7909301088093000873
:104EB00088E19AE00FB6F894A895809360000FBE41
:104EC00090936000FFCF80912604089508959C017F
:104ED00082E08093E9009FEF8091E800915085FD8A
:104EE00006C085ED8A95F1F700009111F5CF80910C
:104EF000E80085FF0CC050E040E066E070E0C901CA
:104F00000E945F2A8091E8008E778093E8000895E0
:104F1000CF93DF93EC0180911B018823B1F1809145
:104F2000280487FF32C060E282E08093E9008FEFBF
:104F30009091E800815095FD06C095ED9A95F1F7A6
:104F400000008111F5CF8091E80085FF1BC08091A2
:104F50001B0170E050E040E0811104C050E040E0EF
:104F600068E070E0CE010E945F2A8091E8008E77B1
:104F70008093E80080E2FE01A6E0B4E001900D928B
:104F80008A95E1F7DF91CF91089568E081E0CDCF78
:104F900080930204709304046093030480913204AC
:104FA000843001F582E08093E9008FEF9091E80072
:104FB000815095FD06C095ED9A95F1F7000081119D
:104FC000F5CF8091E80085FF0DC050E040E063E040
:104FD00070E082E094E00E945F2A8091E8008E7782
:104FE0008093E8000895BC0184E00C94C827BC01BC
:104FF00083E00C94C82783E99BE00E940507809119
:105000003104811109C00E94EF2B0E944C2C809129
:10501000E20084608093E20008958FE89BE00E94A4
:1050200005071092310408958BE89BE00E94050764
:105030000C94892687E89BE00E94050760912E0466
:1050400081E0611101C080E00C94822683E89BE03E
:105050000E9405079091320481E0943009F080E0CD
:1050600060912E040C948726209101042F5F822FDB
:1050700062E30E94EF2E992319F020930104089512
:1050800010920104809105048823F1F0809132048C
:105090008430C1F49091E9009F702091EC00822F40
:1050A000817020FD80E8892B93E09093E900909136
:1050B000EB0090FF04C09091EE0097FD08C08F7048
:1050C0008093E9001092050408951092F1009091E8
:1050D000E80095FDFACF9091E80090FFF0CF909115
:1050E000E8009E779093E800EACF42E061EC81E02F
:1050F0000E946B2B42E261EC82E00E946B2B42E249
:1051000061EC83E00E946B2B9091320481E094303B
:1051100009F080E060912E040C947926809134048B
:10512000833009F460C030F48130C9F1823009F471
:105130009CC008958A3009F488C08B3009F46EC091
:10514000893009F04FC080913304813209F04AC0A0
:105150008091370490913804029708F043C0809101
:10516000E800877F8093E8008091E80082FF36C0E6
:105170009091F3008091F200029731F48091F10058
:10518000813011F0863021F48091F1008093260463
:105190008091E8008B778093E8000C949F2B80919E
:1051A0003304813AF9F48091E800877F8093E80026
:1051B0008091370490913804892B61F460E286E095
:1051C00094E070E00E94AE2A8091E8008B77809393
:1051D000E800089560E090E080E0F3CF8091320431
:1051E0008111C2CF089580913304813AD9F780911B
:1051F000370490913804892BA9F78091E800877FC4
:105200008093E8008091E80080FFFCCF80911B0133
:105210008093F1008091E8008E77BDCF80913304B8
:10522000813201F78091370490913804892BD1F6AF
:105230008091E800877F8093E8000E949F2B8091F7
:10524000350480931B010C94240F80913304813228
:1052500049F68091E800877F8093E8000E949F2BA9
:105260008091360480932704089580913304813A15
:1052700009F0B8CF8091E800877F8093E8008091A3
:10528000E80080FFFCCF80912704C2CF9FB7F8943D
:10529000109205049FBF90913204943009F048C0E9
:1052A0002091E9002F703091EC00932F917030FD28
:1052B00090E8922B23E02093E9002091EB0020FF5F
:1052C00034C02091EE0027FF30C02091000422233B
:1052D00021F02091E80025FF28C01092000426E06C
:1052E0003091E80035FF14C08093F1008091E80010
:1052F00085FD27C08091E80080FFFCCF8091E80009
:105300008E778093E8009F709093E90080E0089585
:1053100030913204343049F43091EB0035FD05C052
:10532000215041F481E0809300049F709093E90044
:105330008FEF0895EFE9FFE03197F1F700C000002B
:10534000CFCF8FB7F89421E0209305048FBFDBCF38
:1053500084B7877F84BF0FB6F894A89580916000CA
:10536000886180936000109260000FBE80E890E03A
:105370000FB6F89480936100909361000FBE0C9477
:105380008E260E94EF2B0E944C2CE2EEF0E08081F2
:105390008460808378940C94D42E8FE091E00C94F8
:1053A000F224809132048530C9F48FE79BE00E949B
:1053B000050780913204853011F00C94D3260E94A9
:1053C0009126809130048823A1F30E94BE26882371
:1053D00081F30E94492A0E94240FEBCF089508957B
:1053E0000C94F229292F33272330310521F168F459
:1053F0002130310509F443C02230310509F444C09D
:1054000090E080E030E020E026C02132310551F10B
:1054100022323105A9F76330710590F7FB01EE0FD9
:10542000FF1FED51FE4F2081318160527E4FFB0105
:10543000808190E010C099278130910581F000971C
:1054400029F00297E9F6E7E9FBE002C0E7EDFBE0AF
:10545000849190E09F01FA01318320830895E7EB66
:10546000FBE0F6CF6330710558F6660F771FFB013E
:10547000E751FE4F2081318189E090E0ECCF82E15D
:1054800090E026E33CE0E7CF8BE590E02BED3BE0BE
:10549000E2CF80E189BD82E189BD09B400FEFDCF84
:1054A0008091D8008F7D8093D8008091E000826049
:1054B0008093E0008091E00081FDFCCF0895AF92E1
:1054C000BF92CF92DF92FF920F931F93CF93DF9300
:1054D0006C01EB018A010E94BE2BF82E811123C0C2
:1054E0000115110539F0F80180819181C81BD90B94
:1054F000C80ED91EB12CA12C2097A9F08091E800EC
:1055000085FD22C08091E8008E778093E800011528
:105510001105A1F0F80180819181A80EB91EB18218
:10552000A08285E0F82E8F2DDF91CF911F910F91F2
:10553000FF90DF90CF90BF90AF9008950E94BE2B58
:105540008823D1F2F82EEFCFF60181916F0180937D
:10555000F1002197FFEFAF1ABF0ACECFFC01809177
:10556000390490913A0486179707A0F061157105E8
:1055700029F49091E8009E779093E80090E06115FF
:10558000710551F4911108C08091E80082FF34C088
:1055900080E00895BC01F2CF809132048823C1F1EC
:1055A0008530C1F18091E80083FD30C08091E80032
:1055B00082FDEACF8091E80080FFE1CF8091F30087
:1055C0002091F200382F6115710519F0283031054E
:1055D00058F091E02830310509F090E02091E80082
:1055E0002E772093E800CBCF81918093F10061501A
:1055F00071092F5F3F4FE7CF80913204882341F03C
:10560000853041F08091E80083FFBECF81E00895AE
:1056100082E0089583E00895FC018091390490911F
:105620003A0486179707A0F06115710529F4809157
:10563000E8008E778093E80090E06115710551F4E1
:10564000911108C08091E80082FF35C080E0089584
:10565000BC01F2CF809132048823C9F18530C9F1B1
:105660008091E80083FD31C08091E80082FDEACF9F
:105670008091E80080FFE1CF8091F3002091F2005B
:10568000382F6115710519F02830310558F091E077
:105690002830310509F090E08091E8008E77809302
:1056A000E800CBCF84918093F1003196615071096D
:1056B0002F5F3F4FE6CF80913204882341F0853041
:1056C00041F08091E80083FFBDCF81E0089582E042
:1056D000089583E00895982F973028F08F70809375
:1056E000E90081E008959093E900242F762F50E09F
:1056F000981731F07091EC002091ED005091F0007E
:1057000021FD02C09F5FE8CF3091EB003E7F3093D8
:10571000EB003091ED003D7F3093ED003091EB00D8
:1057200031603093EB007093EC002093ED005093C8
:10573000F0002091EE0027FDE5CF80E008958091F4
:10574000330487FF13C08091E80082FF06C0809178
:10575000E8008B778093E80004C0809132048111C7
:10576000F2CF0895809132048823D9F38091E80024
:1057700080FFF8CF8091E8008E77ECCF2091E40095
:105780003091E50095E6A9012091EC00822F81700F
:1057900020FF06C08091E80080FF06C080E00895E9
:1057A0002091E80022FD1AC080913204882389F0FC
:1057B000853089F08091EB0085FD0FC02091E400D9
:1057C0003091E50042175307F9F29150E1F684E079
:1057D000089582E0089583E0089581E008950E948D
:1057E0005D2C0E94652CE0EEF0E08081816080837A
:1057F000E8EDF0E080818F77808319BCA7EDB0E001
:105800008C918E7F8C9380818F7E80831092310467
:1058100008950F931F93CF93DF930E945D2C0E94F6
:10582000652CC8EDD0E088818F7788838881806877
:10583000888388818F7D888319BC109232041092EE
:105840002E041092300410922F0400EE10E0F801A4
:1058500080818B7F808388818160888342E060E0E3
:1058600080E00E946B2BE1EEF0E080818E7F8083F0
:10587000E2EEF0E0808181608083808188608083B7
:10588000F80180818E7F8083888180618883DF91A9
:10589000CF911F910F910895E8EDF0E080818F7E08
:1058A0008083E7EDF0E080818160808384E082BFC7
:1058B00081E0809331040C94092CE8EDF0E08081C4
:1058C0008E7F80831092E20008951092DA00109289
:1058D000E10008951F920F920FB60F9211242F939B
:1058E0003F934F935F936F937F938F939F93AF9368
:1058F000BF93EF93FF938091E10082FF0BC08091F3
:10590000E20082FF07C08091E1008B7F8093E1007D
:105910000E9434288091DA0080FF19C08091D8005D
:1059200080FF15C08091DA008E7F8093DA0080912D
:10593000D90080FF96C080E189BD82E189BD09B4AC
:1059400000FEFDCF81E0809332040E94FB2780910E
:10595000E10080FF19C08091E20080FF15C08091B6
:10596000E2008E7F8093E2008091E200806180936C
:10597000E2008091D80080628093D80019BC85E055
:10598000809332040E941A288091E10084FF2BC08A
:105990008091E20084FF27C080E189BD82E189BD5A
:1059A00089B5982F917080FFFBCF8091D8008F7DB3
:1059B0008093D8008091E1008F7E8093E1008091F8
:1059C000E2008F7E8093E2008091E200816080930C
:1059D000E20080912E04882309F449C084E080937A
:1059E00032040E9426288091E10083FF29C0809123
:1059F000E20083FF25C08091E100877F8093E10072
:105A000082E08093320410922E048091E1008E7F18
:105A10008093E1008091E2008E7F8093E20080918C
:105A2000E20080618093E20042E060E080E00E945A
:105A30006B2B8091F00088608093F0000E94142806
:105A4000FF91EF91BF91AF919F918F917F916F9156
:105A50005F914F913F912F910F900FBE0F901F902C
:105A6000189519BC109232040E940D2870CF8091B5
:105A7000E30087FD93E090933204B3CF1F920F921F
:105A80000FB60F9211242F933F934F935F936F9311
:105A90007F938F939F93AF93BF93CF93DF93EF93B6
:105AA000FF93D091E900DF708091EC00C82FC170A6
:105AB00080FDC0E81092E9008091F000877F80931C
:105AC000F00078940E94822D1092E9008091F000FD
:105AD00088608093F000CD2BCF70C093E900FF91D8
